{
  "_format": "hh-sol-artifact-1",
  "contractName": "BankManager",
  "sourceName": "contracts/BankManager.sol",
  "abi": [
    {
      "inputs": [],
      "stateMutability": "nonpayable",
      "type": "constructor"
    },
    {
      "anonymous": false,
      "inputs": [
        {
          "indexed": true,
          "internalType": "address",
          "name": "account",
          "type": "address"
        },
        {
          "indexed": false,
          "internalType": "uint256",
          "name": "amount",
          "type": "uint256"
        }
      ],
      "name": "Burn",
      "type": "event"
    },
    {
      "anonymous": false,
      "inputs": [
        {
          "indexed": true,
          "internalType": "address",
          "name": "account",
          "type": "address"
        },
        {
          "indexed": false,
          "internalType": "uint256",
          "name": "amount",
          "type": "uint256"
        }
      ],
      "name": "Mint",
      "type": "event"
    },
    {
      "anonymous": false,
      "inputs": [
        {
          "indexed": true,
          "internalType": "address",
          "name": "from",
          "type": "address"
        },
        {
          "indexed": true,
          "internalType": "address",
          "name": "to",
          "type": "address"
        }
      ],
      "name": "Transfer",
      "type": "event"
    },
    {
      "inputs": [
        {
          "internalType": "address",
          "name": "user",
          "type": "address"
        },
        {
          "internalType": "address",
          "name": "tokenAddress",
          "type": "address"
        }
      ],
      "name": "balanceOf",
      "outputs": [
        {
          "internalType": "uint256",
          "name": "",
          "type": "uint256"
        }
      ],
      "stateMutability": "view",
      "type": "function"
    },
    {
      "inputs": [
        {
          "internalType": "address",
          "name": "tokenAddress",
          "type": "address"
        },
        {
          "internalType": "uint256",
          "name": "amount",
          "type": "uint256"
        }
      ],
      "name": "burn",
      "outputs": [],
      "stateMutability": "nonpayable",
      "type": "function"
    },
    {
      "inputs": [
        {
          "internalType": "address",
          "name": "tokenAddress",
          "type": "address"
        },
        {
          "internalType": "address",
          "name": "to",
          "type": "address"
        },
        {
          "internalType": "uint256",
          "name": "amount",
          "type": "uint256"
        }
      ],
      "name": "mint",
      "outputs": [],
      "stateMutability": "nonpayable",
      "type": "function"
    },
    {
      "inputs": [
        {
          "internalType": "address",
          "name": "from",
          "type": "address"
        },
        {
          "internalType": "address",
          "name": "tokenAddress",
          "type": "address"
        },
        {
          "internalType": "address",
          "name": "recipient",
          "type": "address"
        },
        {
          "internalType": "uint256",
          "name": "amount",
          "type": "uint256"
        }
      ],
      "name": "transfer",
      "outputs": [],
      "stateMutability": "nonpayable",
      "type": "function"
    }
  ],
  "bytecode": "0x608060405234801561001057600080fd5b50336000806101000a81548173ffffffffffffffffffffffffffffffffffffffff021916908373ffffffffffffffffffffffffffffffffffffffff160217905550610ebb806100606000396000f3fe608060405234801561001057600080fd5b506004361061004c5760003560e01c80639dc29fac14610051578063c6c3bbe61461006d578063f18d03cc14610089578063f7888aec146100a5575b600080fd5b61006b600480360381019061006691906109c3565b6100d5565b005b61008760048036038101906100829190610a03565b610326565b005b6100a3600480360381019061009e9190610a56565b6104b9565b005b6100bf60048036038101906100ba9190610abd565b6107de565b6040516100cc9190610b0c565b60405180910390f35b60008054906101000a900473ffffffffffffffffffffffffffffffffffffffff1673ffffffffffffffffffffffffffffffffffffffff163373ffffffffffffffffffffffffffffffffffffffff1614610163576040517f08c379a000000000000000000000000000000000000000000000000000000000815260040161015a90610baa565b60405180910390fd5b80600160003073ffffffffffffffffffffffffffffffffffffffff1673ffffffffffffffffffffffffffffffffffffffff16815260200190815260200160002060008473ffffffffffffffffffffffffffffffffffffffff1673ffffffffffffffffffffffffffffffffffffffff168152602001908152602001600020541015610222576040517f08c379a000000000000000000000000000000000000000000000000000000000815260040161021990610c16565b60405180910390fd5b8173ffffffffffffffffffffffffffffffffffffffff16639dc29fac30836040518363ffffffff1660e01b815260040161025d929190610c45565b600060405180830381600087803b15801561027757600080fd5b505af115801561028b573d6000803e3d6000fd5b5050505080600160003073ffffffffffffffffffffffffffffffffffffffff1673ffffffffffffffffffffffffffffffffffffffff16815260200190815260200160002060008473ffffffffffffffffffffffffffffffffffffffff1673ffffffffffffffffffffffffffffffffffffffff168152602001908152602001600020600082825461031b9190610c9d565b925050819055505050565b60008054906101000a900473ffffffffffffffffffffffffffffffffffffffff1673ffffffffffffffffffffffffffffffffffffffff163373ffffffffffffffffffffffffffffffffffffffff16146103b4576040517f08c379a00000000000000000000000000000000000000000000000000000000081526004016103ab90610baa565b60405180910390fd5b8273ffffffffffffffffffffffffffffffffffffffff166340c10f1983836040518363ffffffff1660e01b81526004016103ef929190610c45565b600060405180830381600087803b15801561040957600080fd5b505af115801561041d573d6000803e3d6000fd5b5050505080600160008473ffffffffffffffffffffffffffffffffffffffff1673ffffffffffffffffffffffffffffffffffffffff16815260200190815260200160002060008573ffffffffffffffffffffffffffffffffffffffff1673ffffffffffffffffffffffffffffffffffffffff16815260200190815260200160002060008282546104ad9190610cd1565b92505081905550505050565b6105746040518060400160405280600b81526020017f6d73672062616c616e6365000000000000000000000000000000000000000000815250600160008773ffffffffffffffffffffffffffffffffffffffff1673ffffffffffffffffffffffffffffffffffffffff16815260200190815260200160002060008673ffffffffffffffffffffffffffffffffffffffff1673ffffffffffffffffffffffffffffffffffffffff16815260200190815260200160002054610865565b80600160008673ffffffffffffffffffffffffffffffffffffffff1673ffffffffffffffffffffffffffffffffffffffff16815260200190815260200160002060008573ffffffffffffffffffffffffffffffffffffffff1673ffffffffffffffffffffffffffffffffffffffff168152602001908152602001600020541015610633576040517f08c379a000000000000000000000000000000000000000000000000000000000815260040161062a90610d51565b60405180910390fd5b8273ffffffffffffffffffffffffffffffffffffffff1663a9059cbb83836040518363ffffffff1660e01b815260040161066e929190610c45565b6020604051808303816000875af115801561068d573d6000803e3d6000fd5b505050506040513d601f19601f820116820180604052508101906106b19190610da9565b5080600160008673ffffffffffffffffffffffffffffffffffffffff1673ffffffffffffffffffffffffffffffffffffffff16815260200190815260200160002060008573ffffffffffffffffffffffffffffffffffffffff1673ffffffffffffffffffffffffffffffffffffffff168152602001908152602001600020600082825461073e9190610c9d565b9250508190555080600160008473ffffffffffffffffffffffffffffffffffffffff1673ffffffffffffffffffffffffffffffffffffffff16815260200190815260200160002060008573ffffffffffffffffffffffffffffffffffffffff1673ffffffffffffffffffffffffffffffffffffffff16815260200190815260200160002060008282546107d19190610cd1565b9250508190555050505050565b6000600160008473ffffffffffffffffffffffffffffffffffffffff1673ffffffffffffffffffffffffffffffffffffffff16815260200190815260200160002060008373ffffffffffffffffffffffffffffffffffffffff1673ffffffffffffffffffffffffffffffffffffffff16815260200190815260200160002054905092915050565b6108fd828260405160240161087b929190610e55565b6040516020818303038152906040527fb60e72cc000000000000000000000000000000000000000000000000000000007bffffffffffffffffffffffffffffffffffffffffffffffffffffffff19166020820180517bffffffffffffffffffffffffffffffffffffffffffffffffffffffff8381831617835250505050610901565b5050565b60008151905060006a636f6e736f6c652e6c6f679050602083016000808483855afa5050505050565b600080fd5b600073ffffffffffffffffffffffffffffffffffffffff82169050919050565b600061095a8261092f565b9050919050565b61096a8161094f565b811461097557600080fd5b50565b60008135905061098781610961565b92915050565b6000819050919050565b6109a08161098d565b81146109ab57600080fd5b50565b6000813590506109bd81610997565b92915050565b600080604083850312156109da576109d961092a565b5b60006109e885828601610978565b92505060206109f9858286016109ae565b9150509250929050565b600080600060608486031215610a1c57610a1b61092a565b5b6000610a2a86828701610978565b9350506020610a3b86828701610978565b9250506040610a4c868287016109ae565b9150509250925092565b60008060008060808587031215610a7057610a6f61092a565b5b6000610a7e87828801610978565b9450506020610a8f87828801610978565b9350506040610aa087828801610978565b9250506060610ab1878288016109ae565b91505092959194509250565b60008060408385031215610ad457610ad361092a565b5b6000610ae285828601610978565b9250506020610af385828601610978565b9150509250929050565b610b068161098d565b82525050565b6000602082019050610b216000830184610afd565b92915050565b600082825260208201905092915050565b7f4f6e6c792074686520636f6e7472616374206f776e65722063616e2063616c6c60008201527f20746869732066756e6374696f6e000000000000000000000000000000000000602082015250565b6000610b94602e83610b27565b9150610b9f82610b38565b604082019050919050565b60006020820190508181036000830152610bc381610b87565b9050919050565b7f4e6f7420656e6f75676820746f6b656e7320746f206275726e00000000000000600082015250565b6000610c00601983610b27565b9150610c0b82610bca565b602082019050919050565b60006020820190508181036000830152610c2f81610bf3565b9050919050565b610c3f8161094f565b82525050565b6000604082019050610c5a6000830185610c36565b610c676020830184610afd565b9392505050565b7f4e487b7100000000000000000000000000000000000000000000000000000000600052601160045260246000fd5b6000610ca88261098d565b9150610cb38361098d565b9250828203905081811115610ccb57610cca610c6e565b5b92915050565b6000610cdc8261098d565b9150610ce78361098d565b9250828201905080821115610cff57610cfe610c6e565b5b92915050565b7f4e6f7420656e6f7567682066756e647320746f207472616e7366657200000000600082015250565b6000610d3b601c83610b27565b9150610d4682610d05565b602082019050919050565b60006020820190508181036000830152610d6a81610d2e565b9050919050565b60008115159050919050565b610d8681610d71565b8114610d9157600080fd5b50565b600081519050610da381610d7d565b92915050565b600060208284031215610dbf57610dbe61092a565b5b6000610dcd84828501610d94565b91505092915050565b600081519050919050565b60005b83811015610dff578082015181840152602081019050610de4565b60008484015250505050565b6000601f19601f8301169050919050565b6000610e2782610dd6565b610e318185610b27565b9350610e41818560208601610de1565b610e4a81610e0b565b840191505092915050565b60006040820190508181036000830152610e6f8185610e1c565b9050610e7e6020830184610afd565b939250505056fea2646970667358221220bb2891d450ea7728db7835653a4b1fdf86f490ece01b61f3d4614f3cbaab9ac864736f6c63430008110033",
  "linkReferences": {},
  "deployedLinkReferences": {}
}