{
  "_format": "hh-sol-artifact-1",
  "contractName": "BatchTaskVoting",
  "sourceName": "contracts/BatchTaskVoting.sol",
  "abi": [
    {
      "anonymous": false,
      "inputs": [
        {
          "indexed": true,
          "internalType": "uint256",
          "name": "pollId",
          "type": "uint256"
        },
        {
          "indexed": false,
          "internalType": "enum IBatchTaskVoting.POLL_STATE",
          "name": "pollState",
          "type": "uint8"
        },
        {
          "components": [
            {
              "internalType": "uint256",
              "name": "batchTaskId",
              "type": "uint256"
            },
            {
              "internalType": "int256",
              "name": "result",
              "type": "int256"
            },
            {
              "internalType": "address[]",
              "name": "voters",
              "type": "address[]"
            }
          ],
          "indexed": false,
          "internalType": "struct IBatchTaskVoting.BatchTaskVoting",
          "name": "batchWinVote",
          "type": "tuple"
        },
        {
          "indexed": false,
          "internalType": "uint256",
          "name": "endTime",
          "type": "uint256"
        }
      ],
      "name": "EndVote",
      "type": "event"
    },
    {
      "anonymous": false,
      "inputs": [
        {
          "indexed": true,
          "internalType": "uint256",
          "name": "pollId",
          "type": "uint256"
        },
        {
          "indexed": false,
          "internalType": "enum IBatchTaskVoting.POLL_STATE",
          "name": "pollState",
          "type": "uint8"
        },
        {
          "components": [
            {
              "internalType": "uint256",
              "name": "batchTaskId",
              "type": "uint256"
            },
            {
              "internalType": "int256",
              "name": "result",
              "type": "int256"
            },
            {
              "internalType": "address[]",
              "name": "voters",
              "type": "address[]"
            }
          ],
          "indexed": false,
          "internalType": "struct IBatchTaskVoting.BatchTaskVoting",
          "name": "batchTaskAuction",
          "type": "tuple"
        },
        {
          "indexed": false,
          "internalType": "uint256",
          "name": "time",
          "type": "uint256"
        }
      ],
      "name": "InitBatchTaskAuction",
      "type": "event"
    },
    {
      "anonymous": false,
      "inputs": [
        {
          "indexed": false,
          "internalType": "string",
          "name": "notify",
          "type": "string"
        }
      ],
      "name": "Notify",
      "type": "event"
    },
    {
      "anonymous": false,
      "inputs": [
        {
          "indexed": true,
          "internalType": "uint256",
          "name": "_pollId",
          "type": "uint256"
        },
        {
          "indexed": false,
          "internalType": "uint256[]",
          "name": "_batchTaskID",
          "type": "uint256[]"
        },
        {
          "indexed": false,
          "internalType": "uint256",
          "name": "_voteDuration",
          "type": "uint256"
        },
        {
          "indexed": false,
          "internalType": "enum IBatchTaskVoting.POLL_STATE",
          "name": "_pollState",
          "type": "uint8"
        },
        {
          "indexed": false,
          "internalType": "uint256",
          "name": "timeStart",
          "type": "uint256"
        }
      ],
      "name": "OpenForVote",
      "type": "event"
    },
    {
      "anonymous": false,
      "inputs": [
        {
          "indexed": true,
          "internalType": "address",
          "name": "previousOwner",
          "type": "address"
        },
        {
          "indexed": true,
          "internalType": "address",
          "name": "newOwner",
          "type": "address"
        }
      ],
      "name": "OwnershipTransferred",
      "type": "event"
    },
    {
      "anonymous": false,
      "inputs": [
        {
          "indexed": true,
          "internalType": "uint256",
          "name": "_pollId",
          "type": "uint256"
        },
        {
          "components": [
            {
              "internalType": "uint256",
              "name": "batchTaskId",
              "type": "uint256"
            },
            {
              "internalType": "int256",
              "name": "result",
              "type": "int256"
            },
            {
              "internalType": "address[]",
              "name": "voters",
              "type": "address[]"
            }
          ],
          "indexed": false,
          "internalType": "struct IBatchTaskVoting.BatchTaskVoting",
          "name": "batchTaskVoted",
          "type": "tuple"
        },
        {
          "indexed": false,
          "internalType": "uint256",
          "name": "voteTime",
          "type": "uint256"
        },
        {
          "indexed": true,
          "internalType": "address",
          "name": "voter",
          "type": "address"
        }
      ],
      "name": "VoteOnBatchTask",
      "type": "event"
    },
    {
      "inputs": [
        {
          "internalType": "uint256",
          "name": "",
          "type": "uint256"
        }
      ],
      "name": "batchTaskIdToBatchTaskVoting",
      "outputs": [
        {
          "internalType": "uint256",
          "name": "batchTaskId",
          "type": "uint256"
        },
        {
          "internalType": "int256",
          "name": "result",
          "type": "int256"
        }
      ],
      "stateMutability": "view",
      "type": "function"
    },
    {
      "inputs": [
        {
          "internalType": "uint256",
          "name": "",
          "type": "uint256"
        },
        {
          "internalType": "uint256",
          "name": "",
          "type": "uint256"
        }
      ],
      "name": "batchTaskIdToPollIdToPreviousResult",
      "outputs": [
        {
          "internalType": "int256",
          "name": "",
          "type": "int256"
        }
      ],
      "stateMutability": "view",
      "type": "function"
    },
    {
      "inputs": [
        {
          "internalType": "uint256",
          "name": "",
          "type": "uint256"
        }
      ],
      "name": "batchTasks",
      "outputs": [
        {
          "internalType": "uint256",
          "name": "batchTaskId",
          "type": "uint256"
        },
        {
          "internalType": "int256",
          "name": "result",
          "type": "int256"
        }
      ],
      "stateMutability": "view",
      "type": "function"
    },
    {
      "inputs": [],
      "name": "endVote",
      "outputs": [],
      "stateMutability": "nonpayable",
      "type": "function"
    },
    {
      "inputs": [
        {
          "internalType": "uint256",
          "name": "_pollID",
          "type": "uint256"
        }
      ],
      "name": "getAllBatchTaskVoting",
      "outputs": [
        {
          "components": [
            {
              "internalType": "uint256",
              "name": "batchTaskId",
              "type": "uint256"
            },
            {
              "internalType": "int256",
              "name": "result",
              "type": "int256"
            },
            {
              "internalType": "address[]",
              "name": "voters",
              "type": "address[]"
            }
          ],
          "internalType": "struct IBatchTaskVoting.BatchTaskVoting[]",
          "name": "",
          "type": "tuple[]"
        }
      ],
      "stateMutability": "view",
      "type": "function"
    },
    {
      "inputs": [],
      "name": "getAllPollVoting",
      "outputs": [
        {
          "components": [
            {
              "internalType": "uint256",
              "name": "pollId",
              "type": "uint256"
            },
            {
              "internalType": "uint256",
              "name": "voteDuration",
              "type": "uint256"
            },
            {
              "internalType": "uint256",
              "name": "startTime",
              "type": "uint256"
            },
            {
              "internalType": "uint256[]",
              "name": "batchTaskIds",
              "type": "uint256[]"
            },
            {
              "internalType": "enum IBatchTaskVoting.POLL_STATE",
              "name": "pollState",
              "type": "uint8"
            }
          ],
          "internalType": "struct IBatchTaskVoting.PollVoting[]",
          "name": "",
          "type": "tuple[]"
        }
      ],
      "stateMutability": "view",
      "type": "function"
    },
    {
      "inputs": [
        {
          "internalType": "uint256",
          "name": "_pollId",
          "type": "uint256"
        },
        {
          "internalType": "uint256",
          "name": "_voteDuration",
          "type": "uint256"
        },
        {
          "internalType": "uint256[]",
          "name": "_batchTaskids",
          "type": "uint256[]"
        }
      ],
      "name": "openPollForVote",
      "outputs": [],
      "stateMutability": "nonpayable",
      "type": "function"
    },
    {
      "inputs": [],
      "name": "owner",
      "outputs": [
        {
          "internalType": "address",
          "name": "",
          "type": "address"
        }
      ],
      "stateMutability": "view",
      "type": "function"
    },
    {
      "inputs": [
        {
          "internalType": "uint256",
          "name": "",
          "type": "uint256"
        }
      ],
      "name": "pollIdToPoll",
      "outputs": [
        {
          "internalType": "uint256",
          "name": "pollId",
          "type": "uint256"
        },
        {
          "internalType": "uint256",
          "name": "voteDuration",
          "type": "uint256"
        },
        {
          "internalType": "uint256",
          "name": "startTime",
          "type": "uint256"
        },
        {
          "internalType": "enum IBatchTaskVoting.POLL_STATE",
          "name": "pollState",
          "type": "uint8"
        }
      ],
      "stateMutability": "view",
      "type": "function"
    },
    {
      "inputs": [
        {
          "internalType": "uint256",
          "name": "",
          "type": "uint256"
        },
        {
          "internalType": "address",
          "name": "",
          "type": "address"
        }
      ],
      "name": "pollIdToVoterToPreviousVote",
      "outputs": [
        {
          "internalType": "uint256",
          "name": "",
          "type": "uint256"
        }
      ],
      "stateMutability": "view",
      "type": "function"
    },
    {
      "inputs": [
        {
          "internalType": "uint256",
          "name": "",
          "type": "uint256"
        },
        {
          "internalType": "address",
          "name": "",
          "type": "address"
        }
      ],
      "name": "pollIdToVoterToVoted",
      "outputs": [
        {
          "internalType": "bool",
          "name": "",
          "type": "bool"
        }
      ],
      "stateMutability": "view",
      "type": "function"
    },
    {
      "inputs": [
        {
          "internalType": "uint256",
          "name": "",
          "type": "uint256"
        }
      ],
      "name": "pollVotings",
      "outputs": [
        {
          "internalType": "uint256",
          "name": "pollId",
          "type": "uint256"
        },
        {
          "internalType": "uint256",
          "name": "voteDuration",
          "type": "uint256"
        },
        {
          "internalType": "uint256",
          "name": "startTime",
          "type": "uint256"
        },
        {
          "internalType": "enum IBatchTaskVoting.POLL_STATE",
          "name": "pollState",
          "type": "uint8"
        }
      ],
      "stateMutability": "view",
      "type": "function"
    },
    {
      "inputs": [],
      "name": "renounceOwnership",
      "outputs": [],
      "stateMutability": "nonpayable",
      "type": "function"
    },
    {
      "inputs": [
        {
          "internalType": "address",
          "name": "_taskManagerAddress",
          "type": "address"
        }
      ],
      "name": "setTaskManager",
      "outputs": [],
      "stateMutability": "nonpayable",
      "type": "function"
    },
    {
      "inputs": [],
      "name": "taskManager",
      "outputs": [
        {
          "internalType": "contract ITaskManager",
          "name": "",
          "type": "address"
        }
      ],
      "stateMutability": "view",
      "type": "function"
    },
    {
      "inputs": [
        {
          "internalType": "address",
          "name": "newOwner",
          "type": "address"
        }
      ],
      "name": "transferOwnership",
      "outputs": [],
      "stateMutability": "nonpayable",
      "type": "function"
    },
    {
      "inputs": [
        {
          "internalType": "uint256",
          "name": "_batchTaskID",
          "type": "uint256"
        },
        {
          "internalType": "uint256",
          "name": "_pollId",
          "type": "uint256"
        }
      ],
      "name": "voteOnBatchTask",
      "outputs": [],
      "stateMutability": "nonpayable",
      "type": "function"
    }
  ],
  "bytecode": "0x60806040523480156200001157600080fd5b5062000032620000266200003860201b60201c565b6200004060201b60201c565b62000104565b600033905090565b60008060009054906101000a900473ffffffffffffffffffffffffffffffffffffffff169050816000806101000a81548173ffffffffffffffffffffffffffffffffffffffff021916908373ffffffffffffffffffffffffffffffffffffffff1602179055508173ffffffffffffffffffffffffffffffffffffffff168173ffffffffffffffffffffffffffffffffffffffff167f8be0079c531659141344cd1fd0a4f28419497f9722a3daafe3b4186f6b6457e060405160405180910390a35050565b612e9980620001146000396000f3fe608060405234801561001057600080fd5b506004361061010b5760003560e01c80636d46cb60116100a2578063b1ed87de11610071578063b1ed87de146102d2578063b9223946146102ee578063e73fe55f146102f8578063f2fde38b14610329578063f535d117146103455761010b565b80636d46cb601461026e578063715018a61461028c5780638da5cb5b14610296578063a50a640e146102b45761010b565b8063275bc4d5116100de578063275bc4d5146101d6578063327d0a60146101f257806341471b731461020e5780636b17e95d1461023e5761010b565b80631740ddc5146101105780631f6ec3301461014057806323f19353146101735780632425795a146101a3575b600080fd5b61012a60048036038101906101259190611d25565b610376565b6040516101379190611d74565b60405180910390f35b61015a60048036038101906101559190611d8f565b61039b565b60405161016a9493929190611e33565b60405180910390f35b61018d60048036038101906101889190611d25565b6103e8565b60405161019a9190611e93565b60405180910390f35b6101bd60048036038101906101b89190611d8f565b610417565b6040516101cd9493929190611e33565b60405180910390f35b6101f060048036038101906101eb9190611eae565b610454565b005b61020c60048036038101906102079190611eee565b610c2b565b005b61022860048036038101906102239190611d8f565b610c77565b6040516102359190612113565b60405180910390f35b61025860048036038101906102539190611eae565b610e3b565b6040516102659190612144565b60405180910390f35b610276610e60565b6040516102839190612355565b60405180910390f35b610294610fe3565b005b61029e610ff7565b6040516102ab9190612386565b60405180910390f35b6102bc611020565b6040516102c99190612400565b60405180910390f35b6102ec60048036038101906102e79190612574565b611046565b005b6102f6611393565b005b610312600480360381019061030d9190611d8f565b611902565b6040516103209291906125e3565b60405180910390f35b610343600480360381019061033e9190611eee565b611926565b005b61035f600480360381019061035a9190611d8f565b6119a9565b60405161036d9291906125e3565b60405180910390f35b6006602052816000526040600020602052806000526040600020600091509150505481565b600481815481106103ab57600080fd5b90600052602060002090600502016000915090508060000154908060010154908060020154908060040160009054906101000a900460ff16905084565b60056020528160005260406000206020528060005260406000206000915091509054906101000a900460ff1681565b60036020528060005260406000206000915090508060000154908060010154908060020154908060040160009054906101000a900460ff16905084565b60018160006003600083815260200190815260200160002060000154036104b0576040517f08c379a00000000000000000000000000000000000000000000000000000000081526004016104a790612669565b60405180910390fd5b8160028111156104c3576104c2611dbc565b5b6003600083815260200190815260200160002060040160009054906101000a900460ff1660028111156104f9576104f8611dbc565b5b14610539576040517f08c379a0000000000000000000000000000000000000000000000000000000008152600401610530906126d5565b60405180910390fd5b6000600260008681526020019081526020016000206000015403610592576040517f08c379a000000000000000000000000000000000000000000000000000000000815260040161058990612741565b60405180910390fd5b600360008481526020019081526020016000206002015442101580156105ef5750600360008481526020019081526020016000206001015460036000858152602001908152602001600020600201546105eb9190612790565b4211155b61062e576040517f08c379a000000000000000000000000000000000000000000000000000000000815260040161062590612810565b60405180910390fd5b600115156005600085815260200190815260200160002060003373ffffffffffffffffffffffffffffffffffffffff1673ffffffffffffffffffffffffffffffffffffffff16815260200190815260200160002060009054906101000a900460ff1615150361080557836006600085815260200190815260200160002060003373ffffffffffffffffffffffffffffffffffffffff1673ffffffffffffffffffffffffffffffffffffffff1681526020019081526020016000205403610729576040517f08c379a00000000000000000000000000000000000000000000000000000000081526004016107209061287c565b60405180910390fd5b60005b600360008581526020019081526020016000206003018054905081101561080357600760006003600087815260200190815260200160002060030183815481106107795761077861289c565b5b90600052602060002001548152602001908152602001600020600085815260200190815260200160002054600260006003600088815260200190815260200160002060030184815481106107d0576107cf61289c565b5b906000526020600020015481526020019081526020016000206001018190555080806107fb906128cb565b91505061072c565b505b60005b6003600085815260200190815260200160002060030180549050811015610b0357600115156005600086815260200190815260200160002060003373ffffffffffffffffffffffffffffffffffffffff1673ffffffffffffffffffffffffffffffffffffffff16815260200190815260200160002060009054906101000a900460ff1615151461093c57600260006003600087815260200190815260200160002060030183815481106108be576108bd61289c565b5b90600052602060002001548152602001908152602001600020600201339080600181540180825580915050600190039060005260206000200160009091909190916101000a81548173ffffffffffffffffffffffffffffffffffffffff021916908373ffffffffffffffffffffffffffffffffffffffff1602179055505b600260006003600087815260200190815260200160002060030183815481106109685761096761289c565b5b9060005260206000200154815260200190815260200160002060010154600760006003600088815260200190815260200160002060030184815481106109b1576109b061289c565b5b906000526020600020015481526020019081526020016000206000868152602001908152602001600020819055508460026000600360008881526020019081526020016000206003018481548110610a0c57610a0b61289c565b5b906000526020600020015481526020019081526020016000206000015414610a915760026000600360008781526020019081526020016000206003018381548110610a5a57610a5961289c565b5b906000526020600020015481526020019081526020016000206001016000815480929190610a8790612913565b9190505550610af0565b60026000600360008781526020019081526020016000206003018381548110610abd57610abc61289c565b5b906000526020600020015481526020019081526020016000206001016000815480929190610aea9061295b565b91905055505b8080610afb906128cb565b915050610808565b50836006600085815260200190815260200160002060003373ffffffffffffffffffffffffffffffffffffffff1673ffffffffffffffffffffffffffffffffffffffff1681526020019081526020016000208190555060016005600085815260200190815260200160002060003373ffffffffffffffffffffffffffffffffffffffff1673ffffffffffffffffffffffffffffffffffffffff16815260200190815260200160002060006101000a81548160ff0219169083151502179055503373ffffffffffffffffffffffffffffffffffffffff16837f49f98a7d68598cd2de4b010e59aded7d10cfd25fdf2b5349b44245f4e1f8212b6002600088815260200190815260200160002042604051610c1d929190612b3e565b60405180910390a350505050565b610c336119dd565b80600160006101000a81548173ffffffffffffffffffffffffffffffffffffffff021916908373ffffffffffffffffffffffffffffffffffffffff16021790555050565b60606000600360008481526020019081526020016000206003018054905067ffffffffffffffff811115610cae57610cad612431565b5b604051908082528060200260200182016040528015610ce757816020015b610cd4611b27565b815260200190600190039081610ccc5790505b50905060005b6003600085815260200190815260200160002060030180549050811015610e315760026000600360008781526020019081526020016000206003018381548110610d3a57610d3961289c565b5b90600052602060002001548152602001908152602001600020604051806060016040529081600082015481526020016001820154815260200160028201805480602002602001604051908101604052809291908181526020018280548015610df757602002820191906000526020600020905b8160009054906101000a900473ffffffffffffffffffffffffffffffffffffffff1673ffffffffffffffffffffffffffffffffffffffff1681526020019060010190808311610dad575b505050505081525050828281518110610e1357610e1261289c565b5b60200260200101819052508080610e29906128cb565b915050610ced565b5080915050919050565b6007602052816000526040600020602052806000526040600020600091509150505481565b6060600060048054905067ffffffffffffffff811115610e8357610e82612431565b5b604051908082528060200260200182016040528015610ebc57816020015b610ea9611b48565b815260200190600190039081610ea15790505b50905060005b600480549050811015610fdb5760036000600183610ee09190612790565b81526020019081526020016000206040518060a001604052908160008201548152602001600182015481526020016002820154815260200160038201805480602002602001604051908101604052809291908181526020018280548015610f6657602002820191906000526020600020905b815481526020019060010190808311610f52575b505050505081526020016004820160009054906101000a900460ff166002811115610f9457610f93611dbc565b5b6002811115610fa657610fa5611dbc565b5b81525050828281518110610fbd57610fbc61289c565b5b60200260200101819052508080610fd3906128cb565b915050610ec2565b508091505090565b610feb6119dd565b610ff56000611a5b565b565b60008060009054906101000a900473ffffffffffffffffffffffffffffffffffffffff16905090565b600160009054906101000a900473ffffffffffffffffffffffffffffffffffffffff1681565b600160009054906101000a900473ffffffffffffffffffffffffffffffffffffffff1673ffffffffffffffffffffffffffffffffffffffff163373ffffffffffffffffffffffffffffffffffffffff16146110d6576040517f08c379a00000000000000000000000000000000000000000000000000000000081526004016110cd90612bba565b60405180910390fd5b60006040518060a001604052808581526020018481526020014281526020018381526020016001600281111561110f5761110e611dbc565b5b815250905080600360008681526020019081526020016000206000820151816000015560208201518160010155604082015181600201556060820151816003019080519060200190611162929190611b89565b5060808201518160040160006101000a81548160ff0219169083600281111561118e5761118d611dbc565b5b0217905550905050600481908060018154018082558091505060019003906000526020600020906005020160009091909190915060008201518160000155602082015181600101556040820151816002015560608201518160030190805190602001906111fc929190611b89565b5060808201518160040160006101000a81548160ff0219169083600281111561122857611227611dbc565b5b0217905550505060005b825181101561134d5760606000604051806060016040528086858151811061125d5761125c61289c565b5b6020026020010151815260200160008152602001838152509050806002600087868151811061128f5761128e61289c565b5b60200260200101518152602001908152602001600020600082015181600001556020820151816001015560408201518160020190805190602001906112d5929190611bd6565b50905050600881908060018154018082558091505060019003906000526020600020906003020160009091909190915060008201518160000155602082015181600101556040820151816002019080519060200190611335929190611bd6565b50505050508080611345906128cb565b915050611232565b50837f6c62f7c0f3ac1a374f10a7d65e19e1d4596d55c0cc7e48246cd15f470af0350d83856001426040516113859493929190612c49565b60405180910390a250505050565b6000805b6004805490508110156118bc57600160028111156113b8576113b7611dbc565b5b600482815481106113cc576113cb61289c565b5b906000526020600020906005020160040160009054906101000a900460ff1660028111156113fd576113fc611dbc565b5b14801561145e5750426004828154811061141a5761141961289c565b5b906000526020600020906005020160010154600483815481106114405761143f61289c565b5b90600052602060002090600502016002015461145c9190612790565b105b156118a9576001915060026004828154811061147d5761147c61289c565b5b906000526020600020906005020160040160006101000a81548160ff021916908360028111156114b0576114af611dbc565b5b0217905550600060026000600484815481106114cf576114ce61289c565b5b90600052602060002090600502016003016000815481106114f3576114f261289c565b5b9060005260206000200154815260200190815260200160002060010154905060005b600483815481106115295761152861289c565b5b9060005260206000209060050201600301805490508110156116125781600260006004868154811061155e5761155d61289c565b5b906000526020600020906005020160030184815481106115815761158061289c565b5b906000526020600020015481526020019081526020016000206001015413156115ff5760026000600485815481106115bc576115bb61289c565b5b906000526020600020906005020160030183815481106115df576115de61289c565b5b906000526020600020015481526020019081526020016000206001015491505b808061160a906128cb565b915050611515565b5060005b6004838154811061162a5761162961289c565b5b9060005260206000209060050201600301805490508110156118a657600260006004858154811061165e5761165d61289c565b5b906000526020600020906005020160030183815481106116815761168061289c565b5b9060005260206000200154815260200190815260200160002060010154821480156117075750600060026000600486815481106116c1576116c061289c565b5b906000526020600020906005020160030184815481106116e4576116e361289c565b5b906000526020600020015481526020019081526020016000206002018054905014155b1561189357600160009054906101000a900473ffffffffffffffffffffffffffffffffffffffff1673ffffffffffffffffffffffffffffffffffffffff16639acea8d36004858154811061175e5761175d61289c565b5b906000526020600020906005020160030183815481106117815761178061289c565b5b90600052602060002001546040518263ffffffff1660e01b81526004016117a89190611d74565b600060405180830381600087803b1580156117c257600080fd5b505af11580156117d6573d6000803e3d6000fd5b50505050600483815481106117ee576117ed61289c565b5b9060005260206000209060050201600001547f0ce46fbe3f4a92ed2e6f797d6955c1e8e72b707917a2e71c9b469f11da672f8a60028060006004888154811061183a5761183961289c565b5b9060005260206000209060050201600301868154811061185d5761185c61289c565b5b906000526020600020015481526020019081526020016000204260405161188693929190612c95565b60405180910390a26118a6565b808061189e906128cb565b915050611616565b50505b80806118b4906128cb565b915050611397565b5060001515811515036118ff577f740029a372cf63fe0e8d59421d39ff2e39506263bf68a6d46f4ade0771a090126040516118f690612d45565b60405180910390a15b50565b60026020528060005260406000206000915090508060000154908060010154905082565b61192e6119dd565b600073ffffffffffffffffffffffffffffffffffffffff168173ffffffffffffffffffffffffffffffffffffffff160361199d576040517f08c379a000000000000000000000000000000000000000000000000000000000815260040161199490612dd7565b60405180910390fd5b6119a681611a5b565b50565b600881815481106119b957600080fd5b90600052602060002090600302016000915090508060000154908060010154905082565b6119e5611b1f565b73ffffffffffffffffffffffffffffffffffffffff16611a03610ff7565b73ffffffffffffffffffffffffffffffffffffffff1614611a59576040517f08c379a0000000000000000000000000000000000000000000000000000000008152600401611a5090612e43565b60405180910390fd5b565b60008060009054906101000a900473ffffffffffffffffffffffffffffffffffffffff169050816000806101000a81548173ffffffffffffffffffffffffffffffffffffffff021916908373ffffffffffffffffffffffffffffffffffffffff1602179055508173ffffffffffffffffffffffffffffffffffffffff168173ffffffffffffffffffffffffffffffffffffffff167f8be0079c531659141344cd1fd0a4f28419497f9722a3daafe3b4186f6b6457e060405160405180910390a35050565b600033905090565b60405180606001604052806000815260200160008152602001606081525090565b6040518060a001604052806000815260200160008152602001600081526020016060815260200160006002811115611b8357611b82611dbc565b5b81525090565b828054828255906000526020600020908101928215611bc5579160200282015b82811115611bc4578251825591602001919060010190611ba9565b5b509050611bd29190611c60565b5090565b828054828255906000526020600020908101928215611c4f579160200282015b82811115611c4e5782518260006101000a81548173ffffffffffffffffffffffffffffffffffffffff021916908373ffffffffffffffffffffffffffffffffffffffff16021790555091602001919060010190611bf6565b5b509050611c5c9190611c60565b5090565b5b80821115611c79576000816000905550600101611c61565b5090565b6000604051905090565b600080fd5b600080fd5b6000819050919050565b611ca481611c91565b8114611caf57600080fd5b50565b600081359050611cc181611c9b565b92915050565b600073ffffffffffffffffffffffffffffffffffffffff82169050919050565b6000611cf282611cc7565b9050919050565b611d0281611ce7565b8114611d0d57600080fd5b50565b600081359050611d1f81611cf9565b92915050565b60008060408385031215611d3c57611d3b611c87565b5b6000611d4a85828601611cb2565b9250506020611d5b85828601611d10565b9150509250929050565b611d6e81611c91565b82525050565b6000602082019050611d896000830184611d65565b92915050565b600060208284031215611da557611da4611c87565b5b6000611db384828501611cb2565b91505092915050565b7f4e487b7100000000000000000000000000000000000000000000000000000000600052602160045260246000fd5b60038110611dfc57611dfb611dbc565b5b50565b6000819050611e0d82611deb565b919050565b6000611e1d82611dff565b9050919050565b611e2d81611e12565b82525050565b6000608082019050611e486000830187611d65565b611e556020830186611d65565b611e626040830185611d65565b611e6f6060830184611e24565b95945050505050565b60008115159050919050565b611e8d81611e78565b82525050565b6000602082019050611ea86000830184611e84565b92915050565b60008060408385031215611ec557611ec4611c87565b5b6000611ed385828601611cb2565b9250506020611ee485828601611cb2565b9150509250929050565b600060208284031215611f0457611f03611c87565b5b6000611f1284828501611d10565b91505092915050565b600081519050919050565b600082825260208201905092915050565b6000819050602082019050919050565b611f5081611c91565b82525050565b6000819050919050565b611f6981611f56565b82525050565b600081519050919050565b600082825260208201905092915050565b6000819050602082019050919050565b611fa481611ce7565b82525050565b6000611fb68383611f9b565b60208301905092915050565b6000602082019050919050565b6000611fda82611f6f565b611fe48185611f7a565b9350611fef83611f8b565b8060005b838110156120205781516120078882611faa565b975061201283611fc2565b925050600181019050611ff3565b5085935050505092915050565b60006060830160008301516120456000860182611f47565b5060208301516120586020860182611f60565b50604083015184820360408601526120708282611fcf565b9150508091505092915050565b6000612089838361202d565b905092915050565b6000602082019050919050565b60006120a982611f1b565b6120b38185611f26565b9350836020820285016120c585611f37565b8060005b8581101561210157848403895281516120e2858261207d565b94506120ed83612091565b925060208a019950506001810190506120c9565b50829750879550505050505092915050565b6000602082019050818103600083015261212d818461209e565b905092915050565b61213e81611f56565b82525050565b60006020820190506121596000830184612135565b92915050565b600081519050919050565b600082825260208201905092915050565b6000819050602082019050919050565b600081519050919050565b600082825260208201905092915050565b6000819050602082019050919050565b60006121c38383611f47565b60208301905092915050565b6000602082019050919050565b60006121e78261218b565b6121f18185612196565b93506121fc836121a7565b8060005b8381101561222d57815161221488826121b7565b975061221f836121cf565b925050600181019050612200565b5085935050505092915050565b61224381611e12565b82525050565b600060a0830160008301516122616000860182611f47565b5060208301516122746020860182611f47565b5060408301516122876040860182611f47565b506060830151848203606086015261229f82826121dc565b91505060808301516122b4608086018261223a565b508091505092915050565b60006122cb8383612249565b905092915050565b6000602082019050919050565b60006122eb8261215f565b6122f5818561216a565b9350836020820285016123078561217b565b8060005b85811015612343578484038952815161232485826122bf565b945061232f836122d3565b925060208a0199505060018101905061230b565b50829750879550505050505092915050565b6000602082019050818103600083015261236f81846122e0565b905092915050565b61238081611ce7565b82525050565b600060208201905061239b6000830184612377565b92915050565b6000819050919050565b60006123c66123c16123bc84611cc7565b6123a1565b611cc7565b9050919050565b60006123d8826123ab565b9050919050565b60006123ea826123cd565b9050919050565b6123fa816123df565b82525050565b600060208201905061241560008301846123f1565b92915050565b600080fd5b6000601f19601f8301169050919050565b7f4e487b7100000000000000000000000000000000000000000000000000000000600052604160045260246000fd5b61246982612420565b810181811067ffffffffffffffff8211171561248857612487612431565b5b80604052505050565b600061249b611c7d565b90506124a78282612460565b919050565b600067ffffffffffffffff8211156124c7576124c6612431565b5b602082029050602081019050919050565b600080fd5b60006124f06124eb846124ac565b612491565b90508083825260208201905060208402830185811115612513576125126124d8565b5b835b8181101561253c57806125288882611cb2565b845260208401935050602081019050612515565b5050509392505050565b600082601f83011261255b5761255a61241b565b5b813561256b8482602086016124dd565b91505092915050565b60008060006060848603121561258d5761258c611c87565b5b600061259b86828701611cb2565b93505060206125ac86828701611cb2565b925050604084013567ffffffffffffffff8111156125cd576125cc611c8c565b5b6125d986828701612546565b9150509250925092565b60006040820190506125f86000830185611d65565b6126056020830184612135565b9392505050565b600082825260208201905092915050565b7f506f6c6c206e6f74206578697374000000000000000000000000000000000000600082015250565b6000612653600e8361260c565b915061265e8261261d565b602082019050919050565b6000602082019050818103600083015261268281612646565b9050919050565b7f4572726f723a20496e76616c696420506f6c6c20737461746521000000000000600082015250565b60006126bf601a8361260c565b91506126ca82612689565b602082019050919050565b600060208201905081810360008301526126ee816126b2565b9050919050565b7f6261746368207461736b206964206e6f74206578697374000000000000000000600082015250565b600061272b60178361260c565b9150612736826126f5565b602082019050919050565b6000602082019050818103600083015261275a8161271e565b9050919050565b7f4e487b7100000000000000000000000000000000000000000000000000000000600052601160045260246000fd5b600061279b82611c91565b91506127a683611c91565b92508282019050808211156127be576127bd612761565b5b92915050565b7f506f6c6c20566f74696e6720697320656e640000000000000000000000000000600082015250565b60006127fa60128361260c565b9150612805826127c4565b602082019050919050565b60006020820190508181036000830152612829816127ed565b9050919050565b7f596f75206e6f74206368616e676520796f757220766f74650000000000000000600082015250565b600061286660188361260c565b915061287182612830565b602082019050919050565b6000602082019050818103600083015261289581612859565b9050919050565b7f4e487b7100000000000000000000000000000000000000000000000000000000600052603260045260246000fd5b60006128d682611c91565b91507fffffffffffffffffffffffffffffffffffffffffffffffffffffffffffffffff820361290857612907612761565b5b600182019050919050565b600061291e82611f56565b91507f800000000000000000000000000000000000000000000000000000000000000082036129505761294f612761565b5b600182039050919050565b600061296682611f56565b91507f7fffffffffffffffffffffffffffffffffffffffffffffffffffffffffffffff820361299857612997612761565b5b600182019050919050565b60008160001c9050919050565b6000819050919050565b60006129cd6129c8836129a3565b6129b0565b9050919050565b6000819050919050565b60006129f16129ec836129a3565b6129d4565b9050919050565b600081549050919050565b60008190508160005260206000209050919050565b600073ffffffffffffffffffffffffffffffffffffffff82169050919050565b6000612a4b612a46836129a3565b612a18565b9050919050565b6000612a5e8254612a38565b9050919050565b6000600182019050919050565b6000612a7d826129f8565b612a878185611f7a565b9350612a9283612a03565b8060005b83811015612aca57612aa782612a52565b612ab18882611faa565b9750612abc83612a65565b925050600181019050612a96565b5085935050505092915050565b6000606083016000808401549050612aee816129ba565b612afb6000870182611f47565b5060018401549050612b0c816129de565b612b196020870182611f60565b50600284018583036040870152612b308382612a72565b925050819250505092915050565b60006040820190508181036000830152612b588185612ad7565b9050612b676020830184611d65565b9392505050565b7f4f6e6c792063616c6c206279205461736b4d616e616765720000000000000000600082015250565b6000612ba460188361260c565b9150612baf82612b6e565b602082019050919050565b60006020820190508181036000830152612bd381612b97565b9050919050565b600082825260208201905092915050565b6000612bf68261218b565b612c008185612bda565b9350612c0b836121a7565b8060005b83811015612c3c578151612c2388826121b7565b9750612c2e836121cf565b925050600181019050612c0f565b5085935050505092915050565b60006080820190508181036000830152612c638187612beb565b9050612c726020830186611d65565b612c7f6040830185611e24565b612c8c6060830184611d65565b95945050505050565b6000606082019050612caa6000830186611e24565b8181036020830152612cbc8185612ad7565b9050612ccb6040830184611d65565b949350505050565b7f546865726520617265206e6f20506f6c6c20566f74696e672063616e20656e6460008201527f20617420746865206d6f6d656e74000000000000000000000000000000000000602082015250565b6000612d2f602e8361260c565b9150612d3a82612cd3565b604082019050919050565b60006020820190508181036000830152612d5e81612d22565b9050919050565b7f4f776e61626c653a206e6577206f776e657220697320746865207a65726f206160008201527f6464726573730000000000000000000000000000000000000000000000000000602082015250565b6000612dc160268361260c565b9150612dcc82612d65565b604082019050919050565b60006020820190508181036000830152612df081612db4565b9050919050565b7f4f776e61626c653a2063616c6c6572206973206e6f7420746865206f776e6572600082015250565b6000612e2d60208361260c565b9150612e3882612df7565b602082019050919050565b60006020820190508181036000830152612e5c81612e20565b905091905056fea264697066735822122008492d138eced3a617f6cc1742fee540a534d139899ab15094a95233b58e4e6064736f6c63430008110033",
  "linkReferences": {},
  "deployedLinkReferences": {}
}