{
  "_format": "hh-sol-artifact-1",
  "contractName": "CreditScore",
  "sourceName": "contracts/CreditScore.sol",
  "abi": [
    {
      "anonymous": false,
      "inputs": [
        {
          "indexed": true,
          "internalType": "address",
          "name": "user",
          "type": "address"
        },
        {
          "indexed": false,
          "internalType": "uint256",
          "name": "value",
          "type": "uint256"
        }
      ],
      "name": "CalculateCommitmentToken",
      "type": "event"
    },
    {
      "anonymous": false,
      "inputs": [
        {
          "indexed": false,
          "internalType": "uint256",
          "name": "taskId",
          "type": "uint256"
        },
        {
          "indexed": true,
          "internalType": "address",
          "name": "doer",
          "type": "address"
        },
        {
          "indexed": false,
          "internalType": "uint256",
          "name": "percentageDone",
          "type": "uint256"
        },
        {
          "indexed": false,
          "internalType": "uint256",
          "name": "timeSave",
          "type": "uint256"
        }
      ],
      "name": "SaveTaskDone",
      "type": "event"
    },
    {
      "inputs": [
        {
          "internalType": "address",
          "name": "_user",
          "type": "address"
        }
      ],
      "name": "calculateCommitmentToken",
      "outputs": [
        {
          "internalType": "uint256",
          "name": "",
          "type": "uint256"
        }
      ],
      "stateMutability": "nonpayable",
      "type": "function"
    },
    {
      "inputs": [
        {
          "internalType": "address",
          "name": "_userAddress",
          "type": "address"
        }
      ],
      "name": "calculateScoreByPercentTaskDone",
      "outputs": [
        {
          "internalType": "uint256",
          "name": "",
          "type": "uint256"
        }
      ],
      "stateMutability": "nonpayable",
      "type": "function"
    },
    {
      "inputs": [
        {
          "internalType": "uint256",
          "name": "_taskId",
          "type": "uint256"
        },
        {
          "internalType": "address",
          "name": "_doer",
          "type": "address"
        },
        {
          "internalType": "uint256",
          "name": "_percentageDone",
          "type": "uint256"
        }
      ],
      "name": "saveTaskDone",
      "outputs": [],
      "stateMutability": "nonpayable",
      "type": "function"
    },
    {
      "inputs": [
        {
          "internalType": "uint256",
          "name": "",
          "type": "uint256"
        }
      ],
      "name": "taskDoneIdTaskDone",
      "outputs": [
        {
          "internalType": "uint256",
          "name": "taskId",
          "type": "uint256"
        },
        {
          "internalType": "uint256",
          "name": "percentageDone",
          "type": "uint256"
        }
      ],
      "stateMutability": "view",
      "type": "function"
    },
    {
      "inputs": [
        {
          "internalType": "address",
          "name": "",
          "type": "address"
        }
      ],
      "name": "userAddressToUser",
      "outputs": [
        {
          "internalType": "address",
          "name": "userAddress",
          "type": "address"
        },
        {
          "internalType": "uint256",
          "name": "score",
          "type": "uint256"
        }
      ],
      "stateMutability": "view",
      "type": "function"
    }
  ],
  "bytecode": "0x608060405234801561001057600080fd5b50610d16806100206000396000f3fe608060405234801561001057600080fd5b50600436106100575760003560e01c806325dba0431461005c578063587307461461008d5780635ebf340e146100a9578063c1324de1146100d9578063f919bdf61461010a575b600080fd5b610076600480360381019061007191906109dc565b61013a565b604051610084929190610a18565b60405180910390f35b6100a760048036038101906100a29190610a9f565b61015e565b005b6100c360048036038101906100be9190610af2565b61044c565b6040516100d09190610b1f565b60405180910390f35b6100f360048036038101906100ee9190610af2565b6104cc565b604051610101929190610b49565b60405180910390f35b610124600480360381019061011f9190610af2565b610510565b6040516101319190610b1f565b60405180910390f35b60026020528060005260406000206000915090508060000154908060010154905082565b600073ffffffffffffffffffffffffffffffffffffffff16600160008473ffffffffffffffffffffffffffffffffffffffff1673ffffffffffffffffffffffffffffffffffffffff16815260200190815260200160002060000160009054906101000a900473ffffffffffffffffffffffffffffffffffffffff1673ffffffffffffffffffffffffffffffffffffffff160361038b576101fc610900565b600061271067ffffffffffffffff81111561021a57610219610b72565b5b6040519080825280602002602001820160405280156102485781602001602082028036833780820191505090505b50905084816000815181106102605761025f610ba1565b5b60200260200101818152505083826000019073ffffffffffffffffffffffffffffffffffffffff16908173ffffffffffffffffffffffffffffffffffffffff1681525050603282602001818152505080826040018190525082600260008781526020019081526020016000206001018190555081600160008673ffffffffffffffffffffffffffffffffffffffff1673ffffffffffffffffffffffffffffffffffffffff16815260200190815260200160002060008201518160000160006101000a81548173ffffffffffffffffffffffffffffffffffffffff021916908373ffffffffffffffffffffffffffffffffffffffff160217905550602082015181600101556040820151816002019080519060200190610380929190610937565b5090505050506103f5565b600160008373ffffffffffffffffffffffffffffffffffffffff1673ffffffffffffffffffffffffffffffffffffffff1681526020019081526020016000206002018390806001815401808255809150506001900390600052602060002001600090919091909150555b8173ffffffffffffffffffffffffffffffffffffffff167f33b565b4e28a378e902db4f8f551a8041d5f4cb011e20f4b84401895de53174d84834260405161043f93929190610bd0565b60405180910390a2505050565b60008061045883610510565b905060006002826104699190610c36565b90506104748161083e565b8373ffffffffffffffffffffffffffffffffffffffff167fa8e2b1507ec955c440d33b79084a37358e1d6f7adf6938098cff6268ee257c98826040516104ba9190610b1f565b60405180910390a28092505050919050565b60016020528060005260406000206000915090508060000160009054906101000a900473ffffffffffffffffffffffffffffffffffffffff16908060010154905082565b60008073ffffffffffffffffffffffffffffffffffffffff16600160008473ffffffffffffffffffffffffffffffffffffffff1673ffffffffffffffffffffffffffffffffffffffff16815260200190815260200160002060000160009054906101000a900473ffffffffffffffffffffffffffffffffffffffff1673ffffffffffffffffffffffffffffffffffffffff16036105b05760329050610839565b6000600160008473ffffffffffffffffffffffffffffffffffffffff1673ffffffffffffffffffffffffffffffffffffffff1681526020019081526020016000206002018054905081101561083757603c60026000600160008773ffffffffffffffffffffffffffffffffffffffff1673ffffffffffffffffffffffffffffffffffffffff168152602001908152602001600020600201848154811061065957610658610ba1565b5b906000526020600020015481526020019081526020016000206001015411156106da5760018060008573ffffffffffffffffffffffffffffffffffffffff1673ffffffffffffffffffffffffffffffffffffffff16815260200190815260200160002060010160008282546106ce9190610c78565b925050819055506107ec565b601e60026000600160008773ffffffffffffffffffffffffffffffffffffffff1673ffffffffffffffffffffffffffffffffffffffff168152602001908152602001600020600201848154811061073457610733610ba1565b5b9060005260206000200154815260200190815260200160002060010154106107eb5760018060008573ffffffffffffffffffffffffffffffffffffffff1673ffffffffffffffffffffffffffffffffffffffff168152602001908152602001600020600101546107a49190610cac565b600160008573ffffffffffffffffffffffffffffffffffffffff1673ffffffffffffffffffffffffffffffffffffffff168152602001908152602001600020600101819055505b5b600160008473ffffffffffffffffffffffffffffffffffffffff1673ffffffffffffffffffffffffffffffffffffffff16815260200190815260200160002060010154915050610839565b505b919050565b6108d4816040516024016108529190610b1f565b6040516020818303038152906040527ff82c50f1000000000000000000000000000000000000000000000000000000007bffffffffffffffffffffffffffffffffffffffffffffffffffffffff19166020820180517bffffffffffffffffffffffffffffffffffffffffffffffffffffffff83818316178352505050506108d7565b50565b60008151905060006a636f6e736f6c652e6c6f679050602083016000808483855afa5050505050565b6040518060600160405280600073ffffffffffffffffffffffffffffffffffffffff16815260200160008152602001606081525090565b828054828255906000526020600020908101928215610973579160200282015b82811115610972578251825591602001919060010190610957565b5b5090506109809190610984565b5090565b5b8082111561099d576000816000905550600101610985565b5090565b600080fd5b6000819050919050565b6109b9816109a6565b81146109c457600080fd5b50565b6000813590506109d6816109b0565b92915050565b6000602082840312156109f2576109f16109a1565b5b6000610a00848285016109c7565b91505092915050565b610a12816109a6565b82525050565b6000604082019050610a2d6000830185610a09565b610a3a6020830184610a09565b9392505050565b600073ffffffffffffffffffffffffffffffffffffffff82169050919050565b6000610a6c82610a41565b9050919050565b610a7c81610a61565b8114610a8757600080fd5b50565b600081359050610a9981610a73565b92915050565b600080600060608486031215610ab857610ab76109a1565b5b6000610ac6868287016109c7565b9350506020610ad786828701610a8a565b9250506040610ae8868287016109c7565b9150509250925092565b600060208284031215610b0857610b076109a1565b5b6000610b1684828501610a8a565b91505092915050565b6000602082019050610b346000830184610a09565b92915050565b610b4381610a61565b82525050565b6000604082019050610b5e6000830185610b3a565b610b6b6020830184610a09565b9392505050565b7f4e487b7100000000000000000000000000000000000000000000000000000000600052604160045260246000fd5b7f4e487b7100000000000000000000000000000000000000000000000000000000600052603260045260246000fd5b6000606082019050610be56000830186610a09565b610bf26020830185610a09565b610bff6040830184610a09565b949350505050565b7f4e487b7100000000000000000000000000000000000000000000000000000000600052601160045260246000fd5b6000610c41826109a6565b9150610c4c836109a6565b9250828202610c5a816109a6565b91508282048414831517610c7157610c70610c07565b5b5092915050565b6000610c83826109a6565b9150610c8e836109a6565b9250828201905080821115610ca657610ca5610c07565b5b92915050565b6000610cb7826109a6565b9150610cc2836109a6565b9250828203905081811115610cda57610cd9610c07565b5b9291505056fea26469706673582212204c9c4aa8d91d94767cb0f6efcdc3e3e2308c0a9af847becc771f4b08a787cee264736f6c63430008110033",
  "linkReferences": {},
  "deployedLinkReferences": {}
}