{
  "_format": "hh-sol-artifact-1",
  "contractName": "TaskManager",
  "sourceName": "contracts/TaskManager.sol",
  "abi": [
    {
      "anonymous": false,
      "inputs": [
        {
          "indexed": true,
          "internalType": "uint256",
          "name": "taskId",
          "type": "uint256"
        },
        {
          "indexed": false,
          "internalType": "uint256",
          "name": "reward",
          "type": "uint256"
        },
        {
          "indexed": true,
          "internalType": "address",
          "name": "doer",
          "type": "address"
        },
        {
          "indexed": false,
          "internalType": "enum ITaskManager.TASK_STATE",
          "name": "taskState",
          "type": "uint8"
        }
      ],
      "name": "AssignTask",
      "type": "event"
    },
    {
      "anonymous": false,
      "inputs": [
        {
          "indexed": true,
          "internalType": "uint256",
          "name": "batchTaskId",
          "type": "uint256"
        },
        {
          "indexed": true,
          "internalType": "uint256",
          "name": "pollId",
          "type": "uint256"
        },
        {
          "indexed": false,
          "internalType": "enum ITaskManager.BATCH_TASK_STATE",
          "name": "batchTaskState",
          "type": "uint8"
        }
      ],
      "name": "BatchTaskInit",
      "type": "event"
    },
    {
      "anonymous": false,
      "inputs": [
        {
          "indexed": true,
          "internalType": "uint256",
          "name": "batchTaskID",
          "type": "uint256"
        },
        {
          "indexed": false,
          "internalType": "uint256",
          "name": "auctionDuration",
          "type": "uint256"
        },
        {
          "indexed": false,
          "internalType": "uint256",
          "name": "timeOpen",
          "type": "uint256"
        },
        {
          "indexed": false,
          "internalType": "enum ITaskManager.BATCH_TASK_STATE",
          "name": "batchTaskState",
          "type": "uint8"
        }
      ],
      "name": "OpenBatchTaskForAuction",
      "type": "event"
    },
    {
      "anonymous": false,
      "inputs": [
        {
          "indexed": true,
          "internalType": "uint256",
          "name": "_pollId",
          "type": "uint256"
        },
        {
          "indexed": false,
          "internalType": "uint256",
          "name": "_voteDuration",
          "type": "uint256"
        },
        {
          "indexed": false,
          "internalType": "uint256",
          "name": "timeOpenPollVote",
          "type": "uint256"
        },
        {
          "indexed": true,
          "internalType": "address",
          "name": "pollOwner",
          "type": "address"
        },
        {
          "indexed": false,
          "internalType": "enum ITaskManager.POLL_STATE",
          "name": "pollState",
          "type": "uint8"
        }
      ],
      "name": "OpenPollForVote",
      "type": "event"
    },
    {
      "anonymous": false,
      "inputs": [
        {
          "indexed": true,
          "internalType": "address",
          "name": "previousOwner",
          "type": "address"
        },
        {
          "indexed": true,
          "internalType": "address",
          "name": "newOwner",
          "type": "address"
        }
      ],
      "name": "OwnershipTransferred",
      "type": "event"
    },
    {
      "anonymous": false,
      "inputs": [
        {
          "indexed": true,
          "internalType": "uint256",
          "name": "pollId",
          "type": "uint256"
        },
        {
          "indexed": true,
          "internalType": "address",
          "name": "pollOwner",
          "type": "address"
        },
        {
          "indexed": false,
          "internalType": "enum ITaskManager.POLL_STATE",
          "name": "pollState",
          "type": "uint8"
        }
      ],
      "name": "PollInit",
      "type": "event"
    },
    {
      "anonymous": false,
      "inputs": [
        {
          "indexed": true,
          "internalType": "uint256",
          "name": "taskId",
          "type": "uint256"
        },
        {
          "indexed": false,
          "internalType": "uint256",
          "name": "timeReceive",
          "type": "uint256"
        },
        {
          "indexed": true,
          "internalType": "address",
          "name": "doer",
          "type": "address"
        },
        {
          "indexed": false,
          "internalType": "enum ITaskManager.TASK_STATE",
          "name": "taskState",
          "type": "uint8"
        },
        {
          "indexed": false,
          "internalType": "uint256",
          "name": "commitValue",
          "type": "uint256"
        }
      ],
      "name": "ReceiveTask",
      "type": "event"
    },
    {
      "anonymous": false,
      "inputs": [
        {
          "indexed": true,
          "internalType": "uint256",
          "name": "taskId",
          "type": "uint256"
        },
        {
          "indexed": false,
          "internalType": "uint256",
          "name": "percentageDone",
          "type": "uint256"
        },
        {
          "indexed": true,
          "internalType": "address",
          "name": "reviewer",
          "type": "address"
        },
        {
          "indexed": false,
          "internalType": "enum ITaskManager.TASK_STATE",
          "name": "taskState",
          "type": "uint8"
        },
        {
          "indexed": false,
          "internalType": "uint256",
          "name": "timeSubmit",
          "type": "uint256"
        }
      ],
      "name": "SubmitReview",
      "type": "event"
    },
    {
      "anonymous": false,
      "inputs": [
        {
          "indexed": true,
          "internalType": "uint256",
          "name": "taskId",
          "type": "uint256"
        },
        {
          "indexed": false,
          "internalType": "uint256",
          "name": "timeSubmit",
          "type": "uint256"
        },
        {
          "indexed": true,
          "internalType": "address",
          "name": "doer",
          "type": "address"
        },
        {
          "indexed": false,
          "internalType": "enum ITaskManager.TASK_STATE",
          "name": "taskState",
          "type": "uint8"
        }
      ],
      "name": "SubmitTaskResult",
      "type": "event"
    },
    {
      "anonymous": false,
      "inputs": [
        {
          "indexed": false,
          "internalType": "uint256",
          "name": "taskId",
          "type": "uint256"
        },
        {
          "indexed": true,
          "internalType": "uint256",
          "name": "batchTaskId",
          "type": "uint256"
        },
        {
          "indexed": false,
          "internalType": "uint256",
          "name": "point",
          "type": "uint256"
        },
        {
          "indexed": false,
          "internalType": "uint256",
          "name": "reward",
          "type": "uint256"
        },
        {
          "indexed": false,
          "internalType": "uint256",
          "name": "minReward",
          "type": "uint256"
        },
        {
          "indexed": true,
          "internalType": "address",
          "name": "reporter",
          "type": "address"
        },
        {
          "indexed": true,
          "internalType": "address",
          "name": "reviewer",
          "type": "address"
        },
        {
          "indexed": false,
          "internalType": "enum ITaskManager.TASK_STATE",
          "name": "taskState",
          "type": "uint8"
        }
      ],
      "name": "TaskInit",
      "type": "event"
    },
    {
      "anonymous": false,
      "inputs": [
        {
          "indexed": true,
          "internalType": "uint256",
          "name": "taskId",
          "type": "uint256"
        },
        {
          "indexed": false,
          "internalType": "uint256",
          "name": "newPoint",
          "type": "uint256"
        },
        {
          "indexed": true,
          "internalType": "address",
          "name": "updater",
          "type": "address"
        },
        {
          "indexed": false,
          "internalType": "uint256",
          "name": "timeUpdate",
          "type": "uint256"
        }
      ],
      "name": "UpdateTask",
      "type": "event"
    },
    {
      "inputs": [
        {
          "components": [
            {
              "internalType": "uint256",
              "name": "taskId",
              "type": "uint256"
            },
            {
              "internalType": "uint256",
              "name": "point",
              "type": "uint256"
            },
            {
              "internalType": "uint256",
              "name": "reward",
              "type": "uint256"
            },
            {
              "internalType": "uint256",
              "name": "minReward",
              "type": "uint256"
            },
            {
              "internalType": "address",
              "name": "reporter",
              "type": "address"
            },
            {
              "internalType": "address",
              "name": "doer",
              "type": "address"
            },
            {
              "internalType": "address",
              "name": "reviewer",
              "type": "address"
            },
            {
              "internalType": "enum ITaskAuction.TASK_STATE",
              "name": "taskState",
              "type": "uint8"
            },
            {
              "internalType": "uint256",
              "name": "lowestBidAmount",
              "type": "uint256"
            },
            {
              "internalType": "address",
              "name": "lowestBidder",
              "type": "address"
            }
          ],
          "internalType": "struct ITaskAuction.AuctionTask",
          "name": "doneAuctionTask",
          "type": "tuple"
        }
      ],
      "name": "assignTask",
      "outputs": [],
      "stateMutability": "nonpayable",
      "type": "function"
    },
    {
      "inputs": [],
      "name": "bankManager",
      "outputs": [
        {
          "internalType": "contract IBankManager",
          "name": "",
          "type": "address"
        }
      ],
      "stateMutability": "view",
      "type": "function"
    },
    {
      "inputs": [],
      "name": "batchTaskCount",
      "outputs": [
        {
          "internalType": "uint256",
          "name": "",
          "type": "uint256"
        }
      ],
      "stateMutability": "view",
      "type": "function"
    },
    {
      "inputs": [
        {
          "internalType": "uint256",
          "name": "",
          "type": "uint256"
        }
      ],
      "name": "batchTaskIdToBatchTask",
      "outputs": [
        {
          "internalType": "uint256",
          "name": "batchTaskId",
          "type": "uint256"
        },
        {
          "internalType": "enum ITaskManager.BATCH_TASK_STATE",
          "name": "batchTaskState",
          "type": "uint8"
        }
      ],
      "stateMutability": "view",
      "type": "function"
    },
    {
      "inputs": [],
      "name": "batchTaskVoting",
      "outputs": [
        {
          "internalType": "contract IBatchTaskVoting",
          "name": "",
          "type": "address"
        }
      ],
      "stateMutability": "view",
      "type": "function"
    },
    {
      "inputs": [
        {
          "internalType": "uint256",
          "name": "",
          "type": "uint256"
        }
      ],
      "name": "batchTasks",
      "outputs": [
        {
          "internalType": "uint256",
          "name": "batchTaskId",
          "type": "uint256"
        },
        {
          "internalType": "enum ITaskManager.BATCH_TASK_STATE",
          "name": "batchTaskState",
          "type": "uint8"
        }
      ],
      "stateMutability": "view",
      "type": "function"
    },
    {
      "inputs": [
        {
          "internalType": "address",
          "name": "_tokenAddress",
          "type": "address"
        }
      ],
      "name": "chooseToken",
      "outputs": [],
      "stateMutability": "nonpayable",
      "type": "function"
    },
    {
      "inputs": [],
      "name": "creditScore",
      "outputs": [
        {
          "internalType": "contract ICreditScore",
          "name": "",
          "type": "address"
        }
      ],
      "stateMutability": "view",
      "type": "function"
    },
    {
      "inputs": [
        {
          "internalType": "uint256",
          "name": "_pollID",
          "type": "uint256"
        }
      ],
      "name": "getAllBatchTaskByPollID",
      "outputs": [
        {
          "components": [
            {
              "internalType": "uint256",
              "name": "batchTaskId",
              "type": "uint256"
            },
            {
              "internalType": "uint256[]",
              "name": "taskIds",
              "type": "uint256[]"
            },
            {
              "internalType": "enum ITaskManager.BATCH_TASK_STATE",
              "name": "batchTaskState",
              "type": "uint8"
            }
          ],
          "internalType": "struct ITaskManager.BatchTask[]",
          "name": "",
          "type": "tuple[]"
        }
      ],
      "stateMutability": "view",
      "type": "function"
    },
    {
      "inputs": [],
      "name": "getAllPoll",
      "outputs": [
        {
          "components": [
            {
              "internalType": "uint256",
              "name": "pollId",
              "type": "uint256"
            },
            {
              "internalType": "address",
              "name": "pollOwner",
              "type": "address"
            },
            {
              "internalType": "uint256[]",
              "name": "batchTaskIds",
              "type": "uint256[]"
            },
            {
              "internalType": "enum ITaskManager.POLL_STATE",
              "name": "pollState",
              "type": "uint8"
            }
          ],
          "internalType": "struct ITaskManager.Poll[]",
          "name": "",
          "type": "tuple[]"
        }
      ],
      "stateMutability": "view",
      "type": "function"
    },
    {
      "inputs": [
        {
          "internalType": "uint256",
          "name": "_batchTaskId",
          "type": "uint256"
        }
      ],
      "name": "getAllTask",
      "outputs": [
        {
          "components": [
            {
              "internalType": "uint256",
              "name": "taskId",
              "type": "uint256"
            },
            {
              "internalType": "uint256",
              "name": "point",
              "type": "uint256"
            },
            {
              "internalType": "uint256",
              "name": "reward",
              "type": "uint256"
            },
            {
              "internalType": "uint256",
              "name": "minReward",
              "type": "uint256"
            },
            {
              "internalType": "address",
              "name": "reporter",
              "type": "address"
            },
            {
              "internalType": "address",
              "name": "doer",
              "type": "address"
            },
            {
              "internalType": "address",
              "name": "reviewer",
              "type": "address"
            },
            {
              "internalType": "uint256",
              "name": "timeDoerReceive",
              "type": "uint256"
            },
            {
              "internalType": "enum ITaskManager.TASK_STATE",
              "name": "taskState",
              "type": "uint8"
            }
          ],
          "internalType": "struct ITaskManager.Task[]",
          "name": "",
          "type": "tuple[]"
        }
      ],
      "stateMutability": "view",
      "type": "function"
    },
    {
      "inputs": [
        {
          "internalType": "uint256",
          "name": "_pollId",
          "type": "uint256"
        }
      ],
      "name": "initBatchTask",
      "outputs": [],
      "stateMutability": "nonpayable",
      "type": "function"
    },
    {
      "inputs": [
        {
          "internalType": "uint256",
          "name": "_batchTaskId",
          "type": "uint256"
        }
      ],
      "name": "initBatchTaskAuction",
      "outputs": [],
      "stateMutability": "nonpayable",
      "type": "function"
    },
    {
      "inputs": [
        {
          "internalType": "address",
          "name": "_pollOwner",
          "type": "address"
        }
      ],
      "name": "initPoll",
      "outputs": [],
      "stateMutability": "nonpayable",
      "type": "function"
    },
    {
      "inputs": [
        {
          "internalType": "uint256",
          "name": "_batchTaskId",
          "type": "uint256"
        },
        {
          "internalType": "uint256",
          "name": "_point",
          "type": "uint256"
        },
        {
          "internalType": "uint256",
          "name": "_reward",
          "type": "uint256"
        },
        {
          "internalType": "uint256",
          "name": "_minReward",
          "type": "uint256"
        },
        {
          "internalType": "address",
          "name": "_reporter",
          "type": "address"
        },
        {
          "internalType": "address",
          "name": "_reviewer",
          "type": "address"
        }
      ],
      "name": "initTask",
      "outputs": [],
      "stateMutability": "nonpayable",
      "type": "function"
    },
    {
      "inputs": [
        {
          "internalType": "uint256",
          "name": "_pollID",
          "type": "uint256"
        },
        {
          "internalType": "uint256",
          "name": "_batchTaskID",
          "type": "uint256"
        },
        {
          "internalType": "uint256",
          "name": "_auctionDuration",
          "type": "uint256"
        }
      ],
      "name": "openBatchTaskForAuction",
      "outputs": [],
      "stateMutability": "nonpayable",
      "type": "function"
    },
    {
      "inputs": [
        {
          "internalType": "uint256",
          "name": "_pollId",
          "type": "uint256"
        },
        {
          "internalType": "uint256",
          "name": "_voteDuration",
          "type": "uint256"
        }
      ],
      "name": "openPollForVote",
      "outputs": [],
      "stateMutability": "nonpayable",
      "type": "function"
    },
    {
      "inputs": [],
      "name": "owner",
      "outputs": [
        {
          "internalType": "address",
          "name": "",
          "type": "address"
        }
      ],
      "stateMutability": "view",
      "type": "function"
    },
    {
      "inputs": [],
      "name": "pollCount",
      "outputs": [
        {
          "internalType": "uint256",
          "name": "",
          "type": "uint256"
        }
      ],
      "stateMutability": "view",
      "type": "function"
    },
    {
      "inputs": [
        {
          "internalType": "uint256",
          "name": "",
          "type": "uint256"
        }
      ],
      "name": "pollIdToPoll",
      "outputs": [
        {
          "internalType": "uint256",
          "name": "pollId",
          "type": "uint256"
        },
        {
          "internalType": "address",
          "name": "pollOwner",
          "type": "address"
        },
        {
          "internalType": "enum ITaskManager.POLL_STATE",
          "name": "pollState",
          "type": "uint8"
        }
      ],
      "stateMutability": "view",
      "type": "function"
    },
    {
      "inputs": [
        {
          "internalType": "uint256",
          "name": "",
          "type": "uint256"
        }
      ],
      "name": "polls",
      "outputs": [
        {
          "internalType": "uint256",
          "name": "pollId",
          "type": "uint256"
        },
        {
          "internalType": "address",
          "name": "pollOwner",
          "type": "address"
        },
        {
          "internalType": "enum ITaskManager.POLL_STATE",
          "name": "pollState",
          "type": "uint8"
        }
      ],
      "stateMutability": "view",
      "type": "function"
    },
    {
      "inputs": [
        {
          "internalType": "uint256",
          "name": "_taskId",
          "type": "uint256"
        },
        {
          "internalType": "uint256",
          "name": "_commitValue",
          "type": "uint256"
        }
      ],
      "name": "receiveTask",
      "outputs": [],
      "stateMutability": "nonpayable",
      "type": "function"
    },
    {
      "inputs": [],
      "name": "renounceOwnership",
      "outputs": [],
      "stateMutability": "nonpayable",
      "type": "function"
    },
    {
      "inputs": [
        {
          "internalType": "address",
          "name": "_bankManagerAddress",
          "type": "address"
        }
      ],
      "name": "setBankManager",
      "outputs": [],
      "stateMutability": "nonpayable",
      "type": "function"
    },
    {
      "inputs": [
        {
          "internalType": "address",
          "name": "_batchTaskVotingAddress",
          "type": "address"
        }
      ],
      "name": "setBatchTaskVoting",
      "outputs": [],
      "stateMutability": "nonpayable",
      "type": "function"
    },
    {
      "inputs": [
        {
          "internalType": "address",
          "name": "_creditScoreAddress",
          "type": "address"
        }
      ],
      "name": "setCreditScore",
      "outputs": [],
      "stateMutability": "nonpayable",
      "type": "function"
    },
    {
      "inputs": [
        {
          "internalType": "address",
          "name": "_taskAuctionAddress",
          "type": "address"
        }
      ],
      "name": "setTaskAuction",
      "outputs": [],
      "stateMutability": "nonpayable",
      "type": "function"
    },
    {
      "inputs": [
        {
          "internalType": "uint256",
          "name": "_taskId",
          "type": "uint256"
        },
        {
          "internalType": "uint256",
          "name": "percentageDone",
          "type": "uint256"
        }
      ],
      "name": "submitReview",
      "outputs": [],
      "stateMutability": "nonpayable",
      "type": "function"
    },
    {
      "inputs": [
        {
          "internalType": "uint256",
          "name": "_taskId",
          "type": "uint256"
        }
      ],
      "name": "submitTaskResult",
      "outputs": [],
      "stateMutability": "nonpayable",
      "type": "function"
    },
    {
      "inputs": [],
      "name": "taskAuction",
      "outputs": [
        {
          "internalType": "contract ITaskAuction",
          "name": "",
          "type": "address"
        }
      ],
      "stateMutability": "view",
      "type": "function"
    },
    {
      "inputs": [],
      "name": "taskCount",
      "outputs": [
        {
          "internalType": "uint256",
          "name": "",
          "type": "uint256"
        }
      ],
      "stateMutability": "view",
      "type": "function"
    },
    {
      "inputs": [
        {
          "internalType": "uint256",
          "name": "",
          "type": "uint256"
        }
      ],
      "name": "taskIdToTask",
      "outputs": [
        {
          "internalType": "uint256",
          "name": "taskId",
          "type": "uint256"
        },
        {
          "internalType": "uint256",
          "name": "point",
          "type": "uint256"
        },
        {
          "internalType": "uint256",
          "name": "reward",
          "type": "uint256"
        },
        {
          "internalType": "uint256",
          "name": "minReward",
          "type": "uint256"
        },
        {
          "internalType": "address",
          "name": "reporter",
          "type": "address"
        },
        {
          "internalType": "address",
          "name": "doer",
          "type": "address"
        },
        {
          "internalType": "address",
          "name": "reviewer",
          "type": "address"
        },
        {
          "internalType": "uint256",
          "name": "timeDoerReceive",
          "type": "uint256"
        },
        {
          "internalType": "enum ITaskManager.TASK_STATE",
          "name": "taskState",
          "type": "uint8"
        }
      ],
      "stateMutability": "view",
      "type": "function"
    },
    {
      "inputs": [
        {
          "internalType": "uint256",
          "name": "",
          "type": "uint256"
        }
      ],
      "name": "tasks",
      "outputs": [
        {
          "internalType": "uint256",
          "name": "taskId",
          "type": "uint256"
        },
        {
          "internalType": "uint256",
          "name": "point",
          "type": "uint256"
        },
        {
          "internalType": "uint256",
          "name": "reward",
          "type": "uint256"
        },
        {
          "internalType": "uint256",
          "name": "minReward",
          "type": "uint256"
        },
        {
          "internalType": "address",
          "name": "reporter",
          "type": "address"
        },
        {
          "internalType": "address",
          "name": "doer",
          "type": "address"
        },
        {
          "internalType": "address",
          "name": "reviewer",
          "type": "address"
        },
        {
          "internalType": "uint256",
          "name": "timeDoerReceive",
          "type": "uint256"
        },
        {
          "internalType": "enum ITaskManager.TASK_STATE",
          "name": "taskState",
          "type": "uint8"
        }
      ],
      "stateMutability": "view",
      "type": "function"
    },
    {
      "inputs": [],
      "name": "tokenAddress",
      "outputs": [
        {
          "internalType": "address",
          "name": "",
          "type": "address"
        }
      ],
      "stateMutability": "view",
      "type": "function"
    },
    {
      "inputs": [
        {
          "internalType": "address",
          "name": "newOwner",
          "type": "address"
        }
      ],
      "name": "transferOwnership",
      "outputs": [],
      "stateMutability": "nonpayable",
      "type": "function"
    },
    {
      "inputs": [
        {
          "internalType": "uint256",
          "name": "_taskId",
          "type": "uint256"
        },
        {
          "internalType": "uint256",
          "name": "_newPoint",
          "type": "uint256"
        }
      ],
      "name": "updateTask",
      "outputs": [],
      "stateMutability": "nonpayable",
      "type": "function"
    }
  ],
  "bytecode": "0x60806040523480156200001157600080fd5b5062000032620000266200003860201b60201c565b6200004060201b60201c565b62000104565b600033905090565b60008060009054906101000a900473ffffffffffffffffffffffffffffffffffffffff169050816000806101000a81548173ffffffffffffffffffffffffffffffffffffffff021916908373ffffffffffffffffffffffffffffffffffffffff1602179055508173ffffffffffffffffffffffffffffffffffffffff168173ffffffffffffffffffffffffffffffffffffffff167f8be0079c531659141344cd1fd0a4f28419497f9722a3daafe3b4186f6b6457e060405160405180910390a35050565b61516480620001146000396000f3fe608060405234801561001057600080fd5b506004361061021c5760003560e01c806385a20cf911610125578063b6cb58a5116100ad578063e9e2990e1161007c578063e9e2990e14610611578063f2fde38b1461062f578063f535d1171461064b578063f81f627d1461067c578063fd3a5451146106ad5761021c565b8063b6cb58a514610589578063c709c1f1146105a7578063dbe2728e146105c5578063e64f01b9146105f55761021c565b80639207891d116100f45780639207891d146104e15780639844f215146104ff5780639acea8d31461051d5780639d76ea5814610539578063ac2f0074146105575761021c565b806385a20cf91461044f5780638d93fc0a1461046d5780638d9776721461048b5780638da5cb5b146104c35761021c565b806368e12342116101a8578063715018a611610177578063715018a6146103c1578063785faee4146103cb578063793a4bbd146103e75780637a9b6ef7146104035780637fb732211461041f5761021c565b806368e12342146103355780636c03c7a9146103515780636edbe3a3146103895780636f2a4068146103a55761021c565b806334d819d5116101ef57806334d819d5146102a757806339da3152146102c357806342b200ba146102e1578063435fa77c146102fd57806348fb1f01146103195761021c565b806304655aa3146102215780631861b90c1461023d5780632425795a146102595780632ed64cbc1461028b575b600080fd5b61023b600480360381019061023691906136b5565b6106c9565b005b610257600480360381019061025291906136f5565b610bc6565b005b610273600480360381019061026e91906136f5565b610d12565b604051610282939291906137e9565b60405180910390f35b6102a560048036038101906102a091906136b5565b610d69565b005b6102c160048036038101906102bc9190613820565b61113e565b005b6102cb611568565b6040516102d891906138d2565b60405180910390f35b6102fb60048036038101906102f69190613919565b61158e565b005b61031760048036038101906103129190613919565b6115da565b005b610333600480360381019061032e91906136b5565b611626565b005b61034f600480360381019061034a9190613919565b611923565b005b61036b600480360381019061036691906136f5565b61196f565b6040516103809998979695949392919061398e565b60405180910390f35b6103a3600480360381019061039e9190613a1b565b611a2a565b005b6103bf60048036038101906103ba91906136f5565b611d20565b005b6103c9611f3e565b005b6103e560048036038101906103e09190613919565b611f52565b005b61040160048036038101906103fc91906136b5565b61222f565b005b61041d60048036038101906104189190613919565b6126ac565b005b610439600480360381019061043491906136f5565b6126f8565b6040516104469190613c3c565b60405180910390f35b61045761298a565b6040516104649190613c5e565b60405180910390f35b610475612990565b6040516104829190613c9a565b60405180910390f35b6104a560048036038101906104a091906136f5565b6129b6565b6040516104ba9998979695949392919061398e565b60405180910390f35b6104cb612a81565b6040516104d89190613cb5565b60405180910390f35b6104e9612aaa565b6040516104f69190613c5e565b60405180910390f35b610507612ab0565b6040516105149190613eb3565b60405180910390f35b610537600480360381019061053291906136f5565b612c6f565b005b610541612d41565b60405161054e9190613cb5565b60405180910390f35b610571600480360381019061056c91906136f5565b612d67565b604051610580939291906137e9565b60405180910390f35b610591612dce565b60405161059e9190613c5e565b60405180910390f35b6105af612dd4565b6040516105bc9190613ef6565b60405180910390f35b6105df60048036038101906105da91906136f5565b612dfa565b6040516105ec919061406b565b60405180910390f35b61060f600480360381019061060a9190614239565b612fb9565b005b61061961316d565b6040516106269190614288565b60405180910390f35b61064960048036038101906106449190613919565b613193565b005b610665600480360381019061066091906136f5565b613216565b6040516106739291906142b2565b60405180910390f35b610696600480360381019061069191906136f5565b613257565b6040516106a49291906142b2565b60405180910390f35b6106c760048036038101906106c29190613919565b613288565b005b6001828160058111156106df576106de613772565b5b600c600083815260200190815260200160002060080160009054906101000a900460ff16600581111561071557610714613772565b5b14610755576040517f08c379a000000000000000000000000000000000000000000000000000000000815260040161074c90614338565b60405180910390fd5b600c600085815260200190815260200160002060050160009054906101000a900473ffffffffffffffffffffffffffffffffffffffff1673ffffffffffffffffffffffffffffffffffffffff163373ffffffffffffffffffffffffffffffffffffffff16146107f9576040517f08c379a00000000000000000000000000000000000000000000000000000000081526004016107f0906143a4565b60405180910390fd5b83600c60008681526020019081526020016000206000015414610851576040517f08c379a000000000000000000000000000000000000000000000000000000000815260040161084890614410565b60405180910390fd5b6000600360009054906101000a900473ffffffffffffffffffffffffffffffffffffffff1673ffffffffffffffffffffffffffffffffffffffff16635ebf340e336040518263ffffffff1660e01b81526004016108ae9190613cb5565b6020604051808303816000875af11580156108cd573d6000803e3d6000fd5b505050506040513d601f19601f820116820180604052508101906108f19190614445565b905083600460009054906101000a900473ffffffffffffffffffffffffffffffffffffffff1673ffffffffffffffffffffffffffffffffffffffff1663f7888aec33600560009054906101000a900473ffffffffffffffffffffffffffffffffffffffff166040518363ffffffff1660e01b8152600401610973929190614472565b6020604051808303816000875af1158015610992573d6000803e3d6000fd5b505050506040513d601f19601f820116820180604052508101906109b69190614445565b10156109f7576040517f08c379a00000000000000000000000000000000000000000000000000000000081526004016109ee906144e7565b60405180910390fd5b80841015610a3a576040517f08c379a0000000000000000000000000000000000000000000000000000000008152600401610a3190614579565b60405180910390fd5b600460009054906101000a900473ffffffffffffffffffffffffffffffffffffffff1673ffffffffffffffffffffffffffffffffffffffff1663f18d03cc33600560009054906101000a900473ffffffffffffffffffffffffffffffffffffffff16600460009054906101000a900473ffffffffffffffffffffffffffffffffffffffff16886040518563ffffffff1660e01b8152600401610adf9493929190614599565b600060405180830381600087803b158015610af957600080fd5b505af1158015610b0d573d6000803e3d6000fd5b505050506003600c600087815260200190815260200160002060080160006101000a81548160ff02191690836005811115610b4b57610b4a613772565b5b021790555042600c6000878152602001908152602001600020600701819055503373ffffffffffffffffffffffffffffffffffffffff16857f6dea5495da67ec795242dd1153bfe9e2d4f8e7b0b8ed23e8ea87117243698f4142600388604051610bb7939291906145de565b60405180910390a35050505050565b610bce6134e3565b60076000815480929190610be190614644565b9190505550600754816000018181525050600081604001906003811115610c0b57610c0a613772565b5b90816003811115610c1f57610c1e613772565b5b8152505080600e60006007548152602001908152602001600020600082015181600001556020820151816001019080519060200190610c5f929190613516565b5060408201518160020160006101000a81548160ff02191690836003811115610c8b57610c8a613772565b5b0217905550905050600d60008381526020019081526020016000206002016007549080600181540180825580915050600190039060005260206000200160009091909190915055816007547f052d58841974a9fb2d33ae2d55c1a7a5a100b612c792773478c1f897e123c6246000604051610d06919061468c565b60405180910390a35050565b600d6020528060005260406000206000915090508060000154908060010160009054906101000a900473ffffffffffffffffffffffffffffffffffffffff16908060030160009054906101000a900460ff16905083565b600082600073ffffffffffffffffffffffffffffffffffffffff16600d600083815260200190815260200160002060010160009054906101000a900473ffffffffffffffffffffffffffffffffffffffff1673ffffffffffffffffffffffffffffffffffffffff1603610e11576040517f08c379a0000000000000000000000000000000000000000000000000000000008152600401610e08906146f3565b60405180910390fd5b816002811115610e2457610e23613772565b5b600d600083815260200190815260200160002060030160009054906101000a900460ff166002811115610e5a57610e59613772565b5b14610e9a576040517f08c379a0000000000000000000000000000000000000000000000000000000008152600401610e919061475f565b60405180910390fd5b600d600085815260200190815260200160002060010160009054906101000a900473ffffffffffffffffffffffffffffffffffffffff1673ffffffffffffffffffffffffffffffffffffffff163373ffffffffffffffffffffffffffffffffffffffff1614610f3e576040517f08c379a0000000000000000000000000000000000000000000000000000000008152600401610f35906147cb565b60405180910390fd5b60008311610f81576040517f08c379a0000000000000000000000000000000000000000000000000000000008152600401610f7890614837565b60405180910390fd5b6000600d60008681526020019081526020016000206002018054905011610fdd576040517f08c379a0000000000000000000000000000000000000000000000000000000008152600401610fd4906148a3565b60405180910390fd5b6001600d600086815260200190815260200160002060030160006101000a81548160ff0219169083600281111561101757611016613772565b5b0217905550600260009054906101000a900473ffffffffffffffffffffffffffffffffffffffff1673ffffffffffffffffffffffffffffffffffffffff1663b1ed87de8585600d60008981526020019081526020016000206002016040518463ffffffff1660e01b8152600401611090939291906149aa565b600060405180830381600087803b1580156110aa57600080fd5b505af11580156110be573d6000803e3d6000fd5b505050503373ffffffffffffffffffffffffffffffffffffffff16847f3c8b8b4a3858f4fc2413b52ff2a6744af5c45313454e7e567fbf59b1cf1235a98542600d60008a815260200190815260200160002060030160009054906101000a900460ff16604051611130939291906149e8565b60405180910390a350505050565b60018281600381111561115457611153613772565b5b600e600083815260200190815260200160002060020160009054906101000a900460ff16600381111561118a57611189613772565b5b146111ca576040517f08c379a00000000000000000000000000000000000000000000000000000000081526004016111c190614a6b565b60405180910390fd5b6002600e600086815260200190815260200160002060020160006101000a81548160ff0219169083600381111561120457611203613772565b5b02179055506000600e60008681526020019081526020016000206001018054905067ffffffffffffffff81111561123e5761123d6140a3565b5b60405190808252806020026020018201604052801561127757816020015b611264613563565b81526020019060019003908161125c5790505b50905060005b600e60008781526020019081526020016000206001018054905081101561148f57600c6000600e600089815260200190815260200160002060010183815481106112ca576112c9614a8b565b5b9060005260206000200154815260200190815260200160002060405180610120016040529081600082015481526020016001820154815260200160028201548152602001600382015481526020016004820160009054906101000a900473ffffffffffffffffffffffffffffffffffffffff1673ffffffffffffffffffffffffffffffffffffffff1673ffffffffffffffffffffffffffffffffffffffff1681526020016005820160009054906101000a900473ffffffffffffffffffffffffffffffffffffffff1673ffffffffffffffffffffffffffffffffffffffff1673ffffffffffffffffffffffffffffffffffffffff1681526020016006820160009054906101000a900473ffffffffffffffffffffffffffffffffffffffff1673ffffffffffffffffffffffffffffffffffffffff1673ffffffffffffffffffffffffffffffffffffffff168152602001600782015481526020016008820160009054906101000a900460ff16600581111561144857611447613772565b5b600581111561145a57611459613772565b5b8152505082828151811061147157611470614a8b565b5b6020026020010181905250808061148790614644565b91505061127d565b50600160009054906101000a900473ffffffffffffffffffffffffffffffffffffffff1673ffffffffffffffffffffffffffffffffffffffff16633d7469d2878388886040518563ffffffff1660e01b81526004016114f19493929190614aba565b600060405180830381600087803b15801561150b57600080fd5b505af115801561151f573d6000803e3d6000fd5b50505050847fa8bea390d9982d0ee49859be0a341988f8924ac0fff7e4c1c86637095d7e21548542600260405161155893929190614b06565b60405180910390a2505050505050565b600360009054906101000a900473ffffffffffffffffffffffffffffffffffffffff1681565b6115966132d4565b80600560006101000a81548173ffffffffffffffffffffffffffffffffffffffff021916908373ffffffffffffffffffffffffffffffffffffffff16021790555050565b6115e26132d4565b80600360006101000a81548173ffffffffffffffffffffffffffffffffffffffff021916908373ffffffffffffffffffffffffffffffffffffffff16021790555050565b60038281600581111561163c5761163b613772565b5b600c600083815260200190815260200160002060080160009054906101000a900460ff16600581111561167257611671613772565b5b146116b2576040517f08c379a00000000000000000000000000000000000000000000000000000000081526004016116a990614338565b60405180910390fd5b600c600085815260200190815260200160002060060160009054906101000a900473ffffffffffffffffffffffffffffffffffffffff1673ffffffffffffffffffffffffffffffffffffffff163373ffffffffffffffffffffffffffffffffffffffff1614806117835750600c600085815260200190815260200160002060050160009054906101000a900473ffffffffffffffffffffffffffffffffffffffff1673ffffffffffffffffffffffffffffffffffffffff163373ffffffffffffffffffffffffffffffffffffffff16145b6117c2576040517f08c379a00000000000000000000000000000000000000000000000000000000081526004016117b990614b89565b60405180910390fd5b600c600085815260200190815260200160002060060160009054906101000a900473ffffffffffffffffffffffffffffffffffffffff1673ffffffffffffffffffffffffffffffffffffffff163373ffffffffffffffffffffffffffffffffffffffff16036118475782600c6000868152602001908152602001600020600101819055505b600c600085815260200190815260200160002060050160009054906101000a900473ffffffffffffffffffffffffffffffffffffffff1673ffffffffffffffffffffffffffffffffffffffff163373ffffffffffffffffffffffffffffffffffffffff16036118cc5782600c6000868152602001908152602001600020600101819055505b3373ffffffffffffffffffffffffffffffffffffffff16847f5b229384b7df9a4eed61352626b300c5ade2b6900738b23d481b01dd6532bed88542604051611915929190614ba9565b60405180910390a350505050565b61192b6132d4565b80600160006101000a81548173ffffffffffffffffffffffffffffffffffffffff021916908373ffffffffffffffffffffffffffffffffffffffff16021790555050565b600c6020528060005260406000206000915090508060000154908060010154908060020154908060030154908060040160009054906101000a900473ffffffffffffffffffffffffffffffffffffffff16908060050160009054906101000a900473ffffffffffffffffffffffffffffffffffffffff16908060060160009054906101000a900473ffffffffffffffffffffffffffffffffffffffff16908060070154908060080160009054906101000a900460ff16905089565b611a32613563565b60086000815480929190611a4590614644565b919050555060085481600001818152505085816020018181525050848160400181815250508381606001818152505082816080019073ffffffffffffffffffffffffffffffffffffffff16908173ffffffffffffffffffffffffffffffffffffffff1681525050818160c0019073ffffffffffffffffffffffffffffffffffffffff16908173ffffffffffffffffffffffffffffffffffffffff168152505060008161010001906005811115611afe57611afd613772565b5b90816005811115611b1257611b11613772565b5b81525050600e6000888152602001908152602001600020600101600854908060018154018082558091505060019003906000526020600020016000909190919091505580600c600060085481526020019081526020016000206000820151816000015560208201518160010155604082015181600201556060820151816003015560808201518160040160006101000a81548173ffffffffffffffffffffffffffffffffffffffff021916908373ffffffffffffffffffffffffffffffffffffffff16021790555060a08201518160050160006101000a81548173ffffffffffffffffffffffffffffffffffffffff021916908373ffffffffffffffffffffffffffffffffffffffff16021790555060c08201518160060160006101000a81548173ffffffffffffffffffffffffffffffffffffffff021916908373ffffffffffffffffffffffffffffffffffffffff16021790555060e082015181600701556101008201518160080160006101000a81548160ff02191690836005811115611c9e57611c9d613772565b5b02179055509050508173ffffffffffffffffffffffffffffffffffffffff168373ffffffffffffffffffffffffffffffffffffffff16887f3c5215ce77d10b70bf61356a248d964111923ae20588d36bd4b877d26827b8866008548a8a8a6000604051611d0f959493929190614bd2565b60405180910390a450505050505050565b600381816005811115611d3657611d35613772565b5b600c600083815260200190815260200160002060080160009054906101000a900460ff166005811115611d6c57611d6b613772565b5b14611dac576040517f08c379a0000000000000000000000000000000000000000000000000000000008152600401611da390614338565b60405180910390fd5b82600c60008581526020019081526020016000206000015414611e04576040517f08c379a0000000000000000000000000000000000000000000000000000000008152600401611dfb90614410565b60405180910390fd5b600c600084815260200190815260200160002060050160009054906101000a900473ffffffffffffffffffffffffffffffffffffffff1673ffffffffffffffffffffffffffffffffffffffff163373ffffffffffffffffffffffffffffffffffffffff1614611ea8576040517f08c379a0000000000000000000000000000000000000000000000000000000008152600401611e9f906143a4565b60405180910390fd5b6004600c600085815260200190815260200160002060080160006101000a81548160ff02191690836005811115611ee257611ee1613772565b5b02179055503373ffffffffffffffffffffffffffffffffffffffff16837f4a6651a8a4523ecdd2253c608b6eb24b0341e55899d82ec0a7196fb1ab3e0925426004604051611f31929190614c25565b60405180910390a3505050565b611f466132d4565b611f506000613352565b565b600073ffffffffffffffffffffffffffffffffffffffff168173ffffffffffffffffffffffffffffffffffffffff1603611fc1576040517f08c379a0000000000000000000000000000000000000000000000000000000008152600401611fb890614c9a565b60405180910390fd5b611fc9613603565b60066000815480929190611fdc90614644565b919050555060065481600001818152505081816020019073ffffffffffffffffffffffffffffffffffffffff16908173ffffffffffffffffffffffffffffffffffffffff168152505060008160600190600281111561203e5761203d613772565b5b9081600281111561205257612051613772565b5b8152505080600d600060065481526020019081526020016000206000820151816000015560208201518160010160006101000a81548173ffffffffffffffffffffffffffffffffffffffff021916908373ffffffffffffffffffffffffffffffffffffffff16021790555060408201518160020190805190602001906120d9929190613516565b5060608201518160030160006101000a81548160ff0219169083600281111561210557612104613772565b5b0217905550905050600a8190806001815401808255809150506001900390600052602060002090600402016000909190919091506000820151816000015560208201518160010160006101000a81548173ffffffffffffffffffffffffffffffffffffffff021916908373ffffffffffffffffffffffffffffffffffffffff16021790555060408201518160020190805190602001906121a6929190613516565b5060608201518160030160006101000a81548160ff021916908360028111156121d2576121d1613772565b5b021790555050508173ffffffffffffffffffffffffffffffffffffffff166006547f4f4f87b2b948be42035cc086b1a4727e5d8169af7efcfc2bd87db90e295b0fb460006040516122239190614cba565b60405180910390a35050565b60048281600581111561224557612244613772565b5b600c600083815260200190815260200160002060080160009054906101000a900460ff16600581111561227b5761227a613772565b5b146122bb576040517f08c379a00000000000000000000000000000000000000000000000000000000081526004016122b290614338565b60405180910390fd5b600c600085815260200190815260200160002060060160009054906101000a900473ffffffffffffffffffffffffffffffffffffffff1673ffffffffffffffffffffffffffffffffffffffff163373ffffffffffffffffffffffffffffffffffffffff161461235f576040517f08c379a000000000000000000000000000000000000000000000000000000000815260040161235690614d21565b60405180910390fd5b83600c600086815260200190815260200160002060000154146123b7576040517f08c379a00000000000000000000000000000000000000000000000000000000081526004016123ae90614d8d565b60405180910390fd5b61240c6040518060400160405280600681526020017f7265776172640000000000000000000000000000000000000000000000000000815250600c600087815260200190815260200160002060020154613416565b6000606484600c6000888152602001908152602001600020600201546124329190614dad565b61243c9190614e1e565b9050600460009054906101000a900473ffffffffffffffffffffffffffffffffffffffff1673ffffffffffffffffffffffffffffffffffffffff1663f18d03cc600460009054906101000a900473ffffffffffffffffffffffffffffffffffffffff16600560009054906101000a900473ffffffffffffffffffffffffffffffffffffffff16600c60008a815260200190815260200160002060050160009054906101000a900473ffffffffffffffffffffffffffffffffffffffff16856040518563ffffffff1660e01b81526004016125199493929190614599565b600060405180830381600087803b15801561253357600080fd5b505af1158015612547573d6000803e3d6000fd5b50505050600360009054906101000a900473ffffffffffffffffffffffffffffffffffffffff1673ffffffffffffffffffffffffffffffffffffffff16635873074686600c600089815260200190815260200160002060050160009054906101000a900473ffffffffffffffffffffffffffffffffffffffff16876040518463ffffffff1660e01b81526004016125e093929190614e4f565b600060405180830381600087803b1580156125fa57600080fd5b505af115801561260e573d6000803e3d6000fd5b505050506005600c600087815260200190815260200160002060080160006101000a81548160ff0219169083600581111561264c5761264b613772565b5b02179055503373ffffffffffffffffffffffffffffffffffffffff16857f59740400b1e66dd4640c547de08c4922a69ed5384ebd7e670c7cd49dbf2f4e708660054260405161269d939291906145de565b60405180910390a35050505050565b6126b46132d4565b80600460006101000a81548173ffffffffffffffffffffffffffffffffffffffff021916908373ffffffffffffffffffffffffffffffffffffffff16021790555050565b60606000600e60008481526020019081526020016000206001018054905067ffffffffffffffff81111561272f5761272e6140a3565b5b60405190808252806020026020018201604052801561276857816020015b612755613563565b81526020019060019003908161274d5790505b50905060005b600e60008581526020019081526020016000206001018054905081101561298057600c6000600e600087815260200190815260200160002060010183815481106127bb576127ba614a8b565b5b9060005260206000200154815260200190815260200160002060405180610120016040529081600082015481526020016001820154815260200160028201548152602001600382015481526020016004820160009054906101000a900473ffffffffffffffffffffffffffffffffffffffff1673ffffffffffffffffffffffffffffffffffffffff1673ffffffffffffffffffffffffffffffffffffffff1681526020016005820160009054906101000a900473ffffffffffffffffffffffffffffffffffffffff1673ffffffffffffffffffffffffffffffffffffffff1673ffffffffffffffffffffffffffffffffffffffff1681526020016006820160009054906101000a900473ffffffffffffffffffffffffffffffffffffffff1673ffffffffffffffffffffffffffffffffffffffff1673ffffffffffffffffffffffffffffffffffffffff168152602001600782015481526020016008820160009054906101000a900460ff16600581111561293957612938613772565b5b600581111561294b5761294a613772565b5b8152505082828151811061296257612961614a8b565b5b6020026020010181905250808061297890614644565b91505061276e565b5080915050919050565b60075481565b600160009054906101000a900473ffffffffffffffffffffffffffffffffffffffff1681565b600981815481106129c657600080fd5b90600052602060002090600902016000915090508060000154908060010154908060020154908060030154908060040160009054906101000a900473ffffffffffffffffffffffffffffffffffffffff16908060050160009054906101000a900473ffffffffffffffffffffffffffffffffffffffff16908060060160009054906101000a900473ffffffffffffffffffffffffffffffffffffffff16908060070154908060080160009054906101000a900460ff16905089565b60008060009054906101000a900473ffffffffffffffffffffffffffffffffffffffff16905090565b60065481565b6060600060065467ffffffffffffffff811115612ad057612acf6140a3565b5b604051908082528060200260200182016040528015612b0957816020015b612af6613603565b815260200190600190039081612aee5790505b50905060005b600654811015612c6757600d6000600183612b2a9190614e86565b8152602001908152602001600020604051806080016040529081600082015481526020016001820160009054906101000a900473ffffffffffffffffffffffffffffffffffffffff1673ffffffffffffffffffffffffffffffffffffffff1673ffffffffffffffffffffffffffffffffffffffff16815260200160028201805480602002602001604051908101604052809291908181526020018280548015612bf257602002820191906000526020600020905b815481526020019060010190808311612bde575b505050505081526020016003820160009054906101000a900460ff166002811115612c2057612c1f613772565b5b6002811115612c3257612c31613772565b5b81525050828281518110612c4957612c48614a8b565b5b60200260200101819052508080612c5f90614644565b915050612b0f565b508091505090565b600260009054906101000a900473ffffffffffffffffffffffffffffffffffffffff1673ffffffffffffffffffffffffffffffffffffffff163373ffffffffffffffffffffffffffffffffffffffff1614612cff576040517f08c379a0000000000000000000000000000000000000000000000000000000008152600401612cf690614f06565b60405180910390fd5b6001600e600083815260200190815260200160002060020160006101000a81548160ff02191690836003811115612d3957612d38613772565b5b021790555050565b600560009054906101000a900473ffffffffffffffffffffffffffffffffffffffff1681565b600a8181548110612d7757600080fd5b90600052602060002090600402016000915090508060000154908060010160009054906101000a900473ffffffffffffffffffffffffffffffffffffffff16908060030160009054906101000a900460ff16905083565b60085481565b600260009054906101000a900473ffffffffffffffffffffffffffffffffffffffff1681565b60606000600d60008481526020019081526020016000206002018054905067ffffffffffffffff811115612e3157612e306140a3565b5b604051908082528060200260200182016040528015612e6a57816020015b612e576134e3565b815260200190600190039081612e4f5790505b50905060005b600d600085815260200190815260200160002060020180549050811015612faf57600e6000600d60008781526020019081526020016000206002018381548110612ebd57612ebc614a8b565b5b906000526020600020015481526020019081526020016000206040518060600160405290816000820154815260200160018201805480602002602001604051908101604052809291908181526020018280548015612f3a57602002820191906000526020600020905b815481526020019060010190808311612f26575b505050505081526020016002820160009054906101000a900460ff166003811115612f6857612f67613772565b5b6003811115612f7a57612f79613772565b5b81525050828281518110612f9157612f90614a8b565b5b60200260200101819052508080612fa790614644565b915050612e70565b5080915050919050565b600160009054906101000a900473ffffffffffffffffffffffffffffffffffffffff1673ffffffffffffffffffffffffffffffffffffffff163373ffffffffffffffffffffffffffffffffffffffff1614613049576040517f08c379a000000000000000000000000000000000000000000000000000000000815260040161304090614f72565b60405180910390fd5b8060400151600c600083600001518152602001908152602001600020600201819055508060a00151600c60008360000151815260200190815260200160002060050160006101000a81548173ffffffffffffffffffffffffffffffffffffffff021916908373ffffffffffffffffffffffffffffffffffffffff1602179055506001600c60008360000151815260200190815260200160002060080160006101000a81548160ff0219169083600581111561310757613106613772565b5b02179055508060a0015173ffffffffffffffffffffffffffffffffffffffff1681600001517f920e43a70e254a0f059f29c319db623ba9b9123360c97c5d12da8474342750f683604001516001604051613162929190614c25565b60405180910390a350565b600460009054906101000a900473ffffffffffffffffffffffffffffffffffffffff1681565b61319b6132d4565b600073ffffffffffffffffffffffffffffffffffffffff168173ffffffffffffffffffffffffffffffffffffffff160361320a576040517f08c379a000000000000000000000000000000000000000000000000000000000815260040161320190615004565b60405180910390fd5b61321381613352565b50565b600b818154811061322657600080fd5b90600052602060002090600302016000915090508060000154908060020160009054906101000a900460ff16905082565b600e6020528060005260406000206000915090508060000154908060020160009054906101000a900460ff16905082565b6132906132d4565b80600260006101000a81548173ffffffffffffffffffffffffffffffffffffffff021916908373ffffffffffffffffffffffffffffffffffffffff16021790555050565b6132dc6134b2565b73ffffffffffffffffffffffffffffffffffffffff166132fa612a81565b73ffffffffffffffffffffffffffffffffffffffff1614613350576040517f08c379a000000000000000000000000000000000000000000000000000000000815260040161334790615070565b60405180910390fd5b565b60008060009054906101000a900473ffffffffffffffffffffffffffffffffffffffff169050816000806101000a81548173ffffffffffffffffffffffffffffffffffffffff021916908373ffffffffffffffffffffffffffffffffffffffff1602179055508173ffffffffffffffffffffffffffffffffffffffff168173ffffffffffffffffffffffffffffffffffffffff167f8be0079c531659141344cd1fd0a4f28419497f9722a3daafe3b4186f6b6457e060405160405180910390a35050565b6134ae828260405160240161342c9291906150fe565b6040516020818303038152906040527fb60e72cc000000000000000000000000000000000000000000000000000000007bffffffffffffffffffffffffffffffffffffffffffffffffffffffff19166020820180517bffffffffffffffffffffffffffffffffffffffffffffffffffffffff83818316178352505050506134ba565b5050565b600033905090565b60008151905060006a636f6e736f6c652e6c6f679050602083016000808483855afa5050505050565b60405180606001604052806000815260200160608152602001600060038111156135105761350f613772565b5b81525090565b828054828255906000526020600020908101928215613552579160200282015b82811115613551578251825591602001919060010190613536565b5b50905061355f9190613653565b5090565b60405180610120016040528060008152602001600081526020016000815260200160008152602001600073ffffffffffffffffffffffffffffffffffffffff168152602001600073ffffffffffffffffffffffffffffffffffffffff168152602001600073ffffffffffffffffffffffffffffffffffffffff16815260200160008152602001600060058111156135fd576135fc613772565b5b81525090565b604051806080016040528060008152602001600073ffffffffffffffffffffffffffffffffffffffff168152602001606081526020016000600281111561364d5761364c613772565b5b81525090565b5b8082111561366c576000816000905550600101613654565b5090565b6000604051905090565b600080fd5b6000819050919050565b6136928161367f565b811461369d57600080fd5b50565b6000813590506136af81613689565b92915050565b600080604083850312156136cc576136cb61367a565b5b60006136da858286016136a0565b92505060206136eb858286016136a0565b9150509250929050565b60006020828403121561370b5761370a61367a565b5b6000613719848285016136a0565b91505092915050565b61372b8161367f565b82525050565b600073ffffffffffffffffffffffffffffffffffffffff82169050919050565b600061375c82613731565b9050919050565b61376c81613751565b82525050565b7f4e487b7100000000000000000000000000000000000000000000000000000000600052602160045260246000fd5b600381106137b2576137b1613772565b5b50565b60008190506137c3826137a1565b919050565b60006137d3826137b5565b9050919050565b6137e3816137c8565b82525050565b60006060820190506137fe6000830186613722565b61380b6020830185613763565b61381860408301846137da565b949350505050565b6000806000606084860312156138395761383861367a565b5b6000613847868287016136a0565b9350506020613858868287016136a0565b9250506040613869868287016136a0565b9150509250925092565b6000819050919050565b600061389861389361388e84613731565b613873565b613731565b9050919050565b60006138aa8261387d565b9050919050565b60006138bc8261389f565b9050919050565b6138cc816138b1565b82525050565b60006020820190506138e760008301846138c3565b92915050565b6138f681613751565b811461390157600080fd5b50565b600081359050613913816138ed565b92915050565b60006020828403121561392f5761392e61367a565b5b600061393d84828501613904565b91505092915050565b6006811061395757613956613772565b5b50565b600081905061396882613946565b919050565b60006139788261395a565b9050919050565b6139888161396d565b82525050565b6000610120820190506139a4600083018c613722565b6139b1602083018b613722565b6139be604083018a613722565b6139cb6060830189613722565b6139d86080830188613763565b6139e560a0830187613763565b6139f260c0830186613763565b6139ff60e0830185613722565b613a0d61010083018461397f565b9a9950505050505050505050565b60008060008060008060c08789031215613a3857613a3761367a565b5b6000613a4689828a016136a0565b9650506020613a5789828a016136a0565b9550506040613a6889828a016136a0565b9450506060613a7989828a016136a0565b9350506080613a8a89828a01613904565b92505060a0613a9b89828a01613904565b9150509295509295509295565b600081519050919050565b600082825260208201905092915050565b6000819050602082019050919050565b613add8161367f565b82525050565b613aec81613751565b82525050565b613afb8161396d565b82525050565b61012082016000820151613b186000850182613ad4565b506020820151613b2b6020850182613ad4565b506040820151613b3e6040850182613ad4565b506060820151613b516060850182613ad4565b506080820151613b646080850182613ae3565b5060a0820151613b7760a0850182613ae3565b5060c0820151613b8a60c0850182613ae3565b5060e0820151613b9d60e0850182613ad4565b50610100820151613bb2610100850182613af2565b50505050565b6000613bc48383613b01565b6101208301905092915050565b6000602082019050919050565b6000613be982613aa8565b613bf38185613ab3565b9350613bfe83613ac4565b8060005b83811015613c2f578151613c168882613bb8565b9750613c2183613bd1565b925050600181019050613c02565b5085935050505092915050565b60006020820190508181036000830152613c568184613bde565b905092915050565b6000602082019050613c736000830184613722565b92915050565b6000613c848261389f565b9050919050565b613c9481613c79565b82525050565b6000602082019050613caf6000830184613c8b565b92915050565b6000602082019050613cca6000830184613763565b92915050565b600081519050919050565b600082825260208201905092915050565b6000819050602082019050919050565b600081519050919050565b600082825260208201905092915050565b6000819050602082019050919050565b6000613d348383613ad4565b60208301905092915050565b6000602082019050919050565b6000613d5882613cfc565b613d628185613d07565b9350613d6d83613d18565b8060005b83811015613d9e578151613d858882613d28565b9750613d9083613d40565b925050600181019050613d71565b5085935050505092915050565b613db4816137c8565b82525050565b6000608083016000830151613dd26000860182613ad4565b506020830151613de56020860182613ae3565b5060408301518482036040860152613dfd8282613d4d565b9150506060830151613e126060860182613dab565b508091505092915050565b6000613e298383613dba565b905092915050565b6000602082019050919050565b6000613e4982613cd0565b613e538185613cdb565b935083602082028501613e6585613cec565b8060005b85811015613ea15784840389528151613e828582613e1d565b9450613e8d83613e31565b925060208a01995050600181019050613e69565b50829750879550505050505092915050565b60006020820190508181036000830152613ecd8184613e3e565b905092915050565b6000613ee08261389f565b9050919050565b613ef081613ed5565b82525050565b6000602082019050613f0b6000830184613ee7565b92915050565b600081519050919050565b600082825260208201905092915050565b6000819050602082019050919050565b60048110613f4e57613f4d613772565b5b50565b6000819050613f5f82613f3d565b919050565b6000613f6f82613f51565b9050919050565b613f7f81613f64565b82525050565b6000606083016000830151613f9d6000860182613ad4565b5060208301518482036020860152613fb58282613d4d565b9150506040830151613fca6040860182613f76565b508091505092915050565b6000613fe18383613f85565b905092915050565b6000602082019050919050565b600061400182613f11565b61400b8185613f1c565b93508360208202850161401d85613f2d565b8060005b85811015614059578484038952815161403a8582613fd5565b945061404583613fe9565b925060208a01995050600181019050614021565b50829750879550505050505092915050565b600060208201905081810360008301526140858184613ff6565b905092915050565b600080fd5b6000601f19601f8301169050919050565b7f4e487b7100000000000000000000000000000000000000000000000000000000600052604160045260246000fd5b6140db82614092565b810181811067ffffffffffffffff821117156140fa576140f96140a3565b5b80604052505050565b600061410d613670565b905061411982826140d2565b919050565b6006811061412b57600080fd5b50565b60008135905061413d8161411e565b92915050565b6000610140828403121561415a5761415961408d565b5b614165610140614103565b90506000614175848285016136a0565b6000830152506020614189848285016136a0565b602083015250604061419d848285016136a0565b60408301525060606141b1848285016136a0565b60608301525060806141c584828501613904565b60808301525060a06141d984828501613904565b60a08301525060c06141ed84828501613904565b60c08301525060e06142018482850161412e565b60e083015250610100614216848285016136a0565b6101008301525061012061422c84828501613904565b6101208301525092915050565b600061014082840312156142505761424f61367a565b5b600061425e84828501614143565b91505092915050565b60006142728261389f565b9050919050565b61428281614267565b82525050565b600060208201905061429d6000830184614279565b92915050565b6142ac81613f64565b82525050565b60006040820190506142c76000830185613722565b6142d460208301846142a3565b9392505050565b600082825260208201905092915050565b7f4572726f723a20496e76616c6964205461736b20537461746500000000000000600082015250565b60006143226019836142db565b915061432d826142ec565b602082019050919050565b6000602082019050818103600083015261435181614315565b9050919050565b7f4f6e6c7920646f65722063616e2063616c6c0000000000000000000000000000600082015250565b600061438e6012836142db565b915061439982614358565b602082019050919050565b600060208201905081810360008301526143bd81614381565b9050919050565b7f7461736b4944206e6f7420666f756e6400000000000000000000000000000000600082015250565b60006143fa6010836142db565b9150614405826143c4565b602082019050919050565b60006020820190508181036000830152614429816143ed565b9050919050565b60008151905061443f81613689565b92915050565b60006020828403121561445b5761445a61367a565b5b600061446984828501614430565b91505092915050565b60006040820190506144876000830185613763565b6144946020830184613763565b9392505050565b7f596f75722062616c616e6365206e6f7420656e6f756768000000000000000000600082015250565b60006144d16017836142db565b91506144dc8261449b565b602082019050919050565b60006020820190508181036000830152614500816144c4565b9050919050565b7f4e6f742070726f7669646520656e6f756768206d6f6e657920746f207265636560008201527f697665207461736b210000000000000000000000000000000000000000000000602082015250565b60006145636029836142db565b915061456e82614507565b604082019050919050565b6000602082019050818103600083015261459281614556565b9050919050565b60006080820190506145ae6000830187613763565b6145bb6020830186613763565b6145c86040830185613763565b6145d56060830184613722565b95945050505050565b60006060820190506145f36000830186613722565b614600602083018561397f565b61460d6040830184613722565b949350505050565b7f4e487b7100000000000000000000000000000000000000000000000000000000600052601160045260246000fd5b600061464f8261367f565b91507fffffffffffffffffffffffffffffffffffffffffffffffffffffffffffffffff820361468157614680614615565b5b600182019050919050565b60006020820190506146a160008301846142a3565b92915050565b7f506f6c6c206e6f74206578697374210000000000000000000000000000000000600082015250565b60006146dd600f836142db565b91506146e8826146a7565b602082019050919050565b6000602082019050818103600083015261470c816146d0565b9050919050565b7f4572726f723a20496e76616c696420506f6c6c20537461746500000000000000600082015250565b60006147496019836142db565b915061475482614713565b602082019050919050565b600060208201905081810360008301526147788161473c565b9050919050565b7f596f75206e6f74206f776e207468697320506f6c6c0000000000000000000000600082015250565b60006147b56015836142db565b91506147c08261477f565b602082019050919050565b600060208201905081810360008301526147e4816147a8565b9050919050565b7f766f7465206475726174696f6e206d75737420626520706f7369746976650000600082015250565b6000614821601e836142db565b915061482c826147eb565b602082019050919050565b6000602082019050818103600083015261485081614814565b9050919050565b7f506f6c6c206f70656e206d757374206e6f7420626520656d7074790000000000600082015250565b600061488d601b836142db565b915061489882614857565b602082019050919050565b600060208201905081810360008301526148bc81614880565b9050919050565b600081549050919050565b600082825260208201905092915050565b60008190508160005260206000209050919050565b60008160001c9050919050565b6000819050919050565b600061491e614919836148f4565b614901565b9050919050565b6000614931825461490b565b9050919050565b6000600182019050919050565b6000614950826148c3565b61495a81856148ce565b9350614965836148df565b8060005b8381101561499d5761497a82614925565b6149848882613d28565b975061498f83614938565b925050600181019050614969565b5085935050505092915050565b60006060820190506149bf6000830186613722565b6149cc6020830185613722565b81810360408301526149de8184614945565b9050949350505050565b60006060820190506149fd6000830186613722565b614a0a6020830185613722565b614a1760408301846137da565b949350505050565b7f4572726f723a20496e76616c6964204261746368205461736b20537461746500600082015250565b6000614a55601f836142db565b9150614a6082614a1f565b602082019050919050565b60006020820190508181036000830152614a8481614a48565b9050919050565b7f4e487b7100000000000000000000000000000000000000000000000000000000600052603260045260246000fd5b6000608082019050614acf6000830187613722565b8181036020830152614ae18186613bde565b9050614af06040830185613722565b614afd6060830184613722565b95945050505050565b6000606082019050614b1b6000830186613722565b614b286020830185613722565b614b3560408301846142a3565b949350505050565b7f4f6e6c7920646f6572206f722072657669657765722063616e2063616c6c0000600082015250565b6000614b73601e836142db565b9150614b7e82614b3d565b602082019050919050565b60006020820190508181036000830152614ba281614b66565b9050919050565b6000604082019050614bbe6000830185613722565b614bcb6020830184613722565b9392505050565b600060a082019050614be76000830188613722565b614bf46020830187613722565b614c016040830186613722565b614c0e6060830185613722565b614c1b608083018461397f565b9695505050505050565b6000604082019050614c3a6000830185613722565b614c47602083018461397f565b9392505050565b7f57726f6e6720706f6c6c206f776e657220616464726573730000000000000000600082015250565b6000614c846018836142db565b9150614c8f82614c4e565b602082019050919050565b60006020820190508181036000830152614cb381614c77565b9050919050565b6000602082019050614ccf60008301846137da565b92915050565b7f4f6e6c792072657669657765722063616e2063616c6c00000000000000000000600082015250565b6000614d0b6016836142db565b9150614d1682614cd5565b602082019050919050565b60006020820190508181036000830152614d3a81614cfe565b9050919050565b7f7461736b4944206f722062617463685461736b4944206e6f7420666f756e6400600082015250565b6000614d77601f836142db565b9150614d8282614d41565b602082019050919050565b60006020820190508181036000830152614da681614d6a565b9050919050565b6000614db88261367f565b9150614dc38361367f565b9250828202614dd18161367f565b91508282048414831517614de857614de7614615565b5b5092915050565b7f4e487b7100000000000000000000000000000000000000000000000000000000600052601260045260246000fd5b6000614e298261367f565b9150614e348361367f565b925082614e4457614e43614def565b5b828204905092915050565b6000606082019050614e646000830186613722565b614e716020830185613763565b614e7e6040830184613722565b949350505050565b6000614e918261367f565b9150614e9c8361367f565b9250828201905080821115614eb457614eb3614615565b5b92915050565b7f4f6e6c792063616c6c2062792042617463685461736b566f74696e6700000000600082015250565b6000614ef0601c836142db565b9150614efb82614eba565b602082019050919050565b60006020820190508181036000830152614f1f81614ee3565b9050919050565b7f4f6e6c792063616c6c206279205461736b41756374696f6e0000000000000000600082015250565b6000614f5c6018836142db565b9150614f6782614f26565b602082019050919050565b60006020820190508181036000830152614f8b81614f4f565b9050919050565b7f4f776e61626c653a206e6577206f776e657220697320746865207a65726f206160008201527f6464726573730000000000000000000000000000000000000000000000000000602082015250565b6000614fee6026836142db565b9150614ff982614f92565b604082019050919050565b6000602082019050818103600083015261501d81614fe1565b9050919050565b7f4f776e61626c653a2063616c6c6572206973206e6f7420746865206f776e6572600082015250565b600061505a6020836142db565b915061506582615024565b602082019050919050565b600060208201905081810360008301526150898161504d565b9050919050565b600081519050919050565b60005b838110156150b957808201518184015260208101905061509e565b60008484015250505050565b60006150d082615090565b6150da81856142db565b93506150ea81856020860161509b565b6150f381614092565b840191505092915050565b6000604082019050818103600083015261511881856150c5565b90506151276020830184613722565b939250505056fea26469706673582212207f060400dbbf6832c0c411516cb36426a82afbed4e54afa34eac86d4bf61e54f64736f6c63430008110033",
  "linkReferences": {},
  "deployedLinkReferences": {}
}