{
  "_format": "hh-sol-artifact-1",
  "contractName": "Token",
  "sourceName": "contracts/Token.sol",
  "abi": [
    {
      "inputs": [
        {
          "internalType": "string",
          "name": "name",
          "type": "string"
        },
        {
          "internalType": "string",
          "name": "symbol",
          "type": "string"
        }
      ],
      "stateMutability": "nonpayable",
      "type": "constructor"
    },
    {
      "anonymous": false,
      "inputs": [
        {
          "indexed": true,
          "internalType": "address",
          "name": "owner",
          "type": "address"
        },
        {
          "indexed": true,
          "internalType": "address",
          "name": "spender",
          "type": "address"
        },
        {
          "indexed": false,
          "internalType": "uint256",
          "name": "value",
          "type": "uint256"
        }
      ],
      "name": "Approval",
      "type": "event"
    },
    {
      "anonymous": false,
      "inputs": [
        {
          "indexed": true,
          "internalType": "address",
          "name": "from",
          "type": "address"
        },
        {
          "indexed": true,
          "internalType": "address",
          "name": "to",
          "type": "address"
        },
        {
          "indexed": false,
          "internalType": "uint256",
          "name": "value",
          "type": "uint256"
        }
      ],
      "name": "Transfer",
      "type": "event"
    },
    {
      "inputs": [
        {
          "internalType": "address",
          "name": "owner",
          "type": "address"
        },
        {
          "internalType": "address",
          "name": "spender",
          "type": "address"
        }
      ],
      "name": "allowance",
      "outputs": [
        {
          "internalType": "uint256",
          "name": "",
          "type": "uint256"
        }
      ],
      "stateMutability": "view",
      "type": "function"
    },
    {
      "inputs": [
        {
          "internalType": "address",
          "name": "spender",
          "type": "address"
        },
        {
          "internalType": "uint256",
          "name": "amount",
          "type": "uint256"
        }
      ],
      "name": "approve",
      "outputs": [
        {
          "internalType": "bool",
          "name": "",
          "type": "bool"
        }
      ],
      "stateMutability": "nonpayable",
      "type": "function"
    },
    {
      "inputs": [
        {
          "internalType": "address",
          "name": "account",
          "type": "address"
        }
      ],
      "name": "balanceOf",
      "outputs": [
        {
          "internalType": "uint256",
          "name": "",
          "type": "uint256"
        }
      ],
      "stateMutability": "view",
      "type": "function"
    },
    {
      "inputs": [
        {
          "internalType": "address",
          "name": "account",
          "type": "address"
        },
        {
          "internalType": "uint256",
          "name": "amount",
          "type": "uint256"
        }
      ],
      "name": "burn",
      "outputs": [],
      "stateMutability": "nonpayable",
      "type": "function"
    },
    {
      "inputs": [],
      "name": "decimals",
      "outputs": [
        {
          "internalType": "uint8",
          "name": "",
          "type": "uint8"
        }
      ],
      "stateMutability": "view",
      "type": "function"
    },
    {
      "inputs": [
        {
          "internalType": "address",
          "name": "spender",
          "type": "address"
        },
        {
          "internalType": "uint256",
          "name": "subtractedValue",
          "type": "uint256"
        }
      ],
      "name": "decreaseAllowance",
      "outputs": [
        {
          "internalType": "bool",
          "name": "",
          "type": "bool"
        }
      ],
      "stateMutability": "nonpayable",
      "type": "function"
    },
    {
      "inputs": [
        {
          "internalType": "address",
          "name": "account",
          "type": "address"
        }
      ],
      "name": "getBalance",
      "outputs": [
        {
          "internalType": "uint256",
          "name": "",
          "type": "uint256"
        }
      ],
      "stateMutability": "view",
      "type": "function"
    },
    {
      "inputs": [
        {
          "internalType": "address",
          "name": "spender",
          "type": "address"
        },
        {
          "internalType": "uint256",
          "name": "addedValue",
          "type": "uint256"
        }
      ],
      "name": "increaseAllowance",
      "outputs": [
        {
          "internalType": "bool",
          "name": "",
          "type": "bool"
        }
      ],
      "stateMutability": "nonpayable",
      "type": "function"
    },
    {
      "inputs": [
        {
          "internalType": "address",
          "name": "account",
          "type": "address"
        },
        {
          "internalType": "uint256",
          "name": "amount",
          "type": "uint256"
        }
      ],
      "name": "mint",
      "outputs": [],
      "stateMutability": "nonpayable",
      "type": "function"
    },
    {
      "inputs": [],
      "name": "name",
      "outputs": [
        {
          "internalType": "string",
          "name": "",
          "type": "string"
        }
      ],
      "stateMutability": "view",
      "type": "function"
    },
    {
      "inputs": [],
      "name": "symbol",
      "outputs": [
        {
          "internalType": "string",
          "name": "",
          "type": "string"
        }
      ],
      "stateMutability": "view",
      "type": "function"
    },
    {
      "inputs": [],
      "name": "totalSupply",
      "outputs": [
        {
          "internalType": "uint256",
          "name": "",
          "type": "uint256"
        }
      ],
      "stateMutability": "view",
      "type": "function"
    },
    {
      "inputs": [
        {
          "internalType": "address",
          "name": "to",
          "type": "address"
        },
        {
          "internalType": "uint256",
          "name": "amount",
          "type": "uint256"
        }
      ],
      "name": "transfer",
      "outputs": [
        {
          "internalType": "bool",
          "name": "",
          "type": "bool"
        }
      ],
      "stateMutability": "nonpayable",
      "type": "function"
    },
    {
      "inputs": [
        {
          "internalType": "address",
          "name": "from",
          "type": "address"
        },
        {
          "internalType": "address",
          "name": "to",
          "type": "address"
        },
        {
          "internalType": "uint256",
          "name": "amount",
          "type": "uint256"
        }
      ],
      "name": "transferFrom",
      "outputs": [
        {
          "internalType": "bool",
          "name": "",
          "type": "bool"
        }
      ],
      "stateMutability": "nonpayable",
      "type": "function"
    }
  ],
  "bytecode": "0x60806040523480156200001157600080fd5b5060405162001d7a38038062001d7a8339818101604052810190620000379190620001fa565b818181600390816200004a9190620004ca565b5080600490816200005c9190620004ca565b5050505050620005b1565b6000604051905090565b600080fd5b600080fd5b600080fd5b600080fd5b6000601f19601f8301169050919050565b7f4e487b7100000000000000000000000000000000000000000000000000000000600052604160045260246000fd5b620000d08262000085565b810181811067ffffffffffffffff82111715620000f257620000f162000096565b5b80604052505050565b60006200010762000067565b9050620001158282620000c5565b919050565b600067ffffffffffffffff82111562000138576200013762000096565b5b620001438262000085565b9050602081019050919050565b60005b838110156200017057808201518184015260208101905062000153565b60008484015250505050565b6000620001936200018d846200011a565b620000fb565b905082815260208101848484011115620001b257620001b162000080565b5b620001bf84828562000150565b509392505050565b600082601f830112620001df57620001de6200007b565b5b8151620001f18482602086016200017c565b91505092915050565b6000806040838503121562000214576200021362000071565b5b600083015167ffffffffffffffff81111562000235576200023462000076565b5b6200024385828601620001c7565b925050602083015167ffffffffffffffff81111562000267576200026662000076565b5b6200027585828601620001c7565b9150509250929050565b600081519050919050565b7f4e487b7100000000000000000000000000000000000000000000000000000000600052602260045260246000fd5b60006002820490506001821680620002d257607f821691505b602082108103620002e857620002e76200028a565b5b50919050565b60008190508160005260206000209050919050565b60006020601f8301049050919050565b600082821b905092915050565b600060088302620003527fffffffffffffffffffffffffffffffffffffffffffffffffffffffffffffffff8262000313565b6200035e868362000313565b95508019841693508086168417925050509392505050565b6000819050919050565b6000819050919050565b6000620003ab620003a56200039f8462000376565b62000380565b62000376565b9050919050565b6000819050919050565b620003c7836200038a565b620003df620003d682620003b2565b84845462000320565b825550505050565b600090565b620003f6620003e7565b62000403818484620003bc565b505050565b5b818110156200042b576200041f600082620003ec565b60018101905062000409565b5050565b601f8211156200047a576200044481620002ee565b6200044f8462000303565b810160208510156200045f578190505b620004776200046e8562000303565b83018262000408565b50505b505050565b600082821c905092915050565b60006200049f600019846008026200047f565b1980831691505092915050565b6000620004ba83836200048c565b9150826002028217905092915050565b620004d5826200027f565b67ffffffffffffffff811115620004f157620004f062000096565b5b620004fd8254620002b9565b6200050a8282856200042f565b600060209050601f8311600181146200054257600084156200052d578287015190505b620005398582620004ac565b865550620005a9565b601f1984166200055286620002ee565b60005b828110156200057c5784890151825560018201915060208501945060208101905062000555565b868310156200059c578489015162000598601f8916826200048c565b8355505b6001600288020188555050505b505050505050565b6117b980620005c16000396000f3fe608060405234801561001057600080fd5b50600436106100ea5760003560e01c806370a082311161008c578063a457c2d711610066578063a457c2d71461025f578063a9059cbb1461028f578063dd62ed3e146102bf578063f8b2cb4f146102ef576100ea565b806370a08231146101f557806395d89b41146102255780639dc29fac14610243576100ea565b806323b872dd116100c857806323b872dd1461015b578063313ce5671461018b57806339509351146101a957806340c10f19146101d9576100ea565b806306fdde03146100ef578063095ea7b31461010d57806318160ddd1461013d575b600080fd5b6100f761031f565b6040516101049190610f06565b60405180910390f35b61012760048036038101906101229190610fc1565b6103b1565b604051610134919061101c565b60405180910390f35b6101456103d4565b6040516101529190611046565b60405180910390f35b61017560048036038101906101709190611061565b6103de565b604051610182919061101c565b60405180910390f35b61019361040d565b6040516101a091906110d0565b60405180910390f35b6101c360048036038101906101be9190610fc1565b610416565b6040516101d0919061101c565b60405180910390f35b6101f360048036038101906101ee9190610fc1565b61044d565b005b61020f600480360381019061020a91906110eb565b61045b565b60405161021c9190611046565b60405180910390f35b61022d6104a3565b60405161023a9190610f06565b60405180910390f35b61025d60048036038101906102589190610fc1565b610535565b005b61027960048036038101906102749190610fc1565b610543565b604051610286919061101c565b60405180910390f35b6102a960048036038101906102a49190610fc1565b6105ba565b6040516102b6919061101c565b60405180910390f35b6102d960048036038101906102d49190611118565b6105dd565b6040516102e69190611046565b60405180910390f35b610309600480360381019061030491906110eb565b610664565b6040516103169190611046565b60405180910390f35b60606003805461032e90611187565b80601f016020809104026020016040519081016040528092919081815260200182805461035a90611187565b80156103a75780601f1061037c576101008083540402835291602001916103a7565b820191906000526020600020905b81548152906001019060200180831161038a57829003601f168201915b5050505050905090565b6000806103bc610676565b90506103c981858561067e565b600191505092915050565b6000600254905090565b6000806103e9610676565b90506103f6858285610847565b6104018585856108d3565b60019150509392505050565b60006012905090565b600080610421610676565b905061044281858561043385896105dd565b61043d91906111e7565b61067e565b600191505092915050565b6104578282610b49565b5050565b60008060008373ffffffffffffffffffffffffffffffffffffffff1673ffffffffffffffffffffffffffffffffffffffff168152602001908152602001600020549050919050565b6060600480546104b290611187565b80601f01602080910402602001604051908101604052809291908181526020018280546104de90611187565b801561052b5780601f106105005761010080835404028352916020019161052b565b820191906000526020600020905b81548152906001019060200180831161050e57829003601f168201915b5050505050905090565b61053f8282610c9f565b5050565b60008061054e610676565b9050600061055c82866105dd565b9050838110156105a1576040517f08c379a00000000000000000000000000000000000000000000000000000000081526004016105989061128d565b60405180910390fd5b6105ae828686840361067e565b60019250505092915050565b6000806105c5610676565b90506105d28185856108d3565b600191505092915050565b6000600160008473ffffffffffffffffffffffffffffffffffffffff1673ffffffffffffffffffffffffffffffffffffffff16815260200190815260200160002060008373ffffffffffffffffffffffffffffffffffffffff1673ffffffffffffffffffffffffffffffffffffffff16815260200190815260200160002054905092915050565b600061066f8261045b565b9050919050565b600033905090565b600073ffffffffffffffffffffffffffffffffffffffff168373ffffffffffffffffffffffffffffffffffffffff16036106ed576040517f08c379a00000000000000000000000000000000000000000000000000000000081526004016106e49061131f565b60405180910390fd5b600073ffffffffffffffffffffffffffffffffffffffff168273ffffffffffffffffffffffffffffffffffffffff160361075c576040517f08c379a0000000000000000000000000000000000000000000000000000000008152600401610753906113b1565b60405180910390fd5b80600160008573ffffffffffffffffffffffffffffffffffffffff1673ffffffffffffffffffffffffffffffffffffffff16815260200190815260200160002060008473ffffffffffffffffffffffffffffffffffffffff1673ffffffffffffffffffffffffffffffffffffffff168152602001908152602001600020819055508173ffffffffffffffffffffffffffffffffffffffff168373ffffffffffffffffffffffffffffffffffffffff167f8c5be1e5ebec7d5bd14f71427d1e84f3dd0314c0f7b2291e5b200ac8c7c3b9258360405161083a9190611046565b60405180910390a3505050565b600061085384846105dd565b90507fffffffffffffffffffffffffffffffffffffffffffffffffffffffffffffffff81146108cd57818110156108bf576040517f08c379a00000000000000000000000000000000000000000000000000000000081526004016108b69061141d565b60405180910390fd5b6108cc848484840361067e565b5b50505050565b600073ffffffffffffffffffffffffffffffffffffffff168373ffffffffffffffffffffffffffffffffffffffff1603610942576040517f08c379a0000000000000000000000000000000000000000000000000000000008152600401610939906114af565b60405180910390fd5b600073ffffffffffffffffffffffffffffffffffffffff168273ffffffffffffffffffffffffffffffffffffffff16036109b1576040517f08c379a00000000000000000000000000000000000000000000000000000000081526004016109a890611541565b60405180910390fd5b6109bc838383610e6c565b60008060008573ffffffffffffffffffffffffffffffffffffffff1673ffffffffffffffffffffffffffffffffffffffff16815260200190815260200160002054905081811015610a42576040517f08c379a0000000000000000000000000000000000000000000000000000000008152600401610a39906115d3565b60405180910390fd5b8181036000808673ffffffffffffffffffffffffffffffffffffffff1673ffffffffffffffffffffffffffffffffffffffff16815260200190815260200160002081905550816000808573ffffffffffffffffffffffffffffffffffffffff1673ffffffffffffffffffffffffffffffffffffffff168152602001908152602001600020600082825401925050819055508273ffffffffffffffffffffffffffffffffffffffff168473ffffffffffffffffffffffffffffffffffffffff167fddf252ad1be2c89b69c2b068fc378daa952ba7f163c4a11628f55a4df523b3ef84604051610b309190611046565b60405180910390a3610b43848484610e71565b50505050565b600073ffffffffffffffffffffffffffffffffffffffff168273ffffffffffffffffffffffffffffffffffffffff1603610bb8576040517f08c379a0000000000000000000000000000000000000000000000000000000008152600401610baf9061163f565b60405180910390fd5b610bc460008383610e6c565b8060026000828254610bd691906111e7565b92505081905550806000808473ffffffffffffffffffffffffffffffffffffffff1673ffffffffffffffffffffffffffffffffffffffff168152602001908152602001600020600082825401925050819055508173ffffffffffffffffffffffffffffffffffffffff16600073ffffffffffffffffffffffffffffffffffffffff167fddf252ad1be2c89b69c2b068fc378daa952ba7f163c4a11628f55a4df523b3ef83604051610c879190611046565b60405180910390a3610c9b60008383610e71565b5050565b600073ffffffffffffffffffffffffffffffffffffffff168273ffffffffffffffffffffffffffffffffffffffff1603610d0e576040517f08c379a0000000000000000000000000000000000000000000000000000000008152600401610d05906116d1565b60405180910390fd5b610d1a82600083610e6c565b60008060008473ffffffffffffffffffffffffffffffffffffffff1673ffffffffffffffffffffffffffffffffffffffff16815260200190815260200160002054905081811015610da0576040517f08c379a0000000000000000000000000000000000000000000000000000000008152600401610d9790611763565b60405180910390fd5b8181036000808573ffffffffffffffffffffffffffffffffffffffff1673ffffffffffffffffffffffffffffffffffffffff1681526020019081526020016000208190555081600260008282540392505081905550600073ffffffffffffffffffffffffffffffffffffffff168373ffffffffffffffffffffffffffffffffffffffff167fddf252ad1be2c89b69c2b068fc378daa952ba7f163c4a11628f55a4df523b3ef84604051610e539190611046565b60405180910390a3610e6783600084610e71565b505050565b505050565b505050565b600081519050919050565b600082825260208201905092915050565b60005b83811015610eb0578082015181840152602081019050610e95565b60008484015250505050565b6000601f19601f8301169050919050565b6000610ed882610e76565b610ee28185610e81565b9350610ef2818560208601610e92565b610efb81610ebc565b840191505092915050565b60006020820190508181036000830152610f208184610ecd565b905092915050565b600080fd5b600073ffffffffffffffffffffffffffffffffffffffff82169050919050565b6000610f5882610f2d565b9050919050565b610f6881610f4d565b8114610f7357600080fd5b50565b600081359050610f8581610f5f565b92915050565b6000819050919050565b610f9e81610f8b565b8114610fa957600080fd5b50565b600081359050610fbb81610f95565b92915050565b60008060408385031215610fd857610fd7610f28565b5b6000610fe685828601610f76565b9250506020610ff785828601610fac565b9150509250929050565b60008115159050919050565b61101681611001565b82525050565b6000602082019050611031600083018461100d565b92915050565b61104081610f8b565b82525050565b600060208201905061105b6000830184611037565b92915050565b60008060006060848603121561107a57611079610f28565b5b600061108886828701610f76565b935050602061109986828701610f76565b92505060406110aa86828701610fac565b9150509250925092565b600060ff82169050919050565b6110ca816110b4565b82525050565b60006020820190506110e560008301846110c1565b92915050565b60006020828403121561110157611100610f28565b5b600061110f84828501610f76565b91505092915050565b6000806040838503121561112f5761112e610f28565b5b600061113d85828601610f76565b925050602061114e85828601610f76565b9150509250929050565b7f4e487b7100000000000000000000000000000000000000000000000000000000600052602260045260246000fd5b6000600282049050600182168061119f57607f821691505b6020821081036111b2576111b1611158565b5b50919050565b7f4e487b7100000000000000000000000000000000000000000000000000000000600052601160045260246000fd5b60006111f282610f8b565b91506111fd83610f8b565b9250828201905080821115611215576112146111b8565b5b92915050565b7f45524332303a2064656372656173656420616c6c6f77616e63652062656c6f7760008201527f207a65726f000000000000000000000000000000000000000000000000000000602082015250565b6000611277602583610e81565b91506112828261121b565b604082019050919050565b600060208201905081810360008301526112a68161126a565b9050919050565b7f45524332303a20617070726f76652066726f6d20746865207a65726f2061646460008201527f7265737300000000000000000000000000000000000000000000000000000000602082015250565b6000611309602483610e81565b9150611314826112ad565b604082019050919050565b60006020820190508181036000830152611338816112fc565b9050919050565b7f45524332303a20617070726f766520746f20746865207a65726f20616464726560008201527f7373000000000000000000000000000000000000000000000000000000000000602082015250565b600061139b602283610e81565b91506113a68261133f565b604082019050919050565b600060208201905081810360008301526113ca8161138e565b9050919050565b7f45524332303a20696e73756666696369656e7420616c6c6f77616e6365000000600082015250565b6000611407601d83610e81565b9150611412826113d1565b602082019050919050565b60006020820190508181036000830152611436816113fa565b9050919050565b7f45524332303a207472616e736665722066726f6d20746865207a65726f20616460008201527f6472657373000000000000000000000000000000000000000000000000000000602082015250565b6000611499602583610e81565b91506114a48261143d565b604082019050919050565b600060208201905081810360008301526114c88161148c565b9050919050565b7f45524332303a207472616e7366657220746f20746865207a65726f206164647260008201527f6573730000000000000000000000000000000000000000000000000000000000602082015250565b600061152b602383610e81565b9150611536826114cf565b604082019050919050565b6000602082019050818103600083015261155a8161151e565b9050919050565b7f45524332303a207472616e7366657220616d6f756e742065786365656473206260008201527f616c616e63650000000000000000000000000000000000000000000000000000602082015250565b60006115bd602683610e81565b91506115c882611561565b604082019050919050565b600060208201905081810360008301526115ec816115b0565b9050919050565b7f45524332303a206d696e7420746f20746865207a65726f206164647265737300600082015250565b6000611629601f83610e81565b9150611634826115f3565b602082019050919050565b600060208201905081810360008301526116588161161c565b9050919050565b7f45524332303a206275726e2066726f6d20746865207a65726f2061646472657360008201527f7300000000000000000000000000000000000000000000000000000000000000602082015250565b60006116bb602183610e81565b91506116c68261165f565b604082019050919050565b600060208201905081810360008301526116ea816116ae565b9050919050565b7f45524332303a206275726e20616d6f756e7420657863656564732062616c616e60008201527f6365000000000000000000000000000000000000000000000000000000000000602082015250565b600061174d602283610e81565b9150611758826116f1565b604082019050919050565b6000602082019050818103600083015261177c81611740565b905091905056fea2646970667358221220e1a9ea0211c7dea3206e3e9692deffca4528b5e267cc3b5e25484848f75e8cf564736f6c63430008110033",
  "linkReferences": {},
  "deployedLinkReferences": {}
}