{
  "_format": "hh-sol-artifact-1",
  "contractName": "TaskAuction",
  "sourceName": "contracts/TaskAuction.sol",
  "abi": [
    {
      "anonymous": false,
      "inputs": [
        {
          "indexed": true,
          "internalType": "uint256",
          "name": "batchTaskId",
          "type": "uint256"
        },
        {
          "components": [
            {
              "internalType": "uint256",
              "name": "taskId",
              "type": "uint256"
            },
            {
              "internalType": "uint256",
              "name": "point",
              "type": "uint256"
            },
            {
              "internalType": "uint256",
              "name": "reward",
              "type": "uint256"
            },
            {
              "internalType": "uint256",
              "name": "minReward",
              "type": "uint256"
            },
            {
              "internalType": "address",
              "name": "reporter",
              "type": "address"
            },
            {
              "internalType": "address",
              "name": "doer",
              "type": "address"
            },
            {
              "internalType": "address",
              "name": "reviewer",
              "type": "address"
            },
            {
              "internalType": "enum ITaskAuction.TASK_STATE",
              "name": "taskState",
              "type": "uint8"
            },
            {
              "internalType": "uint256",
              "name": "lowestBidAmount",
              "type": "uint256"
            },
            {
              "internalType": "address",
              "name": "lowestBidder",
              "type": "address"
            }
          ],
          "indexed": false,
          "internalType": "struct ITaskAuction.AuctionTask",
          "name": "taskAssigned",
          "type": "tuple"
        },
        {
          "indexed": false,
          "internalType": "uint256",
          "name": "assignTime",
          "type": "uint256"
        }
      ],
      "name": "AssignTask",
      "type": "event"
    },
    {
      "anonymous": false,
      "inputs": [
        {
          "indexed": false,
          "internalType": "enum ITaskAuction.BATCH_TASK_STATE",
          "name": "batchTaskState",
          "type": "uint8"
        },
        {
          "indexed": true,
          "internalType": "uint256",
          "name": "batchTaskId",
          "type": "uint256"
        },
        {
          "components": [
            {
              "internalType": "uint256",
              "name": "taskId",
              "type": "uint256"
            },
            {
              "internalType": "uint256",
              "name": "point",
              "type": "uint256"
            },
            {
              "internalType": "uint256",
              "name": "reward",
              "type": "uint256"
            },
            {
              "internalType": "uint256",
              "name": "minReward",
              "type": "uint256"
            },
            {
              "internalType": "address",
              "name": "reporter",
              "type": "address"
            },
            {
              "internalType": "address",
              "name": "doer",
              "type": "address"
            },
            {
              "internalType": "address",
              "name": "reviewer",
              "type": "address"
            },
            {
              "internalType": "enum ITaskAuction.TASK_STATE",
              "name": "taskState",
              "type": "uint8"
            },
            {
              "internalType": "uint256",
              "name": "lowestBidAmount",
              "type": "uint256"
            },
            {
              "internalType": "address",
              "name": "lowestBidder",
              "type": "address"
            }
          ],
          "indexed": false,
          "internalType": "struct ITaskAuction.AuctionTask",
          "name": "auctionTask",
          "type": "tuple"
        },
        {
          "indexed": false,
          "internalType": "uint256",
          "name": "endTime",
          "type": "uint256"
        }
      ],
      "name": "EndAuction",
      "type": "event"
    },
    {
      "anonymous": false,
      "inputs": [
        {
          "indexed": false,
          "internalType": "string",
          "name": "notify",
          "type": "string"
        }
      ],
      "name": "Notify",
      "type": "event"
    },
    {
      "anonymous": false,
      "inputs": [
        {
          "indexed": true,
          "internalType": "uint256",
          "name": "_batchTaskId",
          "type": "uint256"
        },
        {
          "indexed": false,
          "internalType": "uint256",
          "name": "_auctionDuration",
          "type": "uint256"
        },
        {
          "components": [
            {
              "internalType": "uint256",
              "name": "taskId",
              "type": "uint256"
            },
            {
              "internalType": "uint256",
              "name": "point",
              "type": "uint256"
            },
            {
              "internalType": "uint256",
              "name": "reward",
              "type": "uint256"
            },
            {
              "internalType": "uint256",
              "name": "minReward",
              "type": "uint256"
            },
            {
              "internalType": "address",
              "name": "reporter",
              "type": "address"
            },
            {
              "internalType": "address",
              "name": "doer",
              "type": "address"
            },
            {
              "internalType": "address",
              "name": "reviewer",
              "type": "address"
            },
            {
              "internalType": "enum ITaskAuction.TASK_STATE",
              "name": "taskState",
              "type": "uint8"
            },
            {
              "internalType": "uint256",
              "name": "lowestBidAmount",
              "type": "uint256"
            },
            {
              "internalType": "address",
              "name": "lowestBidder",
              "type": "address"
            }
          ],
          "indexed": false,
          "internalType": "struct ITaskAuction.AuctionTask",
          "name": "auctionTask",
          "type": "tuple"
        },
        {
          "indexed": false,
          "internalType": "uint256",
          "name": "timeStart",
          "type": "uint256"
        }
      ],
      "name": "OpenTaskForAuction",
      "type": "event"
    },
    {
      "anonymous": false,
      "inputs": [
        {
          "indexed": true,
          "internalType": "address",
          "name": "previousOwner",
          "type": "address"
        },
        {
          "indexed": true,
          "internalType": "address",
          "name": "newOwner",
          "type": "address"
        }
      ],
      "name": "OwnershipTransferred",
      "type": "event"
    },
    {
      "anonymous": false,
      "inputs": [
        {
          "indexed": true,
          "internalType": "uint256",
          "name": "_taskID",
          "type": "uint256"
        },
        {
          "indexed": true,
          "internalType": "uint256",
          "name": "_batchTaskID",
          "type": "uint256"
        },
        {
          "components": [
            {
              "internalType": "uint256",
              "name": "taskId",
              "type": "uint256"
            },
            {
              "internalType": "uint256",
              "name": "point",
              "type": "uint256"
            },
            {
              "internalType": "uint256",
              "name": "reward",
              "type": "uint256"
            },
            {
              "internalType": "uint256",
              "name": "minReward",
              "type": "uint256"
            },
            {
              "internalType": "address",
              "name": "reporter",
              "type": "address"
            },
            {
              "internalType": "address",
              "name": "doer",
              "type": "address"
            },
            {
              "internalType": "address",
              "name": "reviewer",
              "type": "address"
            },
            {
              "internalType": "enum ITaskAuction.TASK_STATE",
              "name": "taskState",
              "type": "uint8"
            },
            {
              "internalType": "uint256",
              "name": "lowestBidAmount",
              "type": "uint256"
            },
            {
              "internalType": "address",
              "name": "lowestBidder",
              "type": "address"
            }
          ],
          "indexed": false,
          "internalType": "struct ITaskAuction.AuctionTask",
          "name": "auctionTask",
          "type": "tuple"
        },
        {
          "components": [
            {
              "internalType": "address payable",
              "name": "bidder",
              "type": "address"
            },
            {
              "internalType": "uint256",
              "name": "taskId",
              "type": "uint256"
            },
            {
              "internalType": "uint256",
              "name": "totalBidAmount",
              "type": "uint256"
            },
            {
              "internalType": "uint256",
              "name": "numberBid",
              "type": "uint256"
            }
          ],
          "indexed": false,
          "internalType": "struct ITaskAuction.Bid",
          "name": "bid",
          "type": "tuple"
        },
        {
          "indexed": false,
          "internalType": "uint256",
          "name": "bidTime",
          "type": "uint256"
        }
      ],
      "name": "PlaceBid",
      "type": "event"
    },
    {
      "inputs": [
        {
          "internalType": "uint256",
          "name": "",
          "type": "uint256"
        }
      ],
      "name": "auctionTasks",
      "outputs": [
        {
          "internalType": "uint256",
          "name": "taskId",
          "type": "uint256"
        },
        {
          "internalType": "uint256",
          "name": "point",
          "type": "uint256"
        },
        {
          "internalType": "uint256",
          "name": "reward",
          "type": "uint256"
        },
        {
          "internalType": "uint256",
          "name": "minReward",
          "type": "uint256"
        },
        {
          "internalType": "address",
          "name": "reporter",
          "type": "address"
        },
        {
          "internalType": "address",
          "name": "doer",
          "type": "address"
        },
        {
          "internalType": "address",
          "name": "reviewer",
          "type": "address"
        },
        {
          "internalType": "enum ITaskAuction.TASK_STATE",
          "name": "taskState",
          "type": "uint8"
        },
        {
          "internalType": "uint256",
          "name": "lowestBidAmount",
          "type": "uint256"
        },
        {
          "internalType": "address",
          "name": "lowestBidder",
          "type": "address"
        }
      ],
      "stateMutability": "view",
      "type": "function"
    },
    {
      "inputs": [],
      "name": "bankManager",
      "outputs": [
        {
          "internalType": "contract IBankManager",
          "name": "",
          "type": "address"
        }
      ],
      "stateMutability": "view",
      "type": "function"
    },
    {
      "inputs": [
        {
          "internalType": "uint256",
          "name": "",
          "type": "uint256"
        }
      ],
      "name": "batchTaskAuctions",
      "outputs": [
        {
          "internalType": "uint256",
          "name": "batchTaskId",
          "type": "uint256"
        },
        {
          "internalType": "uint256",
          "name": "duration",
          "type": "uint256"
        },
        {
          "internalType": "uint256",
          "name": "startTime",
          "type": "uint256"
        },
        {
          "internalType": "enum ITaskAuction.BATCH_TASK_STATE",
          "name": "batchTaskState",
          "type": "uint8"
        }
      ],
      "stateMutability": "view",
      "type": "function"
    },
    {
      "inputs": [
        {
          "internalType": "uint256",
          "name": "",
          "type": "uint256"
        }
      ],
      "name": "bids",
      "outputs": [
        {
          "internalType": "address payable",
          "name": "bidder",
          "type": "address"
        },
        {
          "internalType": "uint256",
          "name": "taskId",
          "type": "uint256"
        },
        {
          "internalType": "uint256",
          "name": "totalBidAmount",
          "type": "uint256"
        },
        {
          "internalType": "uint256",
          "name": "numberBid",
          "type": "uint256"
        }
      ],
      "stateMutability": "view",
      "type": "function"
    },
    {
      "inputs": [
        {
          "internalType": "address",
          "name": "_tokenAddress",
          "type": "address"
        }
      ],
      "name": "chooseToken",
      "outputs": [],
      "stateMutability": "nonpayable",
      "type": "function"
    },
    {
      "inputs": [],
      "name": "endAuction",
      "outputs": [],
      "stateMutability": "nonpayable",
      "type": "function"
    },
    {
      "inputs": [
        {
          "components": [
            {
              "internalType": "uint256",
              "name": "taskId",
              "type": "uint256"
            },
            {
              "internalType": "uint256",
              "name": "point",
              "type": "uint256"
            },
            {
              "internalType": "uint256",
              "name": "reward",
              "type": "uint256"
            },
            {
              "internalType": "uint256",
              "name": "minReward",
              "type": "uint256"
            },
            {
              "internalType": "address",
              "name": "reporter",
              "type": "address"
            },
            {
              "internalType": "address",
              "name": "doer",
              "type": "address"
            },
            {
              "internalType": "address",
              "name": "reviewer",
              "type": "address"
            },
            {
              "internalType": "uint256",
              "name": "timeDoerReceive",
              "type": "uint256"
            },
            {
              "internalType": "enum ITaskManager.TASK_STATE",
              "name": "taskState",
              "type": "uint8"
            }
          ],
          "internalType": "struct ITaskManager.Task[]",
          "name": "_tasks",
          "type": "tuple[]"
        },
        {
          "internalType": "uint256",
          "name": "_batchTaskId",
          "type": "uint256"
        },
        {
          "internalType": "uint256",
          "name": "_auctionDuration",
          "type": "uint256"
        }
      ],
      "name": "openTaskForAuction",
      "outputs": [],
      "stateMutability": "nonpayable",
      "type": "function"
    },
    {
      "inputs": [],
      "name": "owner",
      "outputs": [
        {
          "internalType": "address",
          "name": "",
          "type": "address"
        }
      ],
      "stateMutability": "view",
      "type": "function"
    },
    {
      "inputs": [
        {
          "internalType": "uint256",
          "name": "_taskID",
          "type": "uint256"
        },
        {
          "internalType": "uint256",
          "name": "_batchTaskID",
          "type": "uint256"
        },
        {
          "internalType": "uint256",
          "name": "_amountBid",
          "type": "uint256"
        }
      ],
      "name": "placeBid",
      "outputs": [],
      "stateMutability": "nonpayable",
      "type": "function"
    },
    {
      "inputs": [
        {
          "internalType": "uint256[]",
          "name": "taskIds",
          "type": "uint256[]"
        },
        {
          "internalType": "uint256",
          "name": "_batchTaskID",
          "type": "uint256"
        },
        {
          "internalType": "uint256[]",
          "name": "_amountBids",
          "type": "uint256[]"
        }
      ],
      "name": "placeMultipleBid",
      "outputs": [],
      "stateMutability": "nonpayable",
      "type": "function"
    },
    {
      "inputs": [],
      "name": "renounceOwnership",
      "outputs": [],
      "stateMutability": "nonpayable",
      "type": "function"
    },
    {
      "inputs": [
        {
          "internalType": "address",
          "name": "_bankManagerAddress",
          "type": "address"
        }
      ],
      "name": "setBankManager",
      "outputs": [],
      "stateMutability": "nonpayable",
      "type": "function"
    },
    {
      "inputs": [
        {
          "internalType": "address",
          "name": "_taskManagerAddress",
          "type": "address"
        }
      ],
      "name": "setTaskManager",
      "outputs": [],
      "stateMutability": "nonpayable",
      "type": "function"
    },
    {
      "inputs": [],
      "name": "taskManager",
      "outputs": [
        {
          "internalType": "contract ITaskManager",
          "name": "",
          "type": "address"
        }
      ],
      "stateMutability": "view",
      "type": "function"
    },
    {
      "inputs": [],
      "name": "tokenAddress",
      "outputs": [
        {
          "internalType": "address",
          "name": "",
          "type": "address"
        }
      ],
      "stateMutability": "view",
      "type": "function"
    },
    {
      "inputs": [
        {
          "internalType": "address",
          "name": "newOwner",
          "type": "address"
        }
      ],
      "name": "transferOwnership",
      "outputs": [],
      "stateMutability": "nonpayable",
      "type": "function"
    }
  ],
  "bytecode": "0x60806040523480156200001157600080fd5b5062000032620000266200003860201b60201c565b6200004060201b60201c565b62000104565b600033905090565b60008060009054906101000a900473ffffffffffffffffffffffffffffffffffffffff169050816000806101000a81548173ffffffffffffffffffffffffffffffffffffffff021916908373ffffffffffffffffffffffffffffffffffffffff1602179055508173ffffffffffffffffffffffffffffffffffffffff168173ffffffffffffffffffffffffffffffffffffffff167f8be0079c531659141344cd1fd0a4f28419497f9722a3daafe3b4186f6b6457e060405160405180910390a35050565b61377c80620001146000396000f3fe608060405234801561001057600080fd5b50600436106101005760003560e01c80638da5cb5b11610097578063c8eeb01311610066578063c8eeb01314610277578063e9e2990e146102b0578063f2fde38b146102ce578063fe67a54b146102ea57610100565b80638da5cb5b146102015780639d76ea581461021f578063a50a640e1461023d578063bdd084e61461025b57610100565b80634423c5f1116100d35780634423c5f11461018c5780635e62be25146101bf578063715018a6146101db5780637a9b6ef7146101e557610100565b80630f076d6314610105578063327d0a60146101215780634131e8a91461013d57806342b200ba14610170575b600080fd5b61011f600480360381019061011a9190612710565b6102f4565b005b61013b6004803603810190610136919061277f565b610aba565b005b610157600480360381019061015291906127ac565b610b06565b604051610167949392919061285f565b60405180910390f35b61018a6004803603810190610185919061277f565b610b53565b005b6101a660048036038101906101a191906127ac565b610b9f565b6040516101b694939291906128c5565b60405180910390f35b6101d960048036038101906101d4919061290a565b610bff565b005b6101e36115ab565b005b6101ff60048036038101906101fa919061277f565b6115bf565b005b61020961160b565b604051610216919061296c565b60405180910390f35b610227611634565b604051610234919061296c565b60405180910390f35b61024561165a565b60405161025291906129e6565b60405180910390f35b61027560048036038101906102709190612ac4565b611680565b005b610291600480360381019061028c91906127ac565b6116e4565b6040516102a79a99989796959493929190612b97565b60405180910390f35b6102b86117d5565b6040516102c59190612c54565b60405180910390f35b6102e860048036038101906102e3919061277f565b6117fb565b005b6102f261187e565b005b600160009054906101000a900473ffffffffffffffffffffffffffffffffffffffff1673ffffffffffffffffffffffffffffffffffffffff163373ffffffffffffffffffffffffffffffffffffffff1614610384576040517f08c379a000000000000000000000000000000000000000000000000000000000815260040161037b90612ccc565b60405180910390fd5b6000835167ffffffffffffffff8111156103a1576103a061242d565b5b6040519080825280602002602001820160405280156103cf5781602001602082028036833780820191505090505b50905060005b845181101561095957600080604051806101400160405280888581518110610400576103ff612cec565b5b602002602001015160000151815260200188858151811061042457610423612cec565b5b602002602001015160200151815260200188858151811061044857610447612cec565b5b602002602001015160400151815260200188858151811061046c5761046b612cec565b5b60200260200101516060015181526020018885815181106104905761048f612cec565b5b60200260200101516080015173ffffffffffffffffffffffffffffffffffffffff168152602001600073ffffffffffffffffffffffffffffffffffffffff1681526020018885815181106104e7576104e6612cec565b5b602002602001015160c0015173ffffffffffffffffffffffffffffffffffffffff16815260200160006004811115610522576105216127e8565b5b815260200188858151811061053a57610539612cec565b5b60200260200101516040015181526020018373ffffffffffffffffffffffffffffffffffffffff168152509050806007600089868151811061057f5761057e612cec565b5b60200260200101516000015181526020019081526020016000206000820151816000015560208201518160010155604082015181600201556060820151816003015560808201518160040160006101000a81548173ffffffffffffffffffffffffffffffffffffffff021916908373ffffffffffffffffffffffffffffffffffffffff16021790555060a08201518160050160006101000a81548173ffffffffffffffffffffffffffffffffffffffff021916908373ffffffffffffffffffffffffffffffffffffffff16021790555060c08201518160060160006101000a81548173ffffffffffffffffffffffffffffffffffffffff021916908373ffffffffffffffffffffffffffffffffffffffff16021790555060e08201518160060160146101000a81548160ff021916908360048111156106c1576106c06127e8565b5b021790555061010082015181600701556101208201518160080160006101000a81548173ffffffffffffffffffffffffffffffffffffffff021916908373ffffffffffffffffffffffffffffffffffffffff16021790555090505060038190806001815401808255809150506001900390600052602060002090600902016000909190919091506000820151816000015560208201518160010155604082015181600201556060820151816003015560808201518160040160006101000a81548173ffffffffffffffffffffffffffffffffffffffff021916908373ffffffffffffffffffffffffffffffffffffffff16021790555060a08201518160050160006101000a81548173ffffffffffffffffffffffffffffffffffffffff021916908373ffffffffffffffffffffffffffffffffffffffff16021790555060c08201518160060160006101000a81548173ffffffffffffffffffffffffffffffffffffffff021916908373ffffffffffffffffffffffffffffffffffffffff16021790555060e08201518160060160146101000a81548160ff021916908360048111156108705761086f6127e8565b5b021790555061010082015181600701556101208201518160080160006101000a81548173ffffffffffffffffffffffffffffffffffffffff021916908373ffffffffffffffffffffffffffffffffffffffff16021790555050508683815181106108dd576108dc612cec565b5b6020026020010151600001518484815181106108fc576108fb612cec565b5b602002602001018181525050857f892f1c6901a3780c3a77be4526f6ff1da7ac493c1ec8add9345c23b30630ebbb86834260405161093c93929190612e14565b60405180910390a25050808061095190612e7c565b9150506103d5565b5060006040518060a0016040528085815260200183815260200184815260200142815260200160006001811115610993576109926127e8565b5b815250905060068190806001815401808255809150506001900390600052602060002090600502016000909190919091506000820151816000015560208201518160010190805190602001906109ea92919061235b565b50604082015181600201556060820151816003015560808201518160040160006101000a81548160ff02191690836001811115610a2a57610a296127e8565b5b021790555050508060086000868152602001908152602001600020600082015181600001556020820151816001019080519060200190610a6b92919061235b565b50604082015181600201556060820151816003015560808201518160040160006101000a81548160ff02191690836001811115610aab57610aaa6127e8565b5b02179055509050505050505050565b610ac261205d565b80600160006101000a81548173ffffffffffffffffffffffffffffffffffffffff021916908373ffffffffffffffffffffffffffffffffffffffff16021790555050565b60068181548110610b1657600080fd5b90600052602060002090600502016000915090508060000154908060020154908060030154908060040160009054906101000a900460ff16905084565b610b5b61205d565b80600460006101000a81548173ffffffffffffffffffffffffffffffffffffffff021916908373ffffffffffffffffffffffffffffffffffffffff16021790555050565b60058181548110610baf57600080fd5b90600052602060002090600402016000915090508060000160009054906101000a900473ffffffffffffffffffffffffffffffffffffffff16908060010154908060020154908060030154905084565b600082816001811115610c1557610c146127e8565b5b6008600083815260200190815260200160002060040160009054906101000a900460ff166001811115610c4b57610c4a6127e8565b5b14610c8b576040517f08c379a0000000000000000000000000000000000000000000000000000000008152600401610c8290612f10565b60405180910390fd5b600060076000878152602001908152602001600020905085816000015414610ce8576040517f08c379a0000000000000000000000000000000000000000000000000000000008152600401610cdf90612f7c565b60405180910390fd5b83600260009054906101000a900473ffffffffffffffffffffffffffffffffffffffff1673ffffffffffffffffffffffffffffffffffffffff1663f7888aec33600460009054906101000a900473ffffffffffffffffffffffffffffffffffffffff166040518363ffffffff1660e01b8152600401610d68929190612f9c565b6020604051808303816000875af1158015610d87573d6000803e3d6000fd5b505050506040513d601f19601f82011682018060405250810190610dab9190612fda565b1015610dec576040517f08c379a0000000000000000000000000000000000000000000000000000000008152600401610de390613053565b60405180910390fd5b80600301548410158015610e035750806007015484105b610e42576040517f08c379a0000000000000000000000000000000000000000000000000000000008152600401610e39906130bf565b60405180910390fd5b600260009054906101000a900473ffffffffffffffffffffffffffffffffffffffff1673ffffffffffffffffffffffffffffffffffffffff1663f18d03cc33600460009054906101000a900473ffffffffffffffffffffffffffffffffffffffff16600260009054906101000a900473ffffffffffffffffffffffffffffffffffffffff16886040518563ffffffff1660e01b8152600401610ee794939291906130df565b600060405180830381600087803b158015610f0157600080fd5b505af1158015610f15573d6000803e3d6000fd5b505050506000610f2587336120db565b9050600073ffffffffffffffffffffffffffffffffffffffff16816000015173ffffffffffffffffffffffffffffffffffffffff1603610fa25733816000019073ffffffffffffffffffffffffffffffffffffffff16908173ffffffffffffffffffffffffffffffffffffffff1681525050868160200181815250505b8481604001818151610fb49190613124565b91508181525050806060018051809190610fcd90612e7c565b81525050816007015485101561102a57848260070181905550338260080160006101000a81548173ffffffffffffffffffffffffffffffffffffffff021916908373ffffffffffffffffffffffffffffffffffffffff1602179055505b8160076000898152602001908152602001600020600082015481600001556001820154816001015560028201548160020155600382015481600301556004820160009054906101000a900473ffffffffffffffffffffffffffffffffffffffff168160040160006101000a81548173ffffffffffffffffffffffffffffffffffffffff021916908373ffffffffffffffffffffffffffffffffffffffff1602179055506005820160009054906101000a900473ffffffffffffffffffffffffffffffffffffffff168160050160006101000a81548173ffffffffffffffffffffffffffffffffffffffff021916908373ffffffffffffffffffffffffffffffffffffffff1602179055506006820160009054906101000a900473ffffffffffffffffffffffffffffffffffffffff168160060160006101000a81548173ffffffffffffffffffffffffffffffffffffffff021916908373ffffffffffffffffffffffffffffffffffffffff1602179055506006820160149054906101000a900460ff168160060160146101000a81548160ff021916908360048111156111d3576111d26127e8565b5b0217905550600782015481600701556008820160009054906101000a900473ffffffffffffffffffffffffffffffffffffffff168160080160006101000a81548173ffffffffffffffffffffffffffffffffffffffff021916908373ffffffffffffffffffffffffffffffffffffffff16021790555090505060005b6003805490508110156114d157876003828154811061127157611270612cec565b5b906000526020600020906009020160000154036114be57826003828154811061129d5761129c612cec565b5b9060005260206000209060090201600082015481600001556001820154816001015560028201548160020155600382015481600301556004820160009054906101000a900473ffffffffffffffffffffffffffffffffffffffff168160040160006101000a81548173ffffffffffffffffffffffffffffffffffffffff021916908373ffffffffffffffffffffffffffffffffffffffff1602179055506005820160009054906101000a900473ffffffffffffffffffffffffffffffffffffffff168160050160006101000a81548173ffffffffffffffffffffffffffffffffffffffff021916908373ffffffffffffffffffffffffffffffffffffffff1602179055506006820160009054906101000a900473ffffffffffffffffffffffffffffffffffffffff168160060160006101000a81548173ffffffffffffffffffffffffffffffffffffffff021916908373ffffffffffffffffffffffffffffffffffffffff1602179055506006820160149054906101000a900460ff168160060160146101000a81548160ff021916908360048111156114405761143f6127e8565b5b0217905550600782015481600701556008820160009054906101000a900473ffffffffffffffffffffffffffffffffffffffff168160080160006101000a81548173ffffffffffffffffffffffffffffffffffffffff021916908373ffffffffffffffffffffffffffffffffffffffff1602179055509050506114d1565b80806114c990612e7c565b91505061124f565b50600581908060018154018082558091505060019003906000526020600020906004020160009091909190915060008201518160000160006101000a81548173ffffffffffffffffffffffffffffffffffffffff021916908373ffffffffffffffffffffffffffffffffffffffff160217905550602082015181600101556040820151816002015560608201518160030155505085877f2cff0c19c381686e31d570ceca6503f9647cc71d904570fa7d6ec6ba8fdd41ed84844260405161159a9392919061338e565b60405180910390a350505050505050565b6115b361205d565b6115bd600061228f565b565b6115c761205d565b80600260006101000a81548173ffffffffffffffffffffffffffffffffffffffff021916908373ffffffffffffffffffffffffffffffffffffffff16021790555050565b60008060009054906101000a900473ffffffffffffffffffffffffffffffffffffffff16905090565b600460009054906101000a900473ffffffffffffffffffffffffffffffffffffffff1681565b600160009054906101000a900473ffffffffffffffffffffffffffffffffffffffff1681565b60005b83518110156116de576116cb8482815181106116a2576116a1612cec565b5b6020026020010151848484815181106116be576116bd612cec565b5b6020026020010151610bff565b80806116d690612e7c565b915050611683565b50505050565b600381815481106116f457600080fd5b90600052602060002090600902016000915090508060000154908060010154908060020154908060030154908060040160009054906101000a900473ffffffffffffffffffffffffffffffffffffffff16908060050160009054906101000a900473ffffffffffffffffffffffffffffffffffffffff16908060060160009054906101000a900473ffffffffffffffffffffffffffffffffffffffff16908060060160149054906101000a900460ff16908060070154908060080160009054906101000a900473ffffffffffffffffffffffffffffffffffffffff1690508a565b600260009054906101000a900473ffffffffffffffffffffffffffffffffffffffff1681565b61180361205d565b600073ffffffffffffffffffffffffffffffffffffffff168173ffffffffffffffffffffffffffffffffffffffff1603611872576040517f08c379a00000000000000000000000000000000000000000000000000000000081526004016118699061343a565b60405180910390fd5b61187b8161228f565b50565b6000805b60068054905081101561201757600060018111156118a3576118a26127e8565b5b600682815481106118b7576118b6612cec565b5b906000526020600020906005020160040160009054906101000a900460ff1660018111156118e8576118e76127e8565b5b14801561194957506006818154811061190457611903612cec565b5b9060005260206000209060050201600201546006828154811061192a57611929612cec565b5b9060005260206000209060050201600301546119469190613124565b42115b15612004576001915060005b6006828154811061196957611968612cec565b5b90600052602060002090600502016001018054905081101561200257600073ffffffffffffffffffffffffffffffffffffffff1660076000600685815481106119b5576119b4612cec565b5b906000526020600020906005020160010184815481106119d8576119d7612cec565b5b9060005260206000200154815260200190815260200160002060080160009054906101000a900473ffffffffffffffffffffffffffffffffffffffff1673ffffffffffffffffffffffffffffffffffffffff1614611fef576007600060068481548110611a4857611a47612cec565b5b90600052602060002090600502016001018381548110611a6b57611a6a612cec565b5b90600052602060002001548152602001908152602001600020600701546007600060068581548110611aa057611a9f612cec565b5b90600052602060002090600502016001018481548110611ac357611ac2612cec565b5b90600052602060002001548152602001908152602001600020600201819055506007600060068481548110611afb57611afa612cec565b5b90600052602060002090600502016001018381548110611b1e57611b1d612cec565b5b9060005260206000200154815260200190815260200160002060080160009054906101000a900473ffffffffffffffffffffffffffffffffffffffff166007600060068581548110611b7357611b72612cec565b5b90600052602060002090600502016001018481548110611b9657611b95612cec565b5b9060005260206000200154815260200190815260200160002060050160006101000a81548173ffffffffffffffffffffffffffffffffffffffff021916908373ffffffffffffffffffffffffffffffffffffffff16021790555060016007600060068581548110611c0a57611c09612cec565b5b90600052602060002090600502016001018481548110611c2d57611c2c612cec565b5b9060005260206000200154815260200190815260200160002060060160146101000a81548160ff02191690836004811115611c6b57611c6a6127e8565b5b021790555060005b600580549050811015611e58576007600060068581548110611c9857611c97612cec565b5b90600052602060002090600502016001018481548110611cbb57611cba612cec565b5b906000526020600020015481526020019081526020016000206000015460058281548110611cec57611ceb612cec565b5b90600052602060002090600402016001015403611e4557600260009054906101000a900473ffffffffffffffffffffffffffffffffffffffff1673ffffffffffffffffffffffffffffffffffffffff1663f18d03cc600260009054906101000a900473ffffffffffffffffffffffffffffffffffffffff16600460009054906101000a900473ffffffffffffffffffffffffffffffffffffffff1660058581548110611d9b57611d9a612cec565b5b906000526020600020906004020160000160009054906101000a900473ffffffffffffffffffffffffffffffffffffffff1660058681548110611de157611de0612cec565b5b9060005260206000209060040201600201546040518563ffffffff1660e01b8152600401611e12949392919061347b565b600060405180830381600087803b158015611e2c57600080fd5b505af1158015611e40573d6000803e3d6000fd5b505050505b8080611e5090612e7c565b915050611c73565b50600160009054906101000a900473ffffffffffffffffffffffffffffffffffffffff1673ffffffffffffffffffffffffffffffffffffffff1663e64f01b96007600060068681548110611eaf57611eae612cec565b5b90600052602060002090600502016001018581548110611ed257611ed1612cec565b5b906000526020600020015481526020019081526020016000206040518263ffffffff1660e01b8152600401611f0791906135f3565b600060405180830381600087803b158015611f2157600080fd5b505af1158015611f35573d6000803e3d6000fd5b5050505060068281548110611f4d57611f4c612cec565b5b9060005260206000209060050201600001547f414477b51c9210f442a533ef45a65cdf2bb0aee1caf1e4fb991055244e7055dd60016007600060068781548110611f9a57611f99612cec565b5b90600052602060002090600502016001018681548110611fbd57611fbc612cec565b5b9060005260206000200154815260200190815260200160002042604051611fe69392919061360f565b60405180910390a25b8080611ffa90612e7c565b915050611955565b505b808061200f90612e7c565b915050611882565b50600015158115150361205a577f740029a372cf63fe0e8d59421d39ff2e39506263bf68a6d46f4ade0771a09012604051612051906136ba565b60405180910390a15b50565b612065612353565b73ffffffffffffffffffffffffffffffffffffffff1661208361160b565b73ffffffffffffffffffffffffffffffffffffffff16146120d9576040517f08c379a00000000000000000000000000000000000000000000000000000000081526004016120d090613726565b60405180910390fd5b565b6120e36123a8565b600060058054905081101561228757836005828154811061210757612106612cec565b5b90600052602060002090600402016001015414801561219657508273ffffffffffffffffffffffffffffffffffffffff166005828154811061214c5761214b612cec565b5b906000526020600020906004020160000160009054906101000a900473ffffffffffffffffffffffffffffffffffffffff1673ffffffffffffffffffffffffffffffffffffffff16145b1561224457600581815481106121af576121ae612cec565b5b90600052602060002090600402016040518060800160405290816000820160009054906101000a900473ffffffffffffffffffffffffffffffffffffffff1673ffffffffffffffffffffffffffffffffffffffff1673ffffffffffffffffffffffffffffffffffffffff1681526020016001820154815260200160028201548152602001600382015481525050915050612289565b6040518060800160405280600073ffffffffffffffffffffffffffffffffffffffff16815260200160008152602001600081526020016000815250915050612289565b505b92915050565b60008060009054906101000a900473ffffffffffffffffffffffffffffffffffffffff169050816000806101000a81548173ffffffffffffffffffffffffffffffffffffffff021916908373ffffffffffffffffffffffffffffffffffffffff1602179055508173ffffffffffffffffffffffffffffffffffffffff168173ffffffffffffffffffffffffffffffffffffffff167f8be0079c531659141344cd1fd0a4f28419497f9722a3daafe3b4186f6b6457e060405160405180910390a35050565b600033905090565b828054828255906000526020600020908101928215612397579160200282015b8281111561239657825182559160200191906001019061237b565b5b5090506123a491906123e6565b5090565b6040518060800160405280600073ffffffffffffffffffffffffffffffffffffffff1681526020016000815260200160008152602001600081525090565b5b808211156123ff5760008160009055506001016123e7565b5090565b6000604051905090565b600080fd5b600080fd5b600080fd5b6000601f19601f8301169050919050565b7f4e487b7100000000000000000000000000000000000000000000000000000000600052604160045260246000fd5b6124658261241c565b810181811067ffffffffffffffff821117156124845761248361242d565b5b80604052505050565b6000612497612403565b90506124a3828261245c565b919050565b600067ffffffffffffffff8211156124c3576124c261242d565b5b602082029050602081019050919050565b600080fd5b600080fd5b6000819050919050565b6124f1816124de565b81146124fc57600080fd5b50565b60008135905061250e816124e8565b92915050565b600073ffffffffffffffffffffffffffffffffffffffff82169050919050565b600061253f82612514565b9050919050565b61254f81612534565b811461255a57600080fd5b50565b60008135905061256c81612546565b92915050565b6005811061257f57600080fd5b50565b60008135905061259181612572565b92915050565b600061012082840312156125ae576125ad6124d9565b5b6125b961012061248d565b905060006125c9848285016124ff565b60008301525060206125dd848285016124ff565b60208301525060406125f1848285016124ff565b6040830152506060612605848285016124ff565b60608301525060806126198482850161255d565b60808301525060a061262d8482850161255d565b60a08301525060c06126418482850161255d565b60c08301525060e0612655848285016124ff565b60e08301525061010061266a84828501612582565b6101008301525092915050565b600061268a612685846124a8565b61248d565b90508083825260208201905061012084028301858111156126ae576126ad6124d4565b5b835b818110156126d857806126c38882612597565b845260208401935050610120810190506126b0565b5050509392505050565b600082601f8301126126f7576126f6612417565b5b8135612707848260208601612677565b91505092915050565b6000806000606084860312156127295761272861240d565b5b600084013567ffffffffffffffff81111561274757612746612412565b5b612753868287016126e2565b9350506020612764868287016124ff565b9250506040612775868287016124ff565b9150509250925092565b6000602082840312156127955761279461240d565b5b60006127a38482850161255d565b91505092915050565b6000602082840312156127c2576127c161240d565b5b60006127d0848285016124ff565b91505092915050565b6127e2816124de565b82525050565b7f4e487b7100000000000000000000000000000000000000000000000000000000600052602160045260246000fd5b60028110612828576128276127e8565b5b50565b600081905061283982612817565b919050565b60006128498261282b565b9050919050565b6128598161283e565b82525050565b600060808201905061287460008301876127d9565b61288160208301866127d9565b61288e60408301856127d9565b61289b6060830184612850565b95945050505050565b60006128af82612514565b9050919050565b6128bf816128a4565b82525050565b60006080820190506128da60008301876128b6565b6128e760208301866127d9565b6128f460408301856127d9565b61290160608301846127d9565b95945050505050565b6000806000606084860312156129235761292261240d565b5b6000612931868287016124ff565b9350506020612942868287016124ff565b9250506040612953868287016124ff565b9150509250925092565b61296681612534565b82525050565b6000602082019050612981600083018461295d565b92915050565b6000819050919050565b60006129ac6129a76129a284612514565b612987565b612514565b9050919050565b60006129be82612991565b9050919050565b60006129d0826129b3565b9050919050565b6129e0816129c5565b82525050565b60006020820190506129fb60008301846129d7565b92915050565b600067ffffffffffffffff821115612a1c57612a1b61242d565b5b602082029050602081019050919050565b6000612a40612a3b84612a01565b61248d565b90508083825260208201905060208402830185811115612a6357612a626124d4565b5b835b81811015612a8c5780612a7888826124ff565b845260208401935050602081019050612a65565b5050509392505050565b600082601f830112612aab57612aaa612417565b5b8135612abb848260208601612a2d565b91505092915050565b600080600060608486031215612add57612adc61240d565b5b600084013567ffffffffffffffff811115612afb57612afa612412565b5b612b0786828701612a96565b9350506020612b18868287016124ff565b925050604084013567ffffffffffffffff811115612b3957612b38612412565b5b612b4586828701612a96565b9150509250925092565b60058110612b6057612b5f6127e8565b5b50565b6000819050612b7182612b4f565b919050565b6000612b8182612b63565b9050919050565b612b9181612b76565b82525050565b600061014082019050612bad600083018d6127d9565b612bba602083018c6127d9565b612bc7604083018b6127d9565b612bd4606083018a6127d9565b612be1608083018961295d565b612bee60a083018861295d565b612bfb60c083018761295d565b612c0860e0830186612b88565b612c166101008301856127d9565b612c2461012083018461295d565b9b9a5050505050505050505050565b6000612c3e826129b3565b9050919050565b612c4e81612c33565b82525050565b6000602082019050612c696000830184612c45565b92915050565b600082825260208201905092915050565b7f4f6e6c792063616c6c206279205461736b4d616e616765720000000000000000600082015250565b6000612cb6601883612c6f565b9150612cc182612c80565b602082019050919050565b60006020820190508181036000830152612ce581612ca9565b9050919050565b7f4e487b7100000000000000000000000000000000000000000000000000000000600052603260045260246000fd5b612d24816124de565b82525050565b612d3381612534565b82525050565b612d4281612b76565b82525050565b61014082016000820151612d5f6000850182612d1b565b506020820151612d726020850182612d1b565b506040820151612d856040850182612d1b565b506060820151612d986060850182612d1b565b506080820151612dab6080850182612d2a565b5060a0820151612dbe60a0850182612d2a565b5060c0820151612dd160c0850182612d2a565b5060e0820151612de460e0850182612d39565b50610100820151612df9610100850182612d1b565b50610120820151612e0e610120850182612d2a565b50505050565b600061018082019050612e2a60008301866127d9565b612e376020830185612d48565b612e456101608301846127d9565b949350505050565b7f4e487b7100000000000000000000000000000000000000000000000000000000600052601160045260246000fd5b6000612e87826124de565b91507fffffffffffffffffffffffffffffffffffffffffffffffffffffffffffffffff8203612eb957612eb8612e4d565b5b600182019050919050565b7f4572726f723a20496e76616c6964204261746368205461736b20537461746500600082015250565b6000612efa601f83612c6f565b9150612f0582612ec4565b602082019050919050565b60006020820190508181036000830152612f2981612eed565b9050919050565b7f57726f6e67207461736b49440000000000000000000000000000000000000000600082015250565b6000612f66600c83612c6f565b9150612f7182612f30565b602082019050919050565b60006020820190508181036000830152612f9581612f59565b9050919050565b6000604082019050612fb1600083018561295d565b612fbe602083018461295d565b9392505050565b600081519050612fd4816124e8565b92915050565b600060208284031215612ff057612fef61240d565b5b6000612ffe84828501612fc5565b91505092915050565b7f596f75722062616c616e6365206e6f7420656e6f756768000000000000000000600082015250565b600061303d601783612c6f565b915061304882613007565b602082019050919050565b6000602082019050818103600083015261306c81613030565b9050919050565b7f496e73756666696369656e742062696420616d6f756e74200000000000000000600082015250565b60006130a9601883612c6f565b91506130b482613073565b602082019050919050565b600060208201905081810360008301526130d88161309c565b9050919050565b60006080820190506130f4600083018761295d565b613101602083018661295d565b61310e604083018561295d565b61311b60608301846127d9565b95945050505050565b600061312f826124de565b915061313a836124de565b925082820190508082111561315257613151612e4d565b5b92915050565b60008160001c9050919050565b6000819050919050565b600061318261317d83613158565b613165565b9050919050565b600073ffffffffffffffffffffffffffffffffffffffff82169050919050565b60006131bc6131b783613158565b613189565b9050919050565b60008160a01c9050919050565b600060ff82169050919050565b60006131f06131eb836131c3565b6131d0565b9050919050565b6101408201600080830154905061320d8161316f565b61321a6000860182612d1b565b506001830154905061322b8161316f565b6132386020860182612d1b565b50600283015490506132498161316f565b6132566040860182612d1b565b50600383015490506132678161316f565b6132746060860182612d1b565b5060048301549050613285816131a9565b6132926080860182612d2a565b50600583015490506132a3816131a9565b6132b060a0860182612d2a565b50600683015490506132c1816131a9565b6132ce60c0860182612d2a565b506132d8816131dd565b6132e560e0860182612d39565b50600783015490506132f68161316f565b613304610100860182612d1b565b5060088301549050613315816131a9565b613323610120860182612d2a565b5050505050565b613333816128a4565b82525050565b60808201600082015161334f600085018261332a565b5060208201516133626020850182612d1b565b5060408201516133756040850182612d1b565b5060608201516133886060850182612d1b565b50505050565b60006101e0820190506133a460008301866131f7565b6133b2610140830185613339565b6133c06101c08301846127d9565b949350505050565b7f4f776e61626c653a206e6577206f776e657220697320746865207a65726f206160008201527f6464726573730000000000000000000000000000000000000000000000000000602082015250565b6000613424602683612c6f565b915061342f826133c8565b604082019050919050565b6000602082019050818103600083015261345381613417565b9050919050565b6000613465826129b3565b9050919050565b6134758161345a565b82525050565b6000608082019050613490600083018761295d565b61349d602083018661295d565b6134aa604083018561346c565b6134b760608301846127d9565b95945050505050565b610140820160008083015490506134d68161316f565b6134e36000860182612d1b565b50600183015490506134f48161316f565b6135016020860182612d1b565b50600283015490506135128161316f565b61351f6040860182612d1b565b50600383015490506135308161316f565b61353d6060860182612d1b565b506004830154905061354e816131a9565b61355b6080860182612d2a565b506005830154905061356c816131a9565b61357960a0860182612d2a565b506006830154905061358a816131a9565b61359760c0860182612d2a565b506135a1816131dd565b6135ae60e0860182612d39565b50600783015490506135bf8161316f565b6135cd610100860182612d1b565b50600883015490506135de816131a9565b6135ec610120860182612d2a565b5050505050565b60006101408201905061360960008301846134c0565b92915050565b6000610180820190506136256000830186612850565b61363260208301856134c0565b6136406101608301846127d9565b949350505050565b7f546865726520617265206e6f2041756374696f6e2063616e20656e642061742060008201527f746865206d6f6d656e7400000000000000000000000000000000000000000000602082015250565b60006136a4602a83612c6f565b91506136af82613648565b604082019050919050565b600060208201905081810360008301526136d381613697565b9050919050565b7f4f776e61626c653a2063616c6c6572206973206e6f7420746865206f776e6572600082015250565b6000613710602083612c6f565b915061371b826136da565b602082019050919050565b6000602082019050818103600083015261373f81613703565b905091905056fea2646970667358221220a26e66f2a1bdb8e9590e0ace832fc10fe3592821c226d897aba2a0e9302551a364736f6c63430008110033",
  "linkReferences": {},
  "deployedLinkReferences": {}
}