{
  "_format": "hh-sol-artifact-1",
  "contractName": "TaskAuction",
  "sourceName": "contracts/TaskAuction.sol",
  "abi": [
    {
      "anonymous": false,
      "inputs": [
        {
          "indexed": true,
          "internalType": "uint256",
          "name": "batchTaskId",
          "type": "uint256"
        },
        {
          "components": [
            {
              "internalType": "uint256",
              "name": "taskId",
              "type": "uint256"
            },
            {
              "internalType": "uint256",
              "name": "point",
              "type": "uint256"
            },
            {
              "internalType": "uint256",
              "name": "reward",
              "type": "uint256"
            },
            {
              "internalType": "uint256",
              "name": "minReward",
              "type": "uint256"
            },
            {
              "internalType": "address",
              "name": "reporter",
              "type": "address"
            },
            {
              "internalType": "address",
              "name": "doer",
              "type": "address"
            },
            {
              "internalType": "address",
              "name": "reviewer",
              "type": "address"
            },
            {
              "internalType": "enum ITaskAuction.TASK_STATE",
              "name": "taskState",
              "type": "uint8"
            },
            {
              "internalType": "uint256",
              "name": "lowestBidAmount",
              "type": "uint256"
            },
            {
              "internalType": "address",
              "name": "lowestBidder",
              "type": "address"
            }
          ],
          "indexed": false,
          "internalType": "struct ITaskAuction.AuctionTask",
          "name": "taskAssigned",
          "type": "tuple"
        },
        {
          "indexed": false,
          "internalType": "uint256",
          "name": "assignTime",
          "type": "uint256"
        }
      ],
      "name": "AssignTask",
      "type": "event"
    },
    {
      "anonymous": false,
      "inputs": [
        {
          "indexed": false,
          "internalType": "enum ITaskAuction.BATCH_TASK_STATE",
          "name": "batchTaskState",
          "type": "uint8"
        },
        {
          "indexed": true,
          "internalType": "uint256",
          "name": "batchTaskId",
          "type": "uint256"
        },
        {
          "components": [
            {
              "internalType": "uint256",
              "name": "taskId",
              "type": "uint256"
            },
            {
              "internalType": "uint256",
              "name": "point",
              "type": "uint256"
            },
            {
              "internalType": "uint256",
              "name": "reward",
              "type": "uint256"
            },
            {
              "internalType": "uint256",
              "name": "minReward",
              "type": "uint256"
            },
            {
              "internalType": "address",
              "name": "reporter",
              "type": "address"
            },
            {
              "internalType": "address",
              "name": "doer",
              "type": "address"
            },
            {
              "internalType": "address",
              "name": "reviewer",
              "type": "address"
            },
            {
              "internalType": "enum ITaskAuction.TASK_STATE",
              "name": "taskState",
              "type": "uint8"
            },
            {
              "internalType": "uint256",
              "name": "lowestBidAmount",
              "type": "uint256"
            },
            {
              "internalType": "address",
              "name": "lowestBidder",
              "type": "address"
            }
          ],
          "indexed": false,
          "internalType": "struct ITaskAuction.AuctionTask",
          "name": "auctionTask",
          "type": "tuple"
        },
        {
          "indexed": false,
          "internalType": "uint256",
          "name": "endTime",
          "type": "uint256"
        }
      ],
      "name": "EndAuction",
      "type": "event"
    },
    {
      "anonymous": false,
      "inputs": [
        {
          "indexed": false,
          "internalType": "string",
          "name": "notify",
          "type": "string"
        }
      ],
      "name": "Notify",
      "type": "event"
    },
    {
      "anonymous": false,
      "inputs": [
        {
          "indexed": false,
          "internalType": "uint256",
          "name": "_batchTaskId",
          "type": "uint256"
        },
        {
          "indexed": false,
          "internalType": "uint256",
          "name": "_auctionDuration",
          "type": "uint256"
        },
        {
          "indexed": false,
          "internalType": "uint256[]",
          "name": "taskIds",
          "type": "uint256[]"
        },
        {
          "indexed": false,
          "internalType": "uint256",
          "name": "timeStart",
          "type": "uint256"
        }
      ],
      "name": "OpenTaskForAuction",
      "type": "event"
    },
    {
      "anonymous": false,
      "inputs": [
        {
          "indexed": true,
          "internalType": "address",
          "name": "previousOwner",
          "type": "address"
        },
        {
          "indexed": true,
          "internalType": "address",
          "name": "newOwner",
          "type": "address"
        }
      ],
      "name": "OwnershipTransferred",
      "type": "event"
    },
    {
      "anonymous": false,
      "inputs": [
        {
          "indexed": false,
          "internalType": "uint256",
          "name": "_taskID",
          "type": "uint256"
        },
        {
          "indexed": false,
          "internalType": "uint256",
          "name": "_batchTaskID",
          "type": "uint256"
        },
        {
          "indexed": false,
          "internalType": "uint256",
          "name": "_amountBid",
          "type": "uint256"
        },
        {
          "indexed": false,
          "internalType": "uint256",
          "name": "bidTime",
          "type": "uint256"
        }
      ],
      "name": "PlaceBid",
      "type": "event"
    },
    {
      "inputs": [
        {
          "internalType": "uint256",
          "name": "",
          "type": "uint256"
        }
      ],
      "name": "auctionTasks",
      "outputs": [
        {
          "internalType": "uint256",
          "name": "taskId",
          "type": "uint256"
        },
        {
          "internalType": "uint256",
          "name": "point",
          "type": "uint256"
        },
        {
          "internalType": "uint256",
          "name": "reward",
          "type": "uint256"
        },
        {
          "internalType": "uint256",
          "name": "minReward",
          "type": "uint256"
        },
        {
          "internalType": "address",
          "name": "reporter",
          "type": "address"
        },
        {
          "internalType": "address",
          "name": "doer",
          "type": "address"
        },
        {
          "internalType": "address",
          "name": "reviewer",
          "type": "address"
        },
        {
          "internalType": "enum ITaskAuction.TASK_STATE",
          "name": "taskState",
          "type": "uint8"
        },
        {
          "internalType": "uint256",
          "name": "lowestBidAmount",
          "type": "uint256"
        },
        {
          "internalType": "address",
          "name": "lowestBidder",
          "type": "address"
        }
      ],
      "stateMutability": "view",
      "type": "function"
    },
    {
      "inputs": [],
      "name": "bankManager",
      "outputs": [
        {
          "internalType": "contract IBankManager",
          "name": "",
          "type": "address"
        }
      ],
      "stateMutability": "view",
      "type": "function"
    },
    {
      "inputs": [
        {
          "internalType": "uint256",
          "name": "",
          "type": "uint256"
        }
      ],
      "name": "batchTaskAuctions",
      "outputs": [
        {
          "internalType": "uint256",
          "name": "batchTaskId",
          "type": "uint256"
        },
        {
          "internalType": "uint256",
          "name": "duration",
          "type": "uint256"
        },
        {
          "internalType": "uint256",
          "name": "startTime",
          "type": "uint256"
        },
        {
          "internalType": "enum ITaskAuction.BATCH_TASK_STATE",
          "name": "batchTaskState",
          "type": "uint8"
        }
      ],
      "stateMutability": "view",
      "type": "function"
    },
    {
      "inputs": [
        {
          "internalType": "uint256",
          "name": "",
          "type": "uint256"
        }
      ],
      "name": "bids",
      "outputs": [
        {
          "internalType": "address payable",
          "name": "bidder",
          "type": "address"
        },
        {
          "internalType": "uint256",
          "name": "taskId",
          "type": "uint256"
        },
        {
          "internalType": "uint256",
          "name": "totalBidAmount",
          "type": "uint256"
        },
        {
          "internalType": "uint256",
          "name": "numberBid",
          "type": "uint256"
        }
      ],
      "stateMutability": "view",
      "type": "function"
    },
    {
      "inputs": [
        {
          "internalType": "address",
          "name": "_tokenAddress",
          "type": "address"
        }
      ],
      "name": "chooseToken",
      "outputs": [],
      "stateMutability": "nonpayable",
      "type": "function"
    },
    {
      "inputs": [],
      "name": "endAuction",
      "outputs": [],
      "stateMutability": "nonpayable",
      "type": "function"
    },
    {
      "inputs": [
        {
          "components": [
            {
              "internalType": "uint256",
              "name": "taskId",
              "type": "uint256"
            },
            {
              "internalType": "uint256",
              "name": "point",
              "type": "uint256"
            },
            {
              "internalType": "uint256",
              "name": "reward",
              "type": "uint256"
            },
            {
              "internalType": "uint256",
              "name": "minReward",
              "type": "uint256"
            },
            {
              "internalType": "address",
              "name": "reporter",
              "type": "address"
            },
            {
              "internalType": "address",
              "name": "doer",
              "type": "address"
            },
            {
              "internalType": "address",
              "name": "reviewer",
              "type": "address"
            },
            {
              "internalType": "uint256",
              "name": "timeDoerReceive",
              "type": "uint256"
            },
            {
              "internalType": "enum ITaskManager.TASK_STATE",
              "name": "taskState",
              "type": "uint8"
            }
          ],
          "internalType": "struct ITaskManager.Task[]",
          "name": "_tasks",
          "type": "tuple[]"
        },
        {
          "internalType": "uint256",
          "name": "_batchTaskId",
          "type": "uint256"
        },
        {
          "internalType": "uint256",
          "name": "_auctionDuration",
          "type": "uint256"
        }
      ],
      "name": "openTaskForAuction",
      "outputs": [],
      "stateMutability": "nonpayable",
      "type": "function"
    },
    {
      "inputs": [],
      "name": "owner",
      "outputs": [
        {
          "internalType": "address",
          "name": "",
          "type": "address"
        }
      ],
      "stateMutability": "view",
      "type": "function"
    },
    {
      "inputs": [
        {
          "internalType": "uint256",
          "name": "_taskID",
          "type": "uint256"
        },
        {
          "internalType": "uint256",
          "name": "_batchTaskID",
          "type": "uint256"
        },
        {
          "internalType": "uint256",
          "name": "_amountBid",
          "type": "uint256"
        }
      ],
      "name": "placeBid",
      "outputs": [],
      "stateMutability": "nonpayable",
      "type": "function"
    },
    {
      "inputs": [
        {
          "internalType": "uint256[]",
          "name": "taskIds",
          "type": "uint256[]"
        },
        {
          "internalType": "uint256",
          "name": "_batchTaskID",
          "type": "uint256"
        },
        {
          "internalType": "uint256[]",
          "name": "_amountBids",
          "type": "uint256[]"
        }
      ],
      "name": "placeMultipleBid",
      "outputs": [],
      "stateMutability": "nonpayable",
      "type": "function"
    },
    {
      "inputs": [],
      "name": "renounceOwnership",
      "outputs": [],
      "stateMutability": "nonpayable",
      "type": "function"
    },
    {
      "inputs": [
        {
          "internalType": "address",
          "name": "_bankManagerAddress",
          "type": "address"
        }
      ],
      "name": "setBankManager",
      "outputs": [],
      "stateMutability": "nonpayable",
      "type": "function"
    },
    {
      "inputs": [
        {
          "internalType": "address",
          "name": "_taskManagerAddress",
          "type": "address"
        }
      ],
      "name": "setTaskManager",
      "outputs": [],
      "stateMutability": "nonpayable",
      "type": "function"
    },
    {
      "inputs": [],
      "name": "taskManager",
      "outputs": [
        {
          "internalType": "contract ITaskManager",
          "name": "",
          "type": "address"
        }
      ],
      "stateMutability": "view",
      "type": "function"
    },
    {
      "inputs": [],
      "name": "tokenAddress",
      "outputs": [
        {
          "internalType": "address",
          "name": "",
          "type": "address"
        }
      ],
      "stateMutability": "view",
      "type": "function"
    },
    {
      "inputs": [
        {
          "internalType": "address",
          "name": "newOwner",
          "type": "address"
        }
      ],
      "name": "transferOwnership",
      "outputs": [],
      "stateMutability": "nonpayable",
      "type": "function"
    }
  ],
  "bytecode": "0x60806040523480156200001157600080fd5b5062000032620000266200003860201b60201c565b6200004060201b60201c565b62000104565b600033905090565b60008060009054906101000a900473ffffffffffffffffffffffffffffffffffffffff169050816000806101000a81548173ffffffffffffffffffffffffffffffffffffffff021916908373ffffffffffffffffffffffffffffffffffffffff1602179055508173ffffffffffffffffffffffffffffffffffffffff168173ffffffffffffffffffffffffffffffffffffffff167f8be0079c531659141344cd1fd0a4f28419497f9722a3daafe3b4186f6b6457e060405160405180910390a35050565b6135eb80620001146000396000f3fe608060405234801561001057600080fd5b50600436106101005760003560e01c80638da5cb5b11610097578063c8eeb01311610066578063c8eeb01314610277578063e9e2990e146102b0578063f2fde38b146102ce578063fe67a54b146102ea57610100565b80638da5cb5b146102015780639d76ea581461021f578063a50a640e1461023d578063bdd084e61461025b57610100565b80634423c5f1116100d35780634423c5f11461018c5780635e62be25146101bf578063715018a6146101db5780637a9b6ef7146101e557610100565b80630f076d6314610105578063327d0a60146101215780634131e8a91461013d57806342b200ba14610170575b600080fd5b61011f600480360381019061011a9190612715565b6102f4565b005b61013b60048036038101906101369190612784565b610abf565b005b610157600480360381019061015291906127b1565b610b0b565b6040516101679493929190612864565b60405180910390f35b61018a60048036038101906101859190612784565b610b58565b005b6101a660048036038101906101a191906127b1565b610ba4565b6040516101b694939291906128ca565b60405180910390f35b6101d960048036038101906101d4919061290f565b610c04565b005b6101e36115b0565b005b6101ff60048036038101906101fa9190612784565b6115c4565b005b610209611610565b6040516102169190612971565b60405180910390f35b610227611639565b6040516102349190612971565b60405180910390f35b61024561165f565b60405161025291906129eb565b60405180910390f35b61027560048036038101906102709190612ac9565b611685565b005b610291600480360381019061028c91906127b1565b6116e9565b6040516102a79a99989796959493929190612b9c565b60405180910390f35b6102b86117da565b6040516102c59190612c59565b60405180910390f35b6102e860048036038101906102e39190612784565b611800565b005b6102f2611883565b005b600160009054906101000a900473ffffffffffffffffffffffffffffffffffffffff1673ffffffffffffffffffffffffffffffffffffffff163373ffffffffffffffffffffffffffffffffffffffff1614610384576040517f08c379a000000000000000000000000000000000000000000000000000000000815260040161037b90612cd1565b60405180910390fd5b6000835167ffffffffffffffff8111156103a1576103a0612432565b5b6040519080825280602002602001820160405280156103cf5781602001602082028036833780820191505090505b50905060005b845181101561091d57600080604051806101400160405280888581518110610400576103ff612cf1565b5b602002602001015160000151815260200188858151811061042457610423612cf1565b5b602002602001015160200151815260200188858151811061044857610447612cf1565b5b602002602001015160400151815260200188858151811061046c5761046b612cf1565b5b60200260200101516060015181526020018885815181106104905761048f612cf1565b5b60200260200101516080015173ffffffffffffffffffffffffffffffffffffffff168152602001600073ffffffffffffffffffffffffffffffffffffffff1681526020018885815181106104e7576104e6612cf1565b5b602002602001015160c0015173ffffffffffffffffffffffffffffffffffffffff16815260200160006004811115610522576105216127ed565b5b815260200188858151811061053a57610539612cf1565b5b60200260200101516040015181526020018373ffffffffffffffffffffffffffffffffffffffff168152509050806007600089868151811061057f5761057e612cf1565b5b60200260200101516000015181526020019081526020016000206000820151816000015560208201518160010155604082015181600201556060820151816003015560808201518160040160006101000a81548173ffffffffffffffffffffffffffffffffffffffff021916908373ffffffffffffffffffffffffffffffffffffffff16021790555060a08201518160050160006101000a81548173ffffffffffffffffffffffffffffffffffffffff021916908373ffffffffffffffffffffffffffffffffffffffff16021790555060c08201518160060160006101000a81548173ffffffffffffffffffffffffffffffffffffffff021916908373ffffffffffffffffffffffffffffffffffffffff16021790555060e08201518160060160146101000a81548160ff021916908360048111156106c1576106c06127ed565b5b021790555061010082015181600701556101208201518160080160006101000a81548173ffffffffffffffffffffffffffffffffffffffff021916908373ffffffffffffffffffffffffffffffffffffffff16021790555090505060038190806001815401808255809150506001900390600052602060002090600902016000909190919091506000820151816000015560208201518160010155604082015181600201556060820151816003015560808201518160040160006101000a81548173ffffffffffffffffffffffffffffffffffffffff021916908373ffffffffffffffffffffffffffffffffffffffff16021790555060a08201518160050160006101000a81548173ffffffffffffffffffffffffffffffffffffffff021916908373ffffffffffffffffffffffffffffffffffffffff16021790555060c08201518160060160006101000a81548173ffffffffffffffffffffffffffffffffffffffff021916908373ffffffffffffffffffffffffffffffffffffffff16021790555060e08201518160060160146101000a81548160ff021916908360048111156108705761086f6127ed565b5b021790555061010082015181600701556101208201518160080160006101000a81548173ffffffffffffffffffffffffffffffffffffffff021916908373ffffffffffffffffffffffffffffffffffffffff16021790555050508683815181106108dd576108dc612cf1565b5b6020026020010151600001518484815181106108fc576108fb612cf1565b5b6020026020010181815250505050808061091590612d4f565b9150506103d5565b5060006040518060a0016040528085815260200183815260200184815260200142815260200160006001811115610957576109566127ed565b5b815250905060068190806001815401808255809150506001900390600052602060002090600502016000909190919091506000820151816000015560208201518160010190805190602001906109ae929190612360565b50604082015181600201556060820151816003015560808201518160040160006101000a81548160ff021916908360018111156109ee576109ed6127ed565b5b021790555050508060086000868152602001908152602001600020600082015181600001556020820151816001019080519060200190610a2f929190612360565b50604082015181600201556060820151816003015560808201518160040160006101000a81548160ff02191690836001811115610a6f57610a6e6127ed565b5b02179055509050507f2708c25248757e58a4d06c06f186fedeca5cb0635b60ad39dcf8305ab50e344a8484836020015142604051610ab09493929190612e55565b60405180910390a15050505050565b610ac7612062565b80600160006101000a81548173ffffffffffffffffffffffffffffffffffffffff021916908373ffffffffffffffffffffffffffffffffffffffff16021790555050565b60068181548110610b1b57600080fd5b90600052602060002090600502016000915090508060000154908060020154908060030154908060040160009054906101000a900460ff16905084565b610b60612062565b80600460006101000a81548173ffffffffffffffffffffffffffffffffffffffff021916908373ffffffffffffffffffffffffffffffffffffffff16021790555050565b60058181548110610bb457600080fd5b90600052602060002090600402016000915090508060000160009054906101000a900473ffffffffffffffffffffffffffffffffffffffff16908060010154908060020154908060030154905084565b600082816001811115610c1a57610c196127ed565b5b6008600083815260200190815260200160002060040160009054906101000a900460ff166001811115610c5057610c4f6127ed565b5b14610c90576040517f08c379a0000000000000000000000000000000000000000000000000000000008152600401610c8790612eed565b60405180910390fd5b600060076000878152602001908152602001600020905085816000015414610ced576040517f08c379a0000000000000000000000000000000000000000000000000000000008152600401610ce490612f59565b60405180910390fd5b83600260009054906101000a900473ffffffffffffffffffffffffffffffffffffffff1673ffffffffffffffffffffffffffffffffffffffff1663f7888aec33600460009054906101000a900473ffffffffffffffffffffffffffffffffffffffff166040518363ffffffff1660e01b8152600401610d6d929190612f79565b6020604051808303816000875af1158015610d8c573d6000803e3d6000fd5b505050506040513d601f19601f82011682018060405250810190610db09190612fb7565b1015610df1576040517f08c379a0000000000000000000000000000000000000000000000000000000008152600401610de890613030565b60405180910390fd5b80600301548410158015610e085750806007015484105b610e47576040517f08c379a0000000000000000000000000000000000000000000000000000000008152600401610e3e9061309c565b60405180910390fd5b600260009054906101000a900473ffffffffffffffffffffffffffffffffffffffff1673ffffffffffffffffffffffffffffffffffffffff1663f18d03cc33600460009054906101000a900473ffffffffffffffffffffffffffffffffffffffff16600260009054906101000a900473ffffffffffffffffffffffffffffffffffffffff16886040518563ffffffff1660e01b8152600401610eec94939291906130bc565b600060405180830381600087803b158015610f0657600080fd5b505af1158015610f1a573d6000803e3d6000fd5b505050506000610f2a87336120e0565b9050600073ffffffffffffffffffffffffffffffffffffffff16816000015173ffffffffffffffffffffffffffffffffffffffff1603610fa75733816000019073ffffffffffffffffffffffffffffffffffffffff16908173ffffffffffffffffffffffffffffffffffffffff1681525050868160200181815250505b8481604001818151610fb99190613101565b91508181525050806060018051809190610fd290612d4f565b81525050816007015485101561102f57848260070181905550338260080160006101000a81548173ffffffffffffffffffffffffffffffffffffffff021916908373ffffffffffffffffffffffffffffffffffffffff1602179055505b8160076000898152602001908152602001600020600082015481600001556001820154816001015560028201548160020155600382015481600301556004820160009054906101000a900473ffffffffffffffffffffffffffffffffffffffff168160040160006101000a81548173ffffffffffffffffffffffffffffffffffffffff021916908373ffffffffffffffffffffffffffffffffffffffff1602179055506005820160009054906101000a900473ffffffffffffffffffffffffffffffffffffffff168160050160006101000a81548173ffffffffffffffffffffffffffffffffffffffff021916908373ffffffffffffffffffffffffffffffffffffffff1602179055506006820160009054906101000a900473ffffffffffffffffffffffffffffffffffffffff168160060160006101000a81548173ffffffffffffffffffffffffffffffffffffffff021916908373ffffffffffffffffffffffffffffffffffffffff1602179055506006820160149054906101000a900460ff168160060160146101000a81548160ff021916908360048111156111d8576111d76127ed565b5b0217905550600782015481600701556008820160009054906101000a900473ffffffffffffffffffffffffffffffffffffffff168160080160006101000a81548173ffffffffffffffffffffffffffffffffffffffff021916908373ffffffffffffffffffffffffffffffffffffffff16021790555090505060005b6003805490508110156114d657876003828154811061127657611275612cf1565b5b906000526020600020906009020160000154036114c35782600382815481106112a2576112a1612cf1565b5b9060005260206000209060090201600082015481600001556001820154816001015560028201548160020155600382015481600301556004820160009054906101000a900473ffffffffffffffffffffffffffffffffffffffff168160040160006101000a81548173ffffffffffffffffffffffffffffffffffffffff021916908373ffffffffffffffffffffffffffffffffffffffff1602179055506005820160009054906101000a900473ffffffffffffffffffffffffffffffffffffffff168160050160006101000a81548173ffffffffffffffffffffffffffffffffffffffff021916908373ffffffffffffffffffffffffffffffffffffffff1602179055506006820160009054906101000a900473ffffffffffffffffffffffffffffffffffffffff168160060160006101000a81548173ffffffffffffffffffffffffffffffffffffffff021916908373ffffffffffffffffffffffffffffffffffffffff1602179055506006820160149054906101000a900460ff168160060160146101000a81548160ff02191690836004811115611445576114446127ed565b5b0217905550600782015481600701556008820160009054906101000a900473ffffffffffffffffffffffffffffffffffffffff168160080160006101000a81548173ffffffffffffffffffffffffffffffffffffffff021916908373ffffffffffffffffffffffffffffffffffffffff1602179055509050506114d6565b80806114ce90612d4f565b915050611254565b50600581908060018154018082558091505060019003906000526020600020906004020160009091909190915060008201518160000160006101000a81548173ffffffffffffffffffffffffffffffffffffffff021916908373ffffffffffffffffffffffffffffffffffffffff16021790555060208201518160010155604082015181600201556060820151816003015550507fad42b5562606827f9150cc5accff8b7b2f97a6a4618efe34bae672e03819f54b8787874260405161159f9493929190613135565b60405180910390a150505050505050565b6115b8612062565b6115c26000612294565b565b6115cc612062565b80600260006101000a81548173ffffffffffffffffffffffffffffffffffffffff021916908373ffffffffffffffffffffffffffffffffffffffff16021790555050565b60008060009054906101000a900473ffffffffffffffffffffffffffffffffffffffff16905090565b600460009054906101000a900473ffffffffffffffffffffffffffffffffffffffff1681565b600160009054906101000a900473ffffffffffffffffffffffffffffffffffffffff1681565b60005b83518110156116e3576116d08482815181106116a7576116a6612cf1565b5b6020026020010151848484815181106116c3576116c2612cf1565b5b6020026020010151610c04565b80806116db90612d4f565b915050611688565b50505050565b600381815481106116f957600080fd5b90600052602060002090600902016000915090508060000154908060010154908060020154908060030154908060040160009054906101000a900473ffffffffffffffffffffffffffffffffffffffff16908060050160009054906101000a900473ffffffffffffffffffffffffffffffffffffffff16908060060160009054906101000a900473ffffffffffffffffffffffffffffffffffffffff16908060060160149054906101000a900460ff16908060070154908060080160009054906101000a900473ffffffffffffffffffffffffffffffffffffffff1690508a565b600260009054906101000a900473ffffffffffffffffffffffffffffffffffffffff1681565b611808612062565b600073ffffffffffffffffffffffffffffffffffffffff168173ffffffffffffffffffffffffffffffffffffffff1603611877576040517f08c379a000000000000000000000000000000000000000000000000000000000815260040161186e906131ec565b60405180910390fd5b61188081612294565b50565b6000805b60068054905081101561201c57600060018111156118a8576118a76127ed565b5b600682815481106118bc576118bb612cf1565b5b906000526020600020906005020160040160009054906101000a900460ff1660018111156118ed576118ec6127ed565b5b14801561194e57506006818154811061190957611908612cf1565b5b9060005260206000209060050201600201546006828154811061192f5761192e612cf1565b5b90600052602060002090600502016003015461194b9190613101565b42115b15612009576001915060005b6006828154811061196e5761196d612cf1565b5b90600052602060002090600502016001018054905081101561200757600073ffffffffffffffffffffffffffffffffffffffff1660076000600685815481106119ba576119b9612cf1565b5b906000526020600020906005020160010184815481106119dd576119dc612cf1565b5b9060005260206000200154815260200190815260200160002060080160009054906101000a900473ffffffffffffffffffffffffffffffffffffffff1673ffffffffffffffffffffffffffffffffffffffff1614611ff4576007600060068481548110611a4d57611a4c612cf1565b5b90600052602060002090600502016001018381548110611a7057611a6f612cf1565b5b90600052602060002001548152602001908152602001600020600701546007600060068581548110611aa557611aa4612cf1565b5b90600052602060002090600502016001018481548110611ac857611ac7612cf1565b5b90600052602060002001548152602001908152602001600020600201819055506007600060068481548110611b0057611aff612cf1565b5b90600052602060002090600502016001018381548110611b2357611b22612cf1565b5b9060005260206000200154815260200190815260200160002060080160009054906101000a900473ffffffffffffffffffffffffffffffffffffffff166007600060068581548110611b7857611b77612cf1565b5b90600052602060002090600502016001018481548110611b9b57611b9a612cf1565b5b9060005260206000200154815260200190815260200160002060050160006101000a81548173ffffffffffffffffffffffffffffffffffffffff021916908373ffffffffffffffffffffffffffffffffffffffff16021790555060016007600060068581548110611c0f57611c0e612cf1565b5b90600052602060002090600502016001018481548110611c3257611c31612cf1565b5b9060005260206000200154815260200190815260200160002060060160146101000a81548160ff02191690836004811115611c7057611c6f6127ed565b5b021790555060005b600580549050811015611e5d576007600060068581548110611c9d57611c9c612cf1565b5b90600052602060002090600502016001018481548110611cc057611cbf612cf1565b5b906000526020600020015481526020019081526020016000206000015460058281548110611cf157611cf0612cf1565b5b90600052602060002090600402016001015403611e4a57600260009054906101000a900473ffffffffffffffffffffffffffffffffffffffff1673ffffffffffffffffffffffffffffffffffffffff1663f18d03cc600260009054906101000a900473ffffffffffffffffffffffffffffffffffffffff16600460009054906101000a900473ffffffffffffffffffffffffffffffffffffffff1660058581548110611da057611d9f612cf1565b5b906000526020600020906004020160000160009054906101000a900473ffffffffffffffffffffffffffffffffffffffff1660058681548110611de657611de5612cf1565b5b9060005260206000209060040201600201546040518563ffffffff1660e01b8152600401611e17949392919061322d565b600060405180830381600087803b158015611e3157600080fd5b505af1158015611e45573d6000803e3d6000fd5b505050505b8080611e5590612d4f565b915050611c78565b50600160009054906101000a900473ffffffffffffffffffffffffffffffffffffffff1673ffffffffffffffffffffffffffffffffffffffff1663e64f01b96007600060068681548110611eb457611eb3612cf1565b5b90600052602060002090600502016001018581548110611ed757611ed6612cf1565b5b906000526020600020015481526020019081526020016000206040518263ffffffff1660e01b8152600401611f0c9190613462565b600060405180830381600087803b158015611f2657600080fd5b505af1158015611f3a573d6000803e3d6000fd5b5050505060068281548110611f5257611f51612cf1565b5b9060005260206000209060050201600001547f414477b51c9210f442a533ef45a65cdf2bb0aee1caf1e4fb991055244e7055dd60016007600060068781548110611f9f57611f9e612cf1565b5b90600052602060002090600502016001018681548110611fc257611fc1612cf1565b5b9060005260206000200154815260200190815260200160002042604051611feb9392919061347e565b60405180910390a25b8080611fff90612d4f565b91505061195a565b505b808061201490612d4f565b915050611887565b50600015158115150361205f577f740029a372cf63fe0e8d59421d39ff2e39506263bf68a6d46f4ade0771a0901260405161205690613529565b60405180910390a15b50565b61206a612358565b73ffffffffffffffffffffffffffffffffffffffff16612088611610565b73ffffffffffffffffffffffffffffffffffffffff16146120de576040517f08c379a00000000000000000000000000000000000000000000000000000000081526004016120d590613595565b60405180910390fd5b565b6120e86123ad565b600060058054905081101561228c57836005828154811061210c5761210b612cf1565b5b90600052602060002090600402016001015414801561219b57508273ffffffffffffffffffffffffffffffffffffffff166005828154811061215157612150612cf1565b5b906000526020600020906004020160000160009054906101000a900473ffffffffffffffffffffffffffffffffffffffff1673ffffffffffffffffffffffffffffffffffffffff16145b1561224957600581815481106121b4576121b3612cf1565b5b90600052602060002090600402016040518060800160405290816000820160009054906101000a900473ffffffffffffffffffffffffffffffffffffffff1673ffffffffffffffffffffffffffffffffffffffff1673ffffffffffffffffffffffffffffffffffffffff168152602001600182015481526020016002820154815260200160038201548152505091505061228e565b6040518060800160405280600073ffffffffffffffffffffffffffffffffffffffff1681526020016000815260200160008152602001600081525091505061228e565b505b92915050565b60008060009054906101000a900473ffffffffffffffffffffffffffffffffffffffff169050816000806101000a81548173ffffffffffffffffffffffffffffffffffffffff021916908373ffffffffffffffffffffffffffffffffffffffff1602179055508173ffffffffffffffffffffffffffffffffffffffff168173ffffffffffffffffffffffffffffffffffffffff167f8be0079c531659141344cd1fd0a4f28419497f9722a3daafe3b4186f6b6457e060405160405180910390a35050565b600033905090565b82805482825590600052602060002090810192821561239c579160200282015b8281111561239b578251825591602001919060010190612380565b5b5090506123a991906123eb565b5090565b6040518060800160405280600073ffffffffffffffffffffffffffffffffffffffff1681526020016000815260200160008152602001600081525090565b5b808211156124045760008160009055506001016123ec565b5090565b6000604051905090565b600080fd5b600080fd5b600080fd5b6000601f19601f8301169050919050565b7f4e487b7100000000000000000000000000000000000000000000000000000000600052604160045260246000fd5b61246a82612421565b810181811067ffffffffffffffff8211171561248957612488612432565b5b80604052505050565b600061249c612408565b90506124a88282612461565b919050565b600067ffffffffffffffff8211156124c8576124c7612432565b5b602082029050602081019050919050565b600080fd5b600080fd5b6000819050919050565b6124f6816124e3565b811461250157600080fd5b50565b600081359050612513816124ed565b92915050565b600073ffffffffffffffffffffffffffffffffffffffff82169050919050565b600061254482612519565b9050919050565b61255481612539565b811461255f57600080fd5b50565b6000813590506125718161254b565b92915050565b6005811061258457600080fd5b50565b60008135905061259681612577565b92915050565b600061012082840312156125b3576125b26124de565b5b6125be610120612492565b905060006125ce84828501612504565b60008301525060206125e284828501612504565b60208301525060406125f684828501612504565b604083015250606061260a84828501612504565b606083015250608061261e84828501612562565b60808301525060a061263284828501612562565b60a08301525060c061264684828501612562565b60c08301525060e061265a84828501612504565b60e08301525061010061266f84828501612587565b6101008301525092915050565b600061268f61268a846124ad565b612492565b90508083825260208201905061012084028301858111156126b3576126b26124d9565b5b835b818110156126dd57806126c8888261259c565b845260208401935050610120810190506126b5565b5050509392505050565b600082601f8301126126fc576126fb61241c565b5b813561270c84826020860161267c565b91505092915050565b60008060006060848603121561272e5761272d612412565b5b600084013567ffffffffffffffff81111561274c5761274b612417565b5b612758868287016126e7565b935050602061276986828701612504565b925050604061277a86828701612504565b9150509250925092565b60006020828403121561279a57612799612412565b5b60006127a884828501612562565b91505092915050565b6000602082840312156127c7576127c6612412565b5b60006127d584828501612504565b91505092915050565b6127e7816124e3565b82525050565b7f4e487b7100000000000000000000000000000000000000000000000000000000600052602160045260246000fd5b6002811061282d5761282c6127ed565b5b50565b600081905061283e8261281c565b919050565b600061284e82612830565b9050919050565b61285e81612843565b82525050565b600060808201905061287960008301876127de565b61288660208301866127de565b61289360408301856127de565b6128a06060830184612855565b95945050505050565b60006128b482612519565b9050919050565b6128c4816128a9565b82525050565b60006080820190506128df60008301876128bb565b6128ec60208301866127de565b6128f960408301856127de565b61290660608301846127de565b95945050505050565b60008060006060848603121561292857612927612412565b5b600061293686828701612504565b935050602061294786828701612504565b925050604061295886828701612504565b9150509250925092565b61296b81612539565b82525050565b60006020820190506129866000830184612962565b92915050565b6000819050919050565b60006129b16129ac6129a784612519565b61298c565b612519565b9050919050565b60006129c382612996565b9050919050565b60006129d5826129b8565b9050919050565b6129e5816129ca565b82525050565b6000602082019050612a0060008301846129dc565b92915050565b600067ffffffffffffffff821115612a2157612a20612432565b5b602082029050602081019050919050565b6000612a45612a4084612a06565b612492565b90508083825260208201905060208402830185811115612a6857612a676124d9565b5b835b81811015612a915780612a7d8882612504565b845260208401935050602081019050612a6a565b5050509392505050565b600082601f830112612ab057612aaf61241c565b5b8135612ac0848260208601612a32565b91505092915050565b600080600060608486031215612ae257612ae1612412565b5b600084013567ffffffffffffffff811115612b0057612aff612417565b5b612b0c86828701612a9b565b9350506020612b1d86828701612504565b925050604084013567ffffffffffffffff811115612b3e57612b3d612417565b5b612b4a86828701612a9b565b9150509250925092565b60058110612b6557612b646127ed565b5b50565b6000819050612b7682612b54565b919050565b6000612b8682612b68565b9050919050565b612b9681612b7b565b82525050565b600061014082019050612bb2600083018d6127de565b612bbf602083018c6127de565b612bcc604083018b6127de565b612bd9606083018a6127de565b612be66080830189612962565b612bf360a0830188612962565b612c0060c0830187612962565b612c0d60e0830186612b8d565b612c1b6101008301856127de565b612c29610120830184612962565b9b9a5050505050505050505050565b6000612c43826129b8565b9050919050565b612c5381612c38565b82525050565b6000602082019050612c6e6000830184612c4a565b92915050565b600082825260208201905092915050565b7f4f6e6c792063616c6c206279205461736b4d616e616765720000000000000000600082015250565b6000612cbb601883612c74565b9150612cc682612c85565b602082019050919050565b60006020820190508181036000830152612cea81612cae565b9050919050565b7f4e487b7100000000000000000000000000000000000000000000000000000000600052603260045260246000fd5b7f4e487b7100000000000000000000000000000000000000000000000000000000600052601160045260246000fd5b6000612d5a826124e3565b91507fffffffffffffffffffffffffffffffffffffffffffffffffffffffffffffffff8203612d8c57612d8b612d20565b5b600182019050919050565b600081519050919050565b600082825260208201905092915050565b6000819050602082019050919050565b612dcc816124e3565b82525050565b6000612dde8383612dc3565b60208301905092915050565b6000602082019050919050565b6000612e0282612d97565b612e0c8185612da2565b9350612e1783612db3565b8060005b83811015612e48578151612e2f8882612dd2565b9750612e3a83612dea565b925050600181019050612e1b565b5085935050505092915050565b6000608082019050612e6a60008301876127de565b612e7760208301866127de565b8181036040830152612e898185612df7565b9050612e9860608301846127de565b95945050505050565b7f4572726f723a20496e76616c6964204261746368205461736b20537461746500600082015250565b6000612ed7601f83612c74565b9150612ee282612ea1565b602082019050919050565b60006020820190508181036000830152612f0681612eca565b9050919050565b7f57726f6e67207461736b49440000000000000000000000000000000000000000600082015250565b6000612f43600c83612c74565b9150612f4e82612f0d565b602082019050919050565b60006020820190508181036000830152612f7281612f36565b9050919050565b6000604082019050612f8e6000830185612962565b612f9b6020830184612962565b9392505050565b600081519050612fb1816124ed565b92915050565b600060208284031215612fcd57612fcc612412565b5b6000612fdb84828501612fa2565b91505092915050565b7f596f75722062616c616e6365206e6f7420656e6f756768000000000000000000600082015250565b600061301a601783612c74565b915061302582612fe4565b602082019050919050565b600060208201905081810360008301526130498161300d565b9050919050565b7f496e73756666696369656e742062696420616d6f756e74200000000000000000600082015250565b6000613086601883612c74565b915061309182613050565b602082019050919050565b600060208201905081810360008301526130b581613079565b9050919050565b60006080820190506130d16000830187612962565b6130de6020830186612962565b6130eb6040830185612962565b6130f860608301846127de565b95945050505050565b600061310c826124e3565b9150613117836124e3565b925082820190508082111561312f5761312e612d20565b5b92915050565b600060808201905061314a60008301876127de565b61315760208301866127de565b61316460408301856127de565b61317160608301846127de565b95945050505050565b7f4f776e61626c653a206e6577206f776e657220697320746865207a65726f206160008201527f6464726573730000000000000000000000000000000000000000000000000000602082015250565b60006131d6602683612c74565b91506131e18261317a565b604082019050919050565b60006020820190508181036000830152613205816131c9565b9050919050565b6000613217826129b8565b9050919050565b6132278161320c565b82525050565b60006080820190506132426000830187612962565b61324f6020830186612962565b61325c604083018561321e565b61326960608301846127de565b95945050505050565b60008160001c9050919050565b6000819050919050565b600061329c61329783613272565b61327f565b9050919050565b600073ffffffffffffffffffffffffffffffffffffffff82169050919050565b60006132d66132d183613272565b6132a3565b9050919050565b6132e681612539565b82525050565b60008160a01c9050919050565b600060ff82169050919050565b6000613319613314836132ec565b6132f9565b9050919050565b61332981612b7b565b82525050565b6101408201600080830154905061334581613289565b6133526000860182612dc3565b506001830154905061336381613289565b6133706020860182612dc3565b506002830154905061338181613289565b61338e6040860182612dc3565b506003830154905061339f81613289565b6133ac6060860182612dc3565b50600483015490506133bd816132c3565b6133ca60808601826132dd565b50600583015490506133db816132c3565b6133e860a08601826132dd565b50600683015490506133f9816132c3565b61340660c08601826132dd565b5061341081613306565b61341d60e0860182613320565b506007830154905061342e81613289565b61343c610100860182612dc3565b506008830154905061344d816132c3565b61345b6101208601826132dd565b5050505050565b600061014082019050613478600083018461332f565b92915050565b6000610180820190506134946000830186612855565b6134a1602083018561332f565b6134af6101608301846127de565b949350505050565b7f546865726520617265206e6f2041756374696f6e2063616e20656e642061742060008201527f746865206d6f6d656e7400000000000000000000000000000000000000000000602082015250565b6000613513602a83612c74565b915061351e826134b7565b604082019050919050565b6000602082019050818103600083015261354281613506565b9050919050565b7f4f776e61626c653a2063616c6c6572206973206e6f7420746865206f776e6572600082015250565b600061357f602083612c74565b915061358a82613549565b602082019050919050565b600060208201905081810360008301526135ae81613572565b905091905056fea2646970667358221220cf85402a29650acd83219baf1bc620fe95c10a90cba9f9f15281e291c841f9eb64736f6c63430008110033",
  "linkReferences": {},
  "deployedLinkReferences": {}
}