{
  "_format": "hh-sol-artifact-1",
  "contractName": "TaskAuction",
  "sourceName": "contracts/TaskAuction.sol",
  "abi": [
    {
      "anonymous": false,
      "inputs": [
        {
          "indexed": true,
          "internalType": "address",
          "name": "previousOwner",
          "type": "address"
        },
        {
          "indexed": true,
          "internalType": "address",
          "name": "newOwner",
          "type": "address"
        }
      ],
      "name": "OwnershipTransferred",
      "type": "event"
    },
    {
      "inputs": [
        {
          "internalType": "uint256",
          "name": "",
          "type": "uint256"
        }
      ],
      "name": "auctionTasks",
      "outputs": [
        {
          "internalType": "uint256",
          "name": "taskId",
          "type": "uint256"
        },
        {
          "internalType": "uint256",
          "name": "point",
          "type": "uint256"
        },
        {
          "internalType": "uint256",
          "name": "reward",
          "type": "uint256"
        },
        {
          "internalType": "uint256",
          "name": "minReward",
          "type": "uint256"
        },
        {
          "internalType": "address",
          "name": "reporter",
          "type": "address"
        },
        {
          "internalType": "address",
          "name": "doer",
          "type": "address"
        },
        {
          "internalType": "address",
          "name": "reviewer",
          "type": "address"
        },
        {
          "internalType": "enum ITaskAuction.TASK_STATE",
          "name": "taskState",
          "type": "uint8"
        },
        {
          "internalType": "uint256",
          "name": "lowestBidAmount",
          "type": "uint256"
        },
        {
          "internalType": "address",
          "name": "lowestBidder",
          "type": "address"
        },
        {
          "internalType": "uint256",
          "name": "duration",
          "type": "uint256"
        },
        {
          "internalType": "uint256",
          "name": "startTime",
          "type": "uint256"
        }
      ],
      "stateMutability": "view",
      "type": "function"
    },
    {
      "inputs": [
        {
          "internalType": "uint256",
          "name": "",
          "type": "uint256"
        }
      ],
      "name": "bids",
      "outputs": [
        {
          "internalType": "address payable",
          "name": "bidder",
          "type": "address"
        },
        {
          "internalType": "uint256",
          "name": "taskId",
          "type": "uint256"
        },
        {
          "internalType": "uint256",
          "name": "totalBidAmount",
          "type": "uint256"
        },
        {
          "internalType": "uint256",
          "name": "numberBid",
          "type": "uint256"
        }
      ],
      "stateMutability": "view",
      "type": "function"
    },
    {
      "inputs": [],
      "name": "endAuction",
      "outputs": [],
      "stateMutability": "nonpayable",
      "type": "function"
    },
    {
      "inputs": [
        {
          "components": [
            {
              "internalType": "uint256",
              "name": "taskId",
              "type": "uint256"
            },
            {
              "internalType": "uint256",
              "name": "point",
              "type": "uint256"
            },
            {
              "internalType": "uint256",
              "name": "reward",
              "type": "uint256"
            },
            {
              "internalType": "uint256",
              "name": "minReward",
              "type": "uint256"
            },
            {
              "internalType": "address",
              "name": "reporter",
              "type": "address"
            },
            {
              "internalType": "address",
              "name": "doer",
              "type": "address"
            },
            {
              "internalType": "address",
              "name": "reviewer",
              "type": "address"
            },
            {
              "internalType": "uint256",
              "name": "timeDoerReceive",
              "type": "uint256"
            },
            {
              "internalType": "enum ITaskManager.TASK_STATE",
              "name": "taskState",
              "type": "uint8"
            }
          ],
          "internalType": "struct ITaskManager.Task",
          "name": "_task",
          "type": "tuple"
        },
        {
          "internalType": "uint256",
          "name": "__auctionDuration",
          "type": "uint256"
        }
      ],
      "name": "openTaskForAuction",
      "outputs": [],
      "stateMutability": "nonpayable",
      "type": "function"
    },
    {
      "inputs": [],
      "name": "owner",
      "outputs": [
        {
          "internalType": "address",
          "name": "",
          "type": "address"
        }
      ],
      "stateMutability": "view",
      "type": "function"
    },
    {
      "inputs": [
        {
          "internalType": "uint256",
          "name": "_taskID",
          "type": "uint256"
        }
      ],
      "name": "placeBid",
      "outputs": [],
      "stateMutability": "payable",
      "type": "function"
    },
    {
      "inputs": [],
      "name": "renounceOwnership",
      "outputs": [],
      "stateMutability": "nonpayable",
      "type": "function"
    },
    {
      "inputs": [
        {
          "internalType": "address",
          "name": "_taskManagerAddress",
          "type": "address"
        }
      ],
      "name": "setTaskManager",
      "outputs": [],
      "stateMutability": "nonpayable",
      "type": "function"
    },
    {
      "inputs": [],
      "name": "taskManager",
      "outputs": [
        {
          "internalType": "contract ITaskManager",
          "name": "",
          "type": "address"
        }
      ],
      "stateMutability": "view",
      "type": "function"
    },
    {
      "inputs": [
        {
          "internalType": "address",
          "name": "newOwner",
          "type": "address"
        }
      ],
      "name": "transferOwnership",
      "outputs": [],
      "stateMutability": "nonpayable",
      "type": "function"
    }
  ],
  "bytecode": "0x608060405234801561001057600080fd5b5061002d61002261003260201b60201c565b61003a60201b60201c565b6100fe565b600033905090565b60008060009054906101000a900473ffffffffffffffffffffffffffffffffffffffff169050816000806101000a81548173ffffffffffffffffffffffffffffffffffffffff021916908373ffffffffffffffffffffffffffffffffffffffff1602179055508173ffffffffffffffffffffffffffffffffffffffff168173ffffffffffffffffffffffffffffffffffffffff167f8be0079c531659141344cd1fd0a4f28419497f9722a3daafe3b4186f6b6457e060405160405180910390a35050565b6122f8806200010e6000396000f3fe6080604052600436106100915760003560e01c8063a50a640e11610059578063a50a640e1461015d578063b1b9e53b14610188578063c8eeb013146101b1578063f2fde38b146101f9578063fe67a54b1461022257610091565b8063327d0a60146100965780634423c5f1146100bf578063715018a6146100ff5780638da5cb5b146101165780639979ef4514610141575b600080fd5b3480156100a257600080fd5b506100bd60048036038101906100b8919061188a565b610239565b005b3480156100cb57600080fd5b506100e660048036038101906100e191906118ed565b610285565b6040516100f6949392919061194a565b60405180910390f35b34801561010b57600080fd5b506101146102e5565b005b34801561012257600080fd5b5061012b6102f9565b604051610138919061199e565b60405180910390f35b61015b600480360381019061015691906118ed565b610322565b005b34801561016957600080fd5b50610172610adc565b60405161017f9190611a18565b60405180910390f35b34801561019457600080fd5b506101af60048036038101906101aa9190611bc9565b610b02565b005b3480156101bd57600080fd5b506101d860048036038101906101d391906118ed565b610f5f565b6040516101f09c9b9a99989796959493929190611c82565b60405180910390f35b34801561020557600080fd5b50610220600480360381019061021b919061188a565b61105c565b005b34801561022e57600080fd5b506102376110df565b005b6102416114e1565b80600160006101000a81548173ffffffffffffffffffffffffffffffffffffffff021916908373ffffffffffffffffffffffffffffffffffffffff16021790555050565b6003818154811061029557600080fd5b90600052602060002090600402016000915090508060000160009054906101000a900473ffffffffffffffffffffffffffffffffffffffff16908060010154908060020154908060030154905084565b6102ed6114e1565b6102f7600061155f565b565b60008060009054906101000a900473ffffffffffffffffffffffffffffffffffffffff16905090565b60008181600481111561033857610337611c0b565b5b6004600083815260200190815260200160002060060160149054906101000a900460ff16600481111561036e5761036d611c0b565b5b146103ae576040517f08c379a00000000000000000000000000000000000000000000000000000000081526004016103a590611d99565b60405180910390fd5b60006004600085815260200190815260200160002090508381600001541461040b576040517f08c379a000000000000000000000000000000000000000000000000000000000815260040161040290611e05565b60405180910390fd5b806003015434101580156104225750806007015434105b610461576040517f08c379a000000000000000000000000000000000000000000000000000000000815260040161045890611e71565b60405180910390fd5b600061046d8533611623565b9050600073ffffffffffffffffffffffffffffffffffffffff16816000015173ffffffffffffffffffffffffffffffffffffffff16036104ea5733816000019073ffffffffffffffffffffffffffffffffffffffff16908173ffffffffffffffffffffffffffffffffffffffff1681525050848160200181815250505b34816040018181516104fc9190611ec0565b9150818152505080606001805180919061051590611ef4565b81525050816007015434101561057257348260070181905550338260080160006101000a81548173ffffffffffffffffffffffffffffffffffffffff021916908373ffffffffffffffffffffffffffffffffffffffff1602179055505b8160046000878152602001908152602001600020600082015481600001556001820154816001015560028201548160020155600382015481600301556004820160009054906101000a900473ffffffffffffffffffffffffffffffffffffffff168160040160006101000a81548173ffffffffffffffffffffffffffffffffffffffff021916908373ffffffffffffffffffffffffffffffffffffffff1602179055506005820160009054906101000a900473ffffffffffffffffffffffffffffffffffffffff168160050160006101000a81548173ffffffffffffffffffffffffffffffffffffffff021916908373ffffffffffffffffffffffffffffffffffffffff1602179055506006820160009054906101000a900473ffffffffffffffffffffffffffffffffffffffff168160060160006101000a81548173ffffffffffffffffffffffffffffffffffffffff021916908373ffffffffffffffffffffffffffffffffffffffff1602179055506006820160149054906101000a900460ff168160060160146101000a81548160ff0219169083600481111561071b5761071a611c0b565b5b0217905550600782015481600701556008820160009054906101000a900473ffffffffffffffffffffffffffffffffffffffff168160080160006101000a81548173ffffffffffffffffffffffffffffffffffffffff021916908373ffffffffffffffffffffffffffffffffffffffff16021790555060098201548160090155600a82015481600a015590505060005b600280549050811015610a415785600282815481106107cd576107cc611f3c565b5b90600052602060002090600b02016000015403610a2e5782600282815481106107f9576107f8611f3c565b5b90600052602060002090600b0201600082015481600001556001820154816001015560028201548160020155600382015481600301556004820160009054906101000a900473ffffffffffffffffffffffffffffffffffffffff168160040160006101000a81548173ffffffffffffffffffffffffffffffffffffffff021916908373ffffffffffffffffffffffffffffffffffffffff1602179055506005820160009054906101000a900473ffffffffffffffffffffffffffffffffffffffff168160050160006101000a81548173ffffffffffffffffffffffffffffffffffffffff021916908373ffffffffffffffffffffffffffffffffffffffff1602179055506006820160009054906101000a900473ffffffffffffffffffffffffffffffffffffffff168160060160006101000a81548173ffffffffffffffffffffffffffffffffffffffff021916908373ffffffffffffffffffffffffffffffffffffffff1602179055506006820160149054906101000a900460ff168160060160146101000a81548160ff0219169083600481111561099c5761099b611c0b565b5b0217905550600782015481600701556008820160009054906101000a900473ffffffffffffffffffffffffffffffffffffffff168160080160006101000a81548173ffffffffffffffffffffffffffffffffffffffff021916908373ffffffffffffffffffffffffffffffffffffffff16021790555060098201548160090155600a82015481600a0155905050610a41565b8080610a3990611ef4565b9150506107ab565b50600381908060018154018082558091505060019003906000526020600020906004020160009091909190915060008201518160000160006101000a81548173ffffffffffffffffffffffffffffffffffffffff021916908373ffffffffffffffffffffffffffffffffffffffff16021790555060208201518160010155604082015181600201556060820151816003015550505050505050565b600160009054906101000a900473ffffffffffffffffffffffffffffffffffffffff1681565b60008060405180610180016040528085600001518152602001856020015181526020018560400151815260200185606001518152602001856080015173ffffffffffffffffffffffffffffffffffffffff1681526020018560a0015173ffffffffffffffffffffffffffffffffffffffff1681526020018560c0015173ffffffffffffffffffffffffffffffffffffffff16815260200160006004811115610bad57610bac611c0b565b5b8152602001856040015181526020018373ffffffffffffffffffffffffffffffffffffffff1681526020018481526020014281525090508060046000866000015181526020019081526020016000206000820151816000015560208201518160010155604082015181600201556060820151816003015560808201518160040160006101000a81548173ffffffffffffffffffffffffffffffffffffffff021916908373ffffffffffffffffffffffffffffffffffffffff16021790555060a08201518160050160006101000a81548173ffffffffffffffffffffffffffffffffffffffff021916908373ffffffffffffffffffffffffffffffffffffffff16021790555060c08201518160060160006101000a81548173ffffffffffffffffffffffffffffffffffffffff021916908373ffffffffffffffffffffffffffffffffffffffff16021790555060e08201518160060160146101000a81548160ff02191690836004811115610d2457610d23611c0b565b5b021790555061010082015181600701556101208201518160080160006101000a81548173ffffffffffffffffffffffffffffffffffffffff021916908373ffffffffffffffffffffffffffffffffffffffff160217905550610140820151816009015561016082015181600a015590505060028190806001815401808255809150506001900390600052602060002090600b02016000909190919091506000820151816000015560208201518160010155604082015181600201556060820151816003015560808201518160040160006101000a81548173ffffffffffffffffffffffffffffffffffffffff021916908373ffffffffffffffffffffffffffffffffffffffff16021790555060a08201518160050160006101000a81548173ffffffffffffffffffffffffffffffffffffffff021916908373ffffffffffffffffffffffffffffffffffffffff16021790555060c08201518160060160006101000a81548173ffffffffffffffffffffffffffffffffffffffff021916908373ffffffffffffffffffffffffffffffffffffffff16021790555060e08201518160060160146101000a81548160ff02191690836004811115610ee957610ee8611c0b565b5b021790555061010082015181600701556101208201518160080160006101000a81548173ffffffffffffffffffffffffffffffffffffffff021916908373ffffffffffffffffffffffffffffffffffffffff160217905550610140820151816009015561016082015181600a0155505050505050565b60028181548110610f6f57600080fd5b90600052602060002090600b02016000915090508060000154908060010154908060020154908060030154908060040160009054906101000a900473ffffffffffffffffffffffffffffffffffffffff16908060050160009054906101000a900473ffffffffffffffffffffffffffffffffffffffff16908060060160009054906101000a900473ffffffffffffffffffffffffffffffffffffffff16908060060160149054906101000a900460ff16908060070154908060080160009054906101000a900473ffffffffffffffffffffffffffffffffffffffff169080600901549080600a015490508c565b6110646114e1565b600073ffffffffffffffffffffffffffffffffffffffff168173ffffffffffffffffffffffffffffffffffffffff16036110d3576040517f08c379a00000000000000000000000000000000000000000000000000000000081526004016110ca90611fdd565b60405180910390fd5b6110dc8161155f565b50565b60005b6002805490508110156114de576000600481111561110357611102611c0b565b5b6002828154811061111757611116611f3c565b5b90600052602060002090600b020160060160149054906101000a900460ff16600481111561114857611147611c0b565b5b1480156111a957506002818154811061116457611163611f3c565b5b90600052602060002090600b0201600901546002828154811061118a57611189611f3c565b5b90600052602060002090600b0201600a01546111a69190611ec0565b42115b156114cb57600281815481106111c2576111c1611f3c565b5b90600052602060002090600b020160070154600282815481106111e8576111e7611f3c565b5b90600052602060002090600b0201600201819055506002818154811061121157611210611f3c565b5b90600052602060002090600b020160080160009054906101000a900473ffffffffffffffffffffffffffffffffffffffff166002828154811061125757611256611f3c565b5b90600052602060002090600b020160050160006101000a81548173ffffffffffffffffffffffffffffffffffffffff021916908373ffffffffffffffffffffffffffffffffffffffff1602179055506001600282815481106112bc576112bb611f3c565b5b90600052602060002090600b020160060160146101000a81548160ff021916908360048111156112ef576112ee611c0b565b5b0217905550600090505b60038054905081101561141c576002818154811061131a57611319611f3c565b5b90600052602060002090600b020160000154600382815481106113405761133f611f3c565b5b90600052602060002090600402016001015403611409576003818154811061136b5761136a611f3c565b5b906000526020600020906004020160000160009054906101000a900473ffffffffffffffffffffffffffffffffffffffff1673ffffffffffffffffffffffffffffffffffffffff166108fc600383815481106113ca576113c9611f3c565b5b9060005260206000209060040201600201549081150290604051600060405180830381858888f19350505050158015611407573d6000803e3d6000fd5b505b808061141490611ef4565b9150506112f9565b600160009054906101000a900473ffffffffffffffffffffffffffffffffffffffff1673ffffffffffffffffffffffffffffffffffffffff16636ef2d0a36002838154811061146e5761146d611f3c565b5b90600052602060002090600b02016040518263ffffffff1660e01b8152600401611498919061223a565b600060405180830381600087803b1580156114b257600080fd5b505af11580156114c6573d6000803e3d6000fd5b505050505b80806114d690611ef4565b9150506110e2565b50565b6114e96117d7565b73ffffffffffffffffffffffffffffffffffffffff166115076102f9565b73ffffffffffffffffffffffffffffffffffffffff161461155d576040517f08c379a0000000000000000000000000000000000000000000000000000000008152600401611554906122a2565b60405180910390fd5b565b60008060009054906101000a900473ffffffffffffffffffffffffffffffffffffffff169050816000806101000a81548173ffffffffffffffffffffffffffffffffffffffff021916908373ffffffffffffffffffffffffffffffffffffffff1602179055508173ffffffffffffffffffffffffffffffffffffffff168173ffffffffffffffffffffffffffffffffffffffff167f8be0079c531659141344cd1fd0a4f28419497f9722a3daafe3b4186f6b6457e060405160405180910390a35050565b61162b6117df565b60006003805490508110156117cf57836003828154811061164f5761164e611f3c565b5b9060005260206000209060040201600101541480156116de57508273ffffffffffffffffffffffffffffffffffffffff166003828154811061169457611693611f3c565b5b906000526020600020906004020160000160009054906101000a900473ffffffffffffffffffffffffffffffffffffffff1673ffffffffffffffffffffffffffffffffffffffff16145b1561178c57600381815481106116f7576116f6611f3c565b5b90600052602060002090600402016040518060800160405290816000820160009054906101000a900473ffffffffffffffffffffffffffffffffffffffff1673ffffffffffffffffffffffffffffffffffffffff1673ffffffffffffffffffffffffffffffffffffffff16815260200160018201548152602001600282015481526020016003820154815250509150506117d1565b6040518060800160405280600073ffffffffffffffffffffffffffffffffffffffff168152602001600081526020016000815260200160008152509150506117d1565b505b92915050565b600033905090565b6040518060800160405280600073ffffffffffffffffffffffffffffffffffffffff1681526020016000815260200160008152602001600081525090565b6000604051905090565b600080fd5b600073ffffffffffffffffffffffffffffffffffffffff82169050919050565b60006118578261182c565b9050919050565b6118678161184c565b811461187257600080fd5b50565b6000813590506118848161185e565b92915050565b6000602082840312156118a05761189f611827565b5b60006118ae84828501611875565b91505092915050565b6000819050919050565b6118ca816118b7565b81146118d557600080fd5b50565b6000813590506118e7816118c1565b92915050565b60006020828403121561190357611902611827565b5b6000611911848285016118d8565b91505092915050565b60006119258261182c565b9050919050565b6119358161191a565b82525050565b611944816118b7565b82525050565b600060808201905061195f600083018761192c565b61196c602083018661193b565b611979604083018561193b565b611986606083018461193b565b95945050505050565b6119988161184c565b82525050565b60006020820190506119b3600083018461198f565b92915050565b6000819050919050565b60006119de6119d96119d48461182c565b6119b9565b61182c565b9050919050565b60006119f0826119c3565b9050919050565b6000611a02826119e5565b9050919050565b611a12816119f7565b82525050565b6000602082019050611a2d6000830184611a09565b92915050565b600080fd5b6000601f19601f8301169050919050565b7f4e487b7100000000000000000000000000000000000000000000000000000000600052604160045260246000fd5b611a8182611a38565b810181811067ffffffffffffffff82111715611aa057611a9f611a49565b5b80604052505050565b6000611ab361181d565b9050611abf8282611a78565b919050565b60058110611ad157600080fd5b50565b600081359050611ae381611ac4565b92915050565b60006101208284031215611b0057611aff611a33565b5b611b0b610120611aa9565b90506000611b1b848285016118d8565b6000830152506020611b2f848285016118d8565b6020830152506040611b43848285016118d8565b6040830152506060611b57848285016118d8565b6060830152506080611b6b84828501611875565b60808301525060a0611b7f84828501611875565b60a08301525060c0611b9384828501611875565b60c08301525060e0611ba7848285016118d8565b60e083015250610100611bbc84828501611ad4565b6101008301525092915050565b6000806101408385031215611be157611be0611827565b5b6000611bef85828601611ae9565b925050610120611c01858286016118d8565b9150509250929050565b7f4e487b7100000000000000000000000000000000000000000000000000000000600052602160045260246000fd5b60058110611c4b57611c4a611c0b565b5b50565b6000819050611c5c82611c3a565b919050565b6000611c6c82611c4e565b9050919050565b611c7c81611c61565b82525050565b600061018082019050611c98600083018f61193b565b611ca5602083018e61193b565b611cb2604083018d61193b565b611cbf606083018c61193b565b611ccc608083018b61198f565b611cd960a083018a61198f565b611ce660c083018961198f565b611cf360e0830188611c73565b611d0161010083018761193b565b611d0f61012083018661198f565b611d1d61014083018561193b565b611d2b61016083018461193b565b9d9c50505050505050505050505050565b600082825260208201905092915050565b7f4572726f723a20496e76616c6964205461736b20537461746500000000000000600082015250565b6000611d83601983611d3c565b9150611d8e82611d4d565b602082019050919050565b60006020820190508181036000830152611db281611d76565b9050919050565b7f57726f6e67207461736b49440000000000000000000000000000000000000000600082015250565b6000611def600c83611d3c565b9150611dfa82611db9565b602082019050919050565b60006020820190508181036000830152611e1e81611de2565b9050919050565b7f496e73756666696369656e742062696420616d6f756e74200000000000000000600082015250565b6000611e5b601883611d3c565b9150611e6682611e25565b602082019050919050565b60006020820190508181036000830152611e8a81611e4e565b9050919050565b7f4e487b7100000000000000000000000000000000000000000000000000000000600052601160045260246000fd5b6000611ecb826118b7565b9150611ed6836118b7565b9250828201905080821115611eee57611eed611e91565b5b92915050565b6000611eff826118b7565b91507fffffffffffffffffffffffffffffffffffffffffffffffffffffffffffffffff8203611f3157611f30611e91565b5b600182019050919050565b7f4e487b7100000000000000000000000000000000000000000000000000000000600052603260045260246000fd5b7f4f776e61626c653a206e6577206f776e657220697320746865207a65726f206160008201527f6464726573730000000000000000000000000000000000000000000000000000602082015250565b6000611fc7602683611d3c565b9150611fd282611f6b565b604082019050919050565b60006020820190508181036000830152611ff681611fba565b9050919050565b60008160001c9050919050565b6000819050919050565b600061202761202283611ffd565b61200a565b9050919050565b612037816118b7565b82525050565b600073ffffffffffffffffffffffffffffffffffffffff82169050919050565b600061207061206b83611ffd565b61203d565b9050919050565b6120808161184c565b82525050565b60008160a01c9050919050565b600060ff82169050919050565b60006120b36120ae83612086565b612093565b9050919050565b6120c381611c61565b82525050565b610180820160008083015490506120df81612014565b6120ec600086018261202e565b50600183015490506120fd81612014565b61210a602086018261202e565b506002830154905061211b81612014565b612128604086018261202e565b506003830154905061213981612014565b612146606086018261202e565b50600483015490506121578161205d565b6121646080860182612077565b50600583015490506121758161205d565b61218260a0860182612077565b50600683015490506121938161205d565b6121a060c0860182612077565b506121aa816120a0565b6121b760e08601826120ba565b50600783015490506121c881612014565b6121d661010086018261202e565b50600883015490506121e78161205d565b6121f5610120860182612077565b506009830154905061220681612014565b61221461014086018261202e565b50600a830154905061222581612014565b61223361016086018261202e565b5050505050565b60006101808201905061225060008301846120c9565b92915050565b7f4f776e61626c653a2063616c6c6572206973206e6f7420746865206f776e6572600082015250565b600061228c602083611d3c565b915061229782612256565b602082019050919050565b600060208201905081810360008301526122bb8161227f565b905091905056fea2646970667358221220802b5a2c4b55a088fd7b1f2b9520a018d65bdfd3a1b8fedc3bbec62e24b9258a64736f6c63430008110033",
  "linkReferences": {},
  "deployedLinkReferences": {}
}