{
  "_format": "hh-sol-artifact-1",
  "contractName": "TaskManager",
  "sourceName": "contracts/TaskManager.sol",
  "abi": [
    {
      "anonymous": false,
      "inputs": [
        {
          "indexed": true,
          "internalType": "address",
          "name": "previousOwner",
          "type": "address"
        },
        {
          "indexed": true,
          "internalType": "address",
          "name": "newOwner",
          "type": "address"
        }
      ],
      "name": "OwnershipTransferred",
      "type": "event"
    },
    {
      "inputs": [
        {
          "components": [
            {
              "internalType": "uint256",
              "name": "taskId",
              "type": "uint256"
            },
            {
              "internalType": "uint256",
              "name": "point",
              "type": "uint256"
            },
            {
              "internalType": "uint256",
              "name": "reward",
              "type": "uint256"
            },
            {
              "internalType": "uint256",
              "name": "minReward",
              "type": "uint256"
            },
            {
              "internalType": "address",
              "name": "reporter",
              "type": "address"
            },
            {
              "internalType": "address",
              "name": "doer",
              "type": "address"
            },
            {
              "internalType": "address",
              "name": "reviewer",
              "type": "address"
            },
            {
              "internalType": "enum ITaskAuction.TASK_STATE",
              "name": "taskState",
              "type": "uint8"
            },
            {
              "internalType": "uint256",
              "name": "lowestBidAmount",
              "type": "uint256"
            },
            {
              "internalType": "address",
              "name": "lowestBidder",
              "type": "address"
            },
            {
              "internalType": "uint256",
              "name": "duration",
              "type": "uint256"
            },
            {
              "internalType": "uint256",
              "name": "startTime",
              "type": "uint256"
            }
          ],
          "internalType": "struct ITaskAuction.AuctionTask",
          "name": "doneAuctionTask",
          "type": "tuple"
        }
      ],
      "name": "assignTask",
      "outputs": [],
      "stateMutability": "nonpayable",
      "type": "function"
    },
    {
      "inputs": [],
      "name": "batchTaskCount",
      "outputs": [
        {
          "internalType": "uint256",
          "name": "",
          "type": "uint256"
        }
      ],
      "stateMutability": "view",
      "type": "function"
    },
    {
      "inputs": [],
      "name": "batchTaskVoting",
      "outputs": [
        {
          "internalType": "contract IBatchTaskVoting",
          "name": "",
          "type": "address"
        }
      ],
      "stateMutability": "view",
      "type": "function"
    },
    {
      "inputs": [
        {
          "internalType": "uint256",
          "name": "",
          "type": "uint256"
        }
      ],
      "name": "batchTasks",
      "outputs": [
        {
          "internalType": "uint256",
          "name": "batchTaskId",
          "type": "uint256"
        },
        {
          "internalType": "enum ITaskManager.BATCH_TASK_STATE",
          "name": "batchTaskState",
          "type": "uint8"
        }
      ],
      "stateMutability": "view",
      "type": "function"
    },
    {
      "inputs": [],
      "name": "creditScore",
      "outputs": [
        {
          "internalType": "contract ICreditScore",
          "name": "",
          "type": "address"
        }
      ],
      "stateMutability": "view",
      "type": "function"
    },
    {
      "inputs": [
        {
          "internalType": "uint256",
          "name": "_batchTaskID",
          "type": "uint256"
        }
      ],
      "name": "getBatchTask",
      "outputs": [
        {
          "components": [
            {
              "internalType": "uint256",
              "name": "batchTaskId",
              "type": "uint256"
            },
            {
              "internalType": "uint256[]",
              "name": "taskIds",
              "type": "uint256[]"
            },
            {
              "internalType": "enum ITaskManager.BATCH_TASK_STATE",
              "name": "batchTaskState",
              "type": "uint8"
            }
          ],
          "internalType": "struct ITaskManager.BatchTask",
          "name": "",
          "type": "tuple"
        }
      ],
      "stateMutability": "view",
      "type": "function"
    },
    {
      "inputs": [
        {
          "internalType": "uint256",
          "name": "_pollId",
          "type": "uint256"
        }
      ],
      "name": "initBatchTask",
      "outputs": [],
      "stateMutability": "nonpayable",
      "type": "function"
    },
    {
      "inputs": [
        {
          "internalType": "uint256",
          "name": "_batchTaskId",
          "type": "uint256"
        }
      ],
      "name": "initBatchTaskAuction",
      "outputs": [],
      "stateMutability": "nonpayable",
      "type": "function"
    },
    {
      "inputs": [
        {
          "internalType": "address",
          "name": "_pollOwner",
          "type": "address"
        }
      ],
      "name": "initPoll",
      "outputs": [],
      "stateMutability": "nonpayable",
      "type": "function"
    },
    {
      "inputs": [
        {
          "internalType": "uint256",
          "name": "_batchTaskId",
          "type": "uint256"
        },
        {
          "internalType": "uint256",
          "name": "_point",
          "type": "uint256"
        },
        {
          "internalType": "uint256",
          "name": "_reward",
          "type": "uint256"
        },
        {
          "internalType": "uint256",
          "name": "_minReward",
          "type": "uint256"
        },
        {
          "internalType": "address",
          "name": "_reporter",
          "type": "address"
        },
        {
          "internalType": "address",
          "name": "_reviewer",
          "type": "address"
        }
      ],
      "name": "initTask",
      "outputs": [],
      "stateMutability": "nonpayable",
      "type": "function"
    },
    {
      "inputs": [
        {
          "internalType": "uint256",
          "name": "_batchTaskID",
          "type": "uint256"
        },
        {
          "internalType": "uint256",
          "name": "_auctionDuration",
          "type": "uint256"
        }
      ],
      "name": "openBatchTaskForAuction",
      "outputs": [],
      "stateMutability": "nonpayable",
      "type": "function"
    },
    {
      "inputs": [
        {
          "internalType": "uint256",
          "name": "_pollId",
          "type": "uint256"
        },
        {
          "internalType": "uint256",
          "name": "_voteDuration",
          "type": "uint256"
        }
      ],
      "name": "openPollForVote",
      "outputs": [],
      "stateMutability": "nonpayable",
      "type": "function"
    },
    {
      "inputs": [],
      "name": "owner",
      "outputs": [
        {
          "internalType": "address",
          "name": "",
          "type": "address"
        }
      ],
      "stateMutability": "view",
      "type": "function"
    },
    {
      "inputs": [],
      "name": "pollCount",
      "outputs": [
        {
          "internalType": "uint256",
          "name": "",
          "type": "uint256"
        }
      ],
      "stateMutability": "view",
      "type": "function"
    },
    {
      "inputs": [
        {
          "internalType": "uint256",
          "name": "",
          "type": "uint256"
        }
      ],
      "name": "polls",
      "outputs": [
        {
          "internalType": "uint256",
          "name": "pollId",
          "type": "uint256"
        },
        {
          "internalType": "address",
          "name": "pollOwner",
          "type": "address"
        }
      ],
      "stateMutability": "view",
      "type": "function"
    },
    {
      "inputs": [
        {
          "internalType": "uint256",
          "name": "_taskId",
          "type": "uint256"
        }
      ],
      "name": "receiveTask",
      "outputs": [],
      "stateMutability": "payable",
      "type": "function"
    },
    {
      "inputs": [],
      "name": "renounceOwnership",
      "outputs": [],
      "stateMutability": "nonpayable",
      "type": "function"
    },
    {
      "inputs": [
        {
          "internalType": "address",
          "name": "_batchTaskVotingAddress",
          "type": "address"
        }
      ],
      "name": "setBatchTaskVoting",
      "outputs": [],
      "stateMutability": "nonpayable",
      "type": "function"
    },
    {
      "inputs": [
        {
          "internalType": "address",
          "name": "_creditScoreAddress",
          "type": "address"
        }
      ],
      "name": "setCreditScore",
      "outputs": [],
      "stateMutability": "nonpayable",
      "type": "function"
    },
    {
      "inputs": [
        {
          "internalType": "address",
          "name": "_taskAuctionAddress",
          "type": "address"
        }
      ],
      "name": "setTaskAuction",
      "outputs": [],
      "stateMutability": "nonpayable",
      "type": "function"
    },
    {
      "inputs": [
        {
          "internalType": "uint256",
          "name": "_taskId",
          "type": "uint256"
        },
        {
          "internalType": "uint256",
          "name": "percentageDone",
          "type": "uint256"
        }
      ],
      "name": "submitReview",
      "outputs": [],
      "stateMutability": "nonpayable",
      "type": "function"
    },
    {
      "inputs": [
        {
          "internalType": "uint256",
          "name": "_taskId",
          "type": "uint256"
        }
      ],
      "name": "submitTaskResult",
      "outputs": [],
      "stateMutability": "nonpayable",
      "type": "function"
    },
    {
      "inputs": [],
      "name": "taskAuction",
      "outputs": [
        {
          "internalType": "contract ITaskAuction",
          "name": "",
          "type": "address"
        }
      ],
      "stateMutability": "view",
      "type": "function"
    },
    {
      "inputs": [],
      "name": "taskCount",
      "outputs": [
        {
          "internalType": "uint256",
          "name": "",
          "type": "uint256"
        }
      ],
      "stateMutability": "view",
      "type": "function"
    },
    {
      "inputs": [
        {
          "internalType": "uint256",
          "name": "",
          "type": "uint256"
        }
      ],
      "name": "tasks",
      "outputs": [
        {
          "internalType": "uint256",
          "name": "taskId",
          "type": "uint256"
        },
        {
          "internalType": "uint256",
          "name": "point",
          "type": "uint256"
        },
        {
          "internalType": "uint256",
          "name": "reward",
          "type": "uint256"
        },
        {
          "internalType": "uint256",
          "name": "minReward",
          "type": "uint256"
        },
        {
          "internalType": "address",
          "name": "reporter",
          "type": "address"
        },
        {
          "internalType": "address",
          "name": "doer",
          "type": "address"
        },
        {
          "internalType": "address",
          "name": "reviewer",
          "type": "address"
        },
        {
          "internalType": "uint256",
          "name": "timeDoerReceive",
          "type": "uint256"
        },
        {
          "internalType": "enum ITaskManager.TASK_STATE",
          "name": "taskState",
          "type": "uint8"
        }
      ],
      "stateMutability": "view",
      "type": "function"
    },
    {
      "inputs": [
        {
          "internalType": "address",
          "name": "newOwner",
          "type": "address"
        }
      ],
      "name": "transferOwnership",
      "outputs": [],
      "stateMutability": "nonpayable",
      "type": "function"
    },
    {
      "inputs": [
        {
          "internalType": "uint256",
          "name": "_taskId",
          "type": "uint256"
        },
        {
          "internalType": "uint256",
          "name": "_newPoint",
          "type": "uint256"
        }
      ],
      "name": "updateTask",
      "outputs": [],
      "stateMutability": "nonpayable",
      "type": "function"
    }
  ],
  "bytecode": "0x60806040523480156200001157600080fd5b5062000032620000266200003860201b60201c565b6200004060201b60201c565b62000104565b600033905090565b60008060009054906101000a900473ffffffffffffffffffffffffffffffffffffffff169050816000806101000a81548173ffffffffffffffffffffffffffffffffffffffff021916908373ffffffffffffffffffffffffffffffffffffffff1602179055508173ffffffffffffffffffffffffffffffffffffffff168173ffffffffffffffffffffffffffffffffffffffff167f8be0079c531659141344cd1fd0a4f28419497f9722a3daafe3b4186f6b6457e060405160405180910390a35050565b6131b580620001146000396000f3fe60806040526004361061019c5760003560e01c80638d93fc0a116100ec578063b6cb58a51161008a578063e08e2ea311610064578063e08e2ea314610584578063f2fde38b146105ad578063f535d117146105d6578063fd3a5451146106145761019c565b8063b6cb58a514610512578063b8e0f49b1461053d578063c709c1f1146105595761019c565b80639207891d116100c65780639207891d146104435780639acea8d31461046e5780639cc4c30814610497578063ac2f0074146104d45761019c565b80638d93fc0a146103a85780638d977672146103d35780638da5cb5b146104185761019c565b80636edbe3a311610159578063715018a611610133578063715018a614610314578063785faee41461032b578063793a4bbd1461035457806385a20cf91461037d5761019c565b80636edbe3a3146102995780636ef2d0a3146102c25780636f2a4068146102eb5761019c565b80631861b90c146101a15780632ed64cbc146101ca57806339da3152146101f3578063435fa77c1461021e57806348fb1f011461024757806368e1234214610270575b600080fd5b3480156101ad57600080fd5b506101c860048036038101906101c3919061215c565b61063d565b005b3480156101d657600080fd5b506101f160048036038101906101ec9190612189565b61071c565b005b3480156101ff57600080fd5b5061020861088a565b6040516102159190612248565b60405180910390f35b34801561022a57600080fd5b50610245600480360381019061024091906122a1565b6108b0565b005b34801561025357600080fd5b5061026e60048036038101906102699190612189565b6108fc565b005b34801561027c57600080fd5b50610297600480360381019061029291906122a1565b610ba8565b005b3480156102a557600080fd5b506102c060048036038101906102bb91906122ce565b610bf4565b005b3480156102ce57600080fd5b506102e960048036038101906102e49190612533565b610e47565b005b3480156102f757600080fd5b50610312600480360381019061030d919061215c565b610f0d565b005b34801561032057600080fd5b506103296110d9565b005b34801561033757600080fd5b50610352600480360381019061034d91906122a1565b6110ed565b005b34801561036057600080fd5b5061037b60048036038101906103769190612189565b611278565b005b34801561038957600080fd5b506103926115bc565b60405161039f9190612570565b60405180910390f35b3480156103b457600080fd5b506103bd6115c2565b6040516103ca91906125ac565b60405180910390f35b3480156103df57600080fd5b506103fa60048036038101906103f5919061215c565b6115e8565b60405161040f9998979695949392919061264d565b60405180910390f35b34801561042457600080fd5b5061042d6116b3565b60405161043a91906126da565b60405180910390f35b34801561044f57600080fd5b506104586116dc565b6040516104659190612570565b60405180910390f35b34801561047a57600080fd5b506104956004803603810190610490919061215c565b6116e2565b005b3480156104a357600080fd5b506104be60048036038101906104b9919061215c565b611724565b6040516104cb919061284b565b60405180910390f35b3480156104e057600080fd5b506104fb60048036038101906104f6919061215c565b6117ee565b60405161050992919061286d565b60405180910390f35b34801561051e57600080fd5b50610527611842565b6040516105349190612570565b60405180910390f35b6105576004803603810190610552919061215c565b611848565b005b34801561056557600080fd5b5061056e611b15565b60405161057b91906128b7565b60405180910390f35b34801561059057600080fd5b506105ab60048036038101906105a69190612189565b611b3b565b005b3480156105b957600080fd5b506105d460048036038101906105cf91906122a1565b611d49565b005b3480156105e257600080fd5b506105fd60048036038101906105f8919061215c565b611dcc565b60405161060b9291906128e1565b60405180910390f35b34801561062057600080fd5b5061063b600480360381019061063691906122a1565b611e0d565b005b610645611fa3565b6005600081548092919061065890612939565b919050555060055481600001818152505080600c600060055481526020019081526020016000206000820151816000015560208201518160010190805190602001906106a5929190611fd6565b5060408201518160020160006101000a81548160ff021916908360018111156106d1576106d06125d6565b5b0217905550905050600b600083815260200190815260200160002060020160055490806001815401808255809150506001900390600052602060002001600090919091909150555050565b60005b600b600084815260200190815260200160002060020180549050811015610885576000600c6000600b6000878152602001908152602001600020600201848154811061076e5761076d612981565b5b9060005260206000200154815260200190815260200160002060020160006101000a81548160ff021916908360018111156107ac576107ab6125d6565b5b0217905550600260009054906101000a900473ffffffffffffffffffffffffffffffffffffffff1673ffffffffffffffffffffffffffffffffffffffff16636a2f38ed600b6000868152602001908152602001600020600201838154811061081757610816612981565b5b9060005260206000200154846040518363ffffffff1660e01b81526004016108409291906129b0565b600060405180830381600087803b15801561085a57600080fd5b505af115801561086e573d6000803e3d6000fd5b50505050808061087d90612939565b91505061071f565b505050565b600360009054906101000a900473ffffffffffffffffffffffffffffffffffffffff1681565b6108b8611e59565b80600360006101000a81548173ffffffffffffffffffffffffffffffffffffffff021916908373ffffffffffffffffffffffffffffffffffffffff16021790555050565b600282816004811115610912576109116125d6565b5b600a600083815260200190815260200160002060080160009054906101000a900460ff166004811115610948576109476125d6565b5b14610988576040517f08c379a000000000000000000000000000000000000000000000000000000000815260040161097f90612a36565b60405180910390fd5b600a600085815260200190815260200160002060060160009054906101000a900473ffffffffffffffffffffffffffffffffffffffff1673ffffffffffffffffffffffffffffffffffffffff163373ffffffffffffffffffffffffffffffffffffffff161480610a595750600a600085815260200190815260200160002060050160009054906101000a900473ffffffffffffffffffffffffffffffffffffffff1673ffffffffffffffffffffffffffffffffffffffff163373ffffffffffffffffffffffffffffffffffffffff16145b610a98576040517f08c379a0000000000000000000000000000000000000000000000000000000008152600401610a8f90612aa2565b60405180910390fd5b600a600085815260200190815260200160002060060160009054906101000a900473ffffffffffffffffffffffffffffffffffffffff1673ffffffffffffffffffffffffffffffffffffffff163373ffffffffffffffffffffffffffffffffffffffff1603610b1d5782600a6000868152602001908152602001600020600101819055505b600a600085815260200190815260200160002060050160009054906101000a900473ffffffffffffffffffffffffffffffffffffffff1673ffffffffffffffffffffffffffffffffffffffff163373ffffffffffffffffffffffffffffffffffffffff1603610ba25782600a6000868152602001908152602001600020600101819055505b50505050565b610bb0611e59565b80600160006101000a81548173ffffffffffffffffffffffffffffffffffffffff021916908373ffffffffffffffffffffffffffffffffffffffff16021790555050565b610bfc612023565b60066000815480929190610c0f90612939565b919050555060065481600001818152505085816020018181525050848160400181815250508381606001818152505082816080019073ffffffffffffffffffffffffffffffffffffffff16908173ffffffffffffffffffffffffffffffffffffffff1681525050818160c0019073ffffffffffffffffffffffffffffffffffffffff16908173ffffffffffffffffffffffffffffffffffffffff1681525050600c6000888152602001908152602001600020600101600654908060018154018082558091505060019003906000526020600020016000909190919091505580600a600060065481526020019081526020016000206000820151816000015560208201518160010155604082015181600201556060820151816003015560808201518160040160006101000a81548173ffffffffffffffffffffffffffffffffffffffff021916908373ffffffffffffffffffffffffffffffffffffffff16021790555060a08201518160050160006101000a81548173ffffffffffffffffffffffffffffffffffffffff021916908373ffffffffffffffffffffffffffffffffffffffff16021790555060c08201518160060160006101000a81548173ffffffffffffffffffffffffffffffffffffffff021916908373ffffffffffffffffffffffffffffffffffffffff16021790555060e082015181600701556101008201518160080160006101000a81548160ff02191690836004811115610e3657610e356125d6565b5b021790555090505050505050505050565b8060400151600a600083600001518152602001908152602001600020600201819055508060a00151600a60008360000151815260200190815260200160002060050160006101000a81548173ffffffffffffffffffffffffffffffffffffffff021916908373ffffffffffffffffffffffffffffffffffffffff1602179055506001600a60008360000151815260200190815260200160002060080160006101000a81548160ff02191690836004811115610f0557610f046125d6565b5b021790555050565b600281816004811115610f2357610f226125d6565b5b600a600083815260200190815260200160002060080160009054906101000a900460ff166004811115610f5957610f586125d6565b5b14610f99576040517f08c379a0000000000000000000000000000000000000000000000000000000008152600401610f9090612a36565b60405180910390fd5b82600a60008581526020019081526020016000206000015414610ff1576040517f08c379a0000000000000000000000000000000000000000000000000000000008152600401610fe890612b0e565b60405180910390fd5b600a600084815260200190815260200160002060050160009054906101000a900473ffffffffffffffffffffffffffffffffffffffff1673ffffffffffffffffffffffffffffffffffffffff163373ffffffffffffffffffffffffffffffffffffffff1614611095576040517f08c379a000000000000000000000000000000000000000000000000000000000815260040161108c90612b7a565b60405180910390fd5b6003600a600085815260200190815260200160002060080160006101000a81548160ff021916908360048111156110cf576110ce6125d6565b5b0217905550505050565b6110e1611e59565b6110eb6000611ed7565b565b6110f56120c3565b6004600081548092919061110890612939565b919050555060045481600001818152505081816020019073ffffffffffffffffffffffffffffffffffffffff16908173ffffffffffffffffffffffffffffffffffffffff168152505080600b600060045481526020019081526020016000206000820151816000015560208201518160010160006101000a81548173ffffffffffffffffffffffffffffffffffffffff021916908373ffffffffffffffffffffffffffffffffffffffff16021790555060408201518160020190805190602001906111d4929190611fd6565b5090505060088190806001815401808255809150506001900390600052602060002090600302016000909190919091506000820151816000015560208201518160010160006101000a81548173ffffffffffffffffffffffffffffffffffffffff021916908373ffffffffffffffffffffffffffffffffffffffff1602179055506040820151816002019080519060200190611271929190611fd6565b5050505050565b60038281600481111561128e5761128d6125d6565b5b600a600083815260200190815260200160002060080160009054906101000a900460ff1660048111156112c4576112c36125d6565b5b14611304576040517f08c379a00000000000000000000000000000000000000000000000000000000081526004016112fb90612a36565b60405180910390fd5b600a600085815260200190815260200160002060060160009054906101000a900473ffffffffffffffffffffffffffffffffffffffff1673ffffffffffffffffffffffffffffffffffffffff163373ffffffffffffffffffffffffffffffffffffffff16146113a8576040517f08c379a000000000000000000000000000000000000000000000000000000000815260040161139f90612be6565b60405180910390fd5b83600a60008681526020019081526020016000206000015414611400576040517f08c379a00000000000000000000000000000000000000000000000000000000081526004016113f790612c52565b60405180910390fd5b6000606484600a6000888152602001908152602001600020600201546114269190612c72565b6114309190612ce3565b9050600a600086815260200190815260200160002060050160009054906101000a900473ffffffffffffffffffffffffffffffffffffffff1673ffffffffffffffffffffffffffffffffffffffff166108fc829081150290604051600060405180830381858888f193505050501580156114ae573d6000803e3d6000fd5b50600360009054906101000a900473ffffffffffffffffffffffffffffffffffffffff1673ffffffffffffffffffffffffffffffffffffffff16635873074686600a600089815260200190815260200160002060050160009054906101000a900473ffffffffffffffffffffffffffffffffffffffff16876040518463ffffffff1660e01b815260040161154493929190612d14565b600060405180830381600087803b15801561155e57600080fd5b505af1158015611572573d6000803e3d6000fd5b505050506004600a600087815260200190815260200160002060080160006101000a81548160ff021916908360048111156115b0576115af6125d6565b5b02179055505050505050565b60055481565b600160009054906101000a900473ffffffffffffffffffffffffffffffffffffffff1681565b600781815481106115f857600080fd5b90600052602060002090600902016000915090508060000154908060010154908060020154908060030154908060040160009054906101000a900473ffffffffffffffffffffffffffffffffffffffff16908060050160009054906101000a900473ffffffffffffffffffffffffffffffffffffffff16908060060160009054906101000a900473ffffffffffffffffffffffffffffffffffffffff16908060070154908060080160009054906101000a900460ff16905089565b60008060009054906101000a900473ffffffffffffffffffffffffffffffffffffffff16905090565b60045481565b6001600c600083815260200190815260200160002060020160006101000a81548160ff0219169083600181111561171c5761171b6125d6565b5b021790555050565b61172c611fa3565b600c600083815260200190815260200160002060405180606001604052908160008201548152602001600182018054806020026020016040519081016040528092919081815260200182805480156117a357602002820191906000526020600020905b81548152602001906001019080831161178f575b505050505081526020016002820160009054906101000a900460ff1660018111156117d1576117d06125d6565b5b60018111156117e3576117e26125d6565b5b815250509050919050565b600881815481106117fe57600080fd5b90600052602060002090600302016000915090508060000154908060010160009054906101000a900473ffffffffffffffffffffffffffffffffffffffff16905082565b60065481565b60018181600481111561185e5761185d6125d6565b5b600a600083815260200190815260200160002060080160009054906101000a900460ff166004811115611894576118936125d6565b5b146118d4576040517f08c379a00000000000000000000000000000000000000000000000000000000081526004016118cb90612a36565b60405180910390fd5b600a600084815260200190815260200160002060050160009054906101000a900473ffffffffffffffffffffffffffffffffffffffff1673ffffffffffffffffffffffffffffffffffffffff163373ffffffffffffffffffffffffffffffffffffffff1614611978576040517f08c379a000000000000000000000000000000000000000000000000000000000815260040161196f90612b7a565b60405180910390fd5b82600a600085815260200190815260200160002060000154146119d0576040517f08c379a00000000000000000000000000000000000000000000000000000000081526004016119c790612b0e565b60405180910390fd5b6000600360009054906101000a900473ffffffffffffffffffffffffffffffffffffffff1673ffffffffffffffffffffffffffffffffffffffff16635ebf340e336040518263ffffffff1660e01b8152600401611a2d91906126da565b6020604051808303816000875af1158015611a4c573d6000803e3d6000fd5b505050506040513d601f19601f82011682018060405250810190611a709190612d60565b905080341015611ab5576040517f08c379a0000000000000000000000000000000000000000000000000000000008152600401611aac90612dff565b60405180910390fd5b6002600a600086815260200190815260200160002060080160006101000a81548160ff02191690836004811115611aef57611aee6125d6565b5b021790555042600a60008681526020019081526020016000206007018190555050505050565b600260009054906101000a900473ffffffffffffffffffffffffffffffffffffffff1681565b600182816001811115611b5157611b506125d6565b5b600c600083815260200190815260200160002060020160009054906101000a900460ff166001811115611b8757611b866125d6565b5b14611bc7576040517f08c379a0000000000000000000000000000000000000000000000000000000008152600401611bbe90612e6b565b60405180910390fd5b60005b600c600086815260200190815260200160002060010180549050811015611d42576000600a6000600c60008981526020019081526020016000206001018481548110611c1957611c18612981565b5b9060005260206000200154815260200190815260200160002060080160006101000a81548160ff02191690836004811115611c5757611c566125d6565b5b0217905550600160009054906101000a900473ffffffffffffffffffffffffffffffffffffffff1673ffffffffffffffffffffffffffffffffffffffff1663b1b9e53b600a6000600c60008a81526020019081526020016000206001018581548110611cc657611cc5612981565b5b90600052602060002001548152602001908152602001600020866040518363ffffffff1660e01b8152600401611cfd929190613056565b600060405180830381600087803b158015611d1757600080fd5b505af1158015611d2b573d6000803e3d6000fd5b505050508080611d3a90612939565b915050611bca565b5050505050565b611d51611e59565b600073ffffffffffffffffffffffffffffffffffffffff168173ffffffffffffffffffffffffffffffffffffffff1603611dc0576040517f08c379a0000000000000000000000000000000000000000000000000000000008152600401611db7906130f3565b60405180910390fd5b611dc981611ed7565b50565b60098181548110611ddc57600080fd5b90600052602060002090600302016000915090508060000154908060020160009054906101000a900460ff16905082565b611e15611e59565b80600260006101000a81548173ffffffffffffffffffffffffffffffffffffffff021916908373ffffffffffffffffffffffffffffffffffffffff16021790555050565b611e61611f9b565b73ffffffffffffffffffffffffffffffffffffffff16611e7f6116b3565b73ffffffffffffffffffffffffffffffffffffffff1614611ed5576040517f08c379a0000000000000000000000000000000000000000000000000000000008152600401611ecc9061315f565b60405180910390fd5b565b60008060009054906101000a900473ffffffffffffffffffffffffffffffffffffffff169050816000806101000a81548173ffffffffffffffffffffffffffffffffffffffff021916908373ffffffffffffffffffffffffffffffffffffffff1602179055508173ffffffffffffffffffffffffffffffffffffffff168173ffffffffffffffffffffffffffffffffffffffff167f8be0079c531659141344cd1fd0a4f28419497f9722a3daafe3b4186f6b6457e060405160405180910390a35050565b600033905090565b6040518060600160405280600081526020016060815260200160006001811115611fd057611fcf6125d6565b5b81525090565b828054828255906000526020600020908101928215612012579160200282015b82811115612011578251825591602001919060010190611ff6565b5b50905061201f91906120fa565b5090565b60405180610120016040528060008152602001600081526020016000815260200160008152602001600073ffffffffffffffffffffffffffffffffffffffff168152602001600073ffffffffffffffffffffffffffffffffffffffff168152602001600073ffffffffffffffffffffffffffffffffffffffff16815260200160008152602001600060048111156120bd576120bc6125d6565b5b81525090565b604051806060016040528060008152602001600073ffffffffffffffffffffffffffffffffffffffff168152602001606081525090565b5b808211156121135760008160009055506001016120fb565b5090565b6000604051905090565b600080fd5b6000819050919050565b61213981612126565b811461214457600080fd5b50565b60008135905061215681612130565b92915050565b60006020828403121561217257612171612121565b5b600061218084828501612147565b91505092915050565b600080604083850312156121a05761219f612121565b5b60006121ae85828601612147565b92505060206121bf85828601612147565b9150509250929050565b600073ffffffffffffffffffffffffffffffffffffffff82169050919050565b6000819050919050565b600061220e612209612204846121c9565b6121e9565b6121c9565b9050919050565b6000612220826121f3565b9050919050565b600061223282612215565b9050919050565b61224281612227565b82525050565b600060208201905061225d6000830184612239565b92915050565b600061226e826121c9565b9050919050565b61227e81612263565b811461228957600080fd5b50565b60008135905061229b81612275565b92915050565b6000602082840312156122b7576122b6612121565b5b60006122c58482850161228c565b91505092915050565b60008060008060008060c087890312156122eb576122ea612121565b5b60006122f989828a01612147565b965050602061230a89828a01612147565b955050604061231b89828a01612147565b945050606061232c89828a01612147565b935050608061233d89828a0161228c565b92505060a061234e89828a0161228c565b9150509295509295509295565b600080fd5b6000601f19601f8301169050919050565b7f4e487b7100000000000000000000000000000000000000000000000000000000600052604160045260246000fd5b6123a982612360565b810181811067ffffffffffffffff821117156123c8576123c7612371565b5b80604052505050565b60006123db612117565b90506123e782826123a0565b919050565b600581106123f957600080fd5b50565b60008135905061240b816123ec565b92915050565b600061018082840312156124285761242761235b565b5b6124336101806123d1565b9050600061244384828501612147565b600083015250602061245784828501612147565b602083015250604061246b84828501612147565b604083015250606061247f84828501612147565b60608301525060806124938482850161228c565b60808301525060a06124a78482850161228c565b60a08301525060c06124bb8482850161228c565b60c08301525060e06124cf848285016123fc565b60e0830152506101006124e484828501612147565b610100830152506101206124fa8482850161228c565b6101208301525061014061251084828501612147565b6101408301525061016061252684828501612147565b6101608301525092915050565b6000610180828403121561254a57612549612121565b5b600061255884828501612411565b91505092915050565b61256a81612126565b82525050565b60006020820190506125856000830184612561565b92915050565b600061259682612215565b9050919050565b6125a68161258b565b82525050565b60006020820190506125c1600083018461259d565b92915050565b6125d081612263565b82525050565b7f4e487b7100000000000000000000000000000000000000000000000000000000600052602160045260246000fd5b60058110612616576126156125d6565b5b50565b600081905061262782612605565b919050565b600061263782612619565b9050919050565b6126478161262c565b82525050565b600061012082019050612663600083018c612561565b612670602083018b612561565b61267d604083018a612561565b61268a6060830189612561565b61269760808301886125c7565b6126a460a08301876125c7565b6126b160c08301866125c7565b6126be60e0830185612561565b6126cc61010083018461263e565b9a9950505050505050505050565b60006020820190506126ef60008301846125c7565b92915050565b6126fe81612126565b82525050565b600081519050919050565b600082825260208201905092915050565b6000819050602082019050919050565b600061273c83836126f5565b60208301905092915050565b6000602082019050919050565b600061276082612704565b61276a818561270f565b935061277583612720565b8060005b838110156127a657815161278d8882612730565b975061279883612748565b925050600181019050612779565b5085935050505092915050565b600281106127c4576127c36125d6565b5b50565b60008190506127d5826127b3565b919050565b60006127e5826127c7565b9050919050565b6127f5816127da565b82525050565b600060608301600083015161281360008601826126f5565b506020830151848203602086015261282b8282612755565b915050604083015161284060408601826127ec565b508091505092915050565b6000602082019050818103600083015261286581846127fb565b905092915050565b60006040820190506128826000830185612561565b61288f60208301846125c7565b9392505050565b60006128a182612215565b9050919050565b6128b181612896565b82525050565b60006020820190506128cc60008301846128a8565b92915050565b6128db816127da565b82525050565b60006040820190506128f66000830185612561565b61290360208301846128d2565b9392505050565b7f4e487b7100000000000000000000000000000000000000000000000000000000600052601160045260246000fd5b600061294482612126565b91507fffffffffffffffffffffffffffffffffffffffffffffffffffffffffffffffff82036129765761297561290a565b5b600182019050919050565b7f4e487b7100000000000000000000000000000000000000000000000000000000600052603260045260246000fd5b60006040820190506129c56000830185612561565b6129d26020830184612561565b9392505050565b600082825260208201905092915050565b7f4572726f723a20496e76616c6964205461736b20537461746500000000000000600082015250565b6000612a206019836129d9565b9150612a2b826129ea565b602082019050919050565b60006020820190508181036000830152612a4f81612a13565b9050919050565b7f4f6e6c7920646f6572206f722072657669657765722063616e2063616c6c0000600082015250565b6000612a8c601e836129d9565b9150612a9782612a56565b602082019050919050565b60006020820190508181036000830152612abb81612a7f565b9050919050565b7f7461736b4944206e6f7420666f756e6400000000000000000000000000000000600082015250565b6000612af86010836129d9565b9150612b0382612ac2565b602082019050919050565b60006020820190508181036000830152612b2781612aeb565b9050919050565b7f4f6e6c7920646f65722063616e2063616c6c0000000000000000000000000000600082015250565b6000612b646012836129d9565b9150612b6f82612b2e565b602082019050919050565b60006020820190508181036000830152612b9381612b57565b9050919050565b7f4f6e6c792072657669657765722063616e2063616c6c00000000000000000000600082015250565b6000612bd06016836129d9565b9150612bdb82612b9a565b602082019050919050565b60006020820190508181036000830152612bff81612bc3565b9050919050565b7f7461736b4944206f722062617463685461736b4944206e6f7420666f756e6400600082015250565b6000612c3c601f836129d9565b9150612c4782612c06565b602082019050919050565b60006020820190508181036000830152612c6b81612c2f565b9050919050565b6000612c7d82612126565b9150612c8883612126565b9250828202612c9681612126565b91508282048414831517612cad57612cac61290a565b5b5092915050565b7f4e487b7100000000000000000000000000000000000000000000000000000000600052601260045260246000fd5b6000612cee82612126565b9150612cf983612126565b925082612d0957612d08612cb4565b5b828204905092915050565b6000606082019050612d296000830186612561565b612d3660208301856125c7565b612d436040830184612561565b949350505050565b600081519050612d5a81612130565b92915050565b600060208284031215612d7657612d75612121565b5b6000612d8484828501612d4b565b91505092915050565b7f4e6f742070726f7669646520656e6f756768206d6f6e657920746f207265636560008201527f697665207461736b210000000000000000000000000000000000000000000000602082015250565b6000612de96029836129d9565b9150612df482612d8d565b604082019050919050565b60006020820190508181036000830152612e1881612ddc565b9050919050565b7f4572726f723a20496e76616c6964204261746368205461736b20537461746500600082015250565b6000612e55601f836129d9565b9150612e6082612e1f565b602082019050919050565b60006020820190508181036000830152612e8481612e48565b9050919050565b60008160001c9050919050565b6000819050919050565b6000612eb5612eb083612e8b565b612e98565b9050919050565b600073ffffffffffffffffffffffffffffffffffffffff82169050919050565b6000612eef612eea83612e8b565b612ebc565b9050919050565b612eff81612263565b82525050565b600060ff82169050919050565b6000612f25612f2083612e8b565b612f05565b9050919050565b612f358161262c565b82525050565b61012082016000808301549050612f5181612ea2565b612f5e60008601826126f5565b5060018301549050612f6f81612ea2565b612f7c60208601826126f5565b5060028301549050612f8d81612ea2565b612f9a60408601826126f5565b5060038301549050612fab81612ea2565b612fb860608601826126f5565b5060048301549050612fc981612edc565b612fd66080860182612ef6565b5060058301549050612fe781612edc565b612ff460a0860182612ef6565b506006830154905061300581612edc565b61301260c0860182612ef6565b506007830154905061302381612ea2565b61303060e08601826126f5565b506008830154905061304181612f12565b61304f610100860182612f2c565b5050505050565b60006101408201905061306c6000830185612f3b565b61307a610120830184612561565b9392505050565b7f4f776e61626c653a206e6577206f776e657220697320746865207a65726f206160008201527f6464726573730000000000000000000000000000000000000000000000000000602082015250565b60006130dd6026836129d9565b91506130e882613081565b604082019050919050565b6000602082019050818103600083015261310c816130d0565b9050919050565b7f4f776e61626c653a2063616c6c6572206973206e6f7420746865206f776e6572600082015250565b60006131496020836129d9565b915061315482613113565b602082019050919050565b600060208201905081810360008301526131788161313c565b905091905056fea26469706673582212203541f5f97c5ac7d345ab8872971776a1c4d2529ea284e273a1d3927eae85a1c064736f6c63430008110033",
  "linkReferences": {},
  "deployedLinkReferences": {}
}