{
  "_format": "hh-sol-artifact-1",
  "contractName": "TaskManager",
  "sourceName": "contracts/TaskManager.sol",
  "abi": [
    {
      "anonymous": false,
      "inputs": [
        {
          "indexed": false,
          "internalType": "uint256",
          "name": "taskId",
          "type": "uint256"
        },
        {
          "indexed": false,
          "internalType": "uint256",
          "name": "reward",
          "type": "uint256"
        },
        {
          "indexed": true,
          "internalType": "address",
          "name": "doer",
          "type": "address"
        },
        {
          "indexed": false,
          "internalType": "enum ITaskManager.TASK_STATE",
          "name": "taskState",
          "type": "uint8"
        }
      ],
      "name": "AssignTask",
      "type": "event"
    },
    {
      "anonymous": false,
      "inputs": [
        {
          "indexed": false,
          "internalType": "uint256",
          "name": "batchTaskId",
          "type": "uint256"
        },
        {
          "indexed": false,
          "internalType": "uint256",
          "name": "pollId",
          "type": "uint256"
        },
        {
          "indexed": false,
          "internalType": "enum ITaskManager.BATCH_TASK_STATE",
          "name": "batchTaskState",
          "type": "uint8"
        }
      ],
      "name": "BatchTaskInit",
      "type": "event"
    },
    {
      "anonymous": false,
      "inputs": [
        {
          "indexed": true,
          "internalType": "uint256",
          "name": "batchTaskID",
          "type": "uint256"
        },
        {
          "indexed": false,
          "internalType": "uint256",
          "name": "auctionDuration",
          "type": "uint256"
        },
        {
          "indexed": false,
          "internalType": "uint256",
          "name": "timeOpen",
          "type": "uint256"
        },
        {
          "indexed": false,
          "internalType": "enum ITaskManager.BATCH_TASK_STATE",
          "name": "batchTaskState",
          "type": "uint8"
        }
      ],
      "name": "OpenBatchTaskForAuction",
      "type": "event"
    },
    {
      "anonymous": false,
      "inputs": [
        {
          "indexed": true,
          "internalType": "uint256",
          "name": "_pollId",
          "type": "uint256"
        },
        {
          "indexed": false,
          "internalType": "uint256",
          "name": "_voteDuration",
          "type": "uint256"
        },
        {
          "indexed": false,
          "internalType": "uint256",
          "name": "timeOpenPollVote",
          "type": "uint256"
        },
        {
          "indexed": true,
          "internalType": "address",
          "name": "pollOwner",
          "type": "address"
        },
        {
          "indexed": false,
          "internalType": "enum ITaskManager.POLL_STATE",
          "name": "pollState",
          "type": "uint8"
        }
      ],
      "name": "OpenPollForVote",
      "type": "event"
    },
    {
      "anonymous": false,
      "inputs": [
        {
          "indexed": true,
          "internalType": "address",
          "name": "previousOwner",
          "type": "address"
        },
        {
          "indexed": true,
          "internalType": "address",
          "name": "newOwner",
          "type": "address"
        }
      ],
      "name": "OwnershipTransferred",
      "type": "event"
    },
    {
      "anonymous": false,
      "inputs": [
        {
          "indexed": false,
          "internalType": "uint256",
          "name": "pollId",
          "type": "uint256"
        },
        {
          "indexed": true,
          "internalType": "address",
          "name": "pollOwner",
          "type": "address"
        },
        {
          "indexed": false,
          "internalType": "enum ITaskManager.POLL_STATE",
          "name": "pollState",
          "type": "uint8"
        }
      ],
      "name": "PollInit",
      "type": "event"
    },
    {
      "anonymous": false,
      "inputs": [
        {
          "indexed": false,
          "internalType": "uint256",
          "name": "taskId",
          "type": "uint256"
        },
        {
          "indexed": false,
          "internalType": "uint256",
          "name": "timeReceive",
          "type": "uint256"
        },
        {
          "indexed": true,
          "internalType": "address",
          "name": "doer",
          "type": "address"
        },
        {
          "indexed": false,
          "internalType": "enum ITaskManager.TASK_STATE",
          "name": "taskState",
          "type": "uint8"
        },
        {
          "indexed": false,
          "internalType": "uint256",
          "name": "commitValue",
          "type": "uint256"
        }
      ],
      "name": "ReceiveTask",
      "type": "event"
    },
    {
      "anonymous": false,
      "inputs": [
        {
          "indexed": false,
          "internalType": "uint256",
          "name": "taskId",
          "type": "uint256"
        },
        {
          "indexed": false,
          "internalType": "uint256",
          "name": "percentageDone",
          "type": "uint256"
        },
        {
          "indexed": true,
          "internalType": "address",
          "name": "reviewer",
          "type": "address"
        },
        {
          "indexed": false,
          "internalType": "enum ITaskManager.TASK_STATE",
          "name": "taskState",
          "type": "uint8"
        },
        {
          "indexed": false,
          "internalType": "uint256",
          "name": "timeSubmit",
          "type": "uint256"
        }
      ],
      "name": "SubmitReview",
      "type": "event"
    },
    {
      "anonymous": false,
      "inputs": [
        {
          "indexed": false,
          "internalType": "uint256",
          "name": "taskId",
          "type": "uint256"
        },
        {
          "indexed": false,
          "internalType": "uint256",
          "name": "timeSubmit",
          "type": "uint256"
        },
        {
          "indexed": true,
          "internalType": "address",
          "name": "doer",
          "type": "address"
        },
        {
          "indexed": false,
          "internalType": "enum ITaskManager.TASK_STATE",
          "name": "taskState",
          "type": "uint8"
        }
      ],
      "name": "SubmitTaskResult",
      "type": "event"
    },
    {
      "anonymous": false,
      "inputs": [
        {
          "indexed": false,
          "internalType": "uint256",
          "name": "batchTaskId",
          "type": "uint256"
        },
        {
          "indexed": false,
          "internalType": "uint256",
          "name": "point",
          "type": "uint256"
        },
        {
          "indexed": false,
          "internalType": "uint256",
          "name": "reward",
          "type": "uint256"
        },
        {
          "indexed": false,
          "internalType": "uint256",
          "name": "minReward",
          "type": "uint256"
        },
        {
          "indexed": true,
          "internalType": "address",
          "name": "reporter",
          "type": "address"
        },
        {
          "indexed": true,
          "internalType": "address",
          "name": "reviewer",
          "type": "address"
        },
        {
          "indexed": false,
          "internalType": "enum ITaskManager.TASK_STATE",
          "name": "taskState",
          "type": "uint8"
        }
      ],
      "name": "TaskInit",
      "type": "event"
    },
    {
      "anonymous": false,
      "inputs": [
        {
          "indexed": false,
          "internalType": "uint256",
          "name": "taskId",
          "type": "uint256"
        },
        {
          "indexed": false,
          "internalType": "uint256",
          "name": "newPoint",
          "type": "uint256"
        },
        {
          "indexed": true,
          "internalType": "address",
          "name": "updater",
          "type": "address"
        },
        {
          "indexed": false,
          "internalType": "uint256",
          "name": "timeUpdate",
          "type": "uint256"
        }
      ],
      "name": "UpdateTask",
      "type": "event"
    },
    {
      "inputs": [
        {
          "components": [
            {
              "internalType": "uint256",
              "name": "taskId",
              "type": "uint256"
            },
            {
              "internalType": "uint256",
              "name": "point",
              "type": "uint256"
            },
            {
              "internalType": "uint256",
              "name": "reward",
              "type": "uint256"
            },
            {
              "internalType": "uint256",
              "name": "minReward",
              "type": "uint256"
            },
            {
              "internalType": "address",
              "name": "reporter",
              "type": "address"
            },
            {
              "internalType": "address",
              "name": "doer",
              "type": "address"
            },
            {
              "internalType": "address",
              "name": "reviewer",
              "type": "address"
            },
            {
              "internalType": "enum ITaskAuction.TASK_STATE",
              "name": "taskState",
              "type": "uint8"
            },
            {
              "internalType": "uint256",
              "name": "lowestBidAmount",
              "type": "uint256"
            },
            {
              "internalType": "address",
              "name": "lowestBidder",
              "type": "address"
            }
          ],
          "internalType": "struct ITaskAuction.AuctionTask",
          "name": "doneAuctionTask",
          "type": "tuple"
        }
      ],
      "name": "assignTask",
      "outputs": [],
      "stateMutability": "nonpayable",
      "type": "function"
    },
    {
      "inputs": [],
      "name": "bankManager",
      "outputs": [
        {
          "internalType": "contract IBankManager",
          "name": "",
          "type": "address"
        }
      ],
      "stateMutability": "view",
      "type": "function"
    },
    {
      "inputs": [],
      "name": "batchTaskCount",
      "outputs": [
        {
          "internalType": "uint256",
          "name": "",
          "type": "uint256"
        }
      ],
      "stateMutability": "view",
      "type": "function"
    },
    {
      "inputs": [],
      "name": "batchTaskVoting",
      "outputs": [
        {
          "internalType": "contract IBatchTaskVoting",
          "name": "",
          "type": "address"
        }
      ],
      "stateMutability": "view",
      "type": "function"
    },
    {
      "inputs": [
        {
          "internalType": "uint256",
          "name": "",
          "type": "uint256"
        }
      ],
      "name": "batchTasks",
      "outputs": [
        {
          "internalType": "uint256",
          "name": "batchTaskId",
          "type": "uint256"
        },
        {
          "internalType": "enum ITaskManager.BATCH_TASK_STATE",
          "name": "batchTaskState",
          "type": "uint8"
        }
      ],
      "stateMutability": "view",
      "type": "function"
    },
    {
      "inputs": [
        {
          "internalType": "address",
          "name": "_tokenAddress",
          "type": "address"
        }
      ],
      "name": "chooseToken",
      "outputs": [],
      "stateMutability": "nonpayable",
      "type": "function"
    },
    {
      "inputs": [],
      "name": "creditScore",
      "outputs": [
        {
          "internalType": "contract ICreditScore",
          "name": "",
          "type": "address"
        }
      ],
      "stateMutability": "view",
      "type": "function"
    },
    {
      "inputs": [
        {
          "internalType": "uint256",
          "name": "_pollID",
          "type": "uint256"
        }
      ],
      "name": "getAllBatchTaskByPollID",
      "outputs": [
        {
          "components": [
            {
              "internalType": "uint256",
              "name": "batchTaskId",
              "type": "uint256"
            },
            {
              "internalType": "uint256[]",
              "name": "taskIds",
              "type": "uint256[]"
            },
            {
              "internalType": "enum ITaskManager.BATCH_TASK_STATE",
              "name": "batchTaskState",
              "type": "uint8"
            }
          ],
          "internalType": "struct ITaskManager.BatchTask[]",
          "name": "",
          "type": "tuple[]"
        }
      ],
      "stateMutability": "view",
      "type": "function"
    },
    {
      "inputs": [],
      "name": "getAllPoll",
      "outputs": [
        {
          "components": [
            {
              "internalType": "uint256",
              "name": "pollId",
              "type": "uint256"
            },
            {
              "internalType": "address",
              "name": "pollOwner",
              "type": "address"
            },
            {
              "internalType": "uint256[]",
              "name": "batchTaskIds",
              "type": "uint256[]"
            },
            {
              "internalType": "enum ITaskManager.POLL_STATE",
              "name": "pollState",
              "type": "uint8"
            }
          ],
          "internalType": "struct ITaskManager.Poll[]",
          "name": "",
          "type": "tuple[]"
        }
      ],
      "stateMutability": "view",
      "type": "function"
    },
    {
      "inputs": [
        {
          "internalType": "uint256",
          "name": "_batchTaskId",
          "type": "uint256"
        }
      ],
      "name": "getAllTask",
      "outputs": [
        {
          "components": [
            {
              "internalType": "uint256",
              "name": "taskId",
              "type": "uint256"
            },
            {
              "internalType": "uint256",
              "name": "point",
              "type": "uint256"
            },
            {
              "internalType": "uint256",
              "name": "reward",
              "type": "uint256"
            },
            {
              "internalType": "uint256",
              "name": "minReward",
              "type": "uint256"
            },
            {
              "internalType": "address",
              "name": "reporter",
              "type": "address"
            },
            {
              "internalType": "address",
              "name": "doer",
              "type": "address"
            },
            {
              "internalType": "address",
              "name": "reviewer",
              "type": "address"
            },
            {
              "internalType": "uint256",
              "name": "timeDoerReceive",
              "type": "uint256"
            },
            {
              "internalType": "enum ITaskManager.TASK_STATE",
              "name": "taskState",
              "type": "uint8"
            }
          ],
          "internalType": "struct ITaskManager.Task[]",
          "name": "",
          "type": "tuple[]"
        }
      ],
      "stateMutability": "view",
      "type": "function"
    },
    {
      "inputs": [
        {
          "internalType": "uint256",
          "name": "_pollId",
          "type": "uint256"
        }
      ],
      "name": "initBatchTask",
      "outputs": [],
      "stateMutability": "nonpayable",
      "type": "function"
    },
    {
      "inputs": [
        {
          "internalType": "uint256",
          "name": "_batchTaskId",
          "type": "uint256"
        }
      ],
      "name": "initBatchTaskAuction",
      "outputs": [],
      "stateMutability": "nonpayable",
      "type": "function"
    },
    {
      "inputs": [
        {
          "internalType": "address",
          "name": "_pollOwner",
          "type": "address"
        }
      ],
      "name": "initPoll",
      "outputs": [],
      "stateMutability": "nonpayable",
      "type": "function"
    },
    {
      "inputs": [
        {
          "internalType": "uint256",
          "name": "_batchTaskId",
          "type": "uint256"
        },
        {
          "internalType": "uint256",
          "name": "_point",
          "type": "uint256"
        },
        {
          "internalType": "uint256",
          "name": "_reward",
          "type": "uint256"
        },
        {
          "internalType": "uint256",
          "name": "_minReward",
          "type": "uint256"
        },
        {
          "internalType": "address",
          "name": "_reporter",
          "type": "address"
        },
        {
          "internalType": "address",
          "name": "_reviewer",
          "type": "address"
        }
      ],
      "name": "initTask",
      "outputs": [],
      "stateMutability": "nonpayable",
      "type": "function"
    },
    {
      "inputs": [
        {
          "internalType": "uint256",
          "name": "_batchTaskID",
          "type": "uint256"
        },
        {
          "internalType": "uint256",
          "name": "_auctionDuration",
          "type": "uint256"
        }
      ],
      "name": "openBatchTaskForAuction",
      "outputs": [],
      "stateMutability": "nonpayable",
      "type": "function"
    },
    {
      "inputs": [
        {
          "internalType": "uint256",
          "name": "_pollId",
          "type": "uint256"
        },
        {
          "internalType": "uint256",
          "name": "_voteDuration",
          "type": "uint256"
        }
      ],
      "name": "openPollForVote",
      "outputs": [],
      "stateMutability": "nonpayable",
      "type": "function"
    },
    {
      "inputs": [],
      "name": "owner",
      "outputs": [
        {
          "internalType": "address",
          "name": "",
          "type": "address"
        }
      ],
      "stateMutability": "view",
      "type": "function"
    },
    {
      "inputs": [],
      "name": "pollCount",
      "outputs": [
        {
          "internalType": "uint256",
          "name": "",
          "type": "uint256"
        }
      ],
      "stateMutability": "view",
      "type": "function"
    },
    {
      "inputs": [
        {
          "internalType": "uint256",
          "name": "",
          "type": "uint256"
        }
      ],
      "name": "polls",
      "outputs": [
        {
          "internalType": "uint256",
          "name": "pollId",
          "type": "uint256"
        },
        {
          "internalType": "address",
          "name": "pollOwner",
          "type": "address"
        },
        {
          "internalType": "enum ITaskManager.POLL_STATE",
          "name": "pollState",
          "type": "uint8"
        }
      ],
      "stateMutability": "view",
      "type": "function"
    },
    {
      "inputs": [
        {
          "internalType": "uint256",
          "name": "_taskId",
          "type": "uint256"
        },
        {
          "internalType": "uint256",
          "name": "_commitValue",
          "type": "uint256"
        }
      ],
      "name": "receiveTask",
      "outputs": [],
      "stateMutability": "nonpayable",
      "type": "function"
    },
    {
      "inputs": [],
      "name": "renounceOwnership",
      "outputs": [],
      "stateMutability": "nonpayable",
      "type": "function"
    },
    {
      "inputs": [
        {
          "internalType": "address",
          "name": "_bankManagerAddress",
          "type": "address"
        }
      ],
      "name": "setBankManager",
      "outputs": [],
      "stateMutability": "nonpayable",
      "type": "function"
    },
    {
      "inputs": [
        {
          "internalType": "address",
          "name": "_batchTaskVotingAddress",
          "type": "address"
        }
      ],
      "name": "setBatchTaskVoting",
      "outputs": [],
      "stateMutability": "nonpayable",
      "type": "function"
    },
    {
      "inputs": [
        {
          "internalType": "address",
          "name": "_creditScoreAddress",
          "type": "address"
        }
      ],
      "name": "setCreditScore",
      "outputs": [],
      "stateMutability": "nonpayable",
      "type": "function"
    },
    {
      "inputs": [
        {
          "internalType": "address",
          "name": "_taskAuctionAddress",
          "type": "address"
        }
      ],
      "name": "setTaskAuction",
      "outputs": [],
      "stateMutability": "nonpayable",
      "type": "function"
    },
    {
      "inputs": [
        {
          "internalType": "uint256",
          "name": "_taskId",
          "type": "uint256"
        },
        {
          "internalType": "uint256",
          "name": "percentageDone",
          "type": "uint256"
        }
      ],
      "name": "submitReview",
      "outputs": [],
      "stateMutability": "nonpayable",
      "type": "function"
    },
    {
      "inputs": [
        {
          "internalType": "uint256",
          "name": "_taskId",
          "type": "uint256"
        }
      ],
      "name": "submitTaskResult",
      "outputs": [],
      "stateMutability": "nonpayable",
      "type": "function"
    },
    {
      "inputs": [],
      "name": "taskAuction",
      "outputs": [
        {
          "internalType": "contract ITaskAuction",
          "name": "",
          "type": "address"
        }
      ],
      "stateMutability": "view",
      "type": "function"
    },
    {
      "inputs": [],
      "name": "taskCount",
      "outputs": [
        {
          "internalType": "uint256",
          "name": "",
          "type": "uint256"
        }
      ],
      "stateMutability": "view",
      "type": "function"
    },
    {
      "inputs": [
        {
          "internalType": "uint256",
          "name": "",
          "type": "uint256"
        }
      ],
      "name": "tasks",
      "outputs": [
        {
          "internalType": "uint256",
          "name": "taskId",
          "type": "uint256"
        },
        {
          "internalType": "uint256",
          "name": "point",
          "type": "uint256"
        },
        {
          "internalType": "uint256",
          "name": "reward",
          "type": "uint256"
        },
        {
          "internalType": "uint256",
          "name": "minReward",
          "type": "uint256"
        },
        {
          "internalType": "address",
          "name": "reporter",
          "type": "address"
        },
        {
          "internalType": "address",
          "name": "doer",
          "type": "address"
        },
        {
          "internalType": "address",
          "name": "reviewer",
          "type": "address"
        },
        {
          "internalType": "uint256",
          "name": "timeDoerReceive",
          "type": "uint256"
        },
        {
          "internalType": "enum ITaskManager.TASK_STATE",
          "name": "taskState",
          "type": "uint8"
        }
      ],
      "stateMutability": "view",
      "type": "function"
    },
    {
      "inputs": [],
      "name": "tokenAddress",
      "outputs": [
        {
          "internalType": "address",
          "name": "",
          "type": "address"
        }
      ],
      "stateMutability": "view",
      "type": "function"
    },
    {
      "inputs": [
        {
          "internalType": "address",
          "name": "newOwner",
          "type": "address"
        }
      ],
      "name": "transferOwnership",
      "outputs": [],
      "stateMutability": "nonpayable",
      "type": "function"
    },
    {
      "inputs": [
        {
          "internalType": "uint256",
          "name": "_taskId",
          "type": "uint256"
        },
        {
          "internalType": "uint256",
          "name": "_newPoint",
          "type": "uint256"
        }
      ],
      "name": "updateTask",
      "outputs": [],
      "stateMutability": "nonpayable",
      "type": "function"
    }
  ],
  "bytecode": "0x60806040523480156200001157600080fd5b5062000032620000266200003860201b60201c565b6200004060201b60201c565b62000104565b600033905090565b60008060009054906101000a900473ffffffffffffffffffffffffffffffffffffffff169050816000806101000a81548173ffffffffffffffffffffffffffffffffffffffff021916908373ffffffffffffffffffffffffffffffffffffffff1602179055508173ffffffffffffffffffffffffffffffffffffffff168173ffffffffffffffffffffffffffffffffffffffff167f8be0079c531659141344cd1fd0a4f28419497f9722a3daafe3b4186f6b6457e060405160405180910390a35050565b614b9e80620001146000396000f3fe608060405234801561001057600080fd5b50600436106101fb5760003560e01c80638d93fc0a1161011a578063b6cb58a5116100ad578063e64f01b91161007c578063e64f01b91461056a578063e9e2990e14610586578063f2fde38b146105a4578063f535d117146105c0578063fd3a5451146105f1576101fb565b8063b6cb58a5146104e2578063c709c1f114610500578063dbe2728e1461051e578063e08e2ea31461054e576101fb565b80639844f215116100e95780639844f215146104585780639acea8d3146104765780639d76ea5814610492578063ac2f0074146104b0576101fb565b80638d93fc0a146103c65780638d977672146103e45780638da5cb5b1461041c5780639207891d1461043a576101fb565b80636edbe3a311610192578063793a4bbd11610161578063793a4bbd146103405780637a9b6ef71461035c5780637fb732211461037857806385a20cf9146103a8576101fb565b80636edbe3a3146102e25780636f2a4068146102fe578063715018a61461031a578063785faee414610324576101fb565b806342b200ba116101ce57806342b200ba14610272578063435fa77c1461028e57806348fb1f01146102aa57806368e12342146102c6576101fb565b806304655aa3146102005780631861b90c1461021c5780632ed64cbc1461023857806339da315214610254575b600080fd5b61021a600480360381019061021591906132e3565b61060d565b005b61023660048036038101906102319190613323565b610b0b565b005b610252600480360381019061024d91906132e3565b610c59565b005b61025c610ec8565b60405161026991906133cf565b60405180910390f35b61028c60048036038101906102879190613428565b610eee565b005b6102a860048036038101906102a39190613428565b610f3a565b005b6102c460048036038101906102bf91906132e3565b610f86565b005b6102e060048036038101906102db9190613428565b611284565b005b6102fc60048036038101906102f79190613455565b6112d0565b005b61031860048036038101906103139190613323565b6115c3565b005b6103226117e2565b005b61033e60048036038101906103399190613428565b6117f6565b005b61035a600480360381019061035591906132e3565b611a65565b005b61037660048036038101906103719190613428565b611ee3565b005b610392600480360381019061038d9190613323565b611f2f565b60405161039f91906136de565b60405180910390f35b6103b06121c1565b6040516103bd919061370f565b60405180910390f35b6103ce6121c7565b6040516103db919061374b565b60405180910390f35b6103fe60048036038101906103f99190613323565b6121ed565b60405161041399989796959493929190613784565b60405180910390f35b6104246122b8565b6040516104319190613811565b60405180910390f35b6104426122e1565b60405161044f919061370f565b60405180910390f35b6104606122e7565b60405161046d9190613a48565b60405180910390f35b610490600480360381019061048b9190613323565b6124a6565b005b61049a612578565b6040516104a79190613811565b60405180910390f35b6104ca60048036038101906104c59190613323565b61259e565b6040516104d993929190613a79565b60405180910390f35b6104ea612605565b6040516104f7919061370f565b60405180910390f35b61050861260b565b6040516105159190613ad1565b60405180910390f35b61053860048036038101906105339190613323565b612631565b6040516105459190613c46565b60405180910390f35b610568600480360381019061056391906132e3565b6127f0565b005b610584600480360381019061057f9190613e14565b612c17565b005b61058e612dcc565b60405161059b9190613e63565b60405180910390f35b6105be60048036038101906105b99190613428565b612df2565b005b6105da60048036038101906105d59190613323565b612e75565b6040516105e8929190613e8d565b60405180910390f35b61060b60048036038101906106069190613428565b612eb6565b005b6001828160048111156106235761062261352c565b5b600c600083815260200190815260200160002060080160009054906101000a900460ff1660048111156106595761065861352c565b5b14610699576040517f08c379a000000000000000000000000000000000000000000000000000000000815260040161069090613f13565b60405180910390fd5b600c600085815260200190815260200160002060050160009054906101000a900473ffffffffffffffffffffffffffffffffffffffff1673ffffffffffffffffffffffffffffffffffffffff163373ffffffffffffffffffffffffffffffffffffffff161461073d576040517f08c379a000000000000000000000000000000000000000000000000000000000815260040161073490613f7f565b60405180910390fd5b83600c60008681526020019081526020016000206000015414610795576040517f08c379a000000000000000000000000000000000000000000000000000000000815260040161078c90613feb565b60405180910390fd5b6000600360009054906101000a900473ffffffffffffffffffffffffffffffffffffffff1673ffffffffffffffffffffffffffffffffffffffff16635ebf340e336040518263ffffffff1660e01b81526004016107f29190613811565b6020604051808303816000875af1158015610811573d6000803e3d6000fd5b505050506040513d601f19601f820116820180604052508101906108359190614020565b905083600460009054906101000a900473ffffffffffffffffffffffffffffffffffffffff1673ffffffffffffffffffffffffffffffffffffffff1663f7888aec33600560009054906101000a900473ffffffffffffffffffffffffffffffffffffffff166040518363ffffffff1660e01b81526004016108b792919061404d565b6020604051808303816000875af11580156108d6573d6000803e3d6000fd5b505050506040513d601f19601f820116820180604052508101906108fa9190614020565b101561093b576040517f08c379a0000000000000000000000000000000000000000000000000000000008152600401610932906140c2565b60405180910390fd5b8084101561097e576040517f08c379a000000000000000000000000000000000000000000000000000000000815260040161097590614154565b60405180910390fd5b600460009054906101000a900473ffffffffffffffffffffffffffffffffffffffff1673ffffffffffffffffffffffffffffffffffffffff1663f18d03cc33600560009054906101000a900473ffffffffffffffffffffffffffffffffffffffff16600460009054906101000a900473ffffffffffffffffffffffffffffffffffffffff16886040518563ffffffff1660e01b8152600401610a239493929190614174565b600060405180830381600087803b158015610a3d57600080fd5b505af1158015610a51573d6000803e3d6000fd5b505050506002600c600087815260200190815260200160002060080160006101000a81548160ff02191690836004811115610a8f57610a8e61352c565b5b021790555042600c6000878152602001908152602001600020600701819055503373ffffffffffffffffffffffffffffffffffffffff167f6dea5495da67ec795242dd1153bfe9e2d4f8e7b0b8ed23e8ea87117243698f418642600288604051610afc94939291906141b9565b60405180910390a25050505050565b610b13613111565b60076000815480929190610b269061422d565b9190505550600754816000018181525050600081604001906002811115610b5057610b4f61352c565b5b90816002811115610b6457610b6361352c565b5b8152505080600e60006007548152602001908152602001600020600082015181600001556020820151816001019080519060200190610ba4929190613144565b5060408201518160020160006101000a81548160ff02191690836002811115610bd057610bcf61352c565b5b0217905550905050600d600083815260200190815260200160002060020160075490806001815401808255809150506001900390600052602060002001600090919091909150557f052d58841974a9fb2d33ae2d55c1a7a5a100b612c792773478c1f897e123c624600754836000604051610c4d93929190614275565b60405180910390a15050565b600082816002811115610c6f57610c6e61352c565b5b600d600083815260200190815260200160002060030160009054906101000a900460ff166002811115610ca557610ca461352c565b5b14610ce5576040517f08c379a0000000000000000000000000000000000000000000000000000000008152600401610cdc906142f8565b60405180910390fd5b600d600085815260200190815260200160002060010160009054906101000a900473ffffffffffffffffffffffffffffffffffffffff1673ffffffffffffffffffffffffffffffffffffffff163373ffffffffffffffffffffffffffffffffffffffff1614610d89576040517f08c379a0000000000000000000000000000000000000000000000000000000008152600401610d8090614364565b60405180910390fd5b6001600d600086815260200190815260200160002060030160006101000a81548160ff02191690836002811115610dc357610dc261352c565b5b0217905550600260009054906101000a900473ffffffffffffffffffffffffffffffffffffffff1673ffffffffffffffffffffffffffffffffffffffff1663b1ed87de8585600d60008981526020019081526020016000206002016040518463ffffffff1660e01b8152600401610e3c9392919061446b565b600060405180830381600087803b158015610e5657600080fd5b505af1158015610e6a573d6000803e3d6000fd5b505050503373ffffffffffffffffffffffffffffffffffffffff16847f3c8b8b4a3858f4fc2413b52ff2a6744af5c45313454e7e567fbf59b1cf1235a985426001604051610eba939291906144a9565b60405180910390a350505050565b600360009054906101000a900473ffffffffffffffffffffffffffffffffffffffff1681565b610ef6612f02565b80600560006101000a81548173ffffffffffffffffffffffffffffffffffffffff021916908373ffffffffffffffffffffffffffffffffffffffff16021790555050565b610f42612f02565b80600360006101000a81548173ffffffffffffffffffffffffffffffffffffffff021916908373ffffffffffffffffffffffffffffffffffffffff16021790555050565b600282816004811115610f9c57610f9b61352c565b5b600c600083815260200190815260200160002060080160009054906101000a900460ff166004811115610fd257610fd161352c565b5b14611012576040517f08c379a000000000000000000000000000000000000000000000000000000000815260040161100990613f13565b60405180910390fd5b600c600085815260200190815260200160002060060160009054906101000a900473ffffffffffffffffffffffffffffffffffffffff1673ffffffffffffffffffffffffffffffffffffffff163373ffffffffffffffffffffffffffffffffffffffff1614806110e35750600c600085815260200190815260200160002060050160009054906101000a900473ffffffffffffffffffffffffffffffffffffffff1673ffffffffffffffffffffffffffffffffffffffff163373ffffffffffffffffffffffffffffffffffffffff16145b611122576040517f08c379a00000000000000000000000000000000000000000000000000000000081526004016111199061452c565b60405180910390fd5b600c600085815260200190815260200160002060060160009054906101000a900473ffffffffffffffffffffffffffffffffffffffff1673ffffffffffffffffffffffffffffffffffffffff163373ffffffffffffffffffffffffffffffffffffffff16036111a75782600c6000868152602001908152602001600020600101819055505b600c600085815260200190815260200160002060050160009054906101000a900473ffffffffffffffffffffffffffffffffffffffff1673ffffffffffffffffffffffffffffffffffffffff163373ffffffffffffffffffffffffffffffffffffffff160361122c5782600c6000868152602001908152602001600020600101819055505b3373ffffffffffffffffffffffffffffffffffffffff167f5b229384b7df9a4eed61352626b300c5ade2b6900738b23d481b01dd6532bed88585426040516112769392919061454c565b60405180910390a250505050565b61128c612f02565b80600160006101000a81548173ffffffffffffffffffffffffffffffffffffffff021916908373ffffffffffffffffffffffffffffffffffffffff16021790555050565b6112d8613191565b600860008154809291906112eb9061422d565b919050555060085481600001818152505085816020018181525050848160400181815250508381606001818152505082816080019073ffffffffffffffffffffffffffffffffffffffff16908173ffffffffffffffffffffffffffffffffffffffff1681525050818160c0019073ffffffffffffffffffffffffffffffffffffffff16908173ffffffffffffffffffffffffffffffffffffffff1681525050600081610100019060048111156113a4576113a361352c565b5b908160048111156113b8576113b761352c565b5b81525050600e6000888152602001908152602001600020600101600854908060018154018082558091505060019003906000526020600020016000909190919091505580600c600060085481526020019081526020016000206000820151816000015560208201518160010155604082015181600201556060820151816003015560808201518160040160006101000a81548173ffffffffffffffffffffffffffffffffffffffff021916908373ffffffffffffffffffffffffffffffffffffffff16021790555060a08201518160050160006101000a81548173ffffffffffffffffffffffffffffffffffffffff021916908373ffffffffffffffffffffffffffffffffffffffff16021790555060c08201518160060160006101000a81548173ffffffffffffffffffffffffffffffffffffffff021916908373ffffffffffffffffffffffffffffffffffffffff16021790555060e082015181600701556101008201518160080160006101000a81548160ff021916908360048111156115445761154361352c565b5b02179055509050508173ffffffffffffffffffffffffffffffffffffffff168373ffffffffffffffffffffffffffffffffffffffff167f8f7fc35287d22bcd83290d62adfa6fd1a8890a7fa6e17ad0ceeb30b6f26691238989898960006040516115b2959493929190614583565b60405180910390a350505050505050565b6002818160048111156115d9576115d861352c565b5b600c600083815260200190815260200160002060080160009054906101000a900460ff16600481111561160f5761160e61352c565b5b1461164f576040517f08c379a000000000000000000000000000000000000000000000000000000000815260040161164690613f13565b60405180910390fd5b82600c600085815260200190815260200160002060000154146116a7576040517f08c379a000000000000000000000000000000000000000000000000000000000815260040161169e90613feb565b60405180910390fd5b600c600084815260200190815260200160002060050160009054906101000a900473ffffffffffffffffffffffffffffffffffffffff1673ffffffffffffffffffffffffffffffffffffffff163373ffffffffffffffffffffffffffffffffffffffff161461174b576040517f08c379a000000000000000000000000000000000000000000000000000000000815260040161174290613f7f565b60405180910390fd5b6003600c600085815260200190815260200160002060080160006101000a81548160ff021916908360048111156117855761178461352c565b5b02179055503373ffffffffffffffffffffffffffffffffffffffff167f4a6651a8a4523ecdd2253c608b6eb24b0341e55899d82ec0a7196fb1ab3e0925844260036040516117d5939291906145d6565b60405180910390a2505050565b6117ea612f02565b6117f46000612f80565b565b6117fe613231565b600660008154809291906118119061422d565b919050555060065481600001818152505081816020019073ffffffffffffffffffffffffffffffffffffffff16908173ffffffffffffffffffffffffffffffffffffffff16815250506000816060019060028111156118735761187261352c565b5b908160028111156118875761188661352c565b5b8152505080600d600060065481526020019081526020016000206000820151816000015560208201518160010160006101000a81548173ffffffffffffffffffffffffffffffffffffffff021916908373ffffffffffffffffffffffffffffffffffffffff160217905550604082015181600201908051906020019061190e929190613144565b5060608201518160030160006101000a81548160ff0219169083600281111561193a5761193961352c565b5b0217905550905050600a8190806001815401808255809150506001900390600052602060002090600402016000909190919091506000820151816000015560208201518160010160006101000a81548173ffffffffffffffffffffffffffffffffffffffff021916908373ffffffffffffffffffffffffffffffffffffffff16021790555060408201518160020190805190602001906119db929190613144565b5060608201518160030160006101000a81548160ff02191690836002811115611a0757611a0661352c565b5b021790555050508173ffffffffffffffffffffffffffffffffffffffff167f4f4f87b2b948be42035cc086b1a4727e5d8169af7efcfc2bd87db90e295b0fb46006546000604051611a5992919061460d565b60405180910390a25050565b600382816004811115611a7b57611a7a61352c565b5b600c600083815260200190815260200160002060080160009054906101000a900460ff166004811115611ab157611ab061352c565b5b14611af1576040517f08c379a0000000000000000000000000000000000000000000000000000000008152600401611ae890613f13565b60405180910390fd5b600c600085815260200190815260200160002060060160009054906101000a900473ffffffffffffffffffffffffffffffffffffffff1673ffffffffffffffffffffffffffffffffffffffff163373ffffffffffffffffffffffffffffffffffffffff1614611b95576040517f08c379a0000000000000000000000000000000000000000000000000000000008152600401611b8c90614682565b60405180910390fd5b83600c60008681526020019081526020016000206000015414611bed576040517f08c379a0000000000000000000000000000000000000000000000000000000008152600401611be4906146ee565b60405180910390fd5b611c426040518060400160405280600681526020017f7265776172640000000000000000000000000000000000000000000000000000815250600c600087815260200190815260200160002060020154613044565b6000606484600c600088815260200190815260200160002060020154611c68919061470e565b611c72919061477f565b9050600460009054906101000a900473ffffffffffffffffffffffffffffffffffffffff1673ffffffffffffffffffffffffffffffffffffffff1663f18d03cc600460009054906101000a900473ffffffffffffffffffffffffffffffffffffffff16600560009054906101000a900473ffffffffffffffffffffffffffffffffffffffff16600c60008a815260200190815260200160002060050160009054906101000a900473ffffffffffffffffffffffffffffffffffffffff16856040518563ffffffff1660e01b8152600401611d4f9493929190614174565b600060405180830381600087803b158015611d6957600080fd5b505af1158015611d7d573d6000803e3d6000fd5b50505050600360009054906101000a900473ffffffffffffffffffffffffffffffffffffffff1673ffffffffffffffffffffffffffffffffffffffff16635873074686600c600089815260200190815260200160002060050160009054906101000a900473ffffffffffffffffffffffffffffffffffffffff16876040518463ffffffff1660e01b8152600401611e16939291906147b0565b600060405180830381600087803b158015611e3057600080fd5b505af1158015611e44573d6000803e3d6000fd5b505050506004600c600087815260200190815260200160002060080160006101000a81548160ff02191690836004811115611e8257611e8161352c565b5b02179055503373ffffffffffffffffffffffffffffffffffffffff167f59740400b1e66dd4640c547de08c4922a69ed5384ebd7e670c7cd49dbf2f4e708686600442604051611ed494939291906141b9565b60405180910390a25050505050565b611eeb612f02565b80600460006101000a81548173ffffffffffffffffffffffffffffffffffffffff021916908373ffffffffffffffffffffffffffffffffffffffff16021790555050565b60606000600e60008481526020019081526020016000206001018054905067ffffffffffffffff811115611f6657611f65613c7e565b5b604051908082528060200260200182016040528015611f9f57816020015b611f8c613191565b815260200190600190039081611f845790505b50905060005b600e6000858152602001908152602001600020600101805490508110156121b757600c6000600e60008781526020019081526020016000206001018381548110611ff257611ff16147e7565b5b9060005260206000200154815260200190815260200160002060405180610120016040529081600082015481526020016001820154815260200160028201548152602001600382015481526020016004820160009054906101000a900473ffffffffffffffffffffffffffffffffffffffff1673ffffffffffffffffffffffffffffffffffffffff1673ffffffffffffffffffffffffffffffffffffffff1681526020016005820160009054906101000a900473ffffffffffffffffffffffffffffffffffffffff1673ffffffffffffffffffffffffffffffffffffffff1673ffffffffffffffffffffffffffffffffffffffff1681526020016006820160009054906101000a900473ffffffffffffffffffffffffffffffffffffffff1673ffffffffffffffffffffffffffffffffffffffff1673ffffffffffffffffffffffffffffffffffffffff168152602001600782015481526020016008820160009054906101000a900460ff1660048111156121705761216f61352c565b5b60048111156121825761218161352c565b5b81525050828281518110612199576121986147e7565b5b602002602001018190525080806121af9061422d565b915050611fa5565b5080915050919050565b60075481565b600160009054906101000a900473ffffffffffffffffffffffffffffffffffffffff1681565b600981815481106121fd57600080fd5b90600052602060002090600902016000915090508060000154908060010154908060020154908060030154908060040160009054906101000a900473ffffffffffffffffffffffffffffffffffffffff16908060050160009054906101000a900473ffffffffffffffffffffffffffffffffffffffff16908060060160009054906101000a900473ffffffffffffffffffffffffffffffffffffffff16908060070154908060080160009054906101000a900460ff16905089565b60008060009054906101000a900473ffffffffffffffffffffffffffffffffffffffff16905090565b60065481565b6060600060065467ffffffffffffffff81111561230757612306613c7e565b5b60405190808252806020026020018201604052801561234057816020015b61232d613231565b8152602001906001900390816123255790505b50905060005b60065481101561249e57600d60006001836123619190614816565b8152602001908152602001600020604051806080016040529081600082015481526020016001820160009054906101000a900473ffffffffffffffffffffffffffffffffffffffff1673ffffffffffffffffffffffffffffffffffffffff1673ffffffffffffffffffffffffffffffffffffffff1681526020016002820180548060200260200160405190810160405280929190818152602001828054801561242957602002820191906000526020600020905b815481526020019060010190808311612415575b505050505081526020016003820160009054906101000a900460ff1660028111156124575761245661352c565b5b60028111156124695761246861352c565b5b815250508282815181106124805761247f6147e7565b5b602002602001018190525080806124969061422d565b915050612346565b508091505090565b600260009054906101000a900473ffffffffffffffffffffffffffffffffffffffff1673ffffffffffffffffffffffffffffffffffffffff163373ffffffffffffffffffffffffffffffffffffffff1614612536576040517f08c379a000000000000000000000000000000000000000000000000000000000815260040161252d90614896565b60405180910390fd5b6001600e600083815260200190815260200160002060020160006101000a81548160ff021916908360028111156125705761256f61352c565b5b021790555050565b600560009054906101000a900473ffffffffffffffffffffffffffffffffffffffff1681565b600a81815481106125ae57600080fd5b90600052602060002090600402016000915090508060000154908060010160009054906101000a900473ffffffffffffffffffffffffffffffffffffffff16908060030160009054906101000a900460ff16905083565b60085481565b600260009054906101000a900473ffffffffffffffffffffffffffffffffffffffff1681565b60606000600d60008481526020019081526020016000206002018054905067ffffffffffffffff81111561266857612667613c7e565b5b6040519080825280602002602001820160405280156126a157816020015b61268e613111565b8152602001906001900390816126865790505b50905060005b600d6000858152602001908152602001600020600201805490508110156127e657600e6000600d600087815260200190815260200160002060020183815481106126f4576126f36147e7565b5b90600052602060002001548152602001908152602001600020604051806060016040529081600082015481526020016001820180548060200260200160405190810160405280929190818152602001828054801561277157602002820191906000526020600020905b81548152602001906001019080831161275d575b505050505081526020016002820160009054906101000a900460ff16600281111561279f5761279e61352c565b5b60028111156127b1576127b061352c565b5b815250508282815181106127c8576127c76147e7565b5b602002602001018190525080806127de9061422d565b9150506126a7565b5080915050919050565b6001828160028111156128065761280561352c565b5b600e600083815260200190815260200160002060020160009054906101000a900460ff16600281111561283c5761283b61352c565b5b1461287c576040517f08c379a000000000000000000000000000000000000000000000000000000000815260040161287390614902565b60405180910390fd5b6002600e600086815260200190815260200160002060020160006101000a81548160ff021916908360028111156128b6576128b561352c565b5b02179055506000600e60008681526020019081526020016000206001018054905067ffffffffffffffff8111156128f0576128ef613c7e565b5b60405190808252806020026020018201604052801561292957816020015b612916613191565b81526020019060019003908161290e5790505b50905060005b600e600087815260200190815260200160002060010180549050811015612b4157600c6000600e6000898152602001908152602001600020600101838154811061297c5761297b6147e7565b5b9060005260206000200154815260200190815260200160002060405180610120016040529081600082015481526020016001820154815260200160028201548152602001600382015481526020016004820160009054906101000a900473ffffffffffffffffffffffffffffffffffffffff1673ffffffffffffffffffffffffffffffffffffffff1673ffffffffffffffffffffffffffffffffffffffff1681526020016005820160009054906101000a900473ffffffffffffffffffffffffffffffffffffffff1673ffffffffffffffffffffffffffffffffffffffff1673ffffffffffffffffffffffffffffffffffffffff1681526020016006820160009054906101000a900473ffffffffffffffffffffffffffffffffffffffff1673ffffffffffffffffffffffffffffffffffffffff1673ffffffffffffffffffffffffffffffffffffffff168152602001600782015481526020016008820160009054906101000a900460ff166004811115612afa57612af961352c565b5b6004811115612b0c57612b0b61352c565b5b81525050828281518110612b2357612b226147e7565b5b60200260200101819052508080612b399061422d565b91505061292f565b50600160009054906101000a900473ffffffffffffffffffffffffffffffffffffffff1673ffffffffffffffffffffffffffffffffffffffff16630f076d638287876040518463ffffffff1660e01b8152600401612ba193929190614922565b600060405180830381600087803b158015612bbb57600080fd5b505af1158015612bcf573d6000803e3d6000fd5b50505050847fa8bea390d9982d0ee49859be0a341988f8924ac0fff7e4c1c86637095d7e215485426002604051612c0893929190614275565b60405180910390a25050505050565b600160009054906101000a900473ffffffffffffffffffffffffffffffffffffffff1673ffffffffffffffffffffffffffffffffffffffff163373ffffffffffffffffffffffffffffffffffffffff1614612ca7576040517f08c379a0000000000000000000000000000000000000000000000000000000008152600401612c9e906149ac565b60405180910390fd5b8060400151600c600083600001518152602001908152602001600020600201819055508060a00151600c60008360000151815260200190815260200160002060050160006101000a81548173ffffffffffffffffffffffffffffffffffffffff021916908373ffffffffffffffffffffffffffffffffffffffff1602179055506001600c60008360000151815260200190815260200160002060080160006101000a81548160ff02191690836004811115612d6557612d6461352c565b5b02179055508060a0015173ffffffffffffffffffffffffffffffffffffffff167f920e43a70e254a0f059f29c319db623ba9b9123360c97c5d12da8474342750f6826000015183604001516001604051612dc1939291906145d6565b60405180910390a250565b600460009054906101000a900473ffffffffffffffffffffffffffffffffffffffff1681565b612dfa612f02565b600073ffffffffffffffffffffffffffffffffffffffff168173ffffffffffffffffffffffffffffffffffffffff1603612e69576040517f08c379a0000000000000000000000000000000000000000000000000000000008152600401612e6090614a3e565b60405180910390fd5b612e7281612f80565b50565b600b8181548110612e8557600080fd5b90600052602060002090600302016000915090508060000154908060020160009054906101000a900460ff16905082565b612ebe612f02565b80600260006101000a81548173ffffffffffffffffffffffffffffffffffffffff021916908373ffffffffffffffffffffffffffffffffffffffff16021790555050565b612f0a6130e0565b73ffffffffffffffffffffffffffffffffffffffff16612f286122b8565b73ffffffffffffffffffffffffffffffffffffffff1614612f7e576040517f08c379a0000000000000000000000000000000000000000000000000000000008152600401612f7590614aaa565b60405180910390fd5b565b60008060009054906101000a900473ffffffffffffffffffffffffffffffffffffffff169050816000806101000a81548173ffffffffffffffffffffffffffffffffffffffff021916908373ffffffffffffffffffffffffffffffffffffffff1602179055508173ffffffffffffffffffffffffffffffffffffffff168173ffffffffffffffffffffffffffffffffffffffff167f8be0079c531659141344cd1fd0a4f28419497f9722a3daafe3b4186f6b6457e060405160405180910390a35050565b6130dc828260405160240161305a929190614b38565b6040516020818303038152906040527fb60e72cc000000000000000000000000000000000000000000000000000000007bffffffffffffffffffffffffffffffffffffffffffffffffffffffff19166020820180517bffffffffffffffffffffffffffffffffffffffffffffffffffffffff83818316178352505050506130e8565b5050565b600033905090565b60008151905060006a636f6e736f6c652e6c6f679050602083016000808483855afa5050505050565b604051806060016040528060008152602001606081526020016000600281111561313e5761313d61352c565b5b81525090565b828054828255906000526020600020908101928215613180579160200282015b8281111561317f578251825591602001919060010190613164565b5b50905061318d9190613281565b5090565b60405180610120016040528060008152602001600081526020016000815260200160008152602001600073ffffffffffffffffffffffffffffffffffffffff168152602001600073ffffffffffffffffffffffffffffffffffffffff168152602001600073ffffffffffffffffffffffffffffffffffffffff168152602001600081526020016000600481111561322b5761322a61352c565b5b81525090565b604051806080016040528060008152602001600073ffffffffffffffffffffffffffffffffffffffff168152602001606081526020016000600281111561327b5761327a61352c565b5b81525090565b5b8082111561329a576000816000905550600101613282565b5090565b6000604051905090565b600080fd5b6000819050919050565b6132c0816132ad565b81146132cb57600080fd5b50565b6000813590506132dd816132b7565b92915050565b600080604083850312156132fa576132f96132a8565b5b6000613308858286016132ce565b9250506020613319858286016132ce565b9150509250929050565b600060208284031215613339576133386132a8565b5b6000613347848285016132ce565b91505092915050565b600073ffffffffffffffffffffffffffffffffffffffff82169050919050565b6000819050919050565b600061339561339061338b84613350565b613370565b613350565b9050919050565b60006133a78261337a565b9050919050565b60006133b98261339c565b9050919050565b6133c9816133ae565b82525050565b60006020820190506133e460008301846133c0565b92915050565b60006133f582613350565b9050919050565b613405816133ea565b811461341057600080fd5b50565b600081359050613422816133fc565b92915050565b60006020828403121561343e5761343d6132a8565b5b600061344c84828501613413565b91505092915050565b60008060008060008060c08789031215613472576134716132a8565b5b600061348089828a016132ce565b965050602061349189828a016132ce565b95505060406134a289828a016132ce565b94505060606134b389828a016132ce565b93505060806134c489828a01613413565b92505060a06134d589828a01613413565b9150509295509295509295565b600081519050919050565b600082825260208201905092915050565b6000819050602082019050919050565b613517816132ad565b82525050565b613526816133ea565b82525050565b7f4e487b7100000000000000000000000000000000000000000000000000000000600052602160045260246000fd5b6005811061356c5761356b61352c565b5b50565b600081905061357d8261355b565b919050565b600061358d8261356f565b9050919050565b61359d81613582565b82525050565b610120820160008201516135ba600085018261350e565b5060208201516135cd602085018261350e565b5060408201516135e0604085018261350e565b5060608201516135f3606085018261350e565b506080820151613606608085018261351d565b5060a082015161361960a085018261351d565b5060c082015161362c60c085018261351d565b5060e082015161363f60e085018261350e565b50610100820151613654610100850182613594565b50505050565b600061366683836135a3565b6101208301905092915050565b6000602082019050919050565b600061368b826134e2565b61369581856134ed565b93506136a0836134fe565b8060005b838110156136d15781516136b8888261365a565b97506136c383613673565b9250506001810190506136a4565b5085935050505092915050565b600060208201905081810360008301526136f88184613680565b905092915050565b613709816132ad565b82525050565b60006020820190506137246000830184613700565b92915050565b60006137358261339c565b9050919050565b6137458161372a565b82525050565b6000602082019050613760600083018461373c565b92915050565b61376f816133ea565b82525050565b61377e81613582565b82525050565b60006101208201905061379a600083018c613700565b6137a7602083018b613700565b6137b4604083018a613700565b6137c16060830189613700565b6137ce6080830188613766565b6137db60a0830187613766565b6137e860c0830186613766565b6137f560e0830185613700565b613803610100830184613775565b9a9950505050505050505050565b60006020820190506138266000830184613766565b92915050565b600081519050919050565b600082825260208201905092915050565b6000819050602082019050919050565b600081519050919050565b600082825260208201905092915050565b6000819050602082019050919050565b6000613890838361350e565b60208301905092915050565b6000602082019050919050565b60006138b482613858565b6138be8185613863565b93506138c983613874565b8060005b838110156138fa5781516138e18882613884565b97506138ec8361389c565b9250506001810190506138cd565b5085935050505092915050565b600381106139185761391761352c565b5b50565b600081905061392982613907565b919050565b60006139398261391b565b9050919050565b6139498161392e565b82525050565b6000608083016000830151613967600086018261350e565b50602083015161397a602086018261351d565b506040830151848203604086015261399282826138a9565b91505060608301516139a76060860182613940565b508091505092915050565b60006139be838361394f565b905092915050565b6000602082019050919050565b60006139de8261382c565b6139e88185613837565b9350836020820285016139fa85613848565b8060005b85811015613a365784840389528151613a1785826139b2565b9450613a22836139c6565b925060208a019950506001810190506139fe565b50829750879550505050505092915050565b60006020820190508181036000830152613a6281846139d3565b905092915050565b613a738161392e565b82525050565b6000606082019050613a8e6000830186613700565b613a9b6020830185613766565b613aa86040830184613a6a565b949350505050565b6000613abb8261339c565b9050919050565b613acb81613ab0565b82525050565b6000602082019050613ae66000830184613ac2565b92915050565b600081519050919050565b600082825260208201905092915050565b6000819050602082019050919050565b60038110613b2957613b2861352c565b5b50565b6000819050613b3a82613b18565b919050565b6000613b4a82613b2c565b9050919050565b613b5a81613b3f565b82525050565b6000606083016000830151613b78600086018261350e565b5060208301518482036020860152613b9082826138a9565b9150506040830151613ba56040860182613b51565b508091505092915050565b6000613bbc8383613b60565b905092915050565b6000602082019050919050565b6000613bdc82613aec565b613be68185613af7565b935083602082028501613bf885613b08565b8060005b85811015613c345784840389528151613c158582613bb0565b9450613c2083613bc4565b925060208a01995050600181019050613bfc565b50829750879550505050505092915050565b60006020820190508181036000830152613c608184613bd1565b905092915050565b600080fd5b6000601f19601f8301169050919050565b7f4e487b7100000000000000000000000000000000000000000000000000000000600052604160045260246000fd5b613cb682613c6d565b810181811067ffffffffffffffff82111715613cd557613cd4613c7e565b5b80604052505050565b6000613ce861329e565b9050613cf48282613cad565b919050565b60058110613d0657600080fd5b50565b600081359050613d1881613cf9565b92915050565b60006101408284031215613d3557613d34613c68565b5b613d40610140613cde565b90506000613d50848285016132ce565b6000830152506020613d64848285016132ce565b6020830152506040613d78848285016132ce565b6040830152506060613d8c848285016132ce565b6060830152506080613da084828501613413565b60808301525060a0613db484828501613413565b60a08301525060c0613dc884828501613413565b60c08301525060e0613ddc84828501613d09565b60e083015250610100613df1848285016132ce565b61010083015250610120613e0784828501613413565b6101208301525092915050565b60006101408284031215613e2b57613e2a6132a8565b5b6000613e3984828501613d1e565b91505092915050565b6000613e4d8261339c565b9050919050565b613e5d81613e42565b82525050565b6000602082019050613e786000830184613e54565b92915050565b613e8781613b3f565b82525050565b6000604082019050613ea26000830185613700565b613eaf6020830184613e7e565b9392505050565b600082825260208201905092915050565b7f4572726f723a20496e76616c6964205461736b20537461746500000000000000600082015250565b6000613efd601983613eb6565b9150613f0882613ec7565b602082019050919050565b60006020820190508181036000830152613f2c81613ef0565b9050919050565b7f4f6e6c7920646f65722063616e2063616c6c0000000000000000000000000000600082015250565b6000613f69601283613eb6565b9150613f7482613f33565b602082019050919050565b60006020820190508181036000830152613f9881613f5c565b9050919050565b7f7461736b4944206e6f7420666f756e6400000000000000000000000000000000600082015250565b6000613fd5601083613eb6565b9150613fe082613f9f565b602082019050919050565b6000602082019050818103600083015261400481613fc8565b9050919050565b60008151905061401a816132b7565b92915050565b600060208284031215614036576140356132a8565b5b60006140448482850161400b565b91505092915050565b60006040820190506140626000830185613766565b61406f6020830184613766565b9392505050565b7f596f75722062616c616e6365206e6f7420656e6f756768000000000000000000600082015250565b60006140ac601783613eb6565b91506140b782614076565b602082019050919050565b600060208201905081810360008301526140db8161409f565b9050919050565b7f4e6f742070726f7669646520656e6f756768206d6f6e657920746f207265636560008201527f697665207461736b210000000000000000000000000000000000000000000000602082015250565b600061413e602983613eb6565b9150614149826140e2565b604082019050919050565b6000602082019050818103600083015261416d81614131565b9050919050565b60006080820190506141896000830187613766565b6141966020830186613766565b6141a36040830185613766565b6141b06060830184613700565b95945050505050565b60006080820190506141ce6000830187613700565b6141db6020830186613700565b6141e86040830185613775565b6141f56060830184613700565b95945050505050565b7f4e487b7100000000000000000000000000000000000000000000000000000000600052601160045260246000fd5b6000614238826132ad565b91507fffffffffffffffffffffffffffffffffffffffffffffffffffffffffffffffff820361426a576142696141fe565b5b600182019050919050565b600060608201905061428a6000830186613700565b6142976020830185613700565b6142a46040830184613e7e565b949350505050565b7f4572726f723a20496e76616c696420506f6c6c20537461746500000000000000600082015250565b60006142e2601983613eb6565b91506142ed826142ac565b602082019050919050565b60006020820190508181036000830152614311816142d5565b9050919050565b7f596f75206e6f74206f776e207468697320506f6c6c0000000000000000000000600082015250565b600061434e601583613eb6565b915061435982614318565b602082019050919050565b6000602082019050818103600083015261437d81614341565b9050919050565b600081549050919050565b600082825260208201905092915050565b60008190508160005260206000209050919050565b60008160001c9050919050565b6000819050919050565b60006143df6143da836143b5565b6143c2565b9050919050565b60006143f282546143cc565b9050919050565b6000600182019050919050565b600061441182614384565b61441b818561438f565b9350614426836143a0565b8060005b8381101561445e5761443b826143e6565b6144458882613884565b9750614450836143f9565b92505060018101905061442a565b5085935050505092915050565b60006060820190506144806000830186613700565b61448d6020830185613700565b818103604083015261449f8184614406565b9050949350505050565b60006060820190506144be6000830186613700565b6144cb6020830185613700565b6144d86040830184613a6a565b949350505050565b7f4f6e6c7920646f6572206f722072657669657765722063616e2063616c6c0000600082015250565b6000614516601e83613eb6565b9150614521826144e0565b602082019050919050565b6000602082019050818103600083015261454581614509565b9050919050565b60006060820190506145616000830186613700565b61456e6020830185613700565b61457b6040830184613700565b949350505050565b600060a0820190506145986000830188613700565b6145a56020830187613700565b6145b26040830186613700565b6145bf6060830185613700565b6145cc6080830184613775565b9695505050505050565b60006060820190506145eb6000830186613700565b6145f86020830185613700565b6146056040830184613775565b949350505050565b60006040820190506146226000830185613700565b61462f6020830184613a6a565b9392505050565b7f4f6e6c792072657669657765722063616e2063616c6c00000000000000000000600082015250565b600061466c601683613eb6565b915061467782614636565b602082019050919050565b6000602082019050818103600083015261469b8161465f565b9050919050565b7f7461736b4944206f722062617463685461736b4944206e6f7420666f756e6400600082015250565b60006146d8601f83613eb6565b91506146e3826146a2565b602082019050919050565b60006020820190508181036000830152614707816146cb565b9050919050565b6000614719826132ad565b9150614724836132ad565b9250828202614732816132ad565b91508282048414831517614749576147486141fe565b5b5092915050565b7f4e487b7100000000000000000000000000000000000000000000000000000000600052601260045260246000fd5b600061478a826132ad565b9150614795836132ad565b9250826147a5576147a4614750565b5b828204905092915050565b60006060820190506147c56000830186613700565b6147d26020830185613766565b6147df6040830184613700565b949350505050565b7f4e487b7100000000000000000000000000000000000000000000000000000000600052603260045260246000fd5b6000614821826132ad565b915061482c836132ad565b9250828201905080821115614844576148436141fe565b5b92915050565b7f4f6e6c792063616c6c2062792042617463685461736b566f74696e6700000000600082015250565b6000614880601c83613eb6565b915061488b8261484a565b602082019050919050565b600060208201905081810360008301526148af81614873565b9050919050565b7f4572726f723a20496e76616c6964204261746368205461736b20537461746500600082015250565b60006148ec601f83613eb6565b91506148f7826148b6565b602082019050919050565b6000602082019050818103600083015261491b816148df565b9050919050565b6000606082019050818103600083015261493c8186613680565b905061494b6020830185613700565b6149586040830184613700565b949350505050565b7f4f6e6c792063616c6c206279205461736b41756374696f6e0000000000000000600082015250565b6000614996601883613eb6565b91506149a182614960565b602082019050919050565b600060208201905081810360008301526149c581614989565b9050919050565b7f4f776e61626c653a206e6577206f776e657220697320746865207a65726f206160008201527f6464726573730000000000000000000000000000000000000000000000000000602082015250565b6000614a28602683613eb6565b9150614a33826149cc565b604082019050919050565b60006020820190508181036000830152614a5781614a1b565b9050919050565b7f4f776e61626c653a2063616c6c6572206973206e6f7420746865206f776e6572600082015250565b6000614a94602083613eb6565b9150614a9f82614a5e565b602082019050919050565b60006020820190508181036000830152614ac381614a87565b9050919050565b600081519050919050565b60005b83811015614af3578082015181840152602081019050614ad8565b60008484015250505050565b6000614b0a82614aca565b614b148185613eb6565b9350614b24818560208601614ad5565b614b2d81613c6d565b840191505092915050565b60006040820190508181036000830152614b528185614aff565b9050614b616020830184613700565b939250505056fea26469706673582212209d5004542952ecd5f5c9c6e82cdc266b924ea3a49eb099d172d812c26071112164736f6c63430008110033",
  "linkReferences": {},
  "deployedLinkReferences": {}
}