{
  "_format": "hh-sol-artifact-1",
  "contractName": "TaskManager",
  "sourceName": "contracts/TaskManager.sol",
  "abi": [
    {
      "anonymous": false,
      "inputs": [
        {
          "indexed": true,
          "internalType": "address",
          "name": "previousOwner",
          "type": "address"
        },
        {
          "indexed": true,
          "internalType": "address",
          "name": "newOwner",
          "type": "address"
        }
      ],
      "name": "OwnershipTransferred",
      "type": "event"
    },
    {
      "inputs": [
        {
          "components": [
            {
              "internalType": "uint256",
              "name": "taskId",
              "type": "uint256"
            },
            {
              "internalType": "uint256",
              "name": "point",
              "type": "uint256"
            },
            {
              "internalType": "uint256",
              "name": "reward",
              "type": "uint256"
            },
            {
              "internalType": "uint256",
              "name": "minReward",
              "type": "uint256"
            },
            {
              "internalType": "address",
              "name": "reporter",
              "type": "address"
            },
            {
              "internalType": "address",
              "name": "doer",
              "type": "address"
            },
            {
              "internalType": "address",
              "name": "reviewer",
              "type": "address"
            },
            {
              "internalType": "enum ITaskAuction.TASK_STATE",
              "name": "taskState",
              "type": "uint8"
            },
            {
              "internalType": "uint256",
              "name": "lowestBidAmount",
              "type": "uint256"
            },
            {
              "internalType": "address",
              "name": "lowestBidder",
              "type": "address"
            },
            {
              "internalType": "uint256",
              "name": "duration",
              "type": "uint256"
            },
            {
              "internalType": "uint256",
              "name": "startTime",
              "type": "uint256"
            }
          ],
          "internalType": "struct ITaskAuction.AuctionTask",
          "name": "doneAuctionTask",
          "type": "tuple"
        }
      ],
      "name": "assignTask",
      "outputs": [],
      "stateMutability": "nonpayable",
      "type": "function"
    },
    {
      "inputs": [],
      "name": "batchTaskCount",
      "outputs": [
        {
          "internalType": "uint256",
          "name": "",
          "type": "uint256"
        }
      ],
      "stateMutability": "view",
      "type": "function"
    },
    {
      "inputs": [],
      "name": "batchTaskVoting",
      "outputs": [
        {
          "internalType": "contract IBatchTaskVoting",
          "name": "",
          "type": "address"
        }
      ],
      "stateMutability": "view",
      "type": "function"
    },
    {
      "inputs": [
        {
          "internalType": "uint256",
          "name": "",
          "type": "uint256"
        }
      ],
      "name": "batchTasks",
      "outputs": [
        {
          "internalType": "uint256",
          "name": "batchTaskId",
          "type": "uint256"
        },
        {
          "internalType": "enum ITaskManager.BATCH_TASK_STATE",
          "name": "batchTaskState",
          "type": "uint8"
        }
      ],
      "stateMutability": "view",
      "type": "function"
    },
    {
      "inputs": [],
      "name": "creditScore",
      "outputs": [
        {
          "internalType": "contract ICreditScore",
          "name": "",
          "type": "address"
        }
      ],
      "stateMutability": "view",
      "type": "function"
    },
    {
      "inputs": [
        {
          "internalType": "uint256",
          "name": "_pollID",
          "type": "uint256"
        }
      ],
      "name": "getAllBatchTaskByPollID",
      "outputs": [
        {
          "components": [
            {
              "internalType": "uint256",
              "name": "batchTaskId",
              "type": "uint256"
            },
            {
              "internalType": "uint256[]",
              "name": "taskIds",
              "type": "uint256[]"
            },
            {
              "internalType": "enum ITaskManager.BATCH_TASK_STATE",
              "name": "batchTaskState",
              "type": "uint8"
            }
          ],
          "internalType": "struct ITaskManager.BatchTask[]",
          "name": "",
          "type": "tuple[]"
        }
      ],
      "stateMutability": "view",
      "type": "function"
    },
    {
      "inputs": [],
      "name": "getAllPoll",
      "outputs": [
        {
          "components": [
            {
              "internalType": "uint256",
              "name": "pollId",
              "type": "uint256"
            },
            {
              "internalType": "address",
              "name": "pollOwner",
              "type": "address"
            },
            {
              "internalType": "uint256[]",
              "name": "batchTaskIds",
              "type": "uint256[]"
            }
          ],
          "internalType": "struct ITaskManager.Poll[]",
          "name": "",
          "type": "tuple[]"
        }
      ],
      "stateMutability": "view",
      "type": "function"
    },
    {
      "inputs": [
        {
          "internalType": "uint256",
          "name": "_pollId",
          "type": "uint256"
        }
      ],
      "name": "initBatchTask",
      "outputs": [],
      "stateMutability": "nonpayable",
      "type": "function"
    },
    {
      "inputs": [
        {
          "internalType": "uint256",
          "name": "_batchTaskId",
          "type": "uint256"
        }
      ],
      "name": "initBatchTaskAuction",
      "outputs": [],
      "stateMutability": "nonpayable",
      "type": "function"
    },
    {
      "inputs": [
        {
          "internalType": "address",
          "name": "_pollOwner",
          "type": "address"
        }
      ],
      "name": "initPoll",
      "outputs": [],
      "stateMutability": "nonpayable",
      "type": "function"
    },
    {
      "inputs": [
        {
          "internalType": "uint256",
          "name": "_batchTaskId",
          "type": "uint256"
        },
        {
          "internalType": "uint256",
          "name": "_point",
          "type": "uint256"
        },
        {
          "internalType": "uint256",
          "name": "_reward",
          "type": "uint256"
        },
        {
          "internalType": "uint256",
          "name": "_minReward",
          "type": "uint256"
        },
        {
          "internalType": "address",
          "name": "_reporter",
          "type": "address"
        },
        {
          "internalType": "address",
          "name": "_reviewer",
          "type": "address"
        }
      ],
      "name": "initTask",
      "outputs": [],
      "stateMutability": "nonpayable",
      "type": "function"
    },
    {
      "inputs": [
        {
          "internalType": "uint256",
          "name": "_batchTaskID",
          "type": "uint256"
        },
        {
          "internalType": "uint256",
          "name": "_auctionDuration",
          "type": "uint256"
        }
      ],
      "name": "openBatchTaskForAuction",
      "outputs": [],
      "stateMutability": "nonpayable",
      "type": "function"
    },
    {
      "inputs": [
        {
          "internalType": "uint256",
          "name": "_pollId",
          "type": "uint256"
        },
        {
          "internalType": "uint256",
          "name": "_voteDuration",
          "type": "uint256"
        }
      ],
      "name": "openPollForVote",
      "outputs": [],
      "stateMutability": "nonpayable",
      "type": "function"
    },
    {
      "inputs": [],
      "name": "owner",
      "outputs": [
        {
          "internalType": "address",
          "name": "",
          "type": "address"
        }
      ],
      "stateMutability": "view",
      "type": "function"
    },
    {
      "inputs": [],
      "name": "pollCount",
      "outputs": [
        {
          "internalType": "uint256",
          "name": "",
          "type": "uint256"
        }
      ],
      "stateMutability": "view",
      "type": "function"
    },
    {
      "inputs": [
        {
          "internalType": "uint256",
          "name": "",
          "type": "uint256"
        }
      ],
      "name": "polls",
      "outputs": [
        {
          "internalType": "uint256",
          "name": "pollId",
          "type": "uint256"
        },
        {
          "internalType": "address",
          "name": "pollOwner",
          "type": "address"
        }
      ],
      "stateMutability": "view",
      "type": "function"
    },
    {
      "inputs": [
        {
          "internalType": "uint256",
          "name": "_taskId",
          "type": "uint256"
        }
      ],
      "name": "receiveTask",
      "outputs": [],
      "stateMutability": "payable",
      "type": "function"
    },
    {
      "inputs": [],
      "name": "renounceOwnership",
      "outputs": [],
      "stateMutability": "nonpayable",
      "type": "function"
    },
    {
      "inputs": [
        {
          "internalType": "address",
          "name": "_batchTaskVotingAddress",
          "type": "address"
        }
      ],
      "name": "setBatchTaskVoting",
      "outputs": [],
      "stateMutability": "nonpayable",
      "type": "function"
    },
    {
      "inputs": [
        {
          "internalType": "address",
          "name": "_creditScoreAddress",
          "type": "address"
        }
      ],
      "name": "setCreditScore",
      "outputs": [],
      "stateMutability": "nonpayable",
      "type": "function"
    },
    {
      "inputs": [
        {
          "internalType": "address",
          "name": "_taskAuctionAddress",
          "type": "address"
        }
      ],
      "name": "setTaskAuction",
      "outputs": [],
      "stateMutability": "nonpayable",
      "type": "function"
    },
    {
      "inputs": [
        {
          "internalType": "uint256",
          "name": "_taskId",
          "type": "uint256"
        },
        {
          "internalType": "uint256",
          "name": "percentageDone",
          "type": "uint256"
        }
      ],
      "name": "submitReview",
      "outputs": [],
      "stateMutability": "nonpayable",
      "type": "function"
    },
    {
      "inputs": [
        {
          "internalType": "uint256",
          "name": "_taskId",
          "type": "uint256"
        }
      ],
      "name": "submitTaskResult",
      "outputs": [],
      "stateMutability": "nonpayable",
      "type": "function"
    },
    {
      "inputs": [],
      "name": "taskAuction",
      "outputs": [
        {
          "internalType": "contract ITaskAuction",
          "name": "",
          "type": "address"
        }
      ],
      "stateMutability": "view",
      "type": "function"
    },
    {
      "inputs": [],
      "name": "taskCount",
      "outputs": [
        {
          "internalType": "uint256",
          "name": "",
          "type": "uint256"
        }
      ],
      "stateMutability": "view",
      "type": "function"
    },
    {
      "inputs": [
        {
          "internalType": "uint256",
          "name": "",
          "type": "uint256"
        }
      ],
      "name": "tasks",
      "outputs": [
        {
          "internalType": "uint256",
          "name": "taskId",
          "type": "uint256"
        },
        {
          "internalType": "uint256",
          "name": "point",
          "type": "uint256"
        },
        {
          "internalType": "uint256",
          "name": "reward",
          "type": "uint256"
        },
        {
          "internalType": "uint256",
          "name": "minReward",
          "type": "uint256"
        },
        {
          "internalType": "address",
          "name": "reporter",
          "type": "address"
        },
        {
          "internalType": "address",
          "name": "doer",
          "type": "address"
        },
        {
          "internalType": "address",
          "name": "reviewer",
          "type": "address"
        },
        {
          "internalType": "uint256",
          "name": "timeDoerReceive",
          "type": "uint256"
        },
        {
          "internalType": "enum ITaskManager.TASK_STATE",
          "name": "taskState",
          "type": "uint8"
        }
      ],
      "stateMutability": "view",
      "type": "function"
    },
    {
      "inputs": [
        {
          "internalType": "address",
          "name": "newOwner",
          "type": "address"
        }
      ],
      "name": "transferOwnership",
      "outputs": [],
      "stateMutability": "nonpayable",
      "type": "function"
    },
    {
      "inputs": [
        {
          "internalType": "uint256",
          "name": "_taskId",
          "type": "uint256"
        },
        {
          "internalType": "uint256",
          "name": "_newPoint",
          "type": "uint256"
        }
      ],
      "name": "updateTask",
      "outputs": [],
      "stateMutability": "nonpayable",
      "type": "function"
    }
  ],
  "bytecode": "0x60806040523480156200001157600080fd5b5062000032620000266200003860201b60201c565b6200004060201b60201c565b62000104565b600033905090565b60008060009054906101000a900473ffffffffffffffffffffffffffffffffffffffff169050816000806101000a81548173ffffffffffffffffffffffffffffffffffffffff021916908373ffffffffffffffffffffffffffffffffffffffff1602179055508173ffffffffffffffffffffffffffffffffffffffff168173ffffffffffffffffffffffffffffffffffffffff167f8be0079c531659141344cd1fd0a4f28419497f9722a3daafe3b4186f6b6457e060405160405180910390a35050565b61369e80620001146000396000f3fe6080604052600436106101b75760003560e01c80638d977672116100ec578063b8e0f49b1161008a578063e08e2ea311610064578063e08e2ea3146105ca578063f2fde38b146105f3578063f535d1171461061c578063fd3a54511461065a576101b7565b8063b8e0f49b14610546578063c709c1f114610562578063dbe2728e1461058d576101b7565b80639844f215116100c65780639844f215146104895780639acea8d3146104b4578063ac2f0074146104dd578063b6cb58a51461051b576101b7565b80638d977672146103ee5780638da5cb5b146104335780639207891d1461045e576101b7565b80636ef2d0a311610159578063785faee411610133578063785faee414610346578063793a4bbd1461036f57806385a20cf9146103985780638d93fc0a146103c3576101b7565b80636ef2d0a3146102dd5780636f2a406814610306578063715018a61461032f576101b7565b8063435fa77c11610195578063435fa77c1461023957806348fb1f011461026257806368e123421461028b5780636edbe3a3146102b4576101b7565b80631861b90c146101bc5780632ed64cbc146101e557806339da31521461020e575b600080fd5b3480156101c857600080fd5b506101e360048036038101906101de919061241b565b610683565b005b3480156101f157600080fd5b5061020c60048036038101906102079190612448565b610762565b005b34801561021a57600080fd5b506102236108d0565b6040516102309190612507565b60405180910390f35b34801561024557600080fd5b50610260600480360381019061025b9190612560565b6108f6565b005b34801561026e57600080fd5b5061028960048036038101906102849190612448565b610942565b005b34801561029757600080fd5b506102b260048036038101906102ad9190612560565b610bee565b005b3480156102c057600080fd5b506102db60048036038101906102d6919061258d565b610c3a565b005b3480156102e957600080fd5b5061030460048036038101906102ff91906127f2565b610e8d565b005b34801561031257600080fd5b5061032d6004803603810190610328919061241b565b610f53565b005b34801561033b57600080fd5b5061034461111f565b005b34801561035257600080fd5b5061036d60048036038101906103689190612560565b611133565b005b34801561037b57600080fd5b5061039660048036038101906103919190612448565b6112be565b005b3480156103a457600080fd5b506103ad611602565b6040516103ba919061282f565b60405180910390f35b3480156103cf57600080fd5b506103d8611608565b6040516103e5919061286b565b60405180910390f35b3480156103fa57600080fd5b506104156004803603810190610410919061241b565b61162e565b60405161042a9998979695949392919061290c565b60405180910390f35b34801561043f57600080fd5b506104486116f9565b6040516104559190612999565b60405180910390f35b34801561046a57600080fd5b50610473611722565b604051610480919061282f565b60405180910390f35b34801561049557600080fd5b5061049e611728565b6040516104ab9190612b93565b60405180910390f35b3480156104c057600080fd5b506104db60048036038101906104d6919061241b565b6118ac565b005b3480156104e957600080fd5b5061050460048036038101906104ff919061241b565b6118ee565b604051610512929190612bb5565b60405180910390f35b34801561052757600080fd5b50610530611942565b60405161053d919061282f565b60405180910390f35b610560600480360381019061055b919061241b565b611948565b005b34801561056e57600080fd5b50610577611c15565b6040516105849190612bff565b60405180910390f35b34801561059957600080fd5b506105b460048036038101906105af919061241b565b611c3b565b6040516105c19190612d74565b60405180910390f35b3480156105d657600080fd5b506105f160048036038101906105ec9190612448565b611dfa565b005b3480156105ff57600080fd5b5061061a60048036038101906106159190612560565b612008565b005b34801561062857600080fd5b50610643600480360381019061063e919061241b565b61208b565b604051610651929190612da5565b60405180910390f35b34801561066657600080fd5b50610681600480360381019061067c9190612560565b6120cc565b005b61068b612262565b6005600081548092919061069e90612dfd565b919050555060055481600001818152505080600c600060055481526020019081526020016000206000820151816000015560208201518160010190805190602001906106eb929190612295565b5060408201518160020160006101000a81548160ff0219169083600181111561071757610716612895565b5b0217905550905050600b600083815260200190815260200160002060020160055490806001815401808255809150506001900390600052602060002001600090919091909150555050565b60005b600b6000848152602001908152602001600020600201805490508110156108cb576000600c6000600b600087815260200190815260200160002060020184815481106107b4576107b3612e45565b5b9060005260206000200154815260200190815260200160002060020160006101000a81548160ff021916908360018111156107f2576107f1612895565b5b0217905550600260009054906101000a900473ffffffffffffffffffffffffffffffffffffffff1673ffffffffffffffffffffffffffffffffffffffff16636a2f38ed600b6000868152602001908152602001600020600201838154811061085d5761085c612e45565b5b9060005260206000200154846040518363ffffffff1660e01b8152600401610886929190612e74565b600060405180830381600087803b1580156108a057600080fd5b505af11580156108b4573d6000803e3d6000fd5b5050505080806108c390612dfd565b915050610765565b505050565b600360009054906101000a900473ffffffffffffffffffffffffffffffffffffffff1681565b6108fe612118565b80600360006101000a81548173ffffffffffffffffffffffffffffffffffffffff021916908373ffffffffffffffffffffffffffffffffffffffff16021790555050565b60028281600481111561095857610957612895565b5b600a600083815260200190815260200160002060080160009054906101000a900460ff16600481111561098e5761098d612895565b5b146109ce576040517f08c379a00000000000000000000000000000000000000000000000000000000081526004016109c590612efa565b60405180910390fd5b600a600085815260200190815260200160002060060160009054906101000a900473ffffffffffffffffffffffffffffffffffffffff1673ffffffffffffffffffffffffffffffffffffffff163373ffffffffffffffffffffffffffffffffffffffff161480610a9f5750600a600085815260200190815260200160002060050160009054906101000a900473ffffffffffffffffffffffffffffffffffffffff1673ffffffffffffffffffffffffffffffffffffffff163373ffffffffffffffffffffffffffffffffffffffff16145b610ade576040517f08c379a0000000000000000000000000000000000000000000000000000000008152600401610ad590612f66565b60405180910390fd5b600a600085815260200190815260200160002060060160009054906101000a900473ffffffffffffffffffffffffffffffffffffffff1673ffffffffffffffffffffffffffffffffffffffff163373ffffffffffffffffffffffffffffffffffffffff1603610b635782600a6000868152602001908152602001600020600101819055505b600a600085815260200190815260200160002060050160009054906101000a900473ffffffffffffffffffffffffffffffffffffffff1673ffffffffffffffffffffffffffffffffffffffff163373ffffffffffffffffffffffffffffffffffffffff1603610be85782600a6000868152602001908152602001600020600101819055505b50505050565b610bf6612118565b80600160006101000a81548173ffffffffffffffffffffffffffffffffffffffff021916908373ffffffffffffffffffffffffffffffffffffffff16021790555050565b610c426122e2565b60066000815480929190610c5590612dfd565b919050555060065481600001818152505085816020018181525050848160400181815250508381606001818152505082816080019073ffffffffffffffffffffffffffffffffffffffff16908173ffffffffffffffffffffffffffffffffffffffff1681525050818160c0019073ffffffffffffffffffffffffffffffffffffffff16908173ffffffffffffffffffffffffffffffffffffffff1681525050600c6000888152602001908152602001600020600101600654908060018154018082558091505060019003906000526020600020016000909190919091505580600a600060065481526020019081526020016000206000820151816000015560208201518160010155604082015181600201556060820151816003015560808201518160040160006101000a81548173ffffffffffffffffffffffffffffffffffffffff021916908373ffffffffffffffffffffffffffffffffffffffff16021790555060a08201518160050160006101000a81548173ffffffffffffffffffffffffffffffffffffffff021916908373ffffffffffffffffffffffffffffffffffffffff16021790555060c08201518160060160006101000a81548173ffffffffffffffffffffffffffffffffffffffff021916908373ffffffffffffffffffffffffffffffffffffffff16021790555060e082015181600701556101008201518160080160006101000a81548160ff02191690836004811115610e7c57610e7b612895565b5b021790555090505050505050505050565b8060400151600a600083600001518152602001908152602001600020600201819055508060a00151600a60008360000151815260200190815260200160002060050160006101000a81548173ffffffffffffffffffffffffffffffffffffffff021916908373ffffffffffffffffffffffffffffffffffffffff1602179055506001600a60008360000151815260200190815260200160002060080160006101000a81548160ff02191690836004811115610f4b57610f4a612895565b5b021790555050565b600281816004811115610f6957610f68612895565b5b600a600083815260200190815260200160002060080160009054906101000a900460ff166004811115610f9f57610f9e612895565b5b14610fdf576040517f08c379a0000000000000000000000000000000000000000000000000000000008152600401610fd690612efa565b60405180910390fd5b82600a60008581526020019081526020016000206000015414611037576040517f08c379a000000000000000000000000000000000000000000000000000000000815260040161102e90612fd2565b60405180910390fd5b600a600084815260200190815260200160002060050160009054906101000a900473ffffffffffffffffffffffffffffffffffffffff1673ffffffffffffffffffffffffffffffffffffffff163373ffffffffffffffffffffffffffffffffffffffff16146110db576040517f08c379a00000000000000000000000000000000000000000000000000000000081526004016110d29061303e565b60405180910390fd5b6003600a600085815260200190815260200160002060080160006101000a81548160ff0219169083600481111561111557611114612895565b5b0217905550505050565b611127612118565b6111316000612196565b565b61113b612382565b6004600081548092919061114e90612dfd565b919050555060045481600001818152505081816020019073ffffffffffffffffffffffffffffffffffffffff16908173ffffffffffffffffffffffffffffffffffffffff168152505080600b600060045481526020019081526020016000206000820151816000015560208201518160010160006101000a81548173ffffffffffffffffffffffffffffffffffffffff021916908373ffffffffffffffffffffffffffffffffffffffff160217905550604082015181600201908051906020019061121a929190612295565b5090505060088190806001815401808255809150506001900390600052602060002090600302016000909190919091506000820151816000015560208201518160010160006101000a81548173ffffffffffffffffffffffffffffffffffffffff021916908373ffffffffffffffffffffffffffffffffffffffff16021790555060408201518160020190805190602001906112b7929190612295565b5050505050565b6003828160048111156112d4576112d3612895565b5b600a600083815260200190815260200160002060080160009054906101000a900460ff16600481111561130a57611309612895565b5b1461134a576040517f08c379a000000000000000000000000000000000000000000000000000000000815260040161134190612efa565b60405180910390fd5b600a600085815260200190815260200160002060060160009054906101000a900473ffffffffffffffffffffffffffffffffffffffff1673ffffffffffffffffffffffffffffffffffffffff163373ffffffffffffffffffffffffffffffffffffffff16146113ee576040517f08c379a00000000000000000000000000000000000000000000000000000000081526004016113e5906130aa565b60405180910390fd5b83600a60008681526020019081526020016000206000015414611446576040517f08c379a000000000000000000000000000000000000000000000000000000000815260040161143d90613116565b60405180910390fd5b6000606484600a60008881526020019081526020016000206002015461146c9190613136565b61147691906131a7565b9050600a600086815260200190815260200160002060050160009054906101000a900473ffffffffffffffffffffffffffffffffffffffff1673ffffffffffffffffffffffffffffffffffffffff166108fc829081150290604051600060405180830381858888f193505050501580156114f4573d6000803e3d6000fd5b50600360009054906101000a900473ffffffffffffffffffffffffffffffffffffffff1673ffffffffffffffffffffffffffffffffffffffff16635873074686600a600089815260200190815260200160002060050160009054906101000a900473ffffffffffffffffffffffffffffffffffffffff16876040518463ffffffff1660e01b815260040161158a939291906131d8565b600060405180830381600087803b1580156115a457600080fd5b505af11580156115b8573d6000803e3d6000fd5b505050506004600a600087815260200190815260200160002060080160006101000a81548160ff021916908360048111156115f6576115f5612895565b5b02179055505050505050565b60055481565b600160009054906101000a900473ffffffffffffffffffffffffffffffffffffffff1681565b6007818154811061163e57600080fd5b90600052602060002090600902016000915090508060000154908060010154908060020154908060030154908060040160009054906101000a900473ffffffffffffffffffffffffffffffffffffffff16908060050160009054906101000a900473ffffffffffffffffffffffffffffffffffffffff16908060060160009054906101000a900473ffffffffffffffffffffffffffffffffffffffff16908060070154908060080160009054906101000a900460ff16905089565b60008060009054906101000a900473ffffffffffffffffffffffffffffffffffffffff16905090565b60045481565b6060600060045467ffffffffffffffff81111561174857611747612630565b5b60405190808252806020026020018201604052801561178157816020015b61176e612382565b8152602001906001900390816117665790505b50905060005b6004548110156118a457600b60006001836117a2919061320f565b8152602001908152602001600020604051806060016040529081600082015481526020016001820160009054906101000a900473ffffffffffffffffffffffffffffffffffffffff1673ffffffffffffffffffffffffffffffffffffffff1673ffffffffffffffffffffffffffffffffffffffff1681526020016002820180548060200260200160405190810160405280929190818152602001828054801561186a57602002820191906000526020600020905b815481526020019060010190808311611856575b50505050508152505082828151811061188657611885612e45565b5b6020026020010181905250808061189c90612dfd565b915050611787565b508091505090565b6001600c600083815260200190815260200160002060020160006101000a81548160ff021916908360018111156118e6576118e5612895565b5b021790555050565b600881815481106118fe57600080fd5b90600052602060002090600302016000915090508060000154908060010160009054906101000a900473ffffffffffffffffffffffffffffffffffffffff16905082565b60065481565b60018181600481111561195e5761195d612895565b5b600a600083815260200190815260200160002060080160009054906101000a900460ff16600481111561199457611993612895565b5b146119d4576040517f08c379a00000000000000000000000000000000000000000000000000000000081526004016119cb90612efa565b60405180910390fd5b600a600084815260200190815260200160002060050160009054906101000a900473ffffffffffffffffffffffffffffffffffffffff1673ffffffffffffffffffffffffffffffffffffffff163373ffffffffffffffffffffffffffffffffffffffff1614611a78576040517f08c379a0000000000000000000000000000000000000000000000000000000008152600401611a6f9061303e565b60405180910390fd5b82600a60008581526020019081526020016000206000015414611ad0576040517f08c379a0000000000000000000000000000000000000000000000000000000008152600401611ac790612fd2565b60405180910390fd5b6000600360009054906101000a900473ffffffffffffffffffffffffffffffffffffffff1673ffffffffffffffffffffffffffffffffffffffff16635ebf340e336040518263ffffffff1660e01b8152600401611b2d9190612999565b6020604051808303816000875af1158015611b4c573d6000803e3d6000fd5b505050506040513d601f19601f82011682018060405250810190611b709190613258565b905080341015611bb5576040517f08c379a0000000000000000000000000000000000000000000000000000000008152600401611bac906132f7565b60405180910390fd5b6002600a600086815260200190815260200160002060080160006101000a81548160ff02191690836004811115611bef57611bee612895565b5b021790555042600a60008681526020019081526020016000206007018190555050505050565b600260009054906101000a900473ffffffffffffffffffffffffffffffffffffffff1681565b60606000600b60008481526020019081526020016000206002018054905067ffffffffffffffff811115611c7257611c71612630565b5b604051908082528060200260200182016040528015611cab57816020015b611c98612262565b815260200190600190039081611c905790505b50905060005b600b600085815260200190815260200160002060020180549050811015611df057600c6000600b60008781526020019081526020016000206002018381548110611cfe57611cfd612e45565b5b906000526020600020015481526020019081526020016000206040518060600160405290816000820154815260200160018201805480602002602001604051908101604052809291908181526020018280548015611d7b57602002820191906000526020600020905b815481526020019060010190808311611d67575b505050505081526020016002820160009054906101000a900460ff166001811115611da957611da8612895565b5b6001811115611dbb57611dba612895565b5b81525050828281518110611dd257611dd1612e45565b5b60200260200101819052508080611de890612dfd565b915050611cb1565b5080915050919050565b600182816001811115611e1057611e0f612895565b5b600c600083815260200190815260200160002060020160009054906101000a900460ff166001811115611e4657611e45612895565b5b14611e86576040517f08c379a0000000000000000000000000000000000000000000000000000000008152600401611e7d90613363565b60405180910390fd5b60005b600c600086815260200190815260200160002060010180549050811015612001576000600a6000600c60008981526020019081526020016000206001018481548110611ed857611ed7612e45565b5b9060005260206000200154815260200190815260200160002060080160006101000a81548160ff02191690836004811115611f1657611f15612895565b5b0217905550600160009054906101000a900473ffffffffffffffffffffffffffffffffffffffff1673ffffffffffffffffffffffffffffffffffffffff1663b1b9e53b600a6000600c60008a81526020019081526020016000206001018581548110611f8557611f84612e45565b5b90600052602060002001548152602001908152602001600020866040518363ffffffff1660e01b8152600401611fbc92919061353f565b600060405180830381600087803b158015611fd657600080fd5b505af1158015611fea573d6000803e3d6000fd5b505050508080611ff990612dfd565b915050611e89565b5050505050565b612010612118565b600073ffffffffffffffffffffffffffffffffffffffff168173ffffffffffffffffffffffffffffffffffffffff160361207f576040517f08c379a0000000000000000000000000000000000000000000000000000000008152600401612076906135dc565b60405180910390fd5b61208881612196565b50565b6009818154811061209b57600080fd5b90600052602060002090600302016000915090508060000154908060020160009054906101000a900460ff16905082565b6120d4612118565b80600260006101000a81548173ffffffffffffffffffffffffffffffffffffffff021916908373ffffffffffffffffffffffffffffffffffffffff16021790555050565b61212061225a565b73ffffffffffffffffffffffffffffffffffffffff1661213e6116f9565b73ffffffffffffffffffffffffffffffffffffffff1614612194576040517f08c379a000000000000000000000000000000000000000000000000000000000815260040161218b90613648565b60405180910390fd5b565b60008060009054906101000a900473ffffffffffffffffffffffffffffffffffffffff169050816000806101000a81548173ffffffffffffffffffffffffffffffffffffffff021916908373ffffffffffffffffffffffffffffffffffffffff1602179055508173ffffffffffffffffffffffffffffffffffffffff168173ffffffffffffffffffffffffffffffffffffffff167f8be0079c531659141344cd1fd0a4f28419497f9722a3daafe3b4186f6b6457e060405160405180910390a35050565b600033905090565b604051806060016040528060008152602001606081526020016000600181111561228f5761228e612895565b5b81525090565b8280548282559060005260206000209081019282156122d1579160200282015b828111156122d05782518255916020019190600101906122b5565b5b5090506122de91906123b9565b5090565b60405180610120016040528060008152602001600081526020016000815260200160008152602001600073ffffffffffffffffffffffffffffffffffffffff168152602001600073ffffffffffffffffffffffffffffffffffffffff168152602001600073ffffffffffffffffffffffffffffffffffffffff168152602001600081526020016000600481111561237c5761237b612895565b5b81525090565b604051806060016040528060008152602001600073ffffffffffffffffffffffffffffffffffffffff168152602001606081525090565b5b808211156123d25760008160009055506001016123ba565b5090565b6000604051905090565b600080fd5b6000819050919050565b6123f8816123e5565b811461240357600080fd5b50565b600081359050612415816123ef565b92915050565b600060208284031215612431576124306123e0565b5b600061243f84828501612406565b91505092915050565b6000806040838503121561245f5761245e6123e0565b5b600061246d85828601612406565b925050602061247e85828601612406565b9150509250929050565b600073ffffffffffffffffffffffffffffffffffffffff82169050919050565b6000819050919050565b60006124cd6124c86124c384612488565b6124a8565b612488565b9050919050565b60006124df826124b2565b9050919050565b60006124f1826124d4565b9050919050565b612501816124e6565b82525050565b600060208201905061251c60008301846124f8565b92915050565b600061252d82612488565b9050919050565b61253d81612522565b811461254857600080fd5b50565b60008135905061255a81612534565b92915050565b600060208284031215612576576125756123e0565b5b60006125848482850161254b565b91505092915050565b60008060008060008060c087890312156125aa576125a96123e0565b5b60006125b889828a01612406565b96505060206125c989828a01612406565b95505060406125da89828a01612406565b94505060606125eb89828a01612406565b93505060806125fc89828a0161254b565b92505060a061260d89828a0161254b565b9150509295509295509295565b600080fd5b6000601f19601f8301169050919050565b7f4e487b7100000000000000000000000000000000000000000000000000000000600052604160045260246000fd5b6126688261261f565b810181811067ffffffffffffffff8211171561268757612686612630565b5b80604052505050565b600061269a6123d6565b90506126a6828261265f565b919050565b600581106126b857600080fd5b50565b6000813590506126ca816126ab565b92915050565b600061018082840312156126e7576126e661261a565b5b6126f2610180612690565b9050600061270284828501612406565b600083015250602061271684828501612406565b602083015250604061272a84828501612406565b604083015250606061273e84828501612406565b60608301525060806127528482850161254b565b60808301525060a06127668482850161254b565b60a08301525060c061277a8482850161254b565b60c08301525060e061278e848285016126bb565b60e0830152506101006127a384828501612406565b610100830152506101206127b98482850161254b565b610120830152506101406127cf84828501612406565b610140830152506101606127e584828501612406565b6101608301525092915050565b60006101808284031215612809576128086123e0565b5b6000612817848285016126d0565b91505092915050565b612829816123e5565b82525050565b60006020820190506128446000830184612820565b92915050565b6000612855826124d4565b9050919050565b6128658161284a565b82525050565b6000602082019050612880600083018461285c565b92915050565b61288f81612522565b82525050565b7f4e487b7100000000000000000000000000000000000000000000000000000000600052602160045260246000fd5b600581106128d5576128d4612895565b5b50565b60008190506128e6826128c4565b919050565b60006128f6826128d8565b9050919050565b612906816128eb565b82525050565b600061012082019050612922600083018c612820565b61292f602083018b612820565b61293c604083018a612820565b6129496060830189612820565b6129566080830188612886565b61296360a0830187612886565b61297060c0830186612886565b61297d60e0830185612820565b61298b6101008301846128fd565b9a9950505050505050505050565b60006020820190506129ae6000830184612886565b92915050565b600081519050919050565b600082825260208201905092915050565b6000819050602082019050919050565b6129e9816123e5565b82525050565b6129f881612522565b82525050565b600081519050919050565b600082825260208201905092915050565b6000819050602082019050919050565b6000612a3683836129e0565b60208301905092915050565b6000602082019050919050565b6000612a5a826129fe565b612a648185612a09565b9350612a6f83612a1a565b8060005b83811015612aa0578151612a878882612a2a565b9750612a9283612a42565b925050600181019050612a73565b5085935050505092915050565b6000606083016000830151612ac560008601826129e0565b506020830151612ad860208601826129ef565b5060408301518482036040860152612af08282612a4f565b9150508091505092915050565b6000612b098383612aad565b905092915050565b6000602082019050919050565b6000612b29826129b4565b612b3381856129bf565b935083602082028501612b45856129d0565b8060005b85811015612b815784840389528151612b628582612afd565b9450612b6d83612b11565b925060208a01995050600181019050612b49565b50829750879550505050505092915050565b60006020820190508181036000830152612bad8184612b1e565b905092915050565b6000604082019050612bca6000830185612820565b612bd76020830184612886565b9392505050565b6000612be9826124d4565b9050919050565b612bf981612bde565b82525050565b6000602082019050612c146000830184612bf0565b92915050565b600081519050919050565b600082825260208201905092915050565b6000819050602082019050919050565b60028110612c5757612c56612895565b5b50565b6000819050612c6882612c46565b919050565b6000612c7882612c5a565b9050919050565b612c8881612c6d565b82525050565b6000606083016000830151612ca660008601826129e0565b5060208301518482036020860152612cbe8282612a4f565b9150506040830151612cd36040860182612c7f565b508091505092915050565b6000612cea8383612c8e565b905092915050565b6000602082019050919050565b6000612d0a82612c1a565b612d148185612c25565b935083602082028501612d2685612c36565b8060005b85811015612d625784840389528151612d438582612cde565b9450612d4e83612cf2565b925060208a01995050600181019050612d2a565b50829750879550505050505092915050565b60006020820190508181036000830152612d8e8184612cff565b905092915050565b612d9f81612c6d565b82525050565b6000604082019050612dba6000830185612820565b612dc76020830184612d96565b9392505050565b7f4e487b7100000000000000000000000000000000000000000000000000000000600052601160045260246000fd5b6000612e08826123e5565b91507fffffffffffffffffffffffffffffffffffffffffffffffffffffffffffffffff8203612e3a57612e39612dce565b5b600182019050919050565b7f4e487b7100000000000000000000000000000000000000000000000000000000600052603260045260246000fd5b6000604082019050612e896000830185612820565b612e966020830184612820565b9392505050565b600082825260208201905092915050565b7f4572726f723a20496e76616c6964205461736b20537461746500000000000000600082015250565b6000612ee4601983612e9d565b9150612eef82612eae565b602082019050919050565b60006020820190508181036000830152612f1381612ed7565b9050919050565b7f4f6e6c7920646f6572206f722072657669657765722063616e2063616c6c0000600082015250565b6000612f50601e83612e9d565b9150612f5b82612f1a565b602082019050919050565b60006020820190508181036000830152612f7f81612f43565b9050919050565b7f7461736b4944206e6f7420666f756e6400000000000000000000000000000000600082015250565b6000612fbc601083612e9d565b9150612fc782612f86565b602082019050919050565b60006020820190508181036000830152612feb81612faf565b9050919050565b7f4f6e6c7920646f65722063616e2063616c6c0000000000000000000000000000600082015250565b6000613028601283612e9d565b915061303382612ff2565b602082019050919050565b600060208201905081810360008301526130578161301b565b9050919050565b7f4f6e6c792072657669657765722063616e2063616c6c00000000000000000000600082015250565b6000613094601683612e9d565b915061309f8261305e565b602082019050919050565b600060208201905081810360008301526130c381613087565b9050919050565b7f7461736b4944206f722062617463685461736b4944206e6f7420666f756e6400600082015250565b6000613100601f83612e9d565b915061310b826130ca565b602082019050919050565b6000602082019050818103600083015261312f816130f3565b9050919050565b6000613141826123e5565b915061314c836123e5565b925082820261315a816123e5565b9150828204841483151761317157613170612dce565b5b5092915050565b7f4e487b7100000000000000000000000000000000000000000000000000000000600052601260045260246000fd5b60006131b2826123e5565b91506131bd836123e5565b9250826131cd576131cc613178565b5b828204905092915050565b60006060820190506131ed6000830186612820565b6131fa6020830185612886565b6132076040830184612820565b949350505050565b600061321a826123e5565b9150613225836123e5565b925082820190508082111561323d5761323c612dce565b5b92915050565b600081519050613252816123ef565b92915050565b60006020828403121561326e5761326d6123e0565b5b600061327c84828501613243565b91505092915050565b7f4e6f742070726f7669646520656e6f756768206d6f6e657920746f207265636560008201527f697665207461736b210000000000000000000000000000000000000000000000602082015250565b60006132e1602983612e9d565b91506132ec82613285565b604082019050919050565b60006020820190508181036000830152613310816132d4565b9050919050565b7f4572726f723a20496e76616c6964204261746368205461736b20537461746500600082015250565b600061334d601f83612e9d565b915061335882613317565b602082019050919050565b6000602082019050818103600083015261337c81613340565b9050919050565b60008160001c9050919050565b6000819050919050565b60006133ad6133a883613383565b613390565b9050919050565b600073ffffffffffffffffffffffffffffffffffffffff82169050919050565b60006133e76133e283613383565b6133b4565b9050919050565b600060ff82169050919050565b600061340e61340983613383565b6133ee565b9050919050565b61341e816128eb565b82525050565b6101208201600080830154905061343a8161339a565b61344760008601826129e0565b50600183015490506134588161339a565b61346560208601826129e0565b50600283015490506134768161339a565b61348360408601826129e0565b50600383015490506134948161339a565b6134a160608601826129e0565b50600483015490506134b2816133d4565b6134bf60808601826129ef565b50600583015490506134d0816133d4565b6134dd60a08601826129ef565b50600683015490506134ee816133d4565b6134fb60c08601826129ef565b506007830154905061350c8161339a565b61351960e08601826129e0565b506008830154905061352a816133fb565b613538610100860182613415565b5050505050565b6000610140820190506135556000830185613424565b613563610120830184612820565b9392505050565b7f4f776e61626c653a206e6577206f776e657220697320746865207a65726f206160008201527f6464726573730000000000000000000000000000000000000000000000000000602082015250565b60006135c6602683612e9d565b91506135d18261356a565b604082019050919050565b600060208201905081810360008301526135f5816135b9565b9050919050565b7f4f776e61626c653a2063616c6c6572206973206e6f7420746865206f776e6572600082015250565b6000613632602083612e9d565b915061363d826135fc565b602082019050919050565b6000602082019050818103600083015261366181613625565b905091905056fea2646970667358221220af5524f0ea5cff428730f35a44436868ba08c8e4e432226bdc5d3c124c30c6ec64736f6c63430008110033",
  "linkReferences": {},
  "deployedLinkReferences": {}
}