{
  "_format": "hh-sol-artifact-1",
  "contractName": "BatchTaskVoting",
  "sourceName": "contracts/BatchTaskVoting.sol",
  "abi": [
    {
      "anonymous": false,
      "inputs": [
        {
          "indexed": true,
          "internalType": "address",
          "name": "previousOwner",
          "type": "address"
        },
        {
          "indexed": true,
          "internalType": "address",
          "name": "newOwner",
          "type": "address"
        }
      ],
      "name": "OwnershipTransferred",
      "type": "event"
    },
    {
      "inputs": [
        {
          "internalType": "uint256",
          "name": "",
          "type": "uint256"
        }
      ],
      "name": "batchTasks",
      "outputs": [
        {
          "internalType": "uint256",
          "name": "batchTaskId",
          "type": "uint256"
        },
        {
          "internalType": "enum IBatchTaskVoting.BATCH_TASK_STATE",
          "name": "batchTaskState",
          "type": "uint8"
        },
        {
          "internalType": "uint256",
          "name": "totalVote",
          "type": "uint256"
        },
        {
          "internalType": "int256",
          "name": "result",
          "type": "int256"
        },
        {
          "internalType": "uint256",
          "name": "voteDuration",
          "type": "uint256"
        },
        {
          "internalType": "uint256",
          "name": "startTime",
          "type": "uint256"
        }
      ],
      "stateMutability": "view",
      "type": "function"
    },
    {
      "inputs": [],
      "name": "endVote",
      "outputs": [],
      "stateMutability": "nonpayable",
      "type": "function"
    },
    {
      "inputs": [
        {
          "internalType": "uint256",
          "name": "_batchTaskID",
          "type": "uint256"
        },
        {
          "internalType": "uint256",
          "name": "_voteDuration",
          "type": "uint256"
        }
      ],
      "name": "openForVote",
      "outputs": [],
      "stateMutability": "nonpayable",
      "type": "function"
    },
    {
      "inputs": [],
      "name": "owner",
      "outputs": [
        {
          "internalType": "address",
          "name": "",
          "type": "address"
        }
      ],
      "stateMutability": "view",
      "type": "function"
    },
    {
      "inputs": [],
      "name": "renounceOwnership",
      "outputs": [],
      "stateMutability": "nonpayable",
      "type": "function"
    },
    {
      "inputs": [
        {
          "internalType": "address",
          "name": "_taskManagerAddress",
          "type": "address"
        }
      ],
      "name": "setTaskManager",
      "outputs": [],
      "stateMutability": "nonpayable",
      "type": "function"
    },
    {
      "inputs": [],
      "name": "taskManager",
      "outputs": [
        {
          "internalType": "contract ITaskManager",
          "name": "",
          "type": "address"
        }
      ],
      "stateMutability": "view",
      "type": "function"
    },
    {
      "inputs": [
        {
          "internalType": "address",
          "name": "newOwner",
          "type": "address"
        }
      ],
      "name": "transferOwnership",
      "outputs": [],
      "stateMutability": "nonpayable",
      "type": "function"
    },
    {
      "inputs": [
        {
          "internalType": "uint256",
          "name": "_batchTaskID",
          "type": "uint256"
        },
        {
          "internalType": "bool",
          "name": "_choice",
          "type": "bool"
        }
      ],
      "name": "voteOnBatchTask",
      "outputs": [],
      "stateMutability": "nonpayable",
      "type": "function"
    }
  ],
  "bytecode": "0x608060405234801561001057600080fd5b5061002d61002261003260201b60201c565b61003a60201b60201c565b6100fe565b600033905090565b60008060009054906101000a900473ffffffffffffffffffffffffffffffffffffffff169050816000806101000a81548173ffffffffffffffffffffffffffffffffffffffff021916908373ffffffffffffffffffffffffffffffffffffffff1602179055508173ffffffffffffffffffffffffffffffffffffffff168173ffffffffffffffffffffffffffffffffffffffff167f8be0079c531659141344cd1fd0a4f28419497f9722a3daafe3b4186f6b6457e060405160405180910390a35050565b611a118061010d6000396000f3fe608060405234801561001057600080fd5b50600436106100935760003560e01c80638da5cb5b116100665780638da5cb5b146100f6578063a50a640e14610114578063b922394614610132578063f2fde38b1461013c578063f535d1171461015857610093565b8063327d0a60146100985780636a2f38ed146100b4578063715018a6146100d0578063855afe63146100da575b600080fd5b6100b260048036038101906100ad91906111ed565b61018d565b005b6100ce60048036038101906100c99190611250565b6101d9565b005b6100d8610370565b005b6100f460048036038101906100ef91906112c8565b610384565b005b6100fe610842565b60405161010b9190611317565b60405180910390f35b61011c61086b565b6040516101299190611391565b60405180910390f35b61013a610891565b005b610156600480360381019061015191906111ed565b610d57565b005b610172600480360381019061016d91906113ac565b610dda565b60405161018496959493929190611478565b60405180910390f35b610195610e33565b80600160006101000a81548173ffffffffffffffffffffffffffffffffffffffff021916908373ffffffffffffffffffffffffffffffffffffffff16021790555050565b606060006040518060e0016040528085815260200160006001811115610202576102016113e8565b5b8152602001600081526020016000815260200184815260200142815260200183815250905080600260008681526020019081526020016000206000820151816000015560208201518160010160006101000a81548160ff021916908360018111156102705761026f6113e8565b5b021790555060408201518160020155606082015181600301556080820151816004015560a0820151816005015560c08201518160060190805190602001906102b9929190611042565b5090505060048190806001815401808255809150506001900390600052602060002090600702016000909190919091506000820151816000015560208201518160010160006101000a81548160ff0219169083600181111561031e5761031d6113e8565b5b021790555060408201518160020155606082015181600301556080820151816004015560a0820151816005015560c0820151816006019080519060200190610367929190611042565b50505050505050565b610378610e33565b6103826000610eb1565b565b60008281600181111561039a576103996113e8565b5b6002600083815260200190815260200160002060010160009054906101000a900460ff1660018111156103d0576103cf6113e8565b5b14610410576040517f08c379a00000000000000000000000000000000000000000000000000000000081526004016104079061155c565b60405180910390fd5b60005b60048054905081101561083b5784600482815481106104355761043461157c565b5b9060005260206000209060070201600001540361082857600015156003600087815260200190815260200160002060003373ffffffffffffffffffffffffffffffffffffffff1673ffffffffffffffffffffffffffffffffffffffff16815260200190815260200160002060009054906101000a900460ff161515146104f0576040517f08c379a00000000000000000000000000000000000000000000000000000000081526004016104e79061161d565b60405180910390fd5b600481815481106105045761050361157c565b5b906000526020600020906007020160050154421015801561057a5750600481815481106105345761053361157c565b5b9060005260206000209060070201600401546004828154811061055a5761055961157c565b5b906000526020600020906007020160050154610576919061166c565b4211155b6105b9576040517f08c379a00000000000000000000000000000000000000000000000000000000081526004016105b0906116ec565b60405180910390fd5b83156105ff57600481815481106105d3576105d261157c565b5b906000526020600020906007020160030160008154809291906105f59061170c565b919050555061063b565b600481815481106106135761061261157c565b5b9060005260206000209060070201600301600081548092919061063590611754565b91905055505b6004818154811061064f5761064e61157c565b5b9060005260206000209060070201600601339080600181540180825580915050600190039060005260206000200160009091909190916101000a81548173ffffffffffffffffffffffffffffffffffffffff021916908373ffffffffffffffffffffffffffffffffffffffff160217905550600481815481106106d5576106d461157c565b5b906000526020600020906007020160020160008154809291906106f79061179c565b919050555060016003600087815260200190815260200160002060003373ffffffffffffffffffffffffffffffffffffffff1673ffffffffffffffffffffffffffffffffffffffff16815260200190815260200160002060006101000a81548160ff021916908315150217905550600481815481106107795761077861157c565b5b906000526020600020906007020160026000878152602001908152602001600020600082015481600001556001820160009054906101000a900460ff168160010160006101000a81548160ff021916908360018111156107dc576107db6113e8565b5b021790555060028201548160020155600382015481600301556004820154816004015560058201548160050155600682018160060190805461081f9291906110cc565b5090505061083b565b80806108339061179c565b915050610413565b5050505050565b60008060009054906101000a900473ffffffffffffffffffffffffffffffffffffffff16905090565b600160009054906101000a900473ffffffffffffffffffffffffffffffffffffffff1681565b600060048054905067ffffffffffffffff8111156108b2576108b16117e4565b5b6040519080825280602002602001820160405280156108eb57816020015b6108d861111e565b8152602001906001900390816108d05790505b50905060008060005b600480549050811015610b7a5760006001811115610915576109146113e8565b5b600482815481106109295761092861157c565b5b906000526020600020906007020160010160009054906101000a900460ff16600181111561095a576109596113e8565b5b1480156109bb575042600482815481106109775761097661157c565b5b9060005260206000209060070201600401546004838154811061099d5761099c61157c565b5b9060005260206000209060070201600501546109b9919061166c565b105b15610b67576001600482815481106109d6576109d561157c565b5b906000526020600020906007020160010160006101000a81548160ff02191690836001811115610a0957610a086113e8565b5b021790555060048181548110610a2257610a2161157c565b5b90600052602060002090600702016040518060e0016040529081600082015481526020016001820160009054906101000a900460ff166001811115610a6a57610a696113e8565b5b6001811115610a7c57610a7b6113e8565b5b81526020016002820154815260200160038201548152602001600482015481526020016005820154815260200160068201805480602002602001604051908101604052809291908181526020018280548015610b2d57602002820191906000526020600020905b8160009054906101000a900473ffffffffffffffffffffffffffffffffffffffff1673ffffffffffffffffffffffffffffffffffffffff1681526020019060010190808311610ae3575b505050505081525050848481518110610b4957610b4861157c565b5b60200260200101819052508280610b5f9061179c565b935050600191505b8080610b729061179c565b9150506108f4565b506001151581151503610d5157600083600081518110610b9d57610b9c61157c565b5b60200260200101516060015190506000600190505b8451811015610c165781858281518110610bcf57610bce61157c565b5b6020026020010151606001511315610c0357848181518110610bf457610bf361157c565b5b60200260200101516060015191505b8080610c0e9061179c565b915050610bb2565b50610c566040518060400160405280600381526020017f6d6178000000000000000000000000000000000000000000000000000000000081525082610f75565b60005b8451811015610d4a57848181518110610c7557610c7461157c565b5b6020026020010151606001518203610d3757600160009054906101000a900473ffffffffffffffffffffffffffffffffffffffff1673ffffffffffffffffffffffffffffffffffffffff16639acea8d3868381518110610cd857610cd761157c565b5b6020026020010151600001516040518263ffffffff1660e01b8152600401610d009190611813565b600060405180830381600087803b158015610d1a57600080fd5b505af1158015610d2e573d6000803e3d6000fd5b50505050610d4a565b8080610d429061179c565b915050610c59565b5050610d52565b5b505050565b610d5f610e33565b600073ffffffffffffffffffffffffffffffffffffffff168173ffffffffffffffffffffffffffffffffffffffff1603610dce576040517f08c379a0000000000000000000000000000000000000000000000000000000008152600401610dc5906118a0565b60405180910390fd5b610dd781610eb1565b50565b60048181548110610dea57600080fd5b90600052602060002090600702016000915090508060000154908060010160009054906101000a900460ff16908060020154908060030154908060040154908060050154905086565b610e3b611011565b73ffffffffffffffffffffffffffffffffffffffff16610e59610842565b73ffffffffffffffffffffffffffffffffffffffff1614610eaf576040517f08c379a0000000000000000000000000000000000000000000000000000000008152600401610ea69061190c565b60405180910390fd5b565b60008060009054906101000a900473ffffffffffffffffffffffffffffffffffffffff169050816000806101000a81548173ffffffffffffffffffffffffffffffffffffffff021916908373ffffffffffffffffffffffffffffffffffffffff1602179055508173ffffffffffffffffffffffffffffffffffffffff168173ffffffffffffffffffffffffffffffffffffffff167f8be0079c531659141344cd1fd0a4f28419497f9722a3daafe3b4186f6b6457e060405160405180910390a35050565b61100d8282604051602401610f8b9291906119ab565b6040516020818303038152906040527fb60e72cc000000000000000000000000000000000000000000000000000000007bffffffffffffffffffffffffffffffffffffffffffffffffffffffff19166020820180517bffffffffffffffffffffffffffffffffffffffffffffffffffffffff8381831617835250505050611019565b5050565b600033905090565b60008151905060006a636f6e736f6c652e6c6f679050602083016000808483855afa5050505050565b8280548282559060005260206000209081019282156110bb579160200282015b828111156110ba5782518260006101000a81548173ffffffffffffffffffffffffffffffffffffffff021916908373ffffffffffffffffffffffffffffffffffffffff16021790555091602001919060010190611062565b5b5090506110c8919061116d565b5090565b82805482825590600052602060002090810192821561110d5760005260206000209182015b8281111561110c5782548255916001019190600101906110f1565b5b50905061111a919061116d565b5090565b6040518060e001604052806000815260200160006001811115611144576111436113e8565b5b815260200160008152602001600081526020016000815260200160008152602001606081525090565b5b8082111561118657600081600090555060010161116e565b5090565b600080fd5b600073ffffffffffffffffffffffffffffffffffffffff82169050919050565b60006111ba8261118f565b9050919050565b6111ca816111af565b81146111d557600080fd5b50565b6000813590506111e7816111c1565b92915050565b6000602082840312156112035761120261118a565b5b6000611211848285016111d8565b91505092915050565b6000819050919050565b61122d8161121a565b811461123857600080fd5b50565b60008135905061124a81611224565b92915050565b600080604083850312156112675761126661118a565b5b60006112758582860161123b565b92505060206112868582860161123b565b9150509250929050565b60008115159050919050565b6112a581611290565b81146112b057600080fd5b50565b6000813590506112c28161129c565b92915050565b600080604083850312156112df576112de61118a565b5b60006112ed8582860161123b565b92505060206112fe858286016112b3565b9150509250929050565b611311816111af565b82525050565b600060208201905061132c6000830184611308565b92915050565b6000819050919050565b600061135761135261134d8461118f565b611332565b61118f565b9050919050565b60006113698261133c565b9050919050565b600061137b8261135e565b9050919050565b61138b81611370565b82525050565b60006020820190506113a66000830184611382565b92915050565b6000602082840312156113c2576113c161118a565b5b60006113d08482850161123b565b91505092915050565b6113e28161121a565b82525050565b7f4e487b7100000000000000000000000000000000000000000000000000000000600052602160045260246000fd5b60028110611428576114276113e8565b5b50565b600081905061143982611417565b919050565b60006114498261142b565b9050919050565b6114598161143e565b82525050565b6000819050919050565b6114728161145f565b82525050565b600060c08201905061148d60008301896113d9565b61149a6020830188611450565b6114a760408301876113d9565b6114b46060830186611469565b6114c160808301856113d9565b6114ce60a08301846113d9565b979650505050505050565b600082825260208201905092915050565b7f4572726f723a20496e76616c6964204261746368205461736b20566f74696e6760008201527f2073746174652100000000000000000000000000000000000000000000000000602082015250565b60006115466027836114d9565b9150611551826114ea565b604082019050919050565b6000602082019050818103600083015261157581611539565b9050919050565b7f4e487b7100000000000000000000000000000000000000000000000000000000600052603260045260246000fd5b7f5573657220616c726561647920766f7465206f6e20746869732062617463682060008201527f7461736b00000000000000000000000000000000000000000000000000000000602082015250565b60006116076024836114d9565b9150611612826115ab565b604082019050919050565b60006020820190508181036000830152611636816115fa565b9050919050565b7f4e487b7100000000000000000000000000000000000000000000000000000000600052601160045260246000fd5b60006116778261121a565b91506116828361121a565b925082820190508082111561169a5761169961163d565b5b92915050565b7f566f74696e6720697320656e64206f72206e6f74206f70656e20796574000000600082015250565b60006116d6601d836114d9565b91506116e1826116a0565b602082019050919050565b60006020820190508181036000830152611705816116c9565b9050919050565b60006117178261145f565b91507f7fffffffffffffffffffffffffffffffffffffffffffffffffffffffffffffff82036117495761174861163d565b5b600182019050919050565b600061175f8261145f565b91507f800000000000000000000000000000000000000000000000000000000000000082036117915761179061163d565b5b600182039050919050565b60006117a78261121a565b91507fffffffffffffffffffffffffffffffffffffffffffffffffffffffffffffffff82036117d9576117d861163d565b5b600182019050919050565b7f4e487b7100000000000000000000000000000000000000000000000000000000600052604160045260246000fd5b600060208201905061182860008301846113d9565b92915050565b7f4f776e61626c653a206e6577206f776e657220697320746865207a65726f206160008201527f6464726573730000000000000000000000000000000000000000000000000000602082015250565b600061188a6026836114d9565b91506118958261182e565b604082019050919050565b600060208201905081810360008301526118b98161187d565b9050919050565b7f4f776e61626c653a2063616c6c6572206973206e6f7420746865206f776e6572600082015250565b60006118f66020836114d9565b9150611901826118c0565b602082019050919050565b60006020820190508181036000830152611925816118e9565b9050919050565b600081519050919050565b60005b8381101561195557808201518184015260208101905061193a565b60008484015250505050565b6000601f19601f8301169050919050565b600061197d8261192c565b61198781856114d9565b9350611997818560208601611937565b6119a081611961565b840191505092915050565b600060408201905081810360008301526119c58185611972565b90506119d460208301846113d9565b939250505056fea2646970667358221220f1b2b4c433e46058893a0f6d7386ddc5b91023004a5fd73bbd356c36bf8c6deb64736f6c63430008110033",
  "linkReferences": {},
  "deployedLinkReferences": {}
}