{
  "_format": "hh-sol-artifact-1",
  "contractName": "BatchTaskVoting",
  "sourceName": "contracts/BatchTaskVoting.sol",
  "abi": [
    {
      "anonymous": false,
      "inputs": [
        {
          "indexed": true,
          "internalType": "uint256",
          "name": "pollId",
          "type": "uint256"
        },
        {
          "indexed": false,
          "internalType": "enum IBatchTaskVoting.POLL_STATE",
          "name": "pollState",
          "type": "uint8"
        },
        {
          "components": [
            {
              "internalType": "uint256",
              "name": "batchTaskId",
              "type": "uint256"
            },
            {
              "internalType": "int256",
              "name": "result",
              "type": "int256"
            },
            {
              "internalType": "address[]",
              "name": "voters",
              "type": "address[]"
            }
          ],
          "indexed": false,
          "internalType": "struct IBatchTaskVoting.BatchTaskVoting",
          "name": "batchTaskCanEnd",
          "type": "tuple"
        },
        {
          "indexed": false,
          "internalType": "uint256",
          "name": "endTime",
          "type": "uint256"
        }
      ],
      "name": "EndVote",
      "type": "event"
    },
    {
      "anonymous": false,
      "inputs": [
        {
          "indexed": true,
          "internalType": "uint256",
          "name": "pollId",
          "type": "uint256"
        },
        {
          "indexed": false,
          "internalType": "enum IBatchTaskVoting.POLL_STATE",
          "name": "pollState",
          "type": "uint8"
        },
        {
          "components": [
            {
              "internalType": "uint256",
              "name": "batchTaskId",
              "type": "uint256"
            },
            {
              "internalType": "int256",
              "name": "result",
              "type": "int256"
            },
            {
              "internalType": "address[]",
              "name": "voters",
              "type": "address[]"
            }
          ],
          "indexed": false,
          "internalType": "struct IBatchTaskVoting.BatchTaskVoting",
          "name": "batchTaskAuction",
          "type": "tuple"
        },
        {
          "indexed": false,
          "internalType": "uint256",
          "name": "time",
          "type": "uint256"
        }
      ],
      "name": "InitBatchTaskAuction",
      "type": "event"
    },
    {
      "anonymous": false,
      "inputs": [
        {
          "indexed": false,
          "internalType": "string",
          "name": "notify",
          "type": "string"
        }
      ],
      "name": "Notify",
      "type": "event"
    },
    {
      "anonymous": false,
      "inputs": [
        {
          "indexed": true,
          "internalType": "uint256",
          "name": "_pollId",
          "type": "uint256"
        },
        {
          "indexed": false,
          "internalType": "uint256[]",
          "name": "_batchTaskID",
          "type": "uint256[]"
        },
        {
          "indexed": false,
          "internalType": "uint256",
          "name": "_voteDuration",
          "type": "uint256"
        },
        {
          "indexed": false,
          "internalType": "enum IBatchTaskVoting.POLL_STATE",
          "name": "_pollState",
          "type": "uint8"
        },
        {
          "indexed": false,
          "internalType": "uint256",
          "name": "timeStart",
          "type": "uint256"
        }
      ],
      "name": "OpenForVote",
      "type": "event"
    },
    {
      "anonymous": false,
      "inputs": [
        {
          "indexed": true,
          "internalType": "address",
          "name": "previousOwner",
          "type": "address"
        },
        {
          "indexed": true,
          "internalType": "address",
          "name": "newOwner",
          "type": "address"
        }
      ],
      "name": "OwnershipTransferred",
      "type": "event"
    },
    {
      "anonymous": false,
      "inputs": [
        {
          "indexed": true,
          "internalType": "uint256",
          "name": "_pollId",
          "type": "uint256"
        },
        {
          "components": [
            {
              "internalType": "uint256",
              "name": "batchTaskId",
              "type": "uint256"
            },
            {
              "internalType": "int256",
              "name": "result",
              "type": "int256"
            },
            {
              "internalType": "address[]",
              "name": "voters",
              "type": "address[]"
            }
          ],
          "indexed": false,
          "internalType": "struct IBatchTaskVoting.BatchTaskVoting",
          "name": "batchTaskVoted",
          "type": "tuple"
        },
        {
          "indexed": false,
          "internalType": "uint256",
          "name": "voteTime",
          "type": "uint256"
        },
        {
          "indexed": true,
          "internalType": "address",
          "name": "voter",
          "type": "address"
        }
      ],
      "name": "VoteOnBatchTask",
      "type": "event"
    },
    {
      "inputs": [
        {
          "internalType": "uint256",
          "name": "",
          "type": "uint256"
        }
      ],
      "name": "batchTasks",
      "outputs": [
        {
          "internalType": "uint256",
          "name": "batchTaskId",
          "type": "uint256"
        },
        {
          "internalType": "int256",
          "name": "result",
          "type": "int256"
        }
      ],
      "stateMutability": "view",
      "type": "function"
    },
    {
      "inputs": [],
      "name": "endVote",
      "outputs": [],
      "stateMutability": "nonpayable",
      "type": "function"
    },
    {
      "inputs": [
        {
          "internalType": "uint256",
          "name": "_pollId",
          "type": "uint256"
        },
        {
          "internalType": "uint256",
          "name": "_voteDuration",
          "type": "uint256"
        },
        {
          "internalType": "uint256[]",
          "name": "_batchTaskids",
          "type": "uint256[]"
        }
      ],
      "name": "openPollForVote",
      "outputs": [],
      "stateMutability": "nonpayable",
      "type": "function"
    },
    {
      "inputs": [],
      "name": "owner",
      "outputs": [
        {
          "internalType": "address",
          "name": "",
          "type": "address"
        }
      ],
      "stateMutability": "view",
      "type": "function"
    },
    {
      "inputs": [
        {
          "internalType": "uint256",
          "name": "",
          "type": "uint256"
        }
      ],
      "name": "pollVotings",
      "outputs": [
        {
          "internalType": "uint256",
          "name": "pollId",
          "type": "uint256"
        },
        {
          "internalType": "uint256",
          "name": "voteDuration",
          "type": "uint256"
        },
        {
          "internalType": "uint256",
          "name": "startTime",
          "type": "uint256"
        },
        {
          "internalType": "enum IBatchTaskVoting.POLL_STATE",
          "name": "pollState",
          "type": "uint8"
        }
      ],
      "stateMutability": "view",
      "type": "function"
    },
    {
      "inputs": [],
      "name": "renounceOwnership",
      "outputs": [],
      "stateMutability": "nonpayable",
      "type": "function"
    },
    {
      "inputs": [
        {
          "internalType": "address",
          "name": "_taskManagerAddress",
          "type": "address"
        }
      ],
      "name": "setTaskManager",
      "outputs": [],
      "stateMutability": "nonpayable",
      "type": "function"
    },
    {
      "inputs": [],
      "name": "taskManager",
      "outputs": [
        {
          "internalType": "contract ITaskManager",
          "name": "",
          "type": "address"
        }
      ],
      "stateMutability": "view",
      "type": "function"
    },
    {
      "inputs": [
        {
          "internalType": "address",
          "name": "newOwner",
          "type": "address"
        }
      ],
      "name": "transferOwnership",
      "outputs": [],
      "stateMutability": "nonpayable",
      "type": "function"
    },
    {
      "inputs": [
        {
          "internalType": "uint256",
          "name": "_batchTaskID",
          "type": "uint256"
        },
        {
          "internalType": "uint256",
          "name": "_pollId",
          "type": "uint256"
        }
      ],
      "name": "voteOnBatchTask",
      "outputs": [],
      "stateMutability": "nonpayable",
      "type": "function"
    }
  ],
  "bytecode": "0x608060405234801561001057600080fd5b5061002d61002261003260201b60201c565b61003a60201b60201c565b6100fe565b600033905090565b60008060009054906101000a900473ffffffffffffffffffffffffffffffffffffffff169050816000806101000a81548173ffffffffffffffffffffffffffffffffffffffff021916908373ffffffffffffffffffffffffffffffffffffffff1602179055508173ffffffffffffffffffffffffffffffffffffffff168173ffffffffffffffffffffffffffffffffffffffff167f8be0079c531659141344cd1fd0a4f28419497f9722a3daafe3b4186f6b6457e060405160405180910390a35050565b6122a7806200010e6000396000f3fe608060405234801561001057600080fd5b506004361061009e5760003560e01c8063a50a640e11610066578063a50a640e14610136578063b1ed87de14610154578063b922394614610170578063f2fde38b1461017a578063f535d117146101965761009e565b80631f6ec330146100a3578063275bc4d5146100d6578063327d0a60146100f2578063715018a61461010e5780638da5cb5b14610118575b600080fd5b6100bd60048036038101906100b891906115d0565b6101c7565b6040516100cd9493929190611683565b60405180910390f35b6100f060048036038101906100eb91906116c8565b610214565b005b61010c60048036038101906101079190611766565b610939565b005b610116610985565b005b610120610999565b60405161012d91906117a2565b60405180910390f35b61013e6109c2565b60405161014b919061181c565b60405180910390f35b61016e60048036038101906101699190611990565b6109e8565b005b610178610d35565b005b610194600480360381019061018f9190611766565b611291565b005b6101b060048036038101906101ab91906115d0565b611314565b6040516101be929190611a18565b60405180910390f35b600481815481106101d757600080fd5b90600052602060002090600502016000915090508060000154908060010154908060020154908060040160009054906101000a900460ff16905084565b60008181600181111561022a5761022961160c565b5b6003600083815260200190815260200160002060040160009054906101000a900460ff1660018111156102605761025f61160c565b5b146102a0576040517f08c379a000000000000000000000000000000000000000000000000000000000815260040161029790611a9e565b60405180910390fd5b600360008481526020019081526020016000206002015442101580156102fd5750600360008481526020019081526020016000206001015460036000858152602001908152602001600020600201546102f99190611aed565b4211155b61033c576040517f08c379a000000000000000000000000000000000000000000000000000000000815260040161033390611b6d565b60405180910390fd5b600115156005600085815260200190815260200160002060003373ffffffffffffffffffffffffffffffffffffffff1673ffffffffffffffffffffffffffffffffffffffff16815260200190815260200160002060009054906101000a900460ff1615150361051357836006600085815260200190815260200160002060003373ffffffffffffffffffffffffffffffffffffffff1673ffffffffffffffffffffffffffffffffffffffff1681526020019081526020016000205403610437576040517f08c379a000000000000000000000000000000000000000000000000000000000815260040161042e90611bd9565b60405180910390fd5b60005b6003600085815260200190815260200160002060030180549050811015610511576007600060036000878152602001908152602001600020600301838154811061048757610486611bf9565b5b90600052602060002001548152602001908152602001600020600085815260200190815260200160002054600260006003600088815260200190815260200160002060030184815481106104de576104dd611bf9565b5b9060005260206000200154815260200190815260200160002060010181905550808061050990611c28565b91505061043a565b505b60005b600360008581526020019081526020016000206003018054905081101561081157600115156005600086815260200190815260200160002060003373ffffffffffffffffffffffffffffffffffffffff1673ffffffffffffffffffffffffffffffffffffffff16815260200190815260200160002060009054906101000a900460ff1615151461064a57600260006003600087815260200190815260200160002060030183815481106105cc576105cb611bf9565b5b90600052602060002001548152602001908152602001600020600201339080600181540180825580915050600190039060005260206000200160009091909190916101000a81548173ffffffffffffffffffffffffffffffffffffffff021916908373ffffffffffffffffffffffffffffffffffffffff1602179055505b6002600060036000878152602001908152602001600020600301838154811061067657610675611bf9565b5b9060005260206000200154815260200190815260200160002060010154600760006003600088815260200190815260200160002060030184815481106106bf576106be611bf9565b5b90600052602060002001548152602001908152602001600020600086815260200190815260200160002081905550846002600060036000888152602001908152602001600020600301848154811061071a57610719611bf9565b5b90600052602060002001548152602001908152602001600020600001541461079f576002600060036000878152602001908152602001600020600301838154811061076857610767611bf9565b5b90600052602060002001548152602001908152602001600020600101600081548092919061079590611c70565b91905055506107fe565b600260006003600087815260200190815260200160002060030183815481106107cb576107ca611bf9565b5b9060005260206000200154815260200190815260200160002060010160008154809291906107f890611cb8565b91905055505b808061080990611c28565b915050610516565b50836006600085815260200190815260200160002060003373ffffffffffffffffffffffffffffffffffffffff1673ffffffffffffffffffffffffffffffffffffffff1681526020019081526020016000208190555060016005600085815260200190815260200160002060003373ffffffffffffffffffffffffffffffffffffffff1673ffffffffffffffffffffffffffffffffffffffff16815260200190815260200160002060006101000a81548160ff0219169083151502179055503373ffffffffffffffffffffffffffffffffffffffff16837f49f98a7d68598cd2de4b010e59aded7d10cfd25fdf2b5349b44245f4e1f8212b600260008881526020019081526020016000204260405161092b929190611ef1565b60405180910390a350505050565b610941611348565b80600160006101000a81548173ffffffffffffffffffffffffffffffffffffffff021916908373ffffffffffffffffffffffffffffffffffffffff16021790555050565b61098d611348565b61099760006113c6565b565b60008060009054906101000a900473ffffffffffffffffffffffffffffffffffffffff16905090565b600160009054906101000a900473ffffffffffffffffffffffffffffffffffffffff1681565b600160009054906101000a900473ffffffffffffffffffffffffffffffffffffffff1673ffffffffffffffffffffffffffffffffffffffff163373ffffffffffffffffffffffffffffffffffffffff1614610a78576040517f08c379a0000000000000000000000000000000000000000000000000000000008152600401610a6f90611f6d565b60405180910390fd5b60006040518060a0016040528085815260200184815260200142815260200183815260200160006001811115610ab157610ab061160c565b5b815250905080600360008681526020019081526020016000206000820151816000015560208201518160010155604082015181600201556060820151816003019080519060200190610b04929190611492565b5060808201518160040160006101000a81548160ff02191690836001811115610b3057610b2f61160c565b5b021790555090505060048190806001815401808255809150506001900390600052602060002090600502016000909190919091506000820151816000015560208201518160010155604082015181600201556060820151816003019080519060200190610b9e929190611492565b5060808201518160040160006101000a81548160ff02191690836001811115610bca57610bc961160c565b5b0217905550505060005b8251811015610cef57606060006040518060600160405280868581518110610bff57610bfe611bf9565b5b60200260200101518152602001600081526020018381525090508060026000878681518110610c3157610c30611bf9565b5b6020026020010151815260200190815260200160002060008201518160000155602082015181600101556040820151816002019080519060200190610c779291906114df565b50905050600881908060018154018082558091505060019003906000526020600020906003020160009091909190915060008201518160000155602082015181600101556040820151816002019080519060200190610cd79291906114df565b50505050508080610ce790611c28565b915050610bd4565b50837f6c62f7c0f3ac1a374f10a7d65e19e1d4596d55c0cc7e48246cd15f470af0350d8385600042604051610d27949392919061203c565b60405180910390a250505050565b6000805b60048054905081101561124b5760006001811115610d5a57610d5961160c565b5b60048281548110610d6e57610d6d611bf9565b5b906000526020600020906005020160040160009054906101000a900460ff166001811115610d9f57610d9e61160c565b5b036112385760019150600160048281548110610dbe57610dbd611bf9565b5b906000526020600020906005020160040160006101000a81548160ff02191690836001811115610df157610df061160c565b5b021790555060006002600060048481548110610e1057610e0f611bf9565b5b9060005260206000209060050201600301600081548110610e3457610e33611bf9565b5b9060005260206000200154815260200190815260200160002060010154905060005b60048381548110610e6a57610e69611bf9565b5b90600052602060002090600502016003018054905081101561100857816002600060048681548110610e9f57610e9e611bf9565b5b90600052602060002090600502016003018481548110610ec257610ec1611bf9565b5b90600052602060002001548152602001908152602001600020600101541315610f40576002600060048581548110610efd57610efc611bf9565b5b90600052602060002090600502016003018381548110610f2057610f1f611bf9565b5b906000526020600020015481526020019081526020016000206001015491505b60048381548110610f5457610f53611bf9565b5b9060005260206000209060050201600001547f0ce46fbe3f4a92ed2e6f797d6955c1e8e72b707917a2e71c9b469f11da672f8a60016002600060048881548110610fa157610fa0611bf9565b5b90600052602060002090600502016003018681548110610fc457610fc3611bf9565b5b9060005260206000200154815260200190815260200160002042604051610fed93929190612088565b60405180910390a2808061100090611c28565b915050610e56565b5060005b600483815481106110205761101f611bf9565b5b90600052602060002090600502016003018054905081101561123557600260006004858154811061105457611053611bf9565b5b9060005260206000209060050201600301838154811061107757611076611bf9565b5b9060005260206000200154815260200190815260200160002060010154820361122257600160009054906101000a900473ffffffffffffffffffffffffffffffffffffffff1673ffffffffffffffffffffffffffffffffffffffff16639acea8d3600485815481106110ec576110eb611bf9565b5b9060005260206000209060050201600301838154811061110f5761110e611bf9565b5b90600052602060002001546040518263ffffffff1660e01b815260040161113691906120c6565b600060405180830381600087803b15801561115057600080fd5b505af1158015611164573d6000803e3d6000fd5b505050506004838154811061117c5761117b611bf9565b5b9060005260206000209060050201600001547f2c9f2ce279413b2821feae99cbef56a86b0bae0ebd9bcdf3feb0e1482253c7fe600160026000600488815481106111c9576111c8611bf9565b5b906000526020600020906005020160030186815481106111ec576111eb611bf9565b5b906000526020600020015481526020019081526020016000204260405161121593929190612088565b60405180910390a2611235565b808061122d90611c28565b91505061100c565b50505b808061124390611c28565b915050610d39565b50600015158115150361128e577f740029a372cf63fe0e8d59421d39ff2e39506263bf68a6d46f4ade0771a0901260405161128590612153565b60405180910390a15b50565b611299611348565b600073ffffffffffffffffffffffffffffffffffffffff168173ffffffffffffffffffffffffffffffffffffffff1603611308576040517f08c379a00000000000000000000000000000000000000000000000000000000081526004016112ff906121e5565b60405180910390fd5b611311816113c6565b50565b6008818154811061132457600080fd5b90600052602060002090600302016000915090508060000154908060010154905082565b61135061148a565b73ffffffffffffffffffffffffffffffffffffffff1661136e610999565b73ffffffffffffffffffffffffffffffffffffffff16146113c4576040517f08c379a00000000000000000000000000000000000000000000000000000000081526004016113bb90612251565b60405180910390fd5b565b60008060009054906101000a900473ffffffffffffffffffffffffffffffffffffffff169050816000806101000a81548173ffffffffffffffffffffffffffffffffffffffff021916908373ffffffffffffffffffffffffffffffffffffffff1602179055508173ffffffffffffffffffffffffffffffffffffffff168173ffffffffffffffffffffffffffffffffffffffff167f8be0079c531659141344cd1fd0a4f28419497f9722a3daafe3b4186f6b6457e060405160405180910390a35050565b600033905090565b8280548282559060005260206000209081019282156114ce579160200282015b828111156114cd5782518255916020019190600101906114b2565b5b5090506114db9190611569565b5090565b828054828255906000526020600020908101928215611558579160200282015b828111156115575782518260006101000a81548173ffffffffffffffffffffffffffffffffffffffff021916908373ffffffffffffffffffffffffffffffffffffffff160217905550916020019190600101906114ff565b5b5090506115659190611569565b5090565b5b8082111561158257600081600090555060010161156a565b5090565b6000604051905090565b600080fd5b600080fd5b6000819050919050565b6115ad8161159a565b81146115b857600080fd5b50565b6000813590506115ca816115a4565b92915050565b6000602082840312156115e6576115e5611590565b5b60006115f4848285016115bb565b91505092915050565b6116068161159a565b82525050565b7f4e487b7100000000000000000000000000000000000000000000000000000000600052602160045260246000fd5b6002811061164c5761164b61160c565b5b50565b600081905061165d8261163b565b919050565b600061166d8261164f565b9050919050565b61167d81611662565b82525050565b600060808201905061169860008301876115fd565b6116a560208301866115fd565b6116b260408301856115fd565b6116bf6060830184611674565b95945050505050565b600080604083850312156116df576116de611590565b5b60006116ed858286016115bb565b92505060206116fe858286016115bb565b9150509250929050565b600073ffffffffffffffffffffffffffffffffffffffff82169050919050565b600061173382611708565b9050919050565b61174381611728565b811461174e57600080fd5b50565b6000813590506117608161173a565b92915050565b60006020828403121561177c5761177b611590565b5b600061178a84828501611751565b91505092915050565b61179c81611728565b82525050565b60006020820190506117b76000830184611793565b92915050565b6000819050919050565b60006117e26117dd6117d884611708565b6117bd565b611708565b9050919050565b60006117f4826117c7565b9050919050565b6000611806826117e9565b9050919050565b611816816117fb565b82525050565b6000602082019050611831600083018461180d565b92915050565b600080fd5b6000601f19601f8301169050919050565b7f4e487b7100000000000000000000000000000000000000000000000000000000600052604160045260246000fd5b6118858261183c565b810181811067ffffffffffffffff821117156118a4576118a361184d565b5b80604052505050565b60006118b7611586565b90506118c3828261187c565b919050565b600067ffffffffffffffff8211156118e3576118e261184d565b5b602082029050602081019050919050565b600080fd5b600061190c611907846118c8565b6118ad565b9050808382526020820190506020840283018581111561192f5761192e6118f4565b5b835b81811015611958578061194488826115bb565b845260208401935050602081019050611931565b5050509392505050565b600082601f83011261197757611976611837565b5b81356119878482602086016118f9565b91505092915050565b6000806000606084860312156119a9576119a8611590565b5b60006119b7868287016115bb565b93505060206119c8868287016115bb565b925050604084013567ffffffffffffffff8111156119e9576119e8611595565b5b6119f586828701611962565b9150509250925092565b6000819050919050565b611a12816119ff565b82525050565b6000604082019050611a2d60008301856115fd565b611a3a6020830184611a09565b9392505050565b600082825260208201905092915050565b7f4572726f723a20496e76616c696420506f6c6c20737461746521000000000000600082015250565b6000611a88601a83611a41565b9150611a9382611a52565b602082019050919050565b60006020820190508181036000830152611ab781611a7b565b9050919050565b7f4e487b7100000000000000000000000000000000000000000000000000000000600052601160045260246000fd5b6000611af88261159a565b9150611b038361159a565b9250828201905080821115611b1b57611b1a611abe565b5b92915050565b7f506f6c6c20566f74696e6720697320656e640000000000000000000000000000600082015250565b6000611b57601283611a41565b9150611b6282611b21565b602082019050919050565b60006020820190508181036000830152611b8681611b4a565b9050919050565b7f596f75206e6f74206368616e676520796f757220766f74650000000000000000600082015250565b6000611bc3601883611a41565b9150611bce82611b8d565b602082019050919050565b60006020820190508181036000830152611bf281611bb6565b9050919050565b7f4e487b7100000000000000000000000000000000000000000000000000000000600052603260045260246000fd5b6000611c338261159a565b91507fffffffffffffffffffffffffffffffffffffffffffffffffffffffffffffffff8203611c6557611c64611abe565b5b600182019050919050565b6000611c7b826119ff565b91507f80000000000000000000000000000000000000000000000000000000000000008203611cad57611cac611abe565b5b600182039050919050565b6000611cc3826119ff565b91507f7fffffffffffffffffffffffffffffffffffffffffffffffffffffffffffffff8203611cf557611cf4611abe565b5b600182019050919050565b60008160001c9050919050565b6000819050919050565b6000611d2a611d2583611d00565b611d0d565b9050919050565b611d3a8161159a565b82525050565b6000819050919050565b6000611d5d611d5883611d00565b611d40565b9050919050565b611d6d816119ff565b82525050565b600081549050919050565b600082825260208201905092915050565b60008190508160005260206000209050919050565b611dad81611728565b82525050565b6000611dbf8383611da4565b60208301905092915050565b600073ffffffffffffffffffffffffffffffffffffffff82169050919050565b6000611dfe611df983611d00565b611dcb565b9050919050565b6000611e118254611deb565b9050919050565b6000600182019050919050565b6000611e3082611d73565b611e3a8185611d7e565b9350611e4583611d8f565b8060005b83811015611e7d57611e5a82611e05565b611e648882611db3565b9750611e6f83611e18565b925050600181019050611e49565b5085935050505092915050565b6000606083016000808401549050611ea181611d17565b611eae6000870182611d31565b5060018401549050611ebf81611d4a565b611ecc6020870182611d64565b50600284018583036040870152611ee38382611e25565b925050819250505092915050565b60006040820190508181036000830152611f0b8185611e8a565b9050611f1a60208301846115fd565b9392505050565b7f4f6e6c792063616c6c206279205461736b4d616e616765720000000000000000600082015250565b6000611f57601883611a41565b9150611f6282611f21565b602082019050919050565b60006020820190508181036000830152611f8681611f4a565b9050919050565b600081519050919050565b600082825260208201905092915050565b6000819050602082019050919050565b6000611fc58383611d31565b60208301905092915050565b6000602082019050919050565b6000611fe982611f8d565b611ff38185611f98565b9350611ffe83611fa9565b8060005b8381101561202f5781516120168882611fb9565b975061202183611fd1565b925050600181019050612002565b5085935050505092915050565b600060808201905081810360008301526120568187611fde565b905061206560208301866115fd565b6120726040830185611674565b61207f60608301846115fd565b95945050505050565b600060608201905061209d6000830186611674565b81810360208301526120af8185611e8a565b90506120be60408301846115fd565b949350505050565b60006020820190506120db60008301846115fd565b92915050565b7f546865726520617265206e6f20506f6c6c20566f74696e672063616e20656e6460008201527f20617420746865206d6f6d656e74000000000000000000000000000000000000602082015250565b600061213d602e83611a41565b9150612148826120e1565b604082019050919050565b6000602082019050818103600083015261216c81612130565b9050919050565b7f4f776e61626c653a206e6577206f776e657220697320746865207a65726f206160008201527f6464726573730000000000000000000000000000000000000000000000000000602082015250565b60006121cf602683611a41565b91506121da82612173565b604082019050919050565b600060208201905081810360008301526121fe816121c2565b9050919050565b7f4f776e61626c653a2063616c6c6572206973206e6f7420746865206f776e6572600082015250565b600061223b602083611a41565b915061224682612205565b602082019050919050565b6000602082019050818103600083015261226a8161222e565b905091905056fea26469706673582212200127b18b854e31819bb537e387d3f7095f29b628b9fc4258e3aecbd9a877d98a64736f6c63430008110033",
  "linkReferences": {},
  "deployedLinkReferences": {}
}