{
  "_format": "hh-sol-artifact-1",
  "contractName": "BatchTaskVoting",
  "sourceName": "contracts/BatchTaskVoting.sol",
  "abi": [
    {
      "anonymous": false,
      "inputs": [
        {
          "indexed": true,
          "internalType": "uint256",
          "name": "pollId",
          "type": "uint256"
        },
        {
          "indexed": false,
          "internalType": "enum IBatchTaskVoting.POLL_STATE",
          "name": "pollState",
          "type": "uint8"
        },
        {
          "components": [
            {
              "internalType": "uint256",
              "name": "batchTaskId",
              "type": "uint256"
            },
            {
              "internalType": "int256",
              "name": "result",
              "type": "int256"
            },
            {
              "internalType": "address[]",
              "name": "voters",
              "type": "address[]"
            }
          ],
          "indexed": false,
          "internalType": "struct IBatchTaskVoting.BatchTaskVoting",
          "name": "batchTaskCanEnd",
          "type": "tuple"
        },
        {
          "indexed": false,
          "internalType": "uint256",
          "name": "endTime",
          "type": "uint256"
        }
      ],
      "name": "EndVote",
      "type": "event"
    },
    {
      "anonymous": false,
      "inputs": [
        {
          "indexed": false,
          "internalType": "string",
          "name": "notify",
          "type": "string"
        }
      ],
      "name": "Notify",
      "type": "event"
    },
    {
      "anonymous": false,
      "inputs": [
        {
          "indexed": true,
          "internalType": "uint256",
          "name": "_pollId",
          "type": "uint256"
        },
        {
          "indexed": false,
          "internalType": "uint256[]",
          "name": "_batchTaskID",
          "type": "uint256[]"
        },
        {
          "indexed": false,
          "internalType": "uint256",
          "name": "_voteDuration",
          "type": "uint256"
        },
        {
          "indexed": false,
          "internalType": "enum IBatchTaskVoting.POLL_STATE",
          "name": "_pollState",
          "type": "uint8"
        },
        {
          "indexed": false,
          "internalType": "uint256",
          "name": "timeStart",
          "type": "uint256"
        }
      ],
      "name": "OpenForVote",
      "type": "event"
    },
    {
      "anonymous": false,
      "inputs": [
        {
          "indexed": true,
          "internalType": "address",
          "name": "previousOwner",
          "type": "address"
        },
        {
          "indexed": true,
          "internalType": "address",
          "name": "newOwner",
          "type": "address"
        }
      ],
      "name": "OwnershipTransferred",
      "type": "event"
    },
    {
      "anonymous": false,
      "inputs": [
        {
          "indexed": true,
          "internalType": "uint256",
          "name": "_pollId",
          "type": "uint256"
        },
        {
          "components": [
            {
              "internalType": "uint256",
              "name": "batchTaskId",
              "type": "uint256"
            },
            {
              "internalType": "int256",
              "name": "result",
              "type": "int256"
            },
            {
              "internalType": "address[]",
              "name": "voters",
              "type": "address[]"
            }
          ],
          "indexed": false,
          "internalType": "struct IBatchTaskVoting.BatchTaskVoting",
          "name": "batchTaskVoted",
          "type": "tuple"
        },
        {
          "indexed": false,
          "internalType": "uint256",
          "name": "voteTime",
          "type": "uint256"
        },
        {
          "indexed": true,
          "internalType": "address",
          "name": "voter",
          "type": "address"
        }
      ],
      "name": "VoteOnBatchTask",
      "type": "event"
    },
    {
      "inputs": [
        {
          "internalType": "uint256",
          "name": "",
          "type": "uint256"
        }
      ],
      "name": "batchTasks",
      "outputs": [
        {
          "internalType": "uint256",
          "name": "batchTaskId",
          "type": "uint256"
        },
        {
          "internalType": "int256",
          "name": "result",
          "type": "int256"
        }
      ],
      "stateMutability": "view",
      "type": "function"
    },
    {
      "inputs": [],
      "name": "endVote",
      "outputs": [],
      "stateMutability": "nonpayable",
      "type": "function"
    },
    {
      "inputs": [
        {
          "internalType": "uint256",
          "name": "_pollId",
          "type": "uint256"
        },
        {
          "internalType": "uint256",
          "name": "_voteDuration",
          "type": "uint256"
        },
        {
          "internalType": "uint256[]",
          "name": "_batchTaskids",
          "type": "uint256[]"
        }
      ],
      "name": "openPollForVote",
      "outputs": [],
      "stateMutability": "nonpayable",
      "type": "function"
    },
    {
      "inputs": [],
      "name": "owner",
      "outputs": [
        {
          "internalType": "address",
          "name": "",
          "type": "address"
        }
      ],
      "stateMutability": "view",
      "type": "function"
    },
    {
      "inputs": [
        {
          "internalType": "uint256",
          "name": "",
          "type": "uint256"
        }
      ],
      "name": "pollVotings",
      "outputs": [
        {
          "internalType": "uint256",
          "name": "pollId",
          "type": "uint256"
        },
        {
          "internalType": "uint256",
          "name": "voteDuration",
          "type": "uint256"
        },
        {
          "internalType": "uint256",
          "name": "startTime",
          "type": "uint256"
        },
        {
          "internalType": "enum IBatchTaskVoting.POLL_STATE",
          "name": "pollState",
          "type": "uint8"
        }
      ],
      "stateMutability": "view",
      "type": "function"
    },
    {
      "inputs": [],
      "name": "renounceOwnership",
      "outputs": [],
      "stateMutability": "nonpayable",
      "type": "function"
    },
    {
      "inputs": [
        {
          "internalType": "address",
          "name": "_taskManagerAddress",
          "type": "address"
        }
      ],
      "name": "setTaskManager",
      "outputs": [],
      "stateMutability": "nonpayable",
      "type": "function"
    },
    {
      "inputs": [],
      "name": "taskManager",
      "outputs": [
        {
          "internalType": "contract ITaskManager",
          "name": "",
          "type": "address"
        }
      ],
      "stateMutability": "view",
      "type": "function"
    },
    {
      "inputs": [
        {
          "internalType": "address",
          "name": "newOwner",
          "type": "address"
        }
      ],
      "name": "transferOwnership",
      "outputs": [],
      "stateMutability": "nonpayable",
      "type": "function"
    },
    {
      "inputs": [
        {
          "internalType": "uint256",
          "name": "_batchTaskID",
          "type": "uint256"
        },
        {
          "internalType": "uint256",
          "name": "_pollId",
          "type": "uint256"
        }
      ],
      "name": "voteOnBatchTask",
      "outputs": [],
      "stateMutability": "nonpayable",
      "type": "function"
    }
  ],
  "bytecode": "0x608060405234801561001057600080fd5b5061002d61002261003260201b60201c565b61003a60201b60201c565b6100fe565b600033905090565b60008060009054906101000a900473ffffffffffffffffffffffffffffffffffffffff169050816000806101000a81548173ffffffffffffffffffffffffffffffffffffffff021916908373ffffffffffffffffffffffffffffffffffffffff1602179055508173ffffffffffffffffffffffffffffffffffffffff168173ffffffffffffffffffffffffffffffffffffffff167f8be0079c531659141344cd1fd0a4f28419497f9722a3daafe3b4186f6b6457e060405160405180910390a35050565b612253806200010e6000396000f3fe608060405234801561001057600080fd5b506004361061009e5760003560e01c8063a50a640e11610066578063a50a640e14610136578063b1ed87de14610154578063b922394614610170578063f2fde38b1461017a578063f535d117146101965761009e565b80631f6ec330146100a3578063275bc4d5146100d6578063327d0a60146100f2578063715018a61461010e5780638da5cb5b14610118575b600080fd5b6100bd60048036038101906100b8919061157c565b6101c7565b6040516100cd949392919061162f565b60405180910390f35b6100f060048036038101906100eb9190611674565b610214565b005b61010c60048036038101906101079190611712565b610939565b005b610116610985565b005b610120610999565b60405161012d919061174e565b60405180910390f35b61013e6109c2565b60405161014b91906117c8565b60405180910390f35b61016e6004803603810190610169919061193c565b6109e8565b005b610178610d35565b005b610194600480360381019061018f9190611712565b61123d565b005b6101b060048036038101906101ab919061157c565b6112c0565b6040516101be9291906119c4565b60405180910390f35b600481815481106101d757600080fd5b90600052602060002090600502016000915090508060000154908060010154908060020154908060040160009054906101000a900460ff16905084565b60008181600181111561022a576102296115b8565b5b6003600083815260200190815260200160002060040160009054906101000a900460ff1660018111156102605761025f6115b8565b5b146102a0576040517f08c379a000000000000000000000000000000000000000000000000000000000815260040161029790611a4a565b60405180910390fd5b600360008481526020019081526020016000206002015442101580156102fd5750600360008481526020019081526020016000206001015460036000858152602001908152602001600020600201546102f99190611a99565b4211155b61033c576040517f08c379a000000000000000000000000000000000000000000000000000000000815260040161033390611b19565b60405180910390fd5b600115156005600085815260200190815260200160002060003373ffffffffffffffffffffffffffffffffffffffff1673ffffffffffffffffffffffffffffffffffffffff16815260200190815260200160002060009054906101000a900460ff1615150361051357836006600085815260200190815260200160002060003373ffffffffffffffffffffffffffffffffffffffff1673ffffffffffffffffffffffffffffffffffffffff1681526020019081526020016000205403610437576040517f08c379a000000000000000000000000000000000000000000000000000000000815260040161042e90611b85565b60405180910390fd5b60005b6003600085815260200190815260200160002060030180549050811015610511576007600060036000878152602001908152602001600020600301838154811061048757610486611ba5565b5b90600052602060002001548152602001908152602001600020600085815260200190815260200160002054600260006003600088815260200190815260200160002060030184815481106104de576104dd611ba5565b5b9060005260206000200154815260200190815260200160002060010181905550808061050990611bd4565b91505061043a565b505b60005b600360008581526020019081526020016000206003018054905081101561081157600115156005600086815260200190815260200160002060003373ffffffffffffffffffffffffffffffffffffffff1673ffffffffffffffffffffffffffffffffffffffff16815260200190815260200160002060009054906101000a900460ff1615151461064a57600260006003600087815260200190815260200160002060030183815481106105cc576105cb611ba5565b5b90600052602060002001548152602001908152602001600020600201339080600181540180825580915050600190039060005260206000200160009091909190916101000a81548173ffffffffffffffffffffffffffffffffffffffff021916908373ffffffffffffffffffffffffffffffffffffffff1602179055505b6002600060036000878152602001908152602001600020600301838154811061067657610675611ba5565b5b9060005260206000200154815260200190815260200160002060010154600760006003600088815260200190815260200160002060030184815481106106bf576106be611ba5565b5b90600052602060002001548152602001908152602001600020600086815260200190815260200160002081905550846002600060036000888152602001908152602001600020600301848154811061071a57610719611ba5565b5b90600052602060002001548152602001908152602001600020600001541461079f576002600060036000878152602001908152602001600020600301838154811061076857610767611ba5565b5b90600052602060002001548152602001908152602001600020600101600081548092919061079590611c1c565b91905055506107fe565b600260006003600087815260200190815260200160002060030183815481106107cb576107ca611ba5565b5b9060005260206000200154815260200190815260200160002060010160008154809291906107f890611c64565b91905055505b808061080990611bd4565b915050610516565b50836006600085815260200190815260200160002060003373ffffffffffffffffffffffffffffffffffffffff1673ffffffffffffffffffffffffffffffffffffffff1681526020019081526020016000208190555060016005600085815260200190815260200160002060003373ffffffffffffffffffffffffffffffffffffffff1673ffffffffffffffffffffffffffffffffffffffff16815260200190815260200160002060006101000a81548160ff0219169083151502179055503373ffffffffffffffffffffffffffffffffffffffff16837f49f98a7d68598cd2de4b010e59aded7d10cfd25fdf2b5349b44245f4e1f8212b600260008881526020019081526020016000204260405161092b929190611e9d565b60405180910390a350505050565b6109416112f4565b80600160006101000a81548173ffffffffffffffffffffffffffffffffffffffff021916908373ffffffffffffffffffffffffffffffffffffffff16021790555050565b61098d6112f4565b6109976000611372565b565b60008060009054906101000a900473ffffffffffffffffffffffffffffffffffffffff16905090565b600160009054906101000a900473ffffffffffffffffffffffffffffffffffffffff1681565b600160009054906101000a900473ffffffffffffffffffffffffffffffffffffffff1673ffffffffffffffffffffffffffffffffffffffff163373ffffffffffffffffffffffffffffffffffffffff1614610a78576040517f08c379a0000000000000000000000000000000000000000000000000000000008152600401610a6f90611f19565b60405180910390fd5b60006040518060a0016040528085815260200184815260200142815260200183815260200160006001811115610ab157610ab06115b8565b5b815250905080600360008681526020019081526020016000206000820151816000015560208201518160010155604082015181600201556060820151816003019080519060200190610b0492919061143e565b5060808201518160040160006101000a81548160ff02191690836001811115610b3057610b2f6115b8565b5b021790555090505060048190806001815401808255809150506001900390600052602060002090600502016000909190919091506000820151816000015560208201518160010155604082015181600201556060820151816003019080519060200190610b9e92919061143e565b5060808201518160040160006101000a81548160ff02191690836001811115610bca57610bc96115b8565b5b0217905550505060005b8251811015610cef57606060006040518060600160405280868581518110610bff57610bfe611ba5565b5b60200260200101518152602001600081526020018381525090508060026000878681518110610c3157610c30611ba5565b5b6020026020010151815260200190815260200160002060008201518160000155602082015181600101556040820151816002019080519060200190610c7792919061148b565b50905050600881908060018154018082558091505060019003906000526020600020906003020160009091909190915060008201518160000155602082015181600101556040820151816002019080519060200190610cd792919061148b565b50505050508080610ce790611bd4565b915050610bd4565b50837f6c62f7c0f3ac1a374f10a7d65e19e1d4596d55c0cc7e48246cd15f470af0350d8385600042604051610d279493929190611fe8565b60405180910390a250505050565b6000805b6004805490508110156111f75760006001811115610d5a57610d596115b8565b5b60048281548110610d6e57610d6d611ba5565b5b906000526020600020906005020160040160009054906101000a900460ff166001811115610d9f57610d9e6115b8565b5b148015610e0057504260048281548110610dbc57610dbb611ba5565b5b90600052602060002090600502016001015460048381548110610de257610de1611ba5565b5b906000526020600020906005020160020154610dfe9190611a99565b105b156111e45760019150600160048281548110610e1f57610e1e611ba5565b5b906000526020600020906005020160040160006101000a81548160ff02191690836001811115610e5257610e516115b8565b5b021790555060006002600060048481548110610e7157610e70611ba5565b5b9060005260206000209060050201600301600081548110610e9557610e94611ba5565b5b9060005260206000200154815260200190815260200160002060010154905060005b60048381548110610ecb57610eca611ba5565b5b90600052602060002090600502016003018054905081101561106957816002600060048681548110610f0057610eff611ba5565b5b90600052602060002090600502016003018481548110610f2357610f22611ba5565b5b90600052602060002001548152602001908152602001600020600101541315610fa1576002600060048581548110610f5e57610f5d611ba5565b5b90600052602060002090600502016003018381548110610f8157610f80611ba5565b5b906000526020600020015481526020019081526020016000206001015491505b60048381548110610fb557610fb4611ba5565b5b9060005260206000209060050201600001547f0ce46fbe3f4a92ed2e6f797d6955c1e8e72b707917a2e71c9b469f11da672f8a6001600260006004888154811061100257611001611ba5565b5b9060005260206000209060050201600301868154811061102557611024611ba5565b5b906000526020600020015481526020019081526020016000204260405161104e93929190612034565b60405180910390a2808061106190611bd4565b915050610eb7565b5060005b6004838154811061108157611080611ba5565b5b9060005260206000209060050201600301805490508110156111e15760026000600485815481106110b5576110b4611ba5565b5b906000526020600020906005020160030183815481106110d8576110d7611ba5565b5b906000526020600020015481526020019081526020016000206001015482036111ce57600160009054906101000a900473ffffffffffffffffffffffffffffffffffffffff1673ffffffffffffffffffffffffffffffffffffffff16639acea8d36004858154811061114d5761114c611ba5565b5b906000526020600020906005020160030183815481106111705761116f611ba5565b5b90600052602060002001546040518263ffffffff1660e01b81526004016111979190612072565b600060405180830381600087803b1580156111b157600080fd5b505af11580156111c5573d6000803e3d6000fd5b505050506111e1565b80806111d990611bd4565b91505061106d565b50505b80806111ef90611bd4565b915050610d39565b50600015158115150361123a577f740029a372cf63fe0e8d59421d39ff2e39506263bf68a6d46f4ade0771a09012604051611231906120ff565b60405180910390a15b50565b6112456112f4565b600073ffffffffffffffffffffffffffffffffffffffff168173ffffffffffffffffffffffffffffffffffffffff16036112b4576040517f08c379a00000000000000000000000000000000000000000000000000000000081526004016112ab90612191565b60405180910390fd5b6112bd81611372565b50565b600881815481106112d057600080fd5b90600052602060002090600302016000915090508060000154908060010154905082565b6112fc611436565b73ffffffffffffffffffffffffffffffffffffffff1661131a610999565b73ffffffffffffffffffffffffffffffffffffffff1614611370576040517f08c379a0000000000000000000000000000000000000000000000000000000008152600401611367906121fd565b60405180910390fd5b565b60008060009054906101000a900473ffffffffffffffffffffffffffffffffffffffff169050816000806101000a81548173ffffffffffffffffffffffffffffffffffffffff021916908373ffffffffffffffffffffffffffffffffffffffff1602179055508173ffffffffffffffffffffffffffffffffffffffff168173ffffffffffffffffffffffffffffffffffffffff167f8be0079c531659141344cd1fd0a4f28419497f9722a3daafe3b4186f6b6457e060405160405180910390a35050565b600033905090565b82805482825590600052602060002090810192821561147a579160200282015b8281111561147957825182559160200191906001019061145e565b5b5090506114879190611515565b5090565b828054828255906000526020600020908101928215611504579160200282015b828111156115035782518260006101000a81548173ffffffffffffffffffffffffffffffffffffffff021916908373ffffffffffffffffffffffffffffffffffffffff160217905550916020019190600101906114ab565b5b5090506115119190611515565b5090565b5b8082111561152e576000816000905550600101611516565b5090565b6000604051905090565b600080fd5b600080fd5b6000819050919050565b61155981611546565b811461156457600080fd5b50565b60008135905061157681611550565b92915050565b6000602082840312156115925761159161153c565b5b60006115a084828501611567565b91505092915050565b6115b281611546565b82525050565b7f4e487b7100000000000000000000000000000000000000000000000000000000600052602160045260246000fd5b600281106115f8576115f76115b8565b5b50565b6000819050611609826115e7565b919050565b6000611619826115fb565b9050919050565b6116298161160e565b82525050565b600060808201905061164460008301876115a9565b61165160208301866115a9565b61165e60408301856115a9565b61166b6060830184611620565b95945050505050565b6000806040838503121561168b5761168a61153c565b5b600061169985828601611567565b92505060206116aa85828601611567565b9150509250929050565b600073ffffffffffffffffffffffffffffffffffffffff82169050919050565b60006116df826116b4565b9050919050565b6116ef816116d4565b81146116fa57600080fd5b50565b60008135905061170c816116e6565b92915050565b6000602082840312156117285761172761153c565b5b6000611736848285016116fd565b91505092915050565b611748816116d4565b82525050565b6000602082019050611763600083018461173f565b92915050565b6000819050919050565b600061178e611789611784846116b4565b611769565b6116b4565b9050919050565b60006117a082611773565b9050919050565b60006117b282611795565b9050919050565b6117c2816117a7565b82525050565b60006020820190506117dd60008301846117b9565b92915050565b600080fd5b6000601f19601f8301169050919050565b7f4e487b7100000000000000000000000000000000000000000000000000000000600052604160045260246000fd5b611831826117e8565b810181811067ffffffffffffffff821117156118505761184f6117f9565b5b80604052505050565b6000611863611532565b905061186f8282611828565b919050565b600067ffffffffffffffff82111561188f5761188e6117f9565b5b602082029050602081019050919050565b600080fd5b60006118b86118b384611874565b611859565b905080838252602082019050602084028301858111156118db576118da6118a0565b5b835b8181101561190457806118f08882611567565b8452602084019350506020810190506118dd565b5050509392505050565b600082601f830112611923576119226117e3565b5b81356119338482602086016118a5565b91505092915050565b6000806000606084860312156119555761195461153c565b5b600061196386828701611567565b935050602061197486828701611567565b925050604084013567ffffffffffffffff81111561199557611994611541565b5b6119a18682870161190e565b9150509250925092565b6000819050919050565b6119be816119ab565b82525050565b60006040820190506119d960008301856115a9565b6119e660208301846119b5565b9392505050565b600082825260208201905092915050565b7f4572726f723a20496e76616c696420506f6c6c20737461746521000000000000600082015250565b6000611a34601a836119ed565b9150611a3f826119fe565b602082019050919050565b60006020820190508181036000830152611a6381611a27565b9050919050565b7f4e487b7100000000000000000000000000000000000000000000000000000000600052601160045260246000fd5b6000611aa482611546565b9150611aaf83611546565b9250828201905080821115611ac757611ac6611a6a565b5b92915050565b7f506f6c6c20566f74696e6720697320656e640000000000000000000000000000600082015250565b6000611b036012836119ed565b9150611b0e82611acd565b602082019050919050565b60006020820190508181036000830152611b3281611af6565b9050919050565b7f596f75206e6f74206368616e676520796f757220766f74650000000000000000600082015250565b6000611b6f6018836119ed565b9150611b7a82611b39565b602082019050919050565b60006020820190508181036000830152611b9e81611b62565b9050919050565b7f4e487b7100000000000000000000000000000000000000000000000000000000600052603260045260246000fd5b6000611bdf82611546565b91507fffffffffffffffffffffffffffffffffffffffffffffffffffffffffffffffff8203611c1157611c10611a6a565b5b600182019050919050565b6000611c27826119ab565b91507f80000000000000000000000000000000000000000000000000000000000000008203611c5957611c58611a6a565b5b600182039050919050565b6000611c6f826119ab565b91507f7fffffffffffffffffffffffffffffffffffffffffffffffffffffffffffffff8203611ca157611ca0611a6a565b5b600182019050919050565b60008160001c9050919050565b6000819050919050565b6000611cd6611cd183611cac565b611cb9565b9050919050565b611ce681611546565b82525050565b6000819050919050565b6000611d09611d0483611cac565b611cec565b9050919050565b611d19816119ab565b82525050565b600081549050919050565b600082825260208201905092915050565b60008190508160005260206000209050919050565b611d59816116d4565b82525050565b6000611d6b8383611d50565b60208301905092915050565b600073ffffffffffffffffffffffffffffffffffffffff82169050919050565b6000611daa611da583611cac565b611d77565b9050919050565b6000611dbd8254611d97565b9050919050565b6000600182019050919050565b6000611ddc82611d1f565b611de68185611d2a565b9350611df183611d3b565b8060005b83811015611e2957611e0682611db1565b611e108882611d5f565b9750611e1b83611dc4565b925050600181019050611df5565b5085935050505092915050565b6000606083016000808401549050611e4d81611cc3565b611e5a6000870182611cdd565b5060018401549050611e6b81611cf6565b611e786020870182611d10565b50600284018583036040870152611e8f8382611dd1565b925050819250505092915050565b60006040820190508181036000830152611eb78185611e36565b9050611ec660208301846115a9565b9392505050565b7f4f6e6c792063616c6c206279205461736b4d616e616765720000000000000000600082015250565b6000611f036018836119ed565b9150611f0e82611ecd565b602082019050919050565b60006020820190508181036000830152611f3281611ef6565b9050919050565b600081519050919050565b600082825260208201905092915050565b6000819050602082019050919050565b6000611f718383611cdd565b60208301905092915050565b6000602082019050919050565b6000611f9582611f39565b611f9f8185611f44565b9350611faa83611f55565b8060005b83811015611fdb578151611fc28882611f65565b9750611fcd83611f7d565b925050600181019050611fae565b5085935050505092915050565b600060808201905081810360008301526120028187611f8a565b905061201160208301866115a9565b61201e6040830185611620565b61202b60608301846115a9565b95945050505050565b60006060820190506120496000830186611620565b818103602083015261205b8185611e36565b905061206a60408301846115a9565b949350505050565b600060208201905061208760008301846115a9565b92915050565b7f546865726520617265206e6f20506f6c6c20566f74696e672063616e20656e6460008201527f20617420746865206d6f6d656e74000000000000000000000000000000000000602082015250565b60006120e9602e836119ed565b91506120f48261208d565b604082019050919050565b60006020820190508181036000830152612118816120dc565b9050919050565b7f4f776e61626c653a206e6577206f776e657220697320746865207a65726f206160008201527f6464726573730000000000000000000000000000000000000000000000000000602082015250565b600061217b6026836119ed565b91506121868261211f565b604082019050919050565b600060208201905081810360008301526121aa8161216e565b9050919050565b7f4f776e61626c653a2063616c6c6572206973206e6f7420746865206f776e6572600082015250565b60006121e76020836119ed565b91506121f2826121b1565b602082019050919050565b60006020820190508181036000830152612216816121da565b905091905056fea2646970667358221220bb607165c09f87625a6f2e6a36aac60b0d437fbbca6f8315708e36bfa6fd465d64736f6c63430008110033",
  "linkReferences": {},
  "deployedLinkReferences": {}
}