{
  "_format": "hh-sol-artifact-1",
  "contractName": "BatchTaskVoting",
  "sourceName": "contracts/BatchTaskVoting.sol",
  "abi": [
    {
      "anonymous": false,
      "inputs": [
        {
          "indexed": true,
          "internalType": "address",
          "name": "previousOwner",
          "type": "address"
        },
        {
          "indexed": true,
          "internalType": "address",
          "name": "newOwner",
          "type": "address"
        }
      ],
      "name": "OwnershipTransferred",
      "type": "event"
    },
    {
      "inputs": [
        {
          "internalType": "uint256",
          "name": "",
          "type": "uint256"
        }
      ],
      "name": "batchTaskCanEnd",
      "outputs": [
        {
          "internalType": "uint256",
          "name": "batchTaskId",
          "type": "uint256"
        },
        {
          "internalType": "enum IBatchTaskVoting.BATCH_TASK_STATE",
          "name": "batchTaskState",
          "type": "uint8"
        },
        {
          "internalType": "uint256",
          "name": "totalVote",
          "type": "uint256"
        },
        {
          "internalType": "int256",
          "name": "result",
          "type": "int256"
        },
        {
          "internalType": "uint256",
          "name": "voteDuration",
          "type": "uint256"
        },
        {
          "internalType": "uint256",
          "name": "startTime",
          "type": "uint256"
        }
      ],
      "stateMutability": "view",
      "type": "function"
    },
    {
      "inputs": [
        {
          "internalType": "uint256",
          "name": "",
          "type": "uint256"
        }
      ],
      "name": "batchTasks",
      "outputs": [
        {
          "internalType": "uint256",
          "name": "batchTaskId",
          "type": "uint256"
        },
        {
          "internalType": "enum IBatchTaskVoting.BATCH_TASK_STATE",
          "name": "batchTaskState",
          "type": "uint8"
        },
        {
          "internalType": "uint256",
          "name": "totalVote",
          "type": "uint256"
        },
        {
          "internalType": "int256",
          "name": "result",
          "type": "int256"
        },
        {
          "internalType": "uint256",
          "name": "voteDuration",
          "type": "uint256"
        },
        {
          "internalType": "uint256",
          "name": "startTime",
          "type": "uint256"
        }
      ],
      "stateMutability": "view",
      "type": "function"
    },
    {
      "inputs": [],
      "name": "endVote",
      "outputs": [],
      "stateMutability": "nonpayable",
      "type": "function"
    },
    {
      "inputs": [
        {
          "internalType": "uint256",
          "name": "_batchTaskID",
          "type": "uint256"
        },
        {
          "internalType": "uint256",
          "name": "_voteDuration",
          "type": "uint256"
        }
      ],
      "name": "openForVote",
      "outputs": [],
      "stateMutability": "nonpayable",
      "type": "function"
    },
    {
      "inputs": [],
      "name": "owner",
      "outputs": [
        {
          "internalType": "address",
          "name": "",
          "type": "address"
        }
      ],
      "stateMutability": "view",
      "type": "function"
    },
    {
      "inputs": [],
      "name": "renounceOwnership",
      "outputs": [],
      "stateMutability": "nonpayable",
      "type": "function"
    },
    {
      "inputs": [
        {
          "internalType": "address",
          "name": "_taskManagerAddress",
          "type": "address"
        }
      ],
      "name": "setTaskManager",
      "outputs": [],
      "stateMutability": "nonpayable",
      "type": "function"
    },
    {
      "inputs": [],
      "name": "taskManager",
      "outputs": [
        {
          "internalType": "contract ITaskManager",
          "name": "",
          "type": "address"
        }
      ],
      "stateMutability": "view",
      "type": "function"
    },
    {
      "inputs": [
        {
          "internalType": "address",
          "name": "newOwner",
          "type": "address"
        }
      ],
      "name": "transferOwnership",
      "outputs": [],
      "stateMutability": "nonpayable",
      "type": "function"
    },
    {
      "inputs": [
        {
          "internalType": "uint256",
          "name": "_batchTaskID",
          "type": "uint256"
        },
        {
          "internalType": "bool",
          "name": "_choice",
          "type": "bool"
        }
      ],
      "name": "voteOnBatchTask",
      "outputs": [],
      "stateMutability": "nonpayable",
      "type": "function"
    }
  ],
  "bytecode": "0x608060405234801561001057600080fd5b5061002d61002261003260201b60201c565b61003a60201b60201c565b6100fe565b600033905090565b60008060009054906101000a900473ffffffffffffffffffffffffffffffffffffffff169050816000806101000a81548173ffffffffffffffffffffffffffffffffffffffff021916908373ffffffffffffffffffffffffffffffffffffffff1602179055508173ffffffffffffffffffffffffffffffffffffffff168173ffffffffffffffffffffffffffffffffffffffff167f8be0079c531659141344cd1fd0a4f28419497f9722a3daafe3b4186f6b6457e060405160405180910390a35050565b6117ac8061010d6000396000f3fe608060405234801561001057600080fd5b506004361061009e5760003560e01c8063a50a640e11610066578063a50a640e1461011f578063b92239461461013d578063c9ca370d14610147578063f2fde38b1461017c578063f535d117146101985761009e565b8063327d0a60146100a35780636a2f38ed146100bf578063715018a6146100db578063855afe63146100e55780638da5cb5b14610101575b600080fd5b6100bd60048036038101906100b89190611066565b6101cd565b005b6100d960048036038101906100d491906110c9565b610219565b005b6100e36103b0565b005b6100ff60048036038101906100fa9190611141565b6103c4565b005b61010961087a565b6040516101169190611190565b60405180910390f35b6101276108a3565b604051610134919061120a565b60405180910390f35b6101456108c9565b005b610161600480360381019061015c9190611225565b610c8b565b604051610173969594939291906112f1565b60405180910390f35b61019660048036038101906101919190611066565b610ce4565b005b6101b260048036038101906101ad9190611225565b610d67565b6040516101c4969594939291906112f1565b60405180910390f35b6101d5610dc0565b80600160006101000a81548173ffffffffffffffffffffffffffffffffffffffff021916908373ffffffffffffffffffffffffffffffffffffffff16021790555050565b606060006040518060e001604052808581526020016000600181111561024257610241611261565b5b8152602001600081526020016000815260200184815260200142815260200183815250905080600260008681526020019081526020016000206000820151816000015560208201518160010160006101000a81548160ff021916908360018111156102b0576102af611261565b5b021790555060408201518160020155606082015181600301556080820151816004015560a0820151816005015560c08201518160060190805190602001906102f9929190610f0a565b5090505060048190806001815401808255809150506001900390600052602060002090600702016000909190919091506000820151816000015560208201518160010160006101000a81548160ff0219169083600181111561035e5761035d611261565b5b021790555060408201518160020155606082015181600301556080820151816004015560a0820151816005015560c08201518160060190805190602001906103a7929190610f0a565b50505050505050565b6103b8610dc0565b6103c26000610e3e565b565b6000828160018111156103da576103d9611261565b5b6002600083815260200190815260200160002060010160009054906101000a900460ff1660018111156104105761040f611261565b5b14610450576040517f08c379a0000000000000000000000000000000000000000000000000000000008152600401610447906113d5565b60405180910390fd5b60005b600480549050811015610873578460048281548110610475576104746113f5565b5b9060005260206000209060070201600001540361086057600015156003600087815260200190815260200160002060003373ffffffffffffffffffffffffffffffffffffffff1673ffffffffffffffffffffffffffffffffffffffff16815260200190815260200160002060009054906101000a900460ff16151514610530576040517f08c379a000000000000000000000000000000000000000000000000000000000815260040161052790611496565b60405180910390fd5b60048181548110610544576105436113f5565b5b90600052602060002090600702016005015442101580156105ba575060048181548110610574576105736113f5565b5b9060005260206000209060070201600401546004828154811061059a576105996113f5565b5b9060005260206000209060070201600501546105b691906114e5565b4211155b6105f9576040517f08c379a00000000000000000000000000000000000000000000000000000000081526004016105f090611565565b60405180910390fd5b831561063f5760048181548110610613576106126113f5565b5b9060005260206000209060070201600301600081548092919061063590611585565b919050555061067b565b60048181548110610653576106526113f5565b5b90600052602060002090600702016003016000815480929190610675906115cd565b91905055505b6004818154811061068f5761068e6113f5565b5b9060005260206000209060070201600601339080600181540180825580915050600190039060005260206000200160009091909190916101000a81548173ffffffffffffffffffffffffffffffffffffffff021916908373ffffffffffffffffffffffffffffffffffffffff16021790555060048181548110610715576107146113f5565b5b9060005260206000209060070201600201600081548092919061073790611615565b9190505550600115156003600087815260200190815260200160002060003373ffffffffffffffffffffffffffffffffffffffff1673ffffffffffffffffffffffffffffffffffffffff16815260200190815260200160002060009054906101000a90505050600481815481106107b1576107b06113f5565b5b906000526020600020906007020160026000878152602001908152602001600020600082015481600001556001820160009054906101000a900460ff168160010160006101000a81548160ff0219169083600181111561081457610813611261565b5b0217905550600282015481600201556003820154816003015560048201548160040155600582015481600501556006820181600601908054610857929190610f94565b50905050610873565b808061086b90611615565b915050610453565b5050505050565b60008060009054906101000a900473ffffffffffffffffffffffffffffffffffffffff16905090565b600160009054906101000a900473ffffffffffffffffffffffffffffffffffffffff1681565b60005b600480549050811015610adb57600060018111156108ed576108ec611261565b5b60048281548110610901576109006113f5565b5b906000526020600020906007020160010160009054906101000a900460ff16600181111561093257610931611261565b5b1480156109935750426004828154811061094f5761094e6113f5565b5b90600052602060002090600702016004015460048381548110610975576109746113f5565b5b90600052602060002090600702016005015461099191906114e5565b115b15610ac8576001808111156109ab576109aa611261565b5b600482815481106109bf576109be6113f5565b5b906000526020600020906007020160010160009054906101000a900460ff1660018111156109f0576109ef611261565b5b5050600560048281548110610a0857610a076113f5565b5b90600052602060002090600702019080600181540180825580915050600190039060005260206000209060070201600090919091909150600082015481600001556001820160009054906101000a900460ff168160010160006101000a81548160ff02191690836001811115610a8157610a80611261565b5b0217905550600282015481600201556003820154816003015560048201548160040155600582015481600501556006820181600601908054610ac4929190610f94565b5050505b8080610ad390611615565b9150506108cc565b5060006005600081548110610af357610af26113f5565b5b906000526020600020906007020160030154905060005b600580549050811015610b80578160058281548110610b2c57610b2b6113f5565b5b9060005260206000209060070201600301541315610b6d5760058181548110610b5857610b576113f5565b5b90600052602060002090600702016003015491505b8080610b7890611615565b915050610b0a565b5060005b600580549050811015610c875760058181548110610ba557610ba46113f5565b5b9060005260206000209060070201600301548203610c7457600160009054906101000a900473ffffffffffffffffffffffffffffffffffffffff1673ffffffffffffffffffffffffffffffffffffffff16639acea8d360058381548110610c0f57610c0e6113f5565b5b9060005260206000209060070201600001546040518263ffffffff1660e01b8152600401610c3d919061165d565b600060405180830381600087803b158015610c5757600080fd5b505af1158015610c6b573d6000803e3d6000fd5b50505050610c87565b8080610c7f90611615565b915050610b84565b5050565b60058181548110610c9b57600080fd5b90600052602060002090600702016000915090508060000154908060010160009054906101000a900460ff16908060020154908060030154908060040154908060050154905086565b610cec610dc0565b600073ffffffffffffffffffffffffffffffffffffffff168173ffffffffffffffffffffffffffffffffffffffff1603610d5b576040517f08c379a0000000000000000000000000000000000000000000000000000000008152600401610d52906116ea565b60405180910390fd5b610d6481610e3e565b50565b60048181548110610d7757600080fd5b90600052602060002090600702016000915090508060000154908060010160009054906101000a900460ff16908060020154908060030154908060040154908060050154905086565b610dc8610f02565b73ffffffffffffffffffffffffffffffffffffffff16610de661087a565b73ffffffffffffffffffffffffffffffffffffffff1614610e3c576040517f08c379a0000000000000000000000000000000000000000000000000000000008152600401610e3390611756565b60405180910390fd5b565b60008060009054906101000a900473ffffffffffffffffffffffffffffffffffffffff169050816000806101000a81548173ffffffffffffffffffffffffffffffffffffffff021916908373ffffffffffffffffffffffffffffffffffffffff1602179055508173ffffffffffffffffffffffffffffffffffffffff168173ffffffffffffffffffffffffffffffffffffffff167f8be0079c531659141344cd1fd0a4f28419497f9722a3daafe3b4186f6b6457e060405160405180910390a35050565b600033905090565b828054828255906000526020600020908101928215610f83579160200282015b82811115610f825782518260006101000a81548173ffffffffffffffffffffffffffffffffffffffff021916908373ffffffffffffffffffffffffffffffffffffffff16021790555091602001919060010190610f2a565b5b509050610f909190610fe6565b5090565b828054828255906000526020600020908101928215610fd55760005260206000209182015b82811115610fd4578254825591600101919060010190610fb9565b5b509050610fe29190610fe6565b5090565b5b80821115610fff576000816000905550600101610fe7565b5090565b600080fd5b600073ffffffffffffffffffffffffffffffffffffffff82169050919050565b600061103382611008565b9050919050565b61104381611028565b811461104e57600080fd5b50565b6000813590506110608161103a565b92915050565b60006020828403121561107c5761107b611003565b5b600061108a84828501611051565b91505092915050565b6000819050919050565b6110a681611093565b81146110b157600080fd5b50565b6000813590506110c38161109d565b92915050565b600080604083850312156110e0576110df611003565b5b60006110ee858286016110b4565b92505060206110ff858286016110b4565b9150509250929050565b60008115159050919050565b61111e81611109565b811461112957600080fd5b50565b60008135905061113b81611115565b92915050565b6000806040838503121561115857611157611003565b5b6000611166858286016110b4565b92505060206111778582860161112c565b9150509250929050565b61118a81611028565b82525050565b60006020820190506111a56000830184611181565b92915050565b6000819050919050565b60006111d06111cb6111c684611008565b6111ab565b611008565b9050919050565b60006111e2826111b5565b9050919050565b60006111f4826111d7565b9050919050565b611204816111e9565b82525050565b600060208201905061121f60008301846111fb565b92915050565b60006020828403121561123b5761123a611003565b5b6000611249848285016110b4565b91505092915050565b61125b81611093565b82525050565b7f4e487b7100000000000000000000000000000000000000000000000000000000600052602160045260246000fd5b600281106112a1576112a0611261565b5b50565b60008190506112b282611290565b919050565b60006112c2826112a4565b9050919050565b6112d2816112b7565b82525050565b6000819050919050565b6112eb816112d8565b82525050565b600060c0820190506113066000830189611252565b61131360208301886112c9565b6113206040830187611252565b61132d60608301866112e2565b61133a6080830185611252565b61134760a0830184611252565b979650505050505050565b600082825260208201905092915050565b7f4572726f723a20496e76616c6964204261746368205461736b20566f74696e6760008201527f2073746174652100000000000000000000000000000000000000000000000000602082015250565b60006113bf602783611352565b91506113ca82611363565b604082019050919050565b600060208201905081810360008301526113ee816113b2565b9050919050565b7f4e487b7100000000000000000000000000000000000000000000000000000000600052603260045260246000fd5b7f5573657220616c726561647920766f7465206f6e20746869732062617463682060008201527f7461736b00000000000000000000000000000000000000000000000000000000602082015250565b6000611480602483611352565b915061148b82611424565b604082019050919050565b600060208201905081810360008301526114af81611473565b9050919050565b7f4e487b7100000000000000000000000000000000000000000000000000000000600052601160045260246000fd5b60006114f082611093565b91506114fb83611093565b9250828201905080821115611513576115126114b6565b5b92915050565b7f566f74696e6720697320656e64206f72206e6f74206f70656e20796574000000600082015250565b600061154f601d83611352565b915061155a82611519565b602082019050919050565b6000602082019050818103600083015261157e81611542565b9050919050565b6000611590826112d8565b91507f7fffffffffffffffffffffffffffffffffffffffffffffffffffffffffffffff82036115c2576115c16114b6565b5b600182019050919050565b60006115d8826112d8565b91507f8000000000000000000000000000000000000000000000000000000000000000820361160a576116096114b6565b5b600182039050919050565b600061162082611093565b91507fffffffffffffffffffffffffffffffffffffffffffffffffffffffffffffffff8203611652576116516114b6565b5b600182019050919050565b60006020820190506116726000830184611252565b92915050565b7f4f776e61626c653a206e6577206f776e657220697320746865207a65726f206160008201527f6464726573730000000000000000000000000000000000000000000000000000602082015250565b60006116d4602683611352565b91506116df82611678565b604082019050919050565b60006020820190508181036000830152611703816116c7565b9050919050565b7f4f776e61626c653a2063616c6c6572206973206e6f7420746865206f776e6572600082015250565b6000611740602083611352565b915061174b8261170a565b602082019050919050565b6000602082019050818103600083015261176f81611733565b905091905056fea26469706673582212202180d04bb2652c9a51bff363625bb525333fae4c05c2a56804dfd6865dc186d664736f6c63430008110033",
  "linkReferences": {},
  "deployedLinkReferences": {}
}