{
  "_format": "hh-sol-artifact-1",
  "contractName": "BankManager",
  "sourceName": "contracts/BankManager.sol",
  "abi": [
    {
      "inputs": [
        {
          "internalType": "uint256",
          "name": "_amount",
          "type": "uint256"
        }
      ],
      "name": "burn",
      "outputs": [],
      "stateMutability": "nonpayable",
      "type": "function"
    },
    {
      "inputs": [
        {
          "internalType": "address",
          "name": "_erc20Address",
          "type": "address"
        }
      ],
      "name": "chooseToken",
      "outputs": [],
      "stateMutability": "nonpayable",
      "type": "function"
    },
    {
      "inputs": [
        {
          "internalType": "uint256",
          "name": "_amount",
          "type": "uint256"
        }
      ],
      "name": "fundTokenErc20",
      "outputs": [],
      "stateMutability": "nonpayable",
      "type": "function"
    },
    {
      "inputs": [
        {
          "internalType": "address",
          "name": "account",
          "type": "address"
        }
      ],
      "name": "getBalance",
      "outputs": [
        {
          "internalType": "uint256",
          "name": "",
          "type": "uint256"
        }
      ],
      "stateMutability": "view",
      "type": "function"
    },
    {
      "inputs": [
        {
          "internalType": "uint256",
          "name": "_amount",
          "type": "uint256"
        }
      ],
      "name": "mint",
      "outputs": [],
      "stateMutability": "nonpayable",
      "type": "function"
    },
    {
      "inputs": [
        {
          "internalType": "address",
          "name": "_recipient",
          "type": "address"
        },
        {
          "internalType": "uint256",
          "name": "_amount",
          "type": "uint256"
        }
      ],
      "name": "transferToken",
      "outputs": [],
      "stateMutability": "nonpayable",
      "type": "function"
    }
  ],
  "bytecode": "0x608060405234801561001057600080fd5b50610735806100206000396000f3fe608060405234801561001057600080fd5b50600436106100625760003560e01c80631072cbea1461006757806342966c681461008357806342b200ba1461009f5780639149e801146100bb578063a0712d68146100d7578063f8b2cb4f146100f3575b600080fd5b610081600480360381019061007c919061050a565b610123565b005b61009d6004803603810190610098919061054a565b6101c6565b005b6100b960048036038101906100b49190610577565b610256565b005b6100d560048036038101906100d0919061054a565b610299565b005b6100f160048036038101906100ec919061054a565b61033d565b005b61010d60048036038101906101089190610577565b6103cd565b60405161011a91906105b3565b60405180910390f35b60008054906101000a900473ffffffffffffffffffffffffffffffffffffffff1673ffffffffffffffffffffffffffffffffffffffff1663a9059cbb83836040518363ffffffff1660e01b815260040161017e9291906105dd565b6020604051808303816000875af115801561019d573d6000803e3d6000fd5b505050506040513d601f19601f820116820180604052508101906101c1919061063e565b505050565b60008054906101000a900473ffffffffffffffffffffffffffffffffffffffff1673ffffffffffffffffffffffffffffffffffffffff16639dc29fac33836040518363ffffffff1660e01b81526004016102219291906105dd565b600060405180830381600087803b15801561023b57600080fd5b505af115801561024f573d6000803e3d6000fd5b5050505050565b806000806101000a81548173ffffffffffffffffffffffffffffffffffffffff021916908373ffffffffffffffffffffffffffffffffffffffff16021790555050565b60008054906101000a900473ffffffffffffffffffffffffffffffffffffffff1673ffffffffffffffffffffffffffffffffffffffff166323b872dd3330846040518463ffffffff1660e01b81526004016102f69392919061066b565b6020604051808303816000875af1158015610315573d6000803e3d6000fd5b505050506040513d601f19601f82011682018060405250810190610339919061063e565b5050565b60008054906101000a900473ffffffffffffffffffffffffffffffffffffffff1673ffffffffffffffffffffffffffffffffffffffff166340c10f1933836040518363ffffffff1660e01b81526004016103989291906105dd565b600060405180830381600087803b1580156103b257600080fd5b505af11580156103c6573d6000803e3d6000fd5b5050505050565b60008060009054906101000a900473ffffffffffffffffffffffffffffffffffffffff1673ffffffffffffffffffffffffffffffffffffffff1663f8b2cb4f836040518263ffffffff1660e01b815260040161042991906106a2565b602060405180830381865afa158015610446573d6000803e3d6000fd5b505050506040513d601f19601f8201168201806040525081019061046a91906106d2565b9050919050565b600080fd5b600073ffffffffffffffffffffffffffffffffffffffff82169050919050565b60006104a182610476565b9050919050565b6104b181610496565b81146104bc57600080fd5b50565b6000813590506104ce816104a8565b92915050565b6000819050919050565b6104e7816104d4565b81146104f257600080fd5b50565b600081359050610504816104de565b92915050565b6000806040838503121561052157610520610471565b5b600061052f858286016104bf565b9250506020610540858286016104f5565b9150509250929050565b6000602082840312156105605761055f610471565b5b600061056e848285016104f5565b91505092915050565b60006020828403121561058d5761058c610471565b5b600061059b848285016104bf565b91505092915050565b6105ad816104d4565b82525050565b60006020820190506105c860008301846105a4565b92915050565b6105d781610496565b82525050565b60006040820190506105f260008301856105ce565b6105ff60208301846105a4565b9392505050565b60008115159050919050565b61061b81610606565b811461062657600080fd5b50565b60008151905061063881610612565b92915050565b60006020828403121561065457610653610471565b5b600061066284828501610629565b91505092915050565b600060608201905061068060008301866105ce565b61068d60208301856105ce565b61069a60408301846105a4565b949350505050565b60006020820190506106b760008301846105ce565b92915050565b6000815190506106cc816104de565b92915050565b6000602082840312156106e8576106e7610471565b5b60006106f6848285016106bd565b9150509291505056fea2646970667358221220a7254400452930d5c4c0824913ff0baebf59318fcf1a878d8fc01815b602cb4164736f6c63430008110033",
  "linkReferences": {},
  "deployedLinkReferences": {}
}