{
  "_format": "hh-sol-artifact-1",
  "contractName": "CreditScore",
  "sourceName": "contracts/CreditScore.sol",
  "abi": [
    {
      "inputs": [
        {
          "internalType": "address",
          "name": "_user",
          "type": "address"
        }
      ],
      "name": "calculateCommitmentToken",
      "outputs": [
        {
          "internalType": "uint256",
          "name": "",
          "type": "uint256"
        }
      ],
      "stateMutability": "nonpayable",
      "type": "function"
    },
    {
      "inputs": [
        {
          "internalType": "address",
          "name": "_userAddress",
          "type": "address"
        }
      ],
      "name": "calculateScoreByPercentTaskDone",
      "outputs": [
        {
          "internalType": "uint256",
          "name": "",
          "type": "uint256"
        }
      ],
      "stateMutability": "nonpayable",
      "type": "function"
    },
    {
      "inputs": [
        {
          "internalType": "uint256",
          "name": "_taskId",
          "type": "uint256"
        },
        {
          "internalType": "address",
          "name": "_doer",
          "type": "address"
        },
        {
          "internalType": "uint256",
          "name": "_percentageDone",
          "type": "uint256"
        }
      ],
      "name": "saveTaskDone",
      "outputs": [],
      "stateMutability": "nonpayable",
      "type": "function"
    },
    {
      "inputs": [
        {
          "internalType": "uint256",
          "name": "",
          "type": "uint256"
        }
      ],
      "name": "taskDoneIdTaskDone",
      "outputs": [
        {
          "internalType": "uint256",
          "name": "taskId",
          "type": "uint256"
        },
        {
          "internalType": "uint256",
          "name": "percentageDone",
          "type": "uint256"
        }
      ],
      "stateMutability": "view",
      "type": "function"
    },
    {
      "inputs": [
        {
          "internalType": "address",
          "name": "",
          "type": "address"
        }
      ],
      "name": "userAddressToUser",
      "outputs": [
        {
          "internalType": "address",
          "name": "userAddress",
          "type": "address"
        },
        {
          "internalType": "uint256",
          "name": "score",
          "type": "uint256"
        }
      ],
      "stateMutability": "view",
      "type": "function"
    }
  ],
  "bytecode": "0x608060405234801561001057600080fd5b50610a72806100206000396000f3fe608060405234801561001057600080fd5b50600436106100575760003560e01c806325dba0431461005c578063587307461461008d5780635ebf340e146100a9578063c1324de1146100d9578063f919bdf61461010a575b600080fd5b6100766004803603810190610071919061079e565b61013a565b6040516100849291906107da565b60405180910390f35b6100a760048036038101906100a29190610861565b61015e565b005b6100c360048036038101906100be91906108b4565b6103f4565b6040516100d091906108e1565b60405180910390f35b6100f360048036038101906100ee91906108b4565b61041d565b60405161010192919061090b565b60405180910390f35b610124600480360381019061011f91906108b4565b610461565b60405161013191906108e1565b60405180910390f35b60026020528060005260406000206000915090508060000154908060010154905082565b600073ffffffffffffffffffffffffffffffffffffffff16600160008473ffffffffffffffffffffffffffffffffffffffff1673ffffffffffffffffffffffffffffffffffffffff16815260200190815260200160002060000160009054906101000a900473ffffffffffffffffffffffffffffffffffffffff1673ffffffffffffffffffffffffffffffffffffffff16036103855760006003600160038054905061020a9190610963565b8154811061021b5761021a610997565b5b90600052602060002090600302019050828160000160006101000a81548173ffffffffffffffffffffffffffffffffffffffff021916908373ffffffffffffffffffffffffffffffffffffffff1602179055508060020184908060018154018082558091505060019003906000526020600020016000909190919091505581600260008681526020019081526020016000206001018190555080600160008573ffffffffffffffffffffffffffffffffffffffff1673ffffffffffffffffffffffffffffffffffffffff1681526020019081526020016000206000820160009054906101000a900473ffffffffffffffffffffffffffffffffffffffff168160000160006101000a81548173ffffffffffffffffffffffffffffffffffffffff021916908373ffffffffffffffffffffffffffffffffffffffff16021790555060018201548160010155600282018160020190805461037b9291906106f4565b50905050506103ef565b600160008373ffffffffffffffffffffffffffffffffffffffff1673ffffffffffffffffffffffffffffffffffffffff1681526020019081526020016000206002018390806001815401808255809150506001900390600052602060002001600090919091909150555b505050565b60008061040083610461565b9050600060028261041191906109c6565b90508092505050919050565b60016020528060005260406000206000915090508060000160009054906101000a900473ffffffffffffffffffffffffffffffffffffffff16908060010154905082565b60008060009050600160008473ffffffffffffffffffffffffffffffffffffffff1673ffffffffffffffffffffffffffffffffffffffff168152602001908152602001600020600201805490508110156106ed57603c60026000600160008773ffffffffffffffffffffffffffffffffffffffff1673ffffffffffffffffffffffffffffffffffffffff168152602001908152602001600020600201848154811061050f5761050e610997565b5b906000526020600020015481526020019081526020016000206001015411156105905760018060008573ffffffffffffffffffffffffffffffffffffffff1673ffffffffffffffffffffffffffffffffffffffff16815260200190815260200160002060010160008282546105849190610963565b925050819055506106a2565b601e60026000600160008773ffffffffffffffffffffffffffffffffffffffff1673ffffffffffffffffffffffffffffffffffffffff16815260200190815260200160002060020184815481106105ea576105e9610997565b5b9060005260206000200154815260200190815260200160002060010154106106a15760018060008573ffffffffffffffffffffffffffffffffffffffff1673ffffffffffffffffffffffffffffffffffffffff1681526020019081526020016000206001015461065a9190610a08565b600160008573ffffffffffffffffffffffffffffffffffffffff1673ffffffffffffffffffffffffffffffffffffffff168152602001908152602001600020600101819055505b5b600160008473ffffffffffffffffffffffffffffffffffffffff1673ffffffffffffffffffffffffffffffffffffffff168152602001908152602001600020600101549150506106ef565b505b919050565b8280548282559060005260206000209081019282156107355760005260206000209182015b82811115610734578254825591600101919060010190610719565b5b5090506107429190610746565b5090565b5b8082111561075f576000816000905550600101610747565b5090565b600080fd5b6000819050919050565b61077b81610768565b811461078657600080fd5b50565b60008135905061079881610772565b92915050565b6000602082840312156107b4576107b3610763565b5b60006107c284828501610789565b91505092915050565b6107d481610768565b82525050565b60006040820190506107ef60008301856107cb565b6107fc60208301846107cb565b9392505050565b600073ffffffffffffffffffffffffffffffffffffffff82169050919050565b600061082e82610803565b9050919050565b61083e81610823565b811461084957600080fd5b50565b60008135905061085b81610835565b92915050565b60008060006060848603121561087a57610879610763565b5b600061088886828701610789565b93505060206108998682870161084c565b92505060406108aa86828701610789565b9150509250925092565b6000602082840312156108ca576108c9610763565b5b60006108d88482850161084c565b91505092915050565b60006020820190506108f660008301846107cb565b92915050565b61090581610823565b82525050565b600060408201905061092060008301856108fc565b61092d60208301846107cb565b9392505050565b7f4e487b7100000000000000000000000000000000000000000000000000000000600052601160045260246000fd5b600061096e82610768565b915061097983610768565b925082820190508082111561099157610990610934565b5b92915050565b7f4e487b7100000000000000000000000000000000000000000000000000000000600052603260045260246000fd5b60006109d182610768565b91506109dc83610768565b92508282026109ea81610768565b91508282048414831517610a0157610a00610934565b5b5092915050565b6000610a1382610768565b9150610a1e83610768565b9250828203905081811115610a3657610a35610934565b5b9291505056fea2646970667358221220496caf7ec81c1a46ffbb8b25749f236ee4dd11402cbd25a0262f41de85e2a03f64736f6c63430008110033",
  "linkReferences": {},
  "deployedLinkReferences": {}
}